{
	"contracts/course_demo/21_NestedMappingDemo.sol": {
		"NestedMappingDemo": {
			"abi": [
				{
					"inputs": [
						{
							"internalType": "address",
							"name": "_user",
							"type": "address"
						},
						{
							"internalType": "uint256",
							"name": "_resourceId",
							"type": "uint256"
						}
					],
					"name": "hasPermission",
					"outputs": [
						{
							"internalType": "bool",
							"name": "",
							"type": "bool"
						}
					],
					"stateMutability": "view",
					"type": "function"
				},
				{
					"inputs": [
						{
							"internalType": "address",
							"name": "",
							"type": "address"
						},
						{
							"internalType": "uint256",
							"name": "",
							"type": "uint256"
						}
					],
					"name": "permissions",
					"outputs": [
						{
							"internalType": "bool",
							"name": "",
							"type": "bool"
						}
					],
					"stateMutability": "view",
					"type": "function"
				},
				{
					"inputs": [
						{
							"internalType": "address",
							"name": "_user",
							"type": "address"
						},
						{
							"internalType": "uint256",
							"name": "_resourceId",
							"type": "uint256"
						},
						{
							"internalType": "bool",
							"name": "_hasAccess",
							"type": "bool"
						}
					],
					"name": "setPermission",
					"outputs": [],
					"stateMutability": "nonpayable",
					"type": "function"
				}
			],
			"devdoc": {
				"kind": "dev",
				"methods": {},
				"version": 1
			},
			"evm": {
				"assembly": "    /* \"contracts/course_demo/21_NestedMappingDemo.sol\":60:499  contract NestedMappingDemo {... */\n  mstore(0x40, 0x80)\n  callvalue\n  dup1\n  iszero\n  tag_1\n  jumpi\n  0x00\n  dup1\n  revert\ntag_1:\n  pop\n  dataSize(sub_0)\n  dup1\n  dataOffset(sub_0)\n  0x00\n  codecopy\n  0x00\n  return\nstop\n\nsub_0: assembly {\n        /* \"contracts/course_demo/21_NestedMappingDemo.sol\":60:499  contract NestedMappingDemo {... */\n      mstore(0x40, 0x80)\n      callvalue\n      dup1\n      iszero\n      tag_1\n      jumpi\n      0x00\n      dup1\n      revert\n    tag_1:\n      pop\n      jumpi(tag_2, lt(calldatasize, 0x04))\n      shr(0xe0, calldataload(0x00))\n      dup1\n      0x8d944fd9\n      eq\n      tag_3\n      jumpi\n      dup1\n      0xc010fff7\n      eq\n      tag_4\n      jumpi\n      dup1\n      0xe9d79b0e\n      eq\n      tag_5\n      jumpi\n    tag_2:\n      0x00\n      dup1\n      revert\n        /* \"contracts/course_demo/21_NestedMappingDemo.sol\":356:496  function hasPermission(address _user, uint _resourceId) public view returns (bool) {... */\n    tag_3:\n      tag_6\n      0x04\n      dup1\n      calldatasize\n      sub\n      dup2\n      add\n      swap1\n      tag_7\n      swap2\n      swap1\n      tag_8\n      jump\t// in\n    tag_7:\n      tag_9\n      jump\t// in\n    tag_6:\n      mload(0x40)\n      tag_10\n      swap2\n      swap1\n      tag_11\n      jump\t// in\n    tag_10:\n      mload(0x40)\n      dup1\n      swap2\n      sub\n      swap1\n      return\n        /* \"contracts/course_demo/21_NestedMappingDemo.sol\":184:327  function setPermission(address _user, uint _resourceId, bool _hasAccess) public {... */\n    tag_4:\n      tag_12\n      0x04\n      dup1\n      calldatasize\n      sub\n      dup2\n      add\n      swap1\n      tag_13\n      swap2\n      swap1\n      tag_14\n      jump\t// in\n    tag_13:\n      tag_15\n      jump\t// in\n    tag_12:\n      stop\n        /* \"contracts/course_demo/21_NestedMappingDemo.sol\":94:154  mapping(address => mapping(uint => bool)) public permissions */\n    tag_5:\n      tag_16\n      0x04\n      dup1\n      calldatasize\n      sub\n      dup2\n      add\n      swap1\n      tag_17\n      swap2\n      swap1\n      tag_8\n      jump\t// in\n    tag_17:\n      tag_18\n      jump\t// in\n    tag_16:\n      mload(0x40)\n      tag_19\n      swap2\n      swap1\n      tag_11\n      jump\t// in\n    tag_19:\n      mload(0x40)\n      dup1\n      swap2\n      sub\n      swap1\n      return\n        /* \"contracts/course_demo/21_NestedMappingDemo.sol\":356:496  function hasPermission(address _user, uint _resourceId) public view returns (bool) {... */\n    tag_9:\n        /* \"contracts/course_demo/21_NestedMappingDemo.sol\":433:437  bool */\n      0x00\n        /* \"contracts/course_demo/21_NestedMappingDemo.sol\":457:468  permissions */\n      dup1\n        /* \"contracts/course_demo/21_NestedMappingDemo.sol\":457:475  permissions[_user] */\n      0x00\n        /* \"contracts/course_demo/21_NestedMappingDemo.sol\":469:474  _user */\n      dup5\n        /* \"contracts/course_demo/21_NestedMappingDemo.sol\":457:475  permissions[_user] */\n      0xffffffffffffffffffffffffffffffffffffffff\n      and\n      0xffffffffffffffffffffffffffffffffffffffff\n      and\n      dup2\n      mstore\n      0x20\n      add\n      swap1\n      dup2\n      mstore\n      0x20\n      add\n      0x00\n      keccak256\n        /* \"contracts/course_demo/21_NestedMappingDemo.sol\":457:488  permissions[_user][_resourceId] */\n      0x00\n        /* \"contracts/course_demo/21_NestedMappingDemo.sol\":476:487  _resourceId */\n      dup4\n        /* \"contracts/course_demo/21_NestedMappingDemo.sol\":457:488  permissions[_user][_resourceId] */\n      dup2\n      mstore\n      0x20\n      add\n      swap1\n      dup2\n      mstore\n      0x20\n      add\n      0x00\n      keccak256\n      0x00\n      swap1\n      sload\n      swap1\n      0x0100\n      exp\n      swap1\n      div\n      0xff\n      and\n        /* \"contracts/course_demo/21_NestedMappingDemo.sol\":450:488  return permissions[_user][_resourceId] */\n      swap1\n      pop\n        /* \"contracts/course_demo/21_NestedMappingDemo.sol\":356:496  function hasPermission(address _user, uint _resourceId) public view returns (bool) {... */\n      swap3\n      swap2\n      pop\n      pop\n      jump\t// out\n        /* \"contracts/course_demo/21_NestedMappingDemo.sol\":184:327  function setPermission(address _user, uint _resourceId, bool _hasAccess) public {... */\n    tag_15:\n        /* \"contracts/course_demo/21_NestedMappingDemo.sol\":309:319  _hasAccess */\n      dup1\n        /* \"contracts/course_demo/21_NestedMappingDemo.sol\":275:286  permissions */\n      0x00\n        /* \"contracts/course_demo/21_NestedMappingDemo.sol\":275:293  permissions[_user] */\n      dup1\n        /* \"contracts/course_demo/21_NestedMappingDemo.sol\":287:292  _user */\n      dup6\n        /* \"contracts/course_demo/21_NestedMappingDemo.sol\":275:293  permissions[_user] */\n      0xffffffffffffffffffffffffffffffffffffffff\n      and\n      0xffffffffffffffffffffffffffffffffffffffff\n      and\n      dup2\n      mstore\n      0x20\n      add\n      swap1\n      dup2\n      mstore\n      0x20\n      add\n      0x00\n      keccak256\n        /* \"contracts/course_demo/21_NestedMappingDemo.sol\":275:306  permissions[_user][_resourceId] */\n      0x00\n        /* \"contracts/course_demo/21_NestedMappingDemo.sol\":294:305  _resourceId */\n      dup5\n        /* \"contracts/course_demo/21_NestedMappingDemo.sol\":275:306  permissions[_user][_resourceId] */\n      dup2\n      mstore\n      0x20\n      add\n      swap1\n      dup2\n      mstore\n      0x20\n      add\n      0x00\n      keccak256\n      0x00\n        /* \"contracts/course_demo/21_NestedMappingDemo.sol\":275:319  permissions[_user][_resourceId] = _hasAccess */\n      0x0100\n      exp\n      dup2\n      sload\n      dup2\n      0xff\n      mul\n      not\n      and\n      swap1\n      dup4\n      iszero\n      iszero\n      mul\n      or\n      swap1\n      sstore\n      pop\n        /* \"contracts/course_demo/21_NestedMappingDemo.sol\":184:327  function setPermission(address _user, uint _resourceId, bool _hasAccess) public {... */\n      pop\n      pop\n      pop\n      jump\t// out\n        /* \"contracts/course_demo/21_NestedMappingDemo.sol\":94:154  mapping(address => mapping(uint => bool)) public permissions */\n    tag_18:\n      mstore(0x20, 0x00)\n      dup2\n      0x00\n      mstore\n      mstore(0x20, keccak256(0x00, 0x40))\n      dup1\n      0x00\n      mstore\n      keccak256(0x00, 0x40)\n      0x00\n      swap2\n      pop\n      swap2\n      pop\n      swap1\n      sload\n      swap1\n      0x0100\n      exp\n      swap1\n      div\n      0xff\n      and\n      dup2\n      jump\t// out\n        /* \"#utility.yul\":88:205   */\n    tag_23:\n        /* \"#utility.yul\":197:198   */\n      0x00\n        /* \"#utility.yul\":194:195   */\n      dup1\n        /* \"#utility.yul\":187:199   */\n      revert\n        /* \"#utility.yul\":334:460   */\n    tag_25:\n        /* \"#utility.yul\":371:378   */\n      0x00\n        /* \"#utility.yul\":411:453   */\n      0xffffffffffffffffffffffffffffffffffffffff\n        /* \"#utility.yul\":404:409   */\n      dup3\n        /* \"#utility.yul\":400:454   */\n      and\n        /* \"#utility.yul\":389:454   */\n      swap1\n      pop\n        /* \"#utility.yul\":334:460   */\n      swap2\n      swap1\n      pop\n      jump\t// out\n        /* \"#utility.yul\":466:562   */\n    tag_26:\n        /* \"#utility.yul\":503:510   */\n      0x00\n        /* \"#utility.yul\":532:556   */\n      tag_42\n        /* \"#utility.yul\":550:555   */\n      dup3\n        /* \"#utility.yul\":532:556   */\n      tag_25\n      jump\t// in\n    tag_42:\n        /* \"#utility.yul\":521:556   */\n      swap1\n      pop\n        /* \"#utility.yul\":466:562   */\n      swap2\n      swap1\n      pop\n      jump\t// out\n        /* \"#utility.yul\":568:690   */\n    tag_27:\n        /* \"#utility.yul\":641:665   */\n      tag_44\n        /* \"#utility.yul\":659:664   */\n      dup2\n        /* \"#utility.yul\":641:665   */\n      tag_26\n      jump\t// in\n    tag_44:\n        /* \"#utility.yul\":634:639   */\n      dup2\n        /* \"#utility.yul\":631:666   */\n      eq\n        /* \"#utility.yul\":621:684   */\n      tag_45\n      jumpi\n        /* \"#utility.yul\":680:681   */\n      0x00\n        /* \"#utility.yul\":677:678   */\n      dup1\n        /* \"#utility.yul\":670:682   */\n      revert\n        /* \"#utility.yul\":621:684   */\n    tag_45:\n        /* \"#utility.yul\":568:690   */\n      pop\n      jump\t// out\n        /* \"#utility.yul\":696:835   */\n    tag_28:\n        /* \"#utility.yul\":742:747   */\n      0x00\n        /* \"#utility.yul\":780:786   */\n      dup2\n        /* \"#utility.yul\":767:787   */\n      calldataload\n        /* \"#utility.yul\":758:787   */\n      swap1\n      pop\n        /* \"#utility.yul\":796:829   */\n      tag_47\n        /* \"#utility.yul\":823:828   */\n      dup2\n        /* \"#utility.yul\":796:829   */\n      tag_27\n      jump\t// in\n    tag_47:\n        /* \"#utility.yul\":696:835   */\n      swap3\n      swap2\n      pop\n      pop\n      jump\t// out\n        /* \"#utility.yul\":841:918   */\n    tag_29:\n        /* \"#utility.yul\":878:885   */\n      0x00\n        /* \"#utility.yul\":907:912   */\n      dup2\n        /* \"#utility.yul\":896:912   */\n      swap1\n      pop\n        /* \"#utility.yul\":841:918   */\n      swap2\n      swap1\n      pop\n      jump\t// out\n        /* \"#utility.yul\":924:1046   */\n    tag_30:\n        /* \"#utility.yul\":997:1021   */\n      tag_50\n        /* \"#utility.yul\":1015:1020   */\n      dup2\n        /* \"#utility.yul\":997:1021   */\n      tag_29\n      jump\t// in\n    tag_50:\n        /* \"#utility.yul\":990:995   */\n      dup2\n        /* \"#utility.yul\":987:1022   */\n      eq\n        /* \"#utility.yul\":977:1040   */\n      tag_51\n      jumpi\n        /* \"#utility.yul\":1036:1037   */\n      0x00\n        /* \"#utility.yul\":1033:1034   */\n      dup1\n        /* \"#utility.yul\":1026:1038   */\n      revert\n        /* \"#utility.yul\":977:1040   */\n    tag_51:\n        /* \"#utility.yul\":924:1046   */\n      pop\n      jump\t// out\n        /* \"#utility.yul\":1052:1191   */\n    tag_31:\n        /* \"#utility.yul\":1098:1103   */\n      0x00\n        /* \"#utility.yul\":1136:1142   */\n      dup2\n        /* \"#utility.yul\":1123:1143   */\n      calldataload\n        /* \"#utility.yul\":1114:1143   */\n      swap1\n      pop\n        /* \"#utility.yul\":1152:1185   */\n      tag_53\n        /* \"#utility.yul\":1179:1184   */\n      dup2\n        /* \"#utility.yul\":1152:1185   */\n      tag_30\n      jump\t// in\n    tag_53:\n        /* \"#utility.yul\":1052:1191   */\n      swap3\n      swap2\n      pop\n      pop\n      jump\t// out\n        /* \"#utility.yul\":1197:1671   */\n    tag_8:\n        /* \"#utility.yul\":1265:1271   */\n      0x00\n        /* \"#utility.yul\":1273:1279   */\n      dup1\n        /* \"#utility.yul\":1322:1324   */\n      0x40\n        /* \"#utility.yul\":1310:1319   */\n      dup4\n        /* \"#utility.yul\":1301:1308   */\n      dup6\n        /* \"#utility.yul\":1297:1320   */\n      sub\n        /* \"#utility.yul\":1293:1325   */\n      slt\n        /* \"#utility.yul\":1290:1409   */\n      iszero\n      tag_55\n      jumpi\n        /* \"#utility.yul\":1328:1407   */\n      tag_56\n      tag_23\n      jump\t// in\n    tag_56:\n        /* \"#utility.yul\":1290:1409   */\n    tag_55:\n        /* \"#utility.yul\":1448:1449   */\n      0x00\n        /* \"#utility.yul\":1473:1526   */\n      tag_57\n        /* \"#utility.yul\":1518:1525   */\n      dup6\n        /* \"#utility.yul\":1509:1515   */\n      dup3\n        /* \"#utility.yul\":1498:1507   */\n      dup7\n        /* \"#utility.yul\":1494:1516   */\n      add\n        /* \"#utility.yul\":1473:1526   */\n      tag_28\n      jump\t// in\n    tag_57:\n        /* \"#utility.yul\":1463:1526   */\n      swap3\n      pop\n        /* \"#utility.yul\":1419:1536   */\n      pop\n        /* \"#utility.yul\":1575:1577   */\n      0x20\n        /* \"#utility.yul\":1601:1654   */\n      tag_58\n        /* \"#utility.yul\":1646:1653   */\n      dup6\n        /* \"#utility.yul\":1637:1643   */\n      dup3\n        /* \"#utility.yul\":1626:1635   */\n      dup7\n        /* \"#utility.yul\":1622:1644   */\n      add\n        /* \"#utility.yul\":1601:1654   */\n      tag_31\n      jump\t// in\n    tag_58:\n        /* \"#utility.yul\":1591:1654   */\n      swap2\n      pop\n        /* \"#utility.yul\":1546:1664   */\n      pop\n        /* \"#utility.yul\":1197:1671   */\n      swap3\n      pop\n      swap3\n      swap1\n      pop\n      jump\t// out\n        /* \"#utility.yul\":1677:1767   */\n    tag_32:\n        /* \"#utility.yul\":1711:1718   */\n      0x00\n        /* \"#utility.yul\":1754:1759   */\n      dup2\n        /* \"#utility.yul\":1747:1760   */\n      iszero\n        /* \"#utility.yul\":1740:1761   */\n      iszero\n        /* \"#utility.yul\":1729:1761   */\n      swap1\n      pop\n        /* \"#utility.yul\":1677:1767   */\n      swap2\n      swap1\n      pop\n      jump\t// out\n        /* \"#utility.yul\":1773:1882   */\n    tag_33:\n        /* \"#utility.yul\":1854:1875   */\n      tag_61\n        /* \"#utility.yul\":1869:1874   */\n      dup2\n        /* \"#utility.yul\":1854:1875   */\n      tag_32\n      jump\t// in\n    tag_61:\n        /* \"#utility.yul\":1849:1852   */\n      dup3\n        /* \"#utility.yul\":1842:1876   */\n      mstore\n        /* \"#utility.yul\":1773:1882   */\n      pop\n      pop\n      jump\t// out\n        /* \"#utility.yul\":1888:2098   */\n    tag_11:\n        /* \"#utility.yul\":1975:1979   */\n      0x00\n        /* \"#utility.yul\":2013:2015   */\n      0x20\n        /* \"#utility.yul\":2002:2011   */\n      dup3\n        /* \"#utility.yul\":1998:2016   */\n      add\n        /* \"#utility.yul\":1990:2016   */\n      swap1\n      pop\n        /* \"#utility.yul\":2026:2091   */\n      tag_63\n        /* \"#utility.yul\":2088:2089   */\n      0x00\n        /* \"#utility.yul\":2077:2086   */\n      dup4\n        /* \"#utility.yul\":2073:2090   */\n      add\n        /* \"#utility.yul\":2064:2070   */\n      dup5\n        /* \"#utility.yul\":2026:2091   */\n      tag_33\n      jump\t// in\n    tag_63:\n        /* \"#utility.yul\":1888:2098   */\n      swap3\n      swap2\n      pop\n      pop\n      jump\t// out\n        /* \"#utility.yul\":2104:2220   */\n    tag_34:\n        /* \"#utility.yul\":2174:2195   */\n      tag_65\n        /* \"#utility.yul\":2189:2194   */\n      dup2\n        /* \"#utility.yul\":2174:2195   */\n      tag_32\n      jump\t// in\n    tag_65:\n        /* \"#utility.yul\":2167:2172   */\n      dup2\n        /* \"#utility.yul\":2164:2196   */\n      eq\n        /* \"#utility.yul\":2154:2214   */\n      tag_66\n      jumpi\n        /* \"#utility.yul\":2210:2211   */\n      0x00\n        /* \"#utility.yul\":2207:2208   */\n      dup1\n        /* \"#utility.yul\":2200:2212   */\n      revert\n        /* \"#utility.yul\":2154:2214   */\n    tag_66:\n        /* \"#utility.yul\":2104:2220   */\n      pop\n      jump\t// out\n        /* \"#utility.yul\":2226:2359   */\n    tag_35:\n        /* \"#utility.yul\":2269:2274   */\n      0x00\n        /* \"#utility.yul\":2307:2313   */\n      dup2\n        /* \"#utility.yul\":2294:2314   */\n      calldataload\n        /* \"#utility.yul\":2285:2314   */\n      swap1\n      pop\n        /* \"#utility.yul\":2323:2353   */\n      tag_68\n        /* \"#utility.yul\":2347:2352   */\n      dup2\n        /* \"#utility.yul\":2323:2353   */\n      tag_34\n      jump\t// in\n    tag_68:\n        /* \"#utility.yul\":2226:2359   */\n      swap3\n      swap2\n      pop\n      pop\n      jump\t// out\n        /* \"#utility.yul\":2365:2978   */\n    tag_14:\n        /* \"#utility.yul\":2439:2445   */\n      0x00\n        /* \"#utility.yul\":2447:2453   */\n      dup1\n        /* \"#utility.yul\":2455:2461   */\n      0x00\n        /* \"#utility.yul\":2504:2506   */\n      0x60\n        /* \"#utility.yul\":2492:2501   */\n      dup5\n        /* \"#utility.yul\":2483:2490   */\n      dup7\n        /* \"#utility.yul\":2479:2502   */\n      sub\n        /* \"#utility.yul\":2475:2507   */\n      slt\n        /* \"#utility.yul\":2472:2591   */\n      iszero\n      tag_70\n      jumpi\n        /* \"#utility.yul\":2510:2589   */\n      tag_71\n      tag_23\n      jump\t// in\n    tag_71:\n        /* \"#utility.yul\":2472:2591   */\n    tag_70:\n        /* \"#utility.yul\":2630:2631   */\n      0x00\n        /* \"#utility.yul\":2655:2708   */\n      tag_72\n        /* \"#utility.yul\":2700:2707   */\n      dup7\n        /* \"#utility.yul\":2691:2697   */\n      dup3\n        /* \"#utility.yul\":2680:2689   */\n      dup8\n        /* \"#utility.yul\":2676:2698   */\n      add\n        /* \"#utility.yul\":2655:2708   */\n      tag_28\n      jump\t// in\n    tag_72:\n        /* \"#utility.yul\":2645:2708   */\n      swap4\n      pop\n        /* \"#utility.yul\":2601:2718   */\n      pop\n        /* \"#utility.yul\":2757:2759   */\n      0x20\n        /* \"#utility.yul\":2783:2836   */\n      tag_73\n        /* \"#utility.yul\":2828:2835   */\n      dup7\n        /* \"#utility.yul\":2819:2825   */\n      dup3\n        /* \"#utility.yul\":2808:2817   */\n      dup8\n        /* \"#utility.yul\":2804:2826   */\n      add\n        /* \"#utility.yul\":2783:2836   */\n      tag_31\n      jump\t// in\n    tag_73:\n        /* \"#utility.yul\":2773:2836   */\n      swap3\n      pop\n        /* \"#utility.yul\":2728:2846   */\n      pop\n        /* \"#utility.yul\":2885:2887   */\n      0x40\n        /* \"#utility.yul\":2911:2961   */\n      tag_74\n        /* \"#utility.yul\":2953:2960   */\n      dup7\n        /* \"#utility.yul\":2944:2950   */\n      dup3\n        /* \"#utility.yul\":2933:2942   */\n      dup8\n        /* \"#utility.yul\":2929:2951   */\n      add\n        /* \"#utility.yul\":2911:2961   */\n      tag_35\n      jump\t// in\n    tag_74:\n        /* \"#utility.yul\":2901:2961   */\n      swap2\n      pop\n        /* \"#utility.yul\":2856:2971   */\n      pop\n        /* \"#utility.yul\":2365:2978   */\n      swap3\n      pop\n      swap3\n      pop\n      swap3\n      jump\t// out\n\n    auxdata: 0xa2646970667358221220a78c2eb3633d483c7467f2fc0d26f903374cccc4bf2ea5102dca26e58e65d5d864736f6c634300081a0033\n}\n",
				"bytecode": {
					"linkReferences": {},
					"object": "6080604052348015600e575f80fd5b506103628061001c5f395ff3fe608060405234801561000f575f80fd5b506004361061003f575f3560e01c80638d944fd914610043578063c010fff714610073578063e9d79b0e1461008f575b5f80fd5b61005d60048036038101906100589190610241565b6100bf565b60405161006a9190610299565b60405180910390f35b61008d600480360381019061008891906102dc565b610120565b005b6100a960048036038101906100a49190610241565b610187565b6040516100b69190610299565b60405180910390f35b5f805f8473ffffffffffffffffffffffffffffffffffffffff1673ffffffffffffffffffffffffffffffffffffffff1681526020019081526020015f205f8381526020019081526020015f205f9054906101000a900460ff16905092915050565b805f808573ffffffffffffffffffffffffffffffffffffffff1673ffffffffffffffffffffffffffffffffffffffff1681526020019081526020015f205f8481526020019081526020015f205f6101000a81548160ff021916908315150217905550505050565b5f602052815f5260405f20602052805f5260405f205f915091509054906101000a900460ff1681565b5f80fd5b5f73ffffffffffffffffffffffffffffffffffffffff82169050919050565b5f6101dd826101b4565b9050919050565b6101ed816101d3565b81146101f7575f80fd5b50565b5f81359050610208816101e4565b92915050565b5f819050919050565b6102208161020e565b811461022a575f80fd5b50565b5f8135905061023b81610217565b92915050565b5f8060408385031215610257576102566101b0565b5b5f610264858286016101fa565b92505060206102758582860161022d565b9150509250929050565b5f8115159050919050565b6102938161027f565b82525050565b5f6020820190506102ac5f83018461028a565b92915050565b6102bb8161027f565b81146102c5575f80fd5b50565b5f813590506102d6816102b2565b92915050565b5f805f606084860312156102f3576102f26101b0565b5b5f610300868287016101fa565b93505060206103118682870161022d565b9250506040610322868287016102c8565b915050925092509256fea2646970667358221220a78c2eb3633d483c7467f2fc0d26f903374cccc4bf2ea5102dca26e58e65d5d864736f6c634300081a0033",
					"opcodes": "PUSH1 0x80 PUSH1 0x40 MSTORE CALLVALUE DUP1 ISZERO PUSH1 0xE JUMPI PUSH0 DUP1 REVERT JUMPDEST POP PUSH2 0x362 DUP1 PUSH2 0x1C PUSH0 CODECOPY PUSH0 RETURN INVALID PUSH1 0x80 PUSH1 0x40 MSTORE CALLVALUE DUP1 ISZERO PUSH2 0xF JUMPI PUSH0 DUP1 REVERT JUMPDEST POP PUSH1 0x4 CALLDATASIZE LT PUSH2 0x3F JUMPI PUSH0 CALLDATALOAD PUSH1 0xE0 SHR DUP1 PUSH4 0x8D944FD9 EQ PUSH2 0x43 JUMPI DUP1 PUSH4 0xC010FFF7 EQ PUSH2 0x73 JUMPI DUP1 PUSH4 0xE9D79B0E EQ PUSH2 0x8F JUMPI JUMPDEST PUSH0 DUP1 REVERT JUMPDEST PUSH2 0x5D PUSH1 0x4 DUP1 CALLDATASIZE SUB DUP2 ADD SWAP1 PUSH2 0x58 SWAP2 SWAP1 PUSH2 0x241 JUMP JUMPDEST PUSH2 0xBF JUMP JUMPDEST PUSH1 0x40 MLOAD PUSH2 0x6A SWAP2 SWAP1 PUSH2 0x299 JUMP JUMPDEST PUSH1 0x40 MLOAD DUP1 SWAP2 SUB SWAP1 RETURN JUMPDEST PUSH2 0x8D PUSH1 0x4 DUP1 CALLDATASIZE SUB DUP2 ADD SWAP1 PUSH2 0x88 SWAP2 SWAP1 PUSH2 0x2DC JUMP JUMPDEST PUSH2 0x120 JUMP JUMPDEST STOP JUMPDEST PUSH2 0xA9 PUSH1 0x4 DUP1 CALLDATASIZE SUB DUP2 ADD SWAP1 PUSH2 0xA4 SWAP2 SWAP1 PUSH2 0x241 JUMP JUMPDEST PUSH2 0x187 JUMP JUMPDEST PUSH1 0x40 MLOAD PUSH2 0xB6 SWAP2 SWAP1 PUSH2 0x299 JUMP JUMPDEST PUSH1 0x40 MLOAD DUP1 SWAP2 SUB SWAP1 RETURN JUMPDEST PUSH0 DUP1 PUSH0 DUP5 PUSH20 0xFFFFFFFFFFFFFFFFFFFFFFFFFFFFFFFFFFFFFFFF AND PUSH20 0xFFFFFFFFFFFFFFFFFFFFFFFFFFFFFFFFFFFFFFFF AND DUP2 MSTORE PUSH1 0x20 ADD SWAP1 DUP2 MSTORE PUSH1 0x20 ADD PUSH0 KECCAK256 PUSH0 DUP4 DUP2 MSTORE PUSH1 0x20 ADD SWAP1 DUP2 MSTORE PUSH1 0x20 ADD PUSH0 KECCAK256 PUSH0 SWAP1 SLOAD SWAP1 PUSH2 0x100 EXP SWAP1 DIV PUSH1 0xFF AND SWAP1 POP SWAP3 SWAP2 POP POP JUMP JUMPDEST DUP1 PUSH0 DUP1 DUP6 PUSH20 0xFFFFFFFFFFFFFFFFFFFFFFFFFFFFFFFFFFFFFFFF AND PUSH20 0xFFFFFFFFFFFFFFFFFFFFFFFFFFFFFFFFFFFFFFFF AND DUP2 MSTORE PUSH1 0x20 ADD SWAP1 DUP2 MSTORE PUSH1 0x20 ADD PUSH0 KECCAK256 PUSH0 DUP5 DUP2 MSTORE PUSH1 0x20 ADD SWAP1 DUP2 MSTORE PUSH1 0x20 ADD PUSH0 KECCAK256 PUSH0 PUSH2 0x100 EXP DUP2 SLOAD DUP2 PUSH1 0xFF MUL NOT AND SWAP1 DUP4 ISZERO ISZERO MUL OR SWAP1 SSTORE POP POP POP POP JUMP JUMPDEST PUSH0 PUSH1 0x20 MSTORE DUP2 PUSH0 MSTORE PUSH1 0x40 PUSH0 KECCAK256 PUSH1 0x20 MSTORE DUP1 PUSH0 MSTORE PUSH1 0x40 PUSH0 KECCAK256 PUSH0 SWAP2 POP SWAP2 POP SWAP1 SLOAD SWAP1 PUSH2 0x100 EXP SWAP1 DIV PUSH1 0xFF AND DUP2 JUMP JUMPDEST PUSH0 DUP1 REVERT JUMPDEST PUSH0 PUSH20 0xFFFFFFFFFFFFFFFFFFFFFFFFFFFFFFFFFFFFFFFF DUP3 AND SWAP1 POP SWAP2 SWAP1 POP JUMP JUMPDEST PUSH0 PUSH2 0x1DD DUP3 PUSH2 0x1B4 JUMP JUMPDEST SWAP1 POP SWAP2 SWAP1 POP JUMP JUMPDEST PUSH2 0x1ED DUP2 PUSH2 0x1D3 JUMP JUMPDEST DUP2 EQ PUSH2 0x1F7 JUMPI PUSH0 DUP1 REVERT JUMPDEST POP JUMP JUMPDEST PUSH0 DUP2 CALLDATALOAD SWAP1 POP PUSH2 0x208 DUP2 PUSH2 0x1E4 JUMP JUMPDEST SWAP3 SWAP2 POP POP JUMP JUMPDEST PUSH0 DUP2 SWAP1 POP SWAP2 SWAP1 POP JUMP JUMPDEST PUSH2 0x220 DUP2 PUSH2 0x20E JUMP JUMPDEST DUP2 EQ PUSH2 0x22A JUMPI PUSH0 DUP1 REVERT JUMPDEST POP JUMP JUMPDEST PUSH0 DUP2 CALLDATALOAD SWAP1 POP PUSH2 0x23B DUP2 PUSH2 0x217 JUMP JUMPDEST SWAP3 SWAP2 POP POP JUMP JUMPDEST PUSH0 DUP1 PUSH1 0x40 DUP4 DUP6 SUB SLT ISZERO PUSH2 0x257 JUMPI PUSH2 0x256 PUSH2 0x1B0 JUMP JUMPDEST JUMPDEST PUSH0 PUSH2 0x264 DUP6 DUP3 DUP7 ADD PUSH2 0x1FA JUMP JUMPDEST SWAP3 POP POP PUSH1 0x20 PUSH2 0x275 DUP6 DUP3 DUP7 ADD PUSH2 0x22D JUMP JUMPDEST SWAP2 POP POP SWAP3 POP SWAP3 SWAP1 POP JUMP JUMPDEST PUSH0 DUP2 ISZERO ISZERO SWAP1 POP SWAP2 SWAP1 POP JUMP JUMPDEST PUSH2 0x293 DUP2 PUSH2 0x27F JUMP JUMPDEST DUP3 MSTORE POP POP JUMP JUMPDEST PUSH0 PUSH1 0x20 DUP3 ADD SWAP1 POP PUSH2 0x2AC PUSH0 DUP4 ADD DUP5 PUSH2 0x28A JUMP JUMPDEST SWAP3 SWAP2 POP POP JUMP JUMPDEST PUSH2 0x2BB DUP2 PUSH2 0x27F JUMP JUMPDEST DUP2 EQ PUSH2 0x2C5 JUMPI PUSH0 DUP1 REVERT JUMPDEST POP JUMP JUMPDEST PUSH0 DUP2 CALLDATALOAD SWAP1 POP PUSH2 0x2D6 DUP2 PUSH2 0x2B2 JUMP JUMPDEST SWAP3 SWAP2 POP POP JUMP JUMPDEST PUSH0 DUP1 PUSH0 PUSH1 0x60 DUP5 DUP7 SUB SLT ISZERO PUSH2 0x2F3 JUMPI PUSH2 0x2F2 PUSH2 0x1B0 JUMP JUMPDEST JUMPDEST PUSH0 PUSH2 0x300 DUP7 DUP3 DUP8 ADD PUSH2 0x1FA JUMP JUMPDEST SWAP4 POP POP PUSH1 0x20 PUSH2 0x311 DUP7 DUP3 DUP8 ADD PUSH2 0x22D JUMP JUMPDEST SWAP3 POP POP PUSH1 0x40 PUSH2 0x322 DUP7 DUP3 DUP8 ADD PUSH2 0x2C8 JUMP JUMPDEST SWAP2 POP POP SWAP3 POP SWAP3 POP SWAP3 JUMP INVALID LOG2 PUSH5 0x6970667358 0x22 SLT KECCAK256 0xA7 DUP13 0x2E 0xB3 PUSH4 0x3D483C74 PUSH8 0xF2FC0D26F903374C 0xCC 0xC4 0xBF 0x2E 0xA5 LT 0x2D 0xCA 0x26 0xE5 DUP15 PUSH6 0xD5D864736F6C PUSH4 0x4300081A STOP CALLER "
				},
				"gasEstimates": {
					"creation": {
						"codeDepositCost": "173200",
						"executionCost": "218",
						"totalCost": "173418"
					},
					"external": {
						"hasPermission(address,uint256)": "3095",
						"permissions(address,uint256)": "3092",
						"setPermission(address,uint256,bool)": "25223"
					}
				},
				"methodIdentifiers": {
					"hasPermission(address,uint256)": "8d944fd9",
					"permissions(address,uint256)": "e9d79b0e",
					"setPermission(address,uint256,bool)": "c010fff7"
				}
			},
			"storageLayout": {
				"storage": [
					{
						"astId": 7,
						"contract": "contracts/course_demo/21_NestedMappingDemo.sol:NestedMappingDemo",
						"label": "permissions",
						"offset": 0,
						"slot": "0",
						"type": "t_mapping(t_address,t_mapping(t_uint256,t_bool))"
					}
				],
				"types": {
					"t_address": {
						"encoding": "inplace",
						"label": "address",
						"numberOfBytes": "20"
					},
					"t_bool": {
						"encoding": "inplace",
						"label": "bool",
						"numberOfBytes": "1"
					},
					"t_mapping(t_address,t_mapping(t_uint256,t_bool))": {
						"encoding": "mapping",
						"key": "t_address",
						"label": "mapping(address => mapping(uint256 => bool))",
						"numberOfBytes": "32",
						"value": "t_mapping(t_uint256,t_bool)"
					},
					"t_mapping(t_uint256,t_bool)": {
						"encoding": "mapping",
						"key": "t_uint256",
						"label": "mapping(uint256 => bool)",
						"numberOfBytes": "32",
						"value": "t_bool"
					},
					"t_uint256": {
						"encoding": "inplace",
						"label": "uint256",
						"numberOfBytes": "32"
					}
				}
			},
			"userdoc": {
				"kind": "user",
				"methods": {},
				"version": 1
			}
		}
	}
}