{
	"contracts/course_demo/25_ExceptionDemo.sol": {
		"ExceptionDemo": {
			"abi": [
				{
					"inputs": [],
					"stateMutability": "nonpayable",
					"type": "constructor"
				},
				{
					"inputs": [
						{
							"internalType": "uint256",
							"name": "requested",
							"type": "uint256"
						},
						{
							"internalType": "uint256",
							"name": "available",
							"type": "uint256"
						}
					],
					"name": "InsufficientBalance",
					"type": "error"
				},
				{
					"inputs": [],
					"name": "balanceA",
					"outputs": [
						{
							"internalType": "uint256",
							"name": "",
							"type": "uint256"
						}
					],
					"stateMutability": "view",
					"type": "function"
				},
				{
					"inputs": [
						{
							"internalType": "uint256",
							"name": "a",
							"type": "uint256"
						},
						{
							"internalType": "uint256",
							"name": "b",
							"type": "uint256"
						}
					],
					"name": "divide",
					"outputs": [
						{
							"internalType": "uint256",
							"name": "",
							"type": "uint256"
						}
					],
					"stateMutability": "pure",
					"type": "function"
				},
				{
					"inputs": [
						{
							"internalType": "uint8",
							"name": "amount",
							"type": "uint8"
						}
					],
					"name": "mint",
					"outputs": [],
					"stateMutability": "nonpayable",
					"type": "function"
				},
				{
					"inputs": [],
					"name": "onlyOwner",
					"outputs": [],
					"stateMutability": "view",
					"type": "function"
				},
				{
					"inputs": [],
					"name": "owner",
					"outputs": [
						{
							"internalType": "address",
							"name": "",
							"type": "address"
						}
					],
					"stateMutability": "view",
					"type": "function"
				},
				{
					"inputs": [],
					"name": "totalSupply",
					"outputs": [
						{
							"internalType": "uint8",
							"name": "",
							"type": "uint8"
						}
					],
					"stateMutability": "view",
					"type": "function"
				},
				{
					"inputs": [
						{
							"internalType": "uint256",
							"name": "amount",
							"type": "uint256"
						}
					],
					"name": "withdraw",
					"outputs": [],
					"stateMutability": "nonpayable",
					"type": "function"
				},
				{
					"inputs": [
						{
							"internalType": "uint256",
							"name": "amount",
							"type": "uint256"
						},
						{
							"internalType": "uint256",
							"name": "balance",
							"type": "uint256"
						}
					],
					"name": "withdraw",
					"outputs": [],
					"stateMutability": "pure",
					"type": "function"
				}
			],
			"devdoc": {
				"kind": "dev",
				"methods": {},
				"version": 1
			},
			"evm": {
				"assembly": "    /* \"contracts/course_demo/25_ExceptionDemo.sol\":60:1156  contract ExceptionDemo {... */\n  mstore(0x40, 0x80)\n    /* \"contracts/course_demo/25_ExceptionDemo.sol\":962:965  100 */\n  0x64\n    /* \"contracts/course_demo/25_ExceptionDemo.sol\":939:965  uint public balanceA = 100 */\n  0x01\n  sstore\n    /* \"contracts/course_demo/25_ExceptionDemo.sol\":148:225  constructor() {... */\n  callvalue\n  dup1\n  iszero\n  tag_1\n  jumpi\n  0x00\n  dup1\n  revert\ntag_1:\n  pop\n    /* \"contracts/course_demo/25_ExceptionDemo.sol\":181:191  msg.sender */\n  caller\n    /* \"contracts/course_demo/25_ExceptionDemo.sol\":173:178  owner */\n  0x00\n  dup1\n    /* \"contracts/course_demo/25_ExceptionDemo.sol\":173:191  owner = msg.sender */\n  0x0100\n  exp\n  dup2\n  sload\n  dup2\n  0xffffffffffffffffffffffffffffffffffffffff\n  mul\n  not\n  and\n  swap1\n  dup4\n  0xffffffffffffffffffffffffffffffffffffffff\n  and\n  mul\n  or\n  swap1\n  sstore\n  pop\n    /* \"contracts/course_demo/25_ExceptionDemo.sol\":216:217  0 */\n  0x00\n    /* \"contracts/course_demo/25_ExceptionDemo.sol\":202:213  totalSupply */\n  dup1\n  0x14\n    /* \"contracts/course_demo/25_ExceptionDemo.sol\":202:217  totalSupply = 0 */\n  0x0100\n  exp\n  dup2\n  sload\n  dup2\n  0xff\n  mul\n  not\n  and\n  swap1\n  dup4\n  0xff\n  and\n  mul\n  or\n  swap1\n  sstore\n  pop\n    /* \"contracts/course_demo/25_ExceptionDemo.sol\":60:1156  contract ExceptionDemo {... */\n  dataSize(sub_0)\n  dup1\n  dataOffset(sub_0)\n  0x00\n  codecopy\n  0x00\n  return\nstop\n\nsub_0: assembly {\n        /* \"contracts/course_demo/25_ExceptionDemo.sol\":60:1156  contract ExceptionDemo {... */\n      mstore(0x40, 0x80)\n      callvalue\n      dup1\n      iszero\n      tag_1\n      jumpi\n      0x00\n      dup1\n      revert\n    tag_1:\n      pop\n      jumpi(tag_2, lt(calldatasize, 0x04))\n      shr(0xe0, calldataload(0x00))\n      dup1\n      0x6ecd2306\n      gt\n      tag_11\n      jumpi\n      dup1\n      0x6ecd2306\n      eq\n      tag_7\n      jumpi\n      dup1\n      0x8da5cb5b\n      eq\n      tag_8\n      jumpi\n      dup1\n      0x9c4eda5c\n      eq\n      tag_9\n      jumpi\n      dup1\n      0xf88e9fbf\n      eq\n      tag_10\n      jumpi\n      jump(tag_2)\n    tag_11:\n      dup1\n      0x1036e0a8\n      eq\n      tag_3\n      jumpi\n      dup1\n      0x18160ddd\n      eq\n      tag_4\n      jumpi\n      dup1\n      0x2e1a7d4d\n      eq\n      tag_5\n      jumpi\n      dup1\n      0x441a3e70\n      eq\n      tag_6\n      jumpi\n    tag_2:\n      0x00\n      dup1\n      revert\n        /* \"contracts/course_demo/25_ExceptionDemo.sol\":291:397  function onlyOwner() public view {... */\n    tag_3:\n      tag_12\n      tag_13\n      jump\t// in\n    tag_12:\n      stop\n        /* \"contracts/course_demo/25_ExceptionDemo.sol\":117:141  uint8 public totalSupply */\n    tag_4:\n      tag_14\n      tag_15\n      jump\t// in\n    tag_14:\n      mload(0x40)\n      tag_16\n      swap2\n      swap1\n      tag_17\n      jump\t// in\n    tag_16:\n      mload(0x40)\n      dup1\n      swap2\n      sub\n      swap1\n      return\n        /* \"contracts/course_demo/25_ExceptionDemo.sol\":972:1151  function withdraw(uint amount) public {... */\n    tag_5:\n      tag_18\n      0x04\n      dup1\n      calldatasize\n      sub\n      dup2\n      add\n      swap1\n      tag_19\n      swap2\n      swap1\n      tag_20\n      jump\t// in\n    tag_19:\n      tag_21\n      jump\t// in\n    tag_18:\n      stop\n        /* \"contracts/course_demo/25_ExceptionDemo.sol\":713:867  function withdraw(uint amount, uint balance) public pure {... */\n    tag_6:\n      tag_22\n      0x04\n      dup1\n      calldatasize\n      sub\n      dup2\n      add\n      swap1\n      tag_23\n      swap2\n      swap1\n      tag_24\n      jump\t// in\n    tag_23:\n      tag_25\n      jump\t// in\n    tag_22:\n      stop\n        /* \"contracts/course_demo/25_ExceptionDemo.sol\":559:690  function mint(uint8 amount) public {... */\n    tag_7:\n      tag_26\n      0x04\n      dup1\n      calldatasize\n      sub\n      dup2\n      add\n      swap1\n      tag_27\n      swap2\n      swap1\n      tag_28\n      jump\t// in\n    tag_27:\n      tag_29\n      jump\t// in\n    tag_26:\n      stop\n        /* \"contracts/course_demo/25_ExceptionDemo.sol\":90:110  address public owner */\n    tag_8:\n      tag_30\n      tag_31\n      jump\t// in\n    tag_30:\n      mload(0x40)\n      tag_32\n      swap2\n      swap1\n      tag_33\n      jump\t// in\n    tag_32:\n      mload(0x40)\n      dup1\n      swap2\n      sub\n      swap1\n      return\n        /* \"contracts/course_demo/25_ExceptionDemo.sol\":939:965  uint public balanceA = 100 */\n    tag_9:\n      tag_34\n      tag_35\n      jump\t// in\n    tag_34:\n      mload(0x40)\n      tag_36\n      swap2\n      swap1\n      tag_37\n      jump\t// in\n    tag_36:\n      mload(0x40)\n      dup1\n      swap2\n      sub\n      swap1\n      return\n        /* \"contracts/course_demo/25_ExceptionDemo.sol\":403:538  function divide(uint a, uint b) public pure returns (uint){... */\n    tag_10:\n      tag_38\n      0x04\n      dup1\n      calldatasize\n      sub\n      dup2\n      add\n      swap1\n      tag_39\n      swap2\n      swap1\n      tag_24\n      jump\t// in\n    tag_39:\n      tag_40\n      jump\t// in\n    tag_38:\n      mload(0x40)\n      tag_41\n      swap2\n      swap1\n      tag_37\n      jump\t// in\n    tag_41:\n      mload(0x40)\n      dup1\n      swap2\n      sub\n      swap1\n      return\n        /* \"contracts/course_demo/25_ExceptionDemo.sol\":291:397  function onlyOwner() public view {... */\n    tag_13:\n        /* \"contracts/course_demo/25_ExceptionDemo.sol\":357:362  owner */\n      0x00\n      dup1\n      sload\n      swap1\n      0x0100\n      exp\n      swap1\n      div\n      0xffffffffffffffffffffffffffffffffffffffff\n      and\n        /* \"contracts/course_demo/25_ExceptionDemo.sol\":343:362  msg.sender == owner */\n      0xffffffffffffffffffffffffffffffffffffffff\n      and\n        /* \"contracts/course_demo/25_ExceptionDemo.sol\":343:353  msg.sender */\n      caller\n        /* \"contracts/course_demo/25_ExceptionDemo.sol\":343:362  msg.sender == owner */\n      0xffffffffffffffffffffffffffffffffffffffff\n      and\n      eq\n        /* \"contracts/course_demo/25_ExceptionDemo.sol\":335:389  require(msg.sender == owner, \"Not the contract owner\") */\n      tag_43\n      jumpi\n      mload(0x40)\n      0x08c379a000000000000000000000000000000000000000000000000000000000\n      dup2\n      mstore\n      0x04\n      add\n      tag_44\n      swap1\n      tag_45\n      jump\t// in\n    tag_44:\n      mload(0x40)\n      dup1\n      swap2\n      sub\n      swap1\n      revert\n    tag_43:\n        /* \"contracts/course_demo/25_ExceptionDemo.sol\":291:397  function onlyOwner() public view {... */\n      jump\t// out\n        /* \"contracts/course_demo/25_ExceptionDemo.sol\":117:141  uint8 public totalSupply */\n    tag_15:\n      0x00\n      0x14\n      swap1\n      sload\n      swap1\n      0x0100\n      exp\n      swap1\n      div\n      0xff\n      and\n      dup2\n      jump\t// out\n        /* \"contracts/course_demo/25_ExceptionDemo.sol\":972:1151  function withdraw(uint amount) public {... */\n    tag_21:\n        /* \"contracts/course_demo/25_ExceptionDemo.sol\":1034:1042  balanceA */\n      sload(0x01)\n        /* \"contracts/course_demo/25_ExceptionDemo.sol\":1025:1031  amount */\n      dup2\n        /* \"contracts/course_demo/25_ExceptionDemo.sol\":1025:1042  amount > balanceA */\n      gt\n        /* \"contracts/course_demo/25_ExceptionDemo.sol\":1021:1115  if (amount > balanceA) {... */\n      iszero\n      tag_47\n      jumpi\n        /* \"contracts/course_demo/25_ExceptionDemo.sol\":1086:1092  amount */\n      dup1\n        /* \"contracts/course_demo/25_ExceptionDemo.sol\":1094:1102  balanceA */\n      sload(0x01)\n        /* \"contracts/course_demo/25_ExceptionDemo.sol\":1066:1103  InsufficientBalance(amount, balanceA) */\n      mload(0x40)\n      0xcf47918100000000000000000000000000000000000000000000000000000000\n      dup2\n      mstore\n      0x04\n      add\n      tag_48\n      swap3\n      swap2\n      swap1\n      tag_49\n      jump\t// in\n    tag_48:\n      mload(0x40)\n      dup1\n      swap2\n      sub\n      swap1\n      revert\n        /* \"contracts/course_demo/25_ExceptionDemo.sol\":1021:1115  if (amount > balanceA) {... */\n    tag_47:\n        /* \"contracts/course_demo/25_ExceptionDemo.sol\":1137:1143  amount */\n      dup1\n        /* \"contracts/course_demo/25_ExceptionDemo.sol\":1125:1133  balanceA */\n      0x01\n      0x00\n        /* \"contracts/course_demo/25_ExceptionDemo.sol\":1125:1143  balanceA -= amount */\n      dup3\n      dup3\n      sload\n      tag_50\n      swap2\n      swap1\n      tag_51\n      jump\t// in\n    tag_50:\n      swap3\n      pop\n      pop\n      dup2\n      swap1\n      sstore\n      pop\n        /* \"contracts/course_demo/25_ExceptionDemo.sol\":972:1151  function withdraw(uint amount) public {... */\n      pop\n      jump\t// out\n        /* \"contracts/course_demo/25_ExceptionDemo.sol\":713:867  function withdraw(uint amount, uint balance) public pure {... */\n    tag_25:\n        /* \"contracts/course_demo/25_ExceptionDemo.sol\":794:801  balance */\n      dup1\n        /* \"contracts/course_demo/25_ExceptionDemo.sol\":785:791  amount */\n      dup3\n        /* \"contracts/course_demo/25_ExceptionDemo.sol\":785:801  amount > balance */\n      gt\n        /* \"contracts/course_demo/25_ExceptionDemo.sol\":781:860  if (amount > balance) {... */\n      iszero\n      tag_53\n      jumpi\n        /* \"contracts/course_demo/25_ExceptionDemo.sol\":818:848  revert(\"Insufficient balance\") */\n      mload(0x40)\n      0x08c379a000000000000000000000000000000000000000000000000000000000\n      dup2\n      mstore\n      0x04\n      add\n      tag_54\n      swap1\n      tag_55\n      jump\t// in\n    tag_54:\n      mload(0x40)\n      dup1\n      swap2\n      sub\n      swap1\n      revert\n        /* \"contracts/course_demo/25_ExceptionDemo.sol\":781:860  if (amount > balance) {... */\n    tag_53:\n        /* \"contracts/course_demo/25_ExceptionDemo.sol\":713:867  function withdraw(uint amount, uint balance) public pure {... */\n      pop\n      pop\n      jump\t// out\n        /* \"contracts/course_demo/25_ExceptionDemo.sol\":559:690  function mint(uint8 amount) public {... */\n    tag_29:\n        /* \"contracts/course_demo/25_ExceptionDemo.sol\":620:626  amount */\n      dup1\n        /* \"contracts/course_demo/25_ExceptionDemo.sol\":605:616  totalSupply */\n      0x00\n      0x14\n        /* \"contracts/course_demo/25_ExceptionDemo.sol\":605:626  totalSupply += amount */\n      dup3\n      dup3\n      dup3\n      swap1\n      sload\n      swap1\n      0x0100\n      exp\n      swap1\n      div\n      0xff\n      and\n      tag_57\n      swap2\n      swap1\n      tag_58\n      jump\t// in\n    tag_57:\n      swap3\n      pop\n      0x0100\n      exp\n      dup2\n      sload\n      dup2\n      0xff\n      mul\n      not\n      and\n      swap1\n      dup4\n      0xff\n      and\n      mul\n      or\n      swap1\n      sstore\n      pop\n        /* \"contracts/course_demo/25_ExceptionDemo.sol\":659:665  amount */\n      dup1\n        /* \"contracts/course_demo/25_ExceptionDemo.sol\":644:665  totalSupply >= amount */\n      0xff\n      and\n        /* \"contracts/course_demo/25_ExceptionDemo.sol\":644:655  totalSupply */\n      0x00\n      0x14\n      swap1\n      sload\n      swap1\n      0x0100\n      exp\n      swap1\n      div\n      0xff\n      and\n        /* \"contracts/course_demo/25_ExceptionDemo.sol\":644:665  totalSupply >= amount */\n      0xff\n      and\n      lt\n      iszero\n        /* \"contracts/course_demo/25_ExceptionDemo.sol\":637:666  assert(totalSupply >= amount) */\n      tag_59\n      jumpi\n      tag_60\n      tag_61\n      jump\t// in\n    tag_60:\n    tag_59:\n        /* \"contracts/course_demo/25_ExceptionDemo.sol\":559:690  function mint(uint8 amount) public {... */\n      pop\n      jump\t// out\n        /* \"contracts/course_demo/25_ExceptionDemo.sol\":90:110  address public owner */\n    tag_31:\n      0x00\n      dup1\n      sload\n      swap1\n      0x0100\n      exp\n      swap1\n      div\n      0xffffffffffffffffffffffffffffffffffffffff\n      and\n      dup2\n      jump\t// out\n        /* \"contracts/course_demo/25_ExceptionDemo.sol\":939:965  uint public balanceA = 100 */\n    tag_35:\n      sload(0x01)\n      dup2\n      jump\t// out\n        /* \"contracts/course_demo/25_ExceptionDemo.sol\":403:538  function divide(uint a, uint b) public pure returns (uint){... */\n    tag_40:\n        /* \"contracts/course_demo/25_ExceptionDemo.sol\":456:460  uint */\n      0x00\n        /* \"contracts/course_demo/25_ExceptionDemo.sol\":485:486  0 */\n      dup1\n        /* \"contracts/course_demo/25_ExceptionDemo.sol\":480:481  b */\n      dup3\n        /* \"contracts/course_demo/25_ExceptionDemo.sol\":480:486  b != 0 */\n      sub\n        /* \"contracts/course_demo/25_ExceptionDemo.sol\":472:507  require(b != 0, \"Division by Zero\") */\n      tag_63\n      jumpi\n      mload(0x40)\n      0x08c379a000000000000000000000000000000000000000000000000000000000\n      dup2\n      mstore\n      0x04\n      add\n      tag_64\n      swap1\n      tag_65\n      jump\t// in\n    tag_64:\n      mload(0x40)\n      dup1\n      swap2\n      sub\n      swap1\n      revert\n    tag_63:\n        /* \"contracts/course_demo/25_ExceptionDemo.sol\":529:530  b */\n      dup2\n        /* \"contracts/course_demo/25_ExceptionDemo.sol\":525:526  a */\n      dup4\n        /* \"contracts/course_demo/25_ExceptionDemo.sol\":525:530  a / b */\n      tag_66\n      swap2\n      swap1\n      tag_67\n      jump\t// in\n    tag_66:\n        /* \"contracts/course_demo/25_ExceptionDemo.sol\":518:530  return a / b */\n      swap1\n      pop\n        /* \"contracts/course_demo/25_ExceptionDemo.sol\":403:538  function divide(uint a, uint b) public pure returns (uint){... */\n      swap3\n      swap2\n      pop\n      pop\n      jump\t// out\n        /* \"#utility.yul\":7:93   */\n    tag_68:\n        /* \"#utility.yul\":42:49   */\n      0x00\n        /* \"#utility.yul\":82:86   */\n      0xff\n        /* \"#utility.yul\":75:80   */\n      dup3\n        /* \"#utility.yul\":71:87   */\n      and\n        /* \"#utility.yul\":60:87   */\n      swap1\n      pop\n        /* \"#utility.yul\":7:93   */\n      swap2\n      swap1\n      pop\n      jump\t// out\n        /* \"#utility.yul\":99:211   */\n    tag_69:\n        /* \"#utility.yul\":182:204   */\n      tag_94\n        /* \"#utility.yul\":198:203   */\n      dup2\n        /* \"#utility.yul\":182:204   */\n      tag_68\n      jump\t// in\n    tag_94:\n        /* \"#utility.yul\":177:180   */\n      dup3\n        /* \"#utility.yul\":170:205   */\n      mstore\n        /* \"#utility.yul\":99:211   */\n      pop\n      pop\n      jump\t// out\n        /* \"#utility.yul\":217:431   */\n    tag_17:\n        /* \"#utility.yul\":306:310   */\n      0x00\n        /* \"#utility.yul\":344:346   */\n      0x20\n        /* \"#utility.yul\":333:342   */\n      dup3\n        /* \"#utility.yul\":329:347   */\n      add\n        /* \"#utility.yul\":321:347   */\n      swap1\n      pop\n        /* \"#utility.yul\":357:424   */\n      tag_96\n        /* \"#utility.yul\":421:422   */\n      0x00\n        /* \"#utility.yul\":410:419   */\n      dup4\n        /* \"#utility.yul\":406:423   */\n      add\n        /* \"#utility.yul\":397:403   */\n      dup5\n        /* \"#utility.yul\":357:424   */\n      tag_69\n      jump\t// in\n    tag_96:\n        /* \"#utility.yul\":217:431   */\n      swap3\n      swap2\n      pop\n      pop\n      jump\t// out\n        /* \"#utility.yul\":518:635   */\n    tag_71:\n        /* \"#utility.yul\":627:628   */\n      0x00\n        /* \"#utility.yul\":624:625   */\n      dup1\n        /* \"#utility.yul\":617:629   */\n      revert\n        /* \"#utility.yul\":764:841   */\n    tag_73:\n        /* \"#utility.yul\":801:808   */\n      0x00\n        /* \"#utility.yul\":830:835   */\n      dup2\n        /* \"#utility.yul\":819:835   */\n      swap1\n      pop\n        /* \"#utility.yul\":764:841   */\n      swap2\n      swap1\n      pop\n      jump\t// out\n        /* \"#utility.yul\":847:969   */\n    tag_74:\n        /* \"#utility.yul\":920:944   */\n      tag_102\n        /* \"#utility.yul\":938:943   */\n      dup2\n        /* \"#utility.yul\":920:944   */\n      tag_73\n      jump\t// in\n    tag_102:\n        /* \"#utility.yul\":913:918   */\n      dup2\n        /* \"#utility.yul\":910:945   */\n      eq\n        /* \"#utility.yul\":900:963   */\n      tag_103\n      jumpi\n        /* \"#utility.yul\":959:960   */\n      0x00\n        /* \"#utility.yul\":956:957   */\n      dup1\n        /* \"#utility.yul\":949:961   */\n      revert\n        /* \"#utility.yul\":900:963   */\n    tag_103:\n        /* \"#utility.yul\":847:969   */\n      pop\n      jump\t// out\n        /* \"#utility.yul\":975:1114   */\n    tag_75:\n        /* \"#utility.yul\":1021:1026   */\n      0x00\n        /* \"#utility.yul\":1059:1065   */\n      dup2\n        /* \"#utility.yul\":1046:1066   */\n      calldataload\n        /* \"#utility.yul\":1037:1066   */\n      swap1\n      pop\n        /* \"#utility.yul\":1075:1108   */\n      tag_105\n        /* \"#utility.yul\":1102:1107   */\n      dup2\n        /* \"#utility.yul\":1075:1108   */\n      tag_74\n      jump\t// in\n    tag_105:\n        /* \"#utility.yul\":975:1114   */\n      swap3\n      swap2\n      pop\n      pop\n      jump\t// out\n        /* \"#utility.yul\":1120:1449   */\n    tag_20:\n        /* \"#utility.yul\":1179:1185   */\n      0x00\n        /* \"#utility.yul\":1228:1230   */\n      0x20\n        /* \"#utility.yul\":1216:1225   */\n      dup3\n        /* \"#utility.yul\":1207:1214   */\n      dup5\n        /* \"#utility.yul\":1203:1226   */\n      sub\n        /* \"#utility.yul\":1199:1231   */\n      slt\n        /* \"#utility.yul\":1196:1315   */\n      iszero\n      tag_107\n      jumpi\n        /* \"#utility.yul\":1234:1313   */\n      tag_108\n      tag_71\n      jump\t// in\n    tag_108:\n        /* \"#utility.yul\":1196:1315   */\n    tag_107:\n        /* \"#utility.yul\":1354:1355   */\n      0x00\n        /* \"#utility.yul\":1379:1432   */\n      tag_109\n        /* \"#utility.yul\":1424:1431   */\n      dup5\n        /* \"#utility.yul\":1415:1421   */\n      dup3\n        /* \"#utility.yul\":1404:1413   */\n      dup6\n        /* \"#utility.yul\":1400:1422   */\n      add\n        /* \"#utility.yul\":1379:1432   */\n      tag_75\n      jump\t// in\n    tag_109:\n        /* \"#utility.yul\":1369:1432   */\n      swap2\n      pop\n        /* \"#utility.yul\":1325:1442   */\n      pop\n        /* \"#utility.yul\":1120:1449   */\n      swap3\n      swap2\n      pop\n      pop\n      jump\t// out\n        /* \"#utility.yul\":1455:1929   */\n    tag_24:\n        /* \"#utility.yul\":1523:1529   */\n      0x00\n        /* \"#utility.yul\":1531:1537   */\n      dup1\n        /* \"#utility.yul\":1580:1582   */\n      0x40\n        /* \"#utility.yul\":1568:1577   */\n      dup4\n        /* \"#utility.yul\":1559:1566   */\n      dup6\n        /* \"#utility.yul\":1555:1578   */\n      sub\n        /* \"#utility.yul\":1551:1583   */\n      slt\n        /* \"#utility.yul\":1548:1667   */\n      iszero\n      tag_111\n      jumpi\n        /* \"#utility.yul\":1586:1665   */\n      tag_112\n      tag_71\n      jump\t// in\n    tag_112:\n        /* \"#utility.yul\":1548:1667   */\n    tag_111:\n        /* \"#utility.yul\":1706:1707   */\n      0x00\n        /* \"#utility.yul\":1731:1784   */\n      tag_113\n        /* \"#utility.yul\":1776:1783   */\n      dup6\n        /* \"#utility.yul\":1767:1773   */\n      dup3\n        /* \"#utility.yul\":1756:1765   */\n      dup7\n        /* \"#utility.yul\":1752:1774   */\n      add\n        /* \"#utility.yul\":1731:1784   */\n      tag_75\n      jump\t// in\n    tag_113:\n        /* \"#utility.yul\":1721:1784   */\n      swap3\n      pop\n        /* \"#utility.yul\":1677:1794   */\n      pop\n        /* \"#utility.yul\":1833:1835   */\n      0x20\n        /* \"#utility.yul\":1859:1912   */\n      tag_114\n        /* \"#utility.yul\":1904:1911   */\n      dup6\n        /* \"#utility.yul\":1895:1901   */\n      dup3\n        /* \"#utility.yul\":1884:1893   */\n      dup7\n        /* \"#utility.yul\":1880:1902   */\n      add\n        /* \"#utility.yul\":1859:1912   */\n      tag_75\n      jump\t// in\n    tag_114:\n        /* \"#utility.yul\":1849:1912   */\n      swap2\n      pop\n        /* \"#utility.yul\":1804:1922   */\n      pop\n        /* \"#utility.yul\":1455:1929   */\n      swap3\n      pop\n      swap3\n      swap1\n      pop\n      jump\t// out\n        /* \"#utility.yul\":1935:2053   */\n    tag_76:\n        /* \"#utility.yul\":2006:2028   */\n      tag_116\n        /* \"#utility.yul\":2022:2027   */\n      dup2\n        /* \"#utility.yul\":2006:2028   */\n      tag_68\n      jump\t// in\n    tag_116:\n        /* \"#utility.yul\":1999:2004   */\n      dup2\n        /* \"#utility.yul\":1996:2029   */\n      eq\n        /* \"#utility.yul\":1986:2047   */\n      tag_117\n      jumpi\n        /* \"#utility.yul\":2043:2044   */\n      0x00\n        /* \"#utility.yul\":2040:2041   */\n      dup1\n        /* \"#utility.yul\":2033:2045   */\n      revert\n        /* \"#utility.yul\":1986:2047   */\n    tag_117:\n        /* \"#utility.yul\":1935:2053   */\n      pop\n      jump\t// out\n        /* \"#utility.yul\":2059:2194   */\n    tag_77:\n        /* \"#utility.yul\":2103:2108   */\n      0x00\n        /* \"#utility.yul\":2141:2147   */\n      dup2\n        /* \"#utility.yul\":2128:2148   */\n      calldataload\n        /* \"#utility.yul\":2119:2148   */\n      swap1\n      pop\n        /* \"#utility.yul\":2157:2188   */\n      tag_119\n        /* \"#utility.yul\":2182:2187   */\n      dup2\n        /* \"#utility.yul\":2157:2188   */\n      tag_76\n      jump\t// in\n    tag_119:\n        /* \"#utility.yul\":2059:2194   */\n      swap3\n      swap2\n      pop\n      pop\n      jump\t// out\n        /* \"#utility.yul\":2200:2525   */\n    tag_28:\n        /* \"#utility.yul\":2257:2263   */\n      0x00\n        /* \"#utility.yul\":2306:2308   */\n      0x20\n        /* \"#utility.yul\":2294:2303   */\n      dup3\n        /* \"#utility.yul\":2285:2292   */\n      dup5\n        /* \"#utility.yul\":2281:2304   */\n      sub\n        /* \"#utility.yul\":2277:2309   */\n      slt\n        /* \"#utility.yul\":2274:2393   */\n      iszero\n      tag_121\n      jumpi\n        /* \"#utility.yul\":2312:2391   */\n      tag_122\n      tag_71\n      jump\t// in\n    tag_122:\n        /* \"#utility.yul\":2274:2393   */\n    tag_121:\n        /* \"#utility.yul\":2432:2433   */\n      0x00\n        /* \"#utility.yul\":2457:2508   */\n      tag_123\n        /* \"#utility.yul\":2500:2507   */\n      dup5\n        /* \"#utility.yul\":2491:2497   */\n      dup3\n        /* \"#utility.yul\":2480:2489   */\n      dup6\n        /* \"#utility.yul\":2476:2498   */\n      add\n        /* \"#utility.yul\":2457:2508   */\n      tag_77\n      jump\t// in\n    tag_123:\n        /* \"#utility.yul\":2447:2508   */\n      swap2\n      pop\n        /* \"#utility.yul\":2403:2518   */\n      pop\n        /* \"#utility.yul\":2200:2525   */\n      swap3\n      swap2\n      pop\n      pop\n      jump\t// out\n        /* \"#utility.yul\":2531:2657   */\n    tag_78:\n        /* \"#utility.yul\":2568:2575   */\n      0x00\n        /* \"#utility.yul\":2608:2650   */\n      0xffffffffffffffffffffffffffffffffffffffff\n        /* \"#utility.yul\":2601:2606   */\n      dup3\n        /* \"#utility.yul\":2597:2651   */\n      and\n        /* \"#utility.yul\":2586:2651   */\n      swap1\n      pop\n        /* \"#utility.yul\":2531:2657   */\n      swap2\n      swap1\n      pop\n      jump\t// out\n        /* \"#utility.yul\":2663:2759   */\n    tag_79:\n        /* \"#utility.yul\":2700:2707   */\n      0x00\n        /* \"#utility.yul\":2729:2753   */\n      tag_126\n        /* \"#utility.yul\":2747:2752   */\n      dup3\n        /* \"#utility.yul\":2729:2753   */\n      tag_78\n      jump\t// in\n    tag_126:\n        /* \"#utility.yul\":2718:2753   */\n      swap1\n      pop\n        /* \"#utility.yul\":2663:2759   */\n      swap2\n      swap1\n      pop\n      jump\t// out\n        /* \"#utility.yul\":2765:2883   */\n    tag_80:\n        /* \"#utility.yul\":2852:2876   */\n      tag_128\n        /* \"#utility.yul\":2870:2875   */\n      dup2\n        /* \"#utility.yul\":2852:2876   */\n      tag_79\n      jump\t// in\n    tag_128:\n        /* \"#utility.yul\":2847:2850   */\n      dup3\n        /* \"#utility.yul\":2840:2877   */\n      mstore\n        /* \"#utility.yul\":2765:2883   */\n      pop\n      pop\n      jump\t// out\n        /* \"#utility.yul\":2889:3111   */\n    tag_33:\n        /* \"#utility.yul\":2982:2986   */\n      0x00\n        /* \"#utility.yul\":3020:3022   */\n      0x20\n        /* \"#utility.yul\":3009:3018   */\n      dup3\n        /* \"#utility.yul\":3005:3023   */\n      add\n        /* \"#utility.yul\":2997:3023   */\n      swap1\n      pop\n        /* \"#utility.yul\":3033:3104   */\n      tag_130\n        /* \"#utility.yul\":3101:3102   */\n      0x00\n        /* \"#utility.yul\":3090:3099   */\n      dup4\n        /* \"#utility.yul\":3086:3103   */\n      add\n        /* \"#utility.yul\":3077:3083   */\n      dup5\n        /* \"#utility.yul\":3033:3104   */\n      tag_80\n      jump\t// in\n    tag_130:\n        /* \"#utility.yul\":2889:3111   */\n      swap3\n      swap2\n      pop\n      pop\n      jump\t// out\n        /* \"#utility.yul\":3117:3235   */\n    tag_81:\n        /* \"#utility.yul\":3204:3228   */\n      tag_132\n        /* \"#utility.yul\":3222:3227   */\n      dup2\n        /* \"#utility.yul\":3204:3228   */\n      tag_73\n      jump\t// in\n    tag_132:\n        /* \"#utility.yul\":3199:3202   */\n      dup3\n        /* \"#utility.yul\":3192:3229   */\n      mstore\n        /* \"#utility.yul\":3117:3235   */\n      pop\n      pop\n      jump\t// out\n        /* \"#utility.yul\":3241:3463   */\n    tag_37:\n        /* \"#utility.yul\":3334:3338   */\n      0x00\n        /* \"#utility.yul\":3372:3374   */\n      0x20\n        /* \"#utility.yul\":3361:3370   */\n      dup3\n        /* \"#utility.yul\":3357:3375   */\n      add\n        /* \"#utility.yul\":3349:3375   */\n      swap1\n      pop\n        /* \"#utility.yul\":3385:3456   */\n      tag_134\n        /* \"#utility.yul\":3453:3454   */\n      0x00\n        /* \"#utility.yul\":3442:3451   */\n      dup4\n        /* \"#utility.yul\":3438:3455   */\n      add\n        /* \"#utility.yul\":3429:3435   */\n      dup5\n        /* \"#utility.yul\":3385:3456   */\n      tag_81\n      jump\t// in\n    tag_134:\n        /* \"#utility.yul\":3241:3463   */\n      swap3\n      swap2\n      pop\n      pop\n      jump\t// out\n        /* \"#utility.yul\":3469:3638   */\n    tag_82:\n        /* \"#utility.yul\":3553:3564   */\n      0x00\n        /* \"#utility.yul\":3587:3593   */\n      dup3\n        /* \"#utility.yul\":3582:3585   */\n      dup3\n        /* \"#utility.yul\":3575:3594   */\n      mstore\n        /* \"#utility.yul\":3627:3631   */\n      0x20\n        /* \"#utility.yul\":3622:3625   */\n      dup3\n        /* \"#utility.yul\":3618:3632   */\n      add\n        /* \"#utility.yul\":3603:3632   */\n      swap1\n      pop\n        /* \"#utility.yul\":3469:3638   */\n      swap3\n      swap2\n      pop\n      pop\n      jump\t// out\n        /* \"#utility.yul\":3644:3816   */\n    tag_83:\n        /* \"#utility.yul\":3784:3808   */\n      0x4e6f742074686520636f6e7472616374206f776e657200000000000000000000\n        /* \"#utility.yul\":3780:3781   */\n      0x00\n        /* \"#utility.yul\":3772:3778   */\n      dup3\n        /* \"#utility.yul\":3768:3782   */\n      add\n        /* \"#utility.yul\":3761:3809   */\n      mstore\n        /* \"#utility.yul\":3644:3816   */\n      pop\n      jump\t// out\n        /* \"#utility.yul\":3822:4188   */\n    tag_84:\n        /* \"#utility.yul\":3964:3967   */\n      0x00\n        /* \"#utility.yul\":3985:4052   */\n      tag_138\n        /* \"#utility.yul\":4049:4051   */\n      0x16\n        /* \"#utility.yul\":4044:4047   */\n      dup4\n        /* \"#utility.yul\":3985:4052   */\n      tag_82\n      jump\t// in\n    tag_138:\n        /* \"#utility.yul\":3978:4052   */\n      swap2\n      pop\n        /* \"#utility.yul\":4061:4154   */\n      tag_139\n        /* \"#utility.yul\":4150:4153   */\n      dup3\n        /* \"#utility.yul\":4061:4154   */\n      tag_83\n      jump\t// in\n    tag_139:\n        /* \"#utility.yul\":4179:4181   */\n      0x20\n        /* \"#utility.yul\":4174:4177   */\n      dup3\n        /* \"#utility.yul\":4170:4182   */\n      add\n        /* \"#utility.yul\":4163:4182   */\n      swap1\n      pop\n        /* \"#utility.yul\":3822:4188   */\n      swap2\n      swap1\n      pop\n      jump\t// out\n        /* \"#utility.yul\":4194:4613   */\n    tag_45:\n        /* \"#utility.yul\":4360:4364   */\n      0x00\n        /* \"#utility.yul\":4398:4400   */\n      0x20\n        /* \"#utility.yul\":4387:4396   */\n      dup3\n        /* \"#utility.yul\":4383:4401   */\n      add\n        /* \"#utility.yul\":4375:4401   */\n      swap1\n      pop\n        /* \"#utility.yul\":4447:4456   */\n      dup2\n        /* \"#utility.yul\":4441:4445   */\n      dup2\n        /* \"#utility.yul\":4437:4457   */\n      sub\n        /* \"#utility.yul\":4433:4434   */\n      0x00\n        /* \"#utility.yul\":4422:4431   */\n      dup4\n        /* \"#utility.yul\":4418:4435   */\n      add\n        /* \"#utility.yul\":4411:4458   */\n      mstore\n        /* \"#utility.yul\":4475:4606   */\n      tag_141\n        /* \"#utility.yul\":4601:4605   */\n      dup2\n        /* \"#utility.yul\":4475:4606   */\n      tag_84\n      jump\t// in\n    tag_141:\n        /* \"#utility.yul\":4467:4606   */\n      swap1\n      pop\n        /* \"#utility.yul\":4194:4613   */\n      swap2\n      swap1\n      pop\n      jump\t// out\n        /* \"#utility.yul\":4619:4951   */\n    tag_49:\n        /* \"#utility.yul\":4740:4744   */\n      0x00\n        /* \"#utility.yul\":4778:4780   */\n      0x40\n        /* \"#utility.yul\":4767:4776   */\n      dup3\n        /* \"#utility.yul\":4763:4781   */\n      add\n        /* \"#utility.yul\":4755:4781   */\n      swap1\n      pop\n        /* \"#utility.yul\":4791:4862   */\n      tag_143\n        /* \"#utility.yul\":4859:4860   */\n      0x00\n        /* \"#utility.yul\":4848:4857   */\n      dup4\n        /* \"#utility.yul\":4844:4861   */\n      add\n        /* \"#utility.yul\":4835:4841   */\n      dup6\n        /* \"#utility.yul\":4791:4862   */\n      tag_81\n      jump\t// in\n    tag_143:\n        /* \"#utility.yul\":4872:4944   */\n      tag_144\n        /* \"#utility.yul\":4940:4942   */\n      0x20\n        /* \"#utility.yul\":4929:4938   */\n      dup4\n        /* \"#utility.yul\":4925:4943   */\n      add\n        /* \"#utility.yul\":4916:4922   */\n      dup5\n        /* \"#utility.yul\":4872:4944   */\n      tag_81\n      jump\t// in\n    tag_144:\n        /* \"#utility.yul\":4619:4951   */\n      swap4\n      swap3\n      pop\n      pop\n      pop\n      jump\t// out\n        /* \"#utility.yul\":4957:5137   */\n    tag_85:\n        /* \"#utility.yul\":5005:5082   */\n      0x4e487b7100000000000000000000000000000000000000000000000000000000\n        /* \"#utility.yul\":5002:5003   */\n      0x00\n        /* \"#utility.yul\":4995:5083   */\n      mstore\n        /* \"#utility.yul\":5102:5106   */\n      0x11\n        /* \"#utility.yul\":5099:5100   */\n      0x04\n        /* \"#utility.yul\":5092:5107   */\n      mstore\n        /* \"#utility.yul\":5126:5130   */\n      0x24\n        /* \"#utility.yul\":5123:5124   */\n      0x00\n        /* \"#utility.yul\":5116:5131   */\n      revert\n        /* \"#utility.yul\":5143:5337   */\n    tag_51:\n        /* \"#utility.yul\":5183:5187   */\n      0x00\n        /* \"#utility.yul\":5203:5223   */\n      tag_147\n        /* \"#utility.yul\":5221:5222   */\n      dup3\n        /* \"#utility.yul\":5203:5223   */\n      tag_73\n      jump\t// in\n    tag_147:\n        /* \"#utility.yul\":5198:5223   */\n      swap2\n      pop\n        /* \"#utility.yul\":5237:5257   */\n      tag_148\n        /* \"#utility.yul\":5255:5256   */\n      dup4\n        /* \"#utility.yul\":5237:5257   */\n      tag_73\n      jump\t// in\n    tag_148:\n        /* \"#utility.yul\":5232:5257   */\n      swap3\n      pop\n        /* \"#utility.yul\":5281:5282   */\n      dup3\n        /* \"#utility.yul\":5278:5279   */\n      dup3\n        /* \"#utility.yul\":5274:5283   */\n      sub\n        /* \"#utility.yul\":5266:5283   */\n      swap1\n      pop\n        /* \"#utility.yul\":5305:5306   */\n      dup2\n        /* \"#utility.yul\":5299:5303   */\n      dup2\n        /* \"#utility.yul\":5296:5307   */\n      gt\n        /* \"#utility.yul\":5293:5330   */\n      iszero\n      tag_149\n      jumpi\n        /* \"#utility.yul\":5310:5328   */\n      tag_150\n      tag_85\n      jump\t// in\n    tag_150:\n        /* \"#utility.yul\":5293:5330   */\n    tag_149:\n        /* \"#utility.yul\":5143:5337   */\n      swap3\n      swap2\n      pop\n      pop\n      jump\t// out\n        /* \"#utility.yul\":5343:5513   */\n    tag_86:\n        /* \"#utility.yul\":5483:5505   */\n      0x496e73756666696369656e742062616c616e6365000000000000000000000000\n        /* \"#utility.yul\":5479:5480   */\n      0x00\n        /* \"#utility.yul\":5471:5477   */\n      dup3\n        /* \"#utility.yul\":5467:5481   */\n      add\n        /* \"#utility.yul\":5460:5506   */\n      mstore\n        /* \"#utility.yul\":5343:5513   */\n      pop\n      jump\t// out\n        /* \"#utility.yul\":5519:5885   */\n    tag_87:\n        /* \"#utility.yul\":5661:5664   */\n      0x00\n        /* \"#utility.yul\":5682:5749   */\n      tag_153\n        /* \"#utility.yul\":5746:5748   */\n      0x14\n        /* \"#utility.yul\":5741:5744   */\n      dup4\n        /* \"#utility.yul\":5682:5749   */\n      tag_82\n      jump\t// in\n    tag_153:\n        /* \"#utility.yul\":5675:5749   */\n      swap2\n      pop\n        /* \"#utility.yul\":5758:5851   */\n      tag_154\n        /* \"#utility.yul\":5847:5850   */\n      dup3\n        /* \"#utility.yul\":5758:5851   */\n      tag_86\n      jump\t// in\n    tag_154:\n        /* \"#utility.yul\":5876:5878   */\n      0x20\n        /* \"#utility.yul\":5871:5874   */\n      dup3\n        /* \"#utility.yul\":5867:5879   */\n      add\n        /* \"#utility.yul\":5860:5879   */\n      swap1\n      pop\n        /* \"#utility.yul\":5519:5885   */\n      swap2\n      swap1\n      pop\n      jump\t// out\n        /* \"#utility.yul\":5891:6310   */\n    tag_55:\n        /* \"#utility.yul\":6057:6061   */\n      0x00\n        /* \"#utility.yul\":6095:6097   */\n      0x20\n        /* \"#utility.yul\":6084:6093   */\n      dup3\n        /* \"#utility.yul\":6080:6098   */\n      add\n        /* \"#utility.yul\":6072:6098   */\n      swap1\n      pop\n        /* \"#utility.yul\":6144:6153   */\n      dup2\n        /* \"#utility.yul\":6138:6142   */\n      dup2\n        /* \"#utility.yul\":6134:6154   */\n      sub\n        /* \"#utility.yul\":6130:6131   */\n      0x00\n        /* \"#utility.yul\":6119:6128   */\n      dup4\n        /* \"#utility.yul\":6115:6132   */\n      add\n        /* \"#utility.yul\":6108:6155   */\n      mstore\n        /* \"#utility.yul\":6172:6303   */\n      tag_156\n        /* \"#utility.yul\":6298:6302   */\n      dup2\n        /* \"#utility.yul\":6172:6303   */\n      tag_87\n      jump\t// in\n    tag_156:\n        /* \"#utility.yul\":6164:6303   */\n      swap1\n      pop\n        /* \"#utility.yul\":5891:6310   */\n      swap2\n      swap1\n      pop\n      jump\t// out\n        /* \"#utility.yul\":6316:6504   */\n    tag_58:\n        /* \"#utility.yul\":6354:6357   */\n      0x00\n        /* \"#utility.yul\":6373:6391   */\n      tag_158\n        /* \"#utility.yul\":6389:6390   */\n      dup3\n        /* \"#utility.yul\":6373:6391   */\n      tag_68\n      jump\t// in\n    tag_158:\n        /* \"#utility.yul\":6368:6391   */\n      swap2\n      pop\n        /* \"#utility.yul\":6405:6423   */\n      tag_159\n        /* \"#utility.yul\":6421:6422   */\n      dup4\n        /* \"#utility.yul\":6405:6423   */\n      tag_68\n      jump\t// in\n    tag_159:\n        /* \"#utility.yul\":6400:6423   */\n      swap3\n      pop\n        /* \"#utility.yul\":6446:6447   */\n      dup3\n        /* \"#utility.yul\":6443:6444   */\n      dup3\n        /* \"#utility.yul\":6439:6448   */\n      add\n        /* \"#utility.yul\":6432:6448   */\n      swap1\n      pop\n        /* \"#utility.yul\":6469:6473   */\n      0xff\n        /* \"#utility.yul\":6464:6467   */\n      dup2\n        /* \"#utility.yul\":6461:6474   */\n      gt\n        /* \"#utility.yul\":6458:6497   */\n      iszero\n      tag_160\n      jumpi\n        /* \"#utility.yul\":6477:6495   */\n      tag_161\n      tag_85\n      jump\t// in\n    tag_161:\n        /* \"#utility.yul\":6458:6497   */\n    tag_160:\n        /* \"#utility.yul\":6316:6504   */\n      swap3\n      swap2\n      pop\n      pop\n      jump\t// out\n        /* \"#utility.yul\":6510:6690   */\n    tag_61:\n        /* \"#utility.yul\":6558:6635   */\n      0x4e487b7100000000000000000000000000000000000000000000000000000000\n        /* \"#utility.yul\":6555:6556   */\n      0x00\n        /* \"#utility.yul\":6548:6636   */\n      mstore\n        /* \"#utility.yul\":6655:6659   */\n      0x01\n        /* \"#utility.yul\":6652:6653   */\n      0x04\n        /* \"#utility.yul\":6645:6660   */\n      mstore\n        /* \"#utility.yul\":6679:6683   */\n      0x24\n        /* \"#utility.yul\":6676:6677   */\n      0x00\n        /* \"#utility.yul\":6669:6684   */\n      revert\n        /* \"#utility.yul\":6696:6862   */\n    tag_88:\n        /* \"#utility.yul\":6836:6854   */\n      0x4469766973696f6e206279205a65726f00000000000000000000000000000000\n        /* \"#utility.yul\":6832:6833   */\n      0x00\n        /* \"#utility.yul\":6824:6830   */\n      dup3\n        /* \"#utility.yul\":6820:6834   */\n      add\n        /* \"#utility.yul\":6813:6855   */\n      mstore\n        /* \"#utility.yul\":6696:6862   */\n      pop\n      jump\t// out\n        /* \"#utility.yul\":6868:7234   */\n    tag_89:\n        /* \"#utility.yul\":7010:7013   */\n      0x00\n        /* \"#utility.yul\":7031:7098   */\n      tag_165\n        /* \"#utility.yul\":7095:7097   */\n      0x10\n        /* \"#utility.yul\":7090:7093   */\n      dup4\n        /* \"#utility.yul\":7031:7098   */\n      tag_82\n      jump\t// in\n    tag_165:\n        /* \"#utility.yul\":7024:7098   */\n      swap2\n      pop\n        /* \"#utility.yul\":7107:7200   */\n      tag_166\n        /* \"#utility.yul\":7196:7199   */\n      dup3\n        /* \"#utility.yul\":7107:7200   */\n      tag_88\n      jump\t// in\n    tag_166:\n        /* \"#utility.yul\":7225:7227   */\n      0x20\n        /* \"#utility.yul\":7220:7223   */\n      dup3\n        /* \"#utility.yul\":7216:7228   */\n      add\n        /* \"#utility.yul\":7209:7228   */\n      swap1\n      pop\n        /* \"#utility.yul\":6868:7234   */\n      swap2\n      swap1\n      pop\n      jump\t// out\n        /* \"#utility.yul\":7240:7659   */\n    tag_65:\n        /* \"#utility.yul\":7406:7410   */\n      0x00\n        /* \"#utility.yul\":7444:7446   */\n      0x20\n        /* \"#utility.yul\":7433:7442   */\n      dup3\n        /* \"#utility.yul\":7429:7447   */\n      add\n        /* \"#utility.yul\":7421:7447   */\n      swap1\n      pop\n        /* \"#utility.yul\":7493:7502   */\n      dup2\n        /* \"#utility.yul\":7487:7491   */\n      dup2\n        /* \"#utility.yul\":7483:7503   */\n      sub\n        /* \"#utility.yul\":7479:7480   */\n      0x00\n        /* \"#utility.yul\":7468:7477   */\n      dup4\n        /* \"#utility.yul\":7464:7481   */\n      add\n        /* \"#utility.yul\":7457:7504   */\n      mstore\n        /* \"#utility.yul\":7521:7652   */\n      tag_168\n        /* \"#utility.yul\":7647:7651   */\n      dup2\n        /* \"#utility.yul\":7521:7652   */\n      tag_89\n      jump\t// in\n    tag_168:\n        /* \"#utility.yul\":7513:7652   */\n      swap1\n      pop\n        /* \"#utility.yul\":7240:7659   */\n      swap2\n      swap1\n      pop\n      jump\t// out\n        /* \"#utility.yul\":7665:7845   */\n    tag_90:\n        /* \"#utility.yul\":7713:7790   */\n      0x4e487b7100000000000000000000000000000000000000000000000000000000\n        /* \"#utility.yul\":7710:7711   */\n      0x00\n        /* \"#utility.yul\":7703:7791   */\n      mstore\n        /* \"#utility.yul\":7810:7814   */\n      0x12\n        /* \"#utility.yul\":7807:7808   */\n      0x04\n        /* \"#utility.yul\":7800:7815   */\n      mstore\n        /* \"#utility.yul\":7834:7838   */\n      0x24\n        /* \"#utility.yul\":7831:7832   */\n      0x00\n        /* \"#utility.yul\":7824:7839   */\n      revert\n        /* \"#utility.yul\":7851:8036   */\n    tag_67:\n        /* \"#utility.yul\":7891:7892   */\n      0x00\n        /* \"#utility.yul\":7908:7928   */\n      tag_171\n        /* \"#utility.yul\":7926:7927   */\n      dup3\n        /* \"#utility.yul\":7908:7928   */\n      tag_73\n      jump\t// in\n    tag_171:\n        /* \"#utility.yul\":7903:7928   */\n      swap2\n      pop\n        /* \"#utility.yul\":7942:7962   */\n      tag_172\n        /* \"#utility.yul\":7960:7961   */\n      dup4\n        /* \"#utility.yul\":7942:7962   */\n      tag_73\n      jump\t// in\n    tag_172:\n        /* \"#utility.yul\":7937:7962   */\n      swap3\n      pop\n        /* \"#utility.yul\":7981:7982   */\n      dup3\n        /* \"#utility.yul\":7971:8006   */\n      tag_173\n      jumpi\n        /* \"#utility.yul\":7986:8004   */\n      tag_174\n      tag_90\n      jump\t// in\n    tag_174:\n        /* \"#utility.yul\":7971:8006   */\n    tag_173:\n        /* \"#utility.yul\":8028:8029   */\n      dup3\n        /* \"#utility.yul\":8025:8026   */\n      dup3\n        /* \"#utility.yul\":8021:8030   */\n      div\n        /* \"#utility.yul\":8016:8030   */\n      swap1\n      pop\n        /* \"#utility.yul\":7851:8036   */\n      swap3\n      swap2\n      pop\n      pop\n      jump\t// out\n\n    auxdata: 0xa2646970667358221220121f567b62ab6251e9a06dad32f1ba5f2aac3a9c4904b9960fccc29e21bdb64c64736f6c634300081a0033\n}\n",
				"bytecode": {
					"linkReferences": {},
					"object": "608060405260646001553480156013575f80fd5b50335f806101000a81548173ffffffffffffffffffffffffffffffffffffffff021916908373ffffffffffffffffffffffffffffffffffffffff1602179055505f8060146101000a81548160ff021916908360ff1602179055506108098061007a5f395ff3fe608060405234801561000f575f80fd5b5060043610610086575f3560e01c80636ecd2306116100595780636ecd2306146100ea5780638da5cb5b146101065780639c4eda5c14610124578063f88e9fbf1461014257610086565b80631036e0a81461008a57806318160ddd146100945780632e1a7d4d146100b2578063441a3e70146100ce575b5f80fd5b610092610172565b005b61009c610201565b6040516100a991906103b8565b60405180910390f35b6100cc60048036038101906100c79190610408565b610213565b005b6100e860048036038101906100e39190610433565b610279565b005b61010460048036038101906100ff919061049b565b6102c0565b005b61010e61031d565b60405161011b9190610505565b60405180910390f35b61012c610340565b604051610139919061052d565b60405180910390f35b61015c60048036038101906101579190610433565b610346565b604051610169919061052d565b60405180910390f35b5f8054906101000a900473ffffffffffffffffffffffffffffffffffffffff1673ffffffffffffffffffffffffffffffffffffffff163373ffffffffffffffffffffffffffffffffffffffff16146101ff576040517f08c379a00000000000000000000000000000000000000000000000000000000081526004016101f6906105a0565b60405180910390fd5b565b5f60149054906101000a900460ff1681565b60015481111561025e57806001546040517fcf4791810000000000000000000000000000000000000000000000000000000081526004016102559291906105be565b60405180910390fd5b8060015f82825461026f9190610612565b9250508190555050565b808211156102bc576040517f08c379a00000000000000000000000000000000000000000000000000000000081526004016102b39061068f565b60405180910390fd5b5050565b805f60148282829054906101000a900460ff166102dd91906106ad565b92506101000a81548160ff021916908360ff1602179055508060ff165f60149054906101000a900460ff1660ff16101561031a576103196106e1565b5b50565b5f8054906101000a900473ffffffffffffffffffffffffffffffffffffffff1681565b60015481565b5f808203610389576040517f08c379a000000000000000000000000000000000000000000000000000000000815260040161038090610758565b60405180910390fd5b818361039591906107a3565b905092915050565b5f60ff82169050919050565b6103b28161039d565b82525050565b5f6020820190506103cb5f8301846103a9565b92915050565b5f80fd5b5f819050919050565b6103e7816103d5565b81146103f1575f80fd5b50565b5f81359050610402816103de565b92915050565b5f6020828403121561041d5761041c6103d1565b5b5f61042a848285016103f4565b91505092915050565b5f8060408385031215610449576104486103d1565b5b5f610456858286016103f4565b9250506020610467858286016103f4565b9150509250929050565b61047a8161039d565b8114610484575f80fd5b50565b5f8135905061049581610471565b92915050565b5f602082840312156104b0576104af6103d1565b5b5f6104bd84828501610487565b91505092915050565b5f73ffffffffffffffffffffffffffffffffffffffff82169050919050565b5f6104ef826104c6565b9050919050565b6104ff816104e5565b82525050565b5f6020820190506105185f8301846104f6565b92915050565b610527816103d5565b82525050565b5f6020820190506105405f83018461051e565b92915050565b5f82825260208201905092915050565b7f4e6f742074686520636f6e7472616374206f776e6572000000000000000000005f82015250565b5f61058a601683610546565b915061059582610556565b602082019050919050565b5f6020820190508181035f8301526105b78161057e565b9050919050565b5f6040820190506105d15f83018561051e565b6105de602083018461051e565b9392505050565b7f4e487b71000000000000000000000000000000000000000000000000000000005f52601160045260245ffd5b5f61061c826103d5565b9150610627836103d5565b925082820390508181111561063f5761063e6105e5565b5b92915050565b7f496e73756666696369656e742062616c616e63650000000000000000000000005f82015250565b5f610679601483610546565b915061068482610645565b602082019050919050565b5f6020820190508181035f8301526106a68161066d565b9050919050565b5f6106b78261039d565b91506106c28361039d565b9250828201905060ff8111156106db576106da6105e5565b5b92915050565b7f4e487b71000000000000000000000000000000000000000000000000000000005f52600160045260245ffd5b7f4469766973696f6e206279205a65726f000000000000000000000000000000005f82015250565b5f610742601083610546565b915061074d8261070e565b602082019050919050565b5f6020820190508181035f83015261076f81610736565b9050919050565b7f4e487b71000000000000000000000000000000000000000000000000000000005f52601260045260245ffd5b5f6107ad826103d5565b91506107b8836103d5565b9250826107c8576107c7610776565b5b82820490509291505056fea2646970667358221220121f567b62ab6251e9a06dad32f1ba5f2aac3a9c4904b9960fccc29e21bdb64c64736f6c634300081a0033",
					"opcodes": "PUSH1 0x80 PUSH1 0x40 MSTORE PUSH1 0x64 PUSH1 0x1 SSTORE CALLVALUE DUP1 ISZERO PUSH1 0x13 JUMPI PUSH0 DUP1 REVERT JUMPDEST POP CALLER PUSH0 DUP1 PUSH2 0x100 EXP DUP2 SLOAD DUP2 PUSH20 0xFFFFFFFFFFFFFFFFFFFFFFFFFFFFFFFFFFFFFFFF MUL NOT AND SWAP1 DUP4 PUSH20 0xFFFFFFFFFFFFFFFFFFFFFFFFFFFFFFFFFFFFFFFF AND MUL OR SWAP1 SSTORE POP PUSH0 DUP1 PUSH1 0x14 PUSH2 0x100 EXP DUP2 SLOAD DUP2 PUSH1 0xFF MUL NOT AND SWAP1 DUP4 PUSH1 0xFF AND MUL OR SWAP1 SSTORE POP PUSH2 0x809 DUP1 PUSH2 0x7A PUSH0 CODECOPY PUSH0 RETURN INVALID PUSH1 0x80 PUSH1 0x40 MSTORE CALLVALUE DUP1 ISZERO PUSH2 0xF JUMPI PUSH0 DUP1 REVERT JUMPDEST POP PUSH1 0x4 CALLDATASIZE LT PUSH2 0x86 JUMPI PUSH0 CALLDATALOAD PUSH1 0xE0 SHR DUP1 PUSH4 0x6ECD2306 GT PUSH2 0x59 JUMPI DUP1 PUSH4 0x6ECD2306 EQ PUSH2 0xEA JUMPI DUP1 PUSH4 0x8DA5CB5B EQ PUSH2 0x106 JUMPI DUP1 PUSH4 0x9C4EDA5C EQ PUSH2 0x124 JUMPI DUP1 PUSH4 0xF88E9FBF EQ PUSH2 0x142 JUMPI PUSH2 0x86 JUMP JUMPDEST DUP1 PUSH4 0x1036E0A8 EQ PUSH2 0x8A JUMPI DUP1 PUSH4 0x18160DDD EQ PUSH2 0x94 JUMPI DUP1 PUSH4 0x2E1A7D4D EQ PUSH2 0xB2 JUMPI DUP1 PUSH4 0x441A3E70 EQ PUSH2 0xCE JUMPI JUMPDEST PUSH0 DUP1 REVERT JUMPDEST PUSH2 0x92 PUSH2 0x172 JUMP JUMPDEST STOP JUMPDEST PUSH2 0x9C PUSH2 0x201 JUMP JUMPDEST PUSH1 0x40 MLOAD PUSH2 0xA9 SWAP2 SWAP1 PUSH2 0x3B8 JUMP JUMPDEST PUSH1 0x40 MLOAD DUP1 SWAP2 SUB SWAP1 RETURN JUMPDEST PUSH2 0xCC PUSH1 0x4 DUP1 CALLDATASIZE SUB DUP2 ADD SWAP1 PUSH2 0xC7 SWAP2 SWAP1 PUSH2 0x408 JUMP JUMPDEST PUSH2 0x213 JUMP JUMPDEST STOP JUMPDEST PUSH2 0xE8 PUSH1 0x4 DUP1 CALLDATASIZE SUB DUP2 ADD SWAP1 PUSH2 0xE3 SWAP2 SWAP1 PUSH2 0x433 JUMP JUMPDEST PUSH2 0x279 JUMP JUMPDEST STOP JUMPDEST PUSH2 0x104 PUSH1 0x4 DUP1 CALLDATASIZE SUB DUP2 ADD SWAP1 PUSH2 0xFF SWAP2 SWAP1 PUSH2 0x49B JUMP JUMPDEST PUSH2 0x2C0 JUMP JUMPDEST STOP JUMPDEST PUSH2 0x10E PUSH2 0x31D JUMP JUMPDEST PUSH1 0x40 MLOAD PUSH2 0x11B SWAP2 SWAP1 PUSH2 0x505 JUMP JUMPDEST PUSH1 0x40 MLOAD DUP1 SWAP2 SUB SWAP1 RETURN JUMPDEST PUSH2 0x12C PUSH2 0x340 JUMP JUMPDEST PUSH1 0x40 MLOAD PUSH2 0x139 SWAP2 SWAP1 PUSH2 0x52D JUMP JUMPDEST PUSH1 0x40 MLOAD DUP1 SWAP2 SUB SWAP1 RETURN JUMPDEST PUSH2 0x15C PUSH1 0x4 DUP1 CALLDATASIZE SUB DUP2 ADD SWAP1 PUSH2 0x157 SWAP2 SWAP1 PUSH2 0x433 JUMP JUMPDEST PUSH2 0x346 JUMP JUMPDEST PUSH1 0x40 MLOAD PUSH2 0x169 SWAP2 SWAP1 PUSH2 0x52D JUMP JUMPDEST PUSH1 0x40 MLOAD DUP1 SWAP2 SUB SWAP1 RETURN JUMPDEST PUSH0 DUP1 SLOAD SWAP1 PUSH2 0x100 EXP SWAP1 DIV PUSH20 0xFFFFFFFFFFFFFFFFFFFFFFFFFFFFFFFFFFFFFFFF AND PUSH20 0xFFFFFFFFFFFFFFFFFFFFFFFFFFFFFFFFFFFFFFFF AND CALLER PUSH20 0xFFFFFFFFFFFFFFFFFFFFFFFFFFFFFFFFFFFFFFFF AND EQ PUSH2 0x1FF JUMPI PUSH1 0x40 MLOAD PUSH32 0x8C379A000000000000000000000000000000000000000000000000000000000 DUP2 MSTORE PUSH1 0x4 ADD PUSH2 0x1F6 SWAP1 PUSH2 0x5A0 JUMP JUMPDEST PUSH1 0x40 MLOAD DUP1 SWAP2 SUB SWAP1 REVERT JUMPDEST JUMP JUMPDEST PUSH0 PUSH1 0x14 SWAP1 SLOAD SWAP1 PUSH2 0x100 EXP SWAP1 DIV PUSH1 0xFF AND DUP2 JUMP JUMPDEST PUSH1 0x1 SLOAD DUP2 GT ISZERO PUSH2 0x25E JUMPI DUP1 PUSH1 0x1 SLOAD PUSH1 0x40 MLOAD PUSH32 0xCF47918100000000000000000000000000000000000000000000000000000000 DUP2 MSTORE PUSH1 0x4 ADD PUSH2 0x255 SWAP3 SWAP2 SWAP1 PUSH2 0x5BE JUMP JUMPDEST PUSH1 0x40 MLOAD DUP1 SWAP2 SUB SWAP1 REVERT JUMPDEST DUP1 PUSH1 0x1 PUSH0 DUP3 DUP3 SLOAD PUSH2 0x26F SWAP2 SWAP1 PUSH2 0x612 JUMP JUMPDEST SWAP3 POP POP DUP2 SWAP1 SSTORE POP POP JUMP JUMPDEST DUP1 DUP3 GT ISZERO PUSH2 0x2BC JUMPI PUSH1 0x40 MLOAD PUSH32 0x8C379A000000000000000000000000000000000000000000000000000000000 DUP2 MSTORE PUSH1 0x4 ADD PUSH2 0x2B3 SWAP1 PUSH2 0x68F JUMP JUMPDEST PUSH1 0x40 MLOAD DUP1 SWAP2 SUB SWAP1 REVERT JUMPDEST POP POP JUMP JUMPDEST DUP1 PUSH0 PUSH1 0x14 DUP3 DUP3 DUP3 SWAP1 SLOAD SWAP1 PUSH2 0x100 EXP SWAP1 DIV PUSH1 0xFF AND PUSH2 0x2DD SWAP2 SWAP1 PUSH2 0x6AD JUMP JUMPDEST SWAP3 POP PUSH2 0x100 EXP DUP2 SLOAD DUP2 PUSH1 0xFF MUL NOT AND SWAP1 DUP4 PUSH1 0xFF AND MUL OR SWAP1 SSTORE POP DUP1 PUSH1 0xFF AND PUSH0 PUSH1 0x14 SWAP1 SLOAD SWAP1 PUSH2 0x100 EXP SWAP1 DIV PUSH1 0xFF AND PUSH1 0xFF AND LT ISZERO PUSH2 0x31A JUMPI PUSH2 0x319 PUSH2 0x6E1 JUMP JUMPDEST JUMPDEST POP JUMP JUMPDEST PUSH0 DUP1 SLOAD SWAP1 PUSH2 0x100 EXP SWAP1 DIV PUSH20 0xFFFFFFFFFFFFFFFFFFFFFFFFFFFFFFFFFFFFFFFF AND DUP2 JUMP JUMPDEST PUSH1 0x1 SLOAD DUP2 JUMP JUMPDEST PUSH0 DUP1 DUP3 SUB PUSH2 0x389 JUMPI PUSH1 0x40 MLOAD PUSH32 0x8C379A000000000000000000000000000000000000000000000000000000000 DUP2 MSTORE PUSH1 0x4 ADD PUSH2 0x380 SWAP1 PUSH2 0x758 JUMP JUMPDEST PUSH1 0x40 MLOAD DUP1 SWAP2 SUB SWAP1 REVERT JUMPDEST DUP2 DUP4 PUSH2 0x395 SWAP2 SWAP1 PUSH2 0x7A3 JUMP JUMPDEST SWAP1 POP SWAP3 SWAP2 POP POP JUMP JUMPDEST PUSH0 PUSH1 0xFF DUP3 AND SWAP1 POP SWAP2 SWAP1 POP JUMP JUMPDEST PUSH2 0x3B2 DUP2 PUSH2 0x39D JUMP JUMPDEST DUP3 MSTORE POP POP JUMP JUMPDEST PUSH0 PUSH1 0x20 DUP3 ADD SWAP1 POP PUSH2 0x3CB PUSH0 DUP4 ADD DUP5 PUSH2 0x3A9 JUMP JUMPDEST SWAP3 SWAP2 POP POP JUMP JUMPDEST PUSH0 DUP1 REVERT JUMPDEST PUSH0 DUP2 SWAP1 POP SWAP2 SWAP1 POP JUMP JUMPDEST PUSH2 0x3E7 DUP2 PUSH2 0x3D5 JUMP JUMPDEST DUP2 EQ PUSH2 0x3F1 JUMPI PUSH0 DUP1 REVERT JUMPDEST POP JUMP JUMPDEST PUSH0 DUP2 CALLDATALOAD SWAP1 POP PUSH2 0x402 DUP2 PUSH2 0x3DE JUMP JUMPDEST SWAP3 SWAP2 POP POP JUMP JUMPDEST PUSH0 PUSH1 0x20 DUP3 DUP5 SUB SLT ISZERO PUSH2 0x41D JUMPI PUSH2 0x41C PUSH2 0x3D1 JUMP JUMPDEST JUMPDEST PUSH0 PUSH2 0x42A DUP5 DUP3 DUP6 ADD PUSH2 0x3F4 JUMP JUMPDEST SWAP2 POP POP SWAP3 SWAP2 POP POP JUMP JUMPDEST PUSH0 DUP1 PUSH1 0x40 DUP4 DUP6 SUB SLT ISZERO PUSH2 0x449 JUMPI PUSH2 0x448 PUSH2 0x3D1 JUMP JUMPDEST JUMPDEST PUSH0 PUSH2 0x456 DUP6 DUP3 DUP7 ADD PUSH2 0x3F4 JUMP JUMPDEST SWAP3 POP POP PUSH1 0x20 PUSH2 0x467 DUP6 DUP3 DUP7 ADD PUSH2 0x3F4 JUMP JUMPDEST SWAP2 POP POP SWAP3 POP SWAP3 SWAP1 POP JUMP JUMPDEST PUSH2 0x47A DUP2 PUSH2 0x39D JUMP JUMPDEST DUP2 EQ PUSH2 0x484 JUMPI PUSH0 DUP1 REVERT JUMPDEST POP JUMP JUMPDEST PUSH0 DUP2 CALLDATALOAD SWAP1 POP PUSH2 0x495 DUP2 PUSH2 0x471 JUMP JUMPDEST SWAP3 SWAP2 POP POP JUMP JUMPDEST PUSH0 PUSH1 0x20 DUP3 DUP5 SUB SLT ISZERO PUSH2 0x4B0 JUMPI PUSH2 0x4AF PUSH2 0x3D1 JUMP JUMPDEST JUMPDEST PUSH0 PUSH2 0x4BD DUP5 DUP3 DUP6 ADD PUSH2 0x487 JUMP JUMPDEST SWAP2 POP POP SWAP3 SWAP2 POP POP JUMP JUMPDEST PUSH0 PUSH20 0xFFFFFFFFFFFFFFFFFFFFFFFFFFFFFFFFFFFFFFFF DUP3 AND SWAP1 POP SWAP2 SWAP1 POP JUMP JUMPDEST PUSH0 PUSH2 0x4EF DUP3 PUSH2 0x4C6 JUMP JUMPDEST SWAP1 POP SWAP2 SWAP1 POP JUMP JUMPDEST PUSH2 0x4FF DUP2 PUSH2 0x4E5 JUMP JUMPDEST DUP3 MSTORE POP POP JUMP JUMPDEST PUSH0 PUSH1 0x20 DUP3 ADD SWAP1 POP PUSH2 0x518 PUSH0 DUP4 ADD DUP5 PUSH2 0x4F6 JUMP JUMPDEST SWAP3 SWAP2 POP POP JUMP JUMPDEST PUSH2 0x527 DUP2 PUSH2 0x3D5 JUMP JUMPDEST DUP3 MSTORE POP POP JUMP JUMPDEST PUSH0 PUSH1 0x20 DUP3 ADD SWAP1 POP PUSH2 0x540 PUSH0 DUP4 ADD DUP5 PUSH2 0x51E JUMP JUMPDEST SWAP3 SWAP2 POP POP JUMP JUMPDEST PUSH0 DUP3 DUP3 MSTORE PUSH1 0x20 DUP3 ADD SWAP1 POP SWAP3 SWAP2 POP POP JUMP JUMPDEST PUSH32 0x4E6F742074686520636F6E7472616374206F776E657200000000000000000000 PUSH0 DUP3 ADD MSTORE POP JUMP JUMPDEST PUSH0 PUSH2 0x58A PUSH1 0x16 DUP4 PUSH2 0x546 JUMP JUMPDEST SWAP2 POP PUSH2 0x595 DUP3 PUSH2 0x556 JUMP JUMPDEST PUSH1 0x20 DUP3 ADD SWAP1 POP SWAP2 SWAP1 POP JUMP JUMPDEST PUSH0 PUSH1 0x20 DUP3 ADD SWAP1 POP DUP2 DUP2 SUB PUSH0 DUP4 ADD MSTORE PUSH2 0x5B7 DUP2 PUSH2 0x57E JUMP JUMPDEST SWAP1 POP SWAP2 SWAP1 POP JUMP JUMPDEST PUSH0 PUSH1 0x40 DUP3 ADD SWAP1 POP PUSH2 0x5D1 PUSH0 DUP4 ADD DUP6 PUSH2 0x51E JUMP JUMPDEST PUSH2 0x5DE PUSH1 0x20 DUP4 ADD DUP5 PUSH2 0x51E JUMP JUMPDEST SWAP4 SWAP3 POP POP POP JUMP JUMPDEST PUSH32 0x4E487B7100000000000000000000000000000000000000000000000000000000 PUSH0 MSTORE PUSH1 0x11 PUSH1 0x4 MSTORE PUSH1 0x24 PUSH0 REVERT JUMPDEST PUSH0 PUSH2 0x61C DUP3 PUSH2 0x3D5 JUMP JUMPDEST SWAP2 POP PUSH2 0x627 DUP4 PUSH2 0x3D5 JUMP JUMPDEST SWAP3 POP DUP3 DUP3 SUB SWAP1 POP DUP2 DUP2 GT ISZERO PUSH2 0x63F JUMPI PUSH2 0x63E PUSH2 0x5E5 JUMP JUMPDEST JUMPDEST SWAP3 SWAP2 POP POP JUMP JUMPDEST PUSH32 0x496E73756666696369656E742062616C616E6365000000000000000000000000 PUSH0 DUP3 ADD MSTORE POP JUMP JUMPDEST PUSH0 PUSH2 0x679 PUSH1 0x14 DUP4 PUSH2 0x546 JUMP JUMPDEST SWAP2 POP PUSH2 0x684 DUP3 PUSH2 0x645 JUMP JUMPDEST PUSH1 0x20 DUP3 ADD SWAP1 POP SWAP2 SWAP1 POP JUMP JUMPDEST PUSH0 PUSH1 0x20 DUP3 ADD SWAP1 POP DUP2 DUP2 SUB PUSH0 DUP4 ADD MSTORE PUSH2 0x6A6 DUP2 PUSH2 0x66D JUMP JUMPDEST SWAP1 POP SWAP2 SWAP1 POP JUMP JUMPDEST PUSH0 PUSH2 0x6B7 DUP3 PUSH2 0x39D JUMP JUMPDEST SWAP2 POP PUSH2 0x6C2 DUP4 PUSH2 0x39D JUMP JUMPDEST SWAP3 POP DUP3 DUP3 ADD SWAP1 POP PUSH1 0xFF DUP2 GT ISZERO PUSH2 0x6DB JUMPI PUSH2 0x6DA PUSH2 0x5E5 JUMP JUMPDEST JUMPDEST SWAP3 SWAP2 POP POP JUMP JUMPDEST PUSH32 0x4E487B7100000000000000000000000000000000000000000000000000000000 PUSH0 MSTORE PUSH1 0x1 PUSH1 0x4 MSTORE PUSH1 0x24 PUSH0 REVERT JUMPDEST PUSH32 0x4469766973696F6E206279205A65726F00000000000000000000000000000000 PUSH0 DUP3 ADD MSTORE POP JUMP JUMPDEST PUSH0 PUSH2 0x742 PUSH1 0x10 DUP4 PUSH2 0x546 JUMP JUMPDEST SWAP2 POP PUSH2 0x74D DUP3 PUSH2 0x70E JUMP JUMPDEST PUSH1 0x20 DUP3 ADD SWAP1 POP SWAP2 SWAP1 POP JUMP JUMPDEST PUSH0 PUSH1 0x20 DUP3 ADD SWAP1 POP DUP2 DUP2 SUB PUSH0 DUP4 ADD MSTORE PUSH2 0x76F DUP2 PUSH2 0x736 JUMP JUMPDEST SWAP1 POP SWAP2 SWAP1 POP JUMP JUMPDEST PUSH32 0x4E487B7100000000000000000000000000000000000000000000000000000000 PUSH0 MSTORE PUSH1 0x12 PUSH1 0x4 MSTORE PUSH1 0x24 PUSH0 REVERT JUMPDEST PUSH0 PUSH2 0x7AD DUP3 PUSH2 0x3D5 JUMP JUMPDEST SWAP2 POP PUSH2 0x7B8 DUP4 PUSH2 0x3D5 JUMP JUMPDEST SWAP3 POP DUP3 PUSH2 0x7C8 JUMPI PUSH2 0x7C7 PUSH2 0x776 JUMP JUMPDEST JUMPDEST DUP3 DUP3 DIV SWAP1 POP SWAP3 SWAP2 POP POP JUMP INVALID LOG2 PUSH5 0x6970667358 0x22 SLT KECCAK256 SLT 0x1F JUMP PUSH28 0x62AB6251E9A06DAD32F1BA5F2AAC3A9C4904B9960FCCC29E21BDB64C PUSH5 0x736F6C6343 STOP ADDMOD BYTE STOP CALLER "
				},
				"gasEstimates": {
					"creation": {
						"codeDepositCost": "411400",
						"executionCost": "71134",
						"totalCost": "482534"
					},
					"external": {
						"balanceA()": "2469",
						"divide(uint256,uint256)": "infinite",
						"mint(uint8)": "infinite",
						"onlyOwner()": "2594",
						"owner()": "2527",
						"totalSupply()": "2539",
						"withdraw(uint256)": "infinite",
						"withdraw(uint256,uint256)": "infinite"
					}
				},
				"methodIdentifiers": {
					"balanceA()": "9c4eda5c",
					"divide(uint256,uint256)": "f88e9fbf",
					"mint(uint8)": "6ecd2306",
					"onlyOwner()": "1036e0a8",
					"owner()": "8da5cb5b",
					"totalSupply()": "18160ddd",
					"withdraw(uint256)": "2e1a7d4d",
					"withdraw(uint256,uint256)": "441a3e70"
				}
			},
			"storageLayout": {
				"storage": [
					{
						"astId": 3,
						"contract": "contracts/course_demo/25_ExceptionDemo.sol:ExceptionDemo",
						"label": "owner",
						"offset": 0,
						"slot": "0",
						"type": "t_address"
					},
					{
						"astId": 5,
						"contract": "contracts/course_demo/25_ExceptionDemo.sol:ExceptionDemo",
						"label": "totalSupply",
						"offset": 20,
						"slot": "0",
						"type": "t_uint8"
					},
					{
						"astId": 93,
						"contract": "contracts/course_demo/25_ExceptionDemo.sol:ExceptionDemo",
						"label": "balanceA",
						"offset": 0,
						"slot": "1",
						"type": "t_uint256"
					}
				],
				"types": {
					"t_address": {
						"encoding": "inplace",
						"label": "address",
						"numberOfBytes": "20"
					},
					"t_uint256": {
						"encoding": "inplace",
						"label": "uint256",
						"numberOfBytes": "32"
					},
					"t_uint8": {
						"encoding": "inplace",
						"label": "uint8",
						"numberOfBytes": "1"
					}
				}
			},
			"userdoc": {
				"kind": "user",
				"methods": {},
				"version": 1
			}
		}
	}
}