{
	"contracts/12_StorageMemoryDemo.sol": {
		"StorageMemoryDemo": {
			"abi": [
				{
					"inputs": [],
					"stateMutability": "nonpayable",
					"type": "constructor"
				},
				{
					"inputs": [],
					"name": "copyFromStorage",
					"outputs": [
						{
							"internalType": "uint256[]",
							"name": "",
							"type": "uint256[]"
						}
					],
					"stateMutability": "view",
					"type": "function"
				},
				{
					"inputs": [
						{
							"internalType": "uint256[]",
							"name": "originalArray",
							"type": "uint256[]"
						}
					],
					"name": "copyMemoryArray",
					"outputs": [
						{
							"internalType": "uint256[]",
							"name": "",
							"type": "uint256[]"
						}
					],
					"stateMutability": "pure",
					"type": "function"
				},
				{
					"inputs": [
						{
							"internalType": "uint256[]",
							"name": "inputArray",
							"type": "uint256[]"
						}
					],
					"name": "processArray",
					"outputs": [
						{
							"internalType": "uint256",
							"name": "",
							"type": "uint256"
						}
					],
					"stateMutability": "pure",
					"type": "function"
				},
				{
					"inputs": [
						{
							"internalType": "uint256[]",
							"name": "memoryArray",
							"type": "uint256[]"
						}
					],
					"name": "setStorageArray",
					"outputs": [],
					"stateMutability": "nonpayable",
					"type": "function"
				},
				{
					"inputs": [
						{
							"internalType": "uint256[]",
							"name": "inputArray",
							"type": "uint256[]"
						}
					],
					"name": "setStorageFromCalldata",
					"outputs": [],
					"stateMutability": "nonpayable",
					"type": "function"
				},
				{
					"inputs": [
						{
							"internalType": "uint256",
							"name": "",
							"type": "uint256"
						}
					],
					"name": "storageArray",
					"outputs": [
						{
							"internalType": "uint256",
							"name": "",
							"type": "uint256"
						}
					],
					"stateMutability": "view",
					"type": "function"
				}
			],
			"devdoc": {
				"kind": "dev",
				"methods": {},
				"version": 1
			},
			"evm": {
				"assembly": "    /* \"contracts/12_StorageMemoryDemo.sol\":60:1889  contract StorageMemoryDemo {... */\n  mstore(0x40, 0x80)\n    /* \"contracts/12_StorageMemoryDemo.sol\":347:447  constructor() {... */\n  callvalue\n  dup1\n  iszero\n  tag_1\n  jumpi\n  0x00\n  dup1\n  revert\ntag_1:\n  pop\n    /* \"contracts/12_StorageMemoryDemo.sol\":388:401  storageArray1 */\n  0x01\n    /* \"contracts/12_StorageMemoryDemo.sol\":372:385  storageArray2 */\n  0x02\n    /* \"contracts/12_StorageMemoryDemo.sol\":372:401  storageArray2 = storageArray1 */\n  swap1\n  dup1\n  sload\n  tag_4\n  swap3\n  swap2\n  swap1\n  tag_5\n  jump\t// in\ntag_4:\n  pop\n    /* \"contracts/12_StorageMemoryDemo.sol\":60:1889  contract StorageMemoryDemo {... */\n  jump(tag_6)\ntag_5:\n  dup3\n  dup1\n  sload\n  dup3\n  dup3\n  sstore\n  swap1\n  0x00\n  mstore\n  keccak256(0x00, 0x20)\n  swap1\n  dup2\n  add\n  swap3\n  dup3\n  iszero\n  tag_7\n  jumpi\n  0x00\n  mstore\n  keccak256(0x00, 0x20)\n  swap2\n  dup3\n  add\ntag_8:\n  dup3\n  dup2\n  gt\n  iszero\n  tag_9\n  jumpi\n  dup3\n  sload\n  dup3\n  sstore\n  swap2\n  0x01\n  add\n  swap2\n  swap1\n  0x01\n  add\n  swap1\n  jump(tag_8)\ntag_9:\ntag_7:\n  pop\n  swap1\n  pop\n  tag_10\n  swap2\n  swap1\n  tag_11\n  jump\t// in\ntag_10:\n  pop\n  swap1\n  jump\t// out\ntag_11:\ntag_12:\n  dup1\n  dup3\n  gt\n  iszero\n  tag_13\n  jumpi\n  0x00\n  dup2\n  0x00\n  swap1\n  sstore\n  pop\n  0x01\n  add\n  jump(tag_12)\ntag_13:\n  pop\n  swap1\n  jump\t// out\ntag_6:\n  dataSize(sub_0)\n  dup1\n  dataOffset(sub_0)\n  0x00\n  codecopy\n  0x00\n  return\nstop\n\nsub_0: assembly {\n        /* \"contracts/12_StorageMemoryDemo.sol\":60:1889  contract StorageMemoryDemo {... */\n      mstore(0x40, 0x80)\n      callvalue\n      dup1\n      iszero\n      tag_1\n      jumpi\n      0x00\n      dup1\n      revert\n    tag_1:\n      pop\n      jumpi(tag_2, lt(calldatasize, 0x04))\n      shr(0xe0, calldataload(0x00))\n      dup1\n      0x0e031ab1\n      eq\n      tag_3\n      jumpi\n      dup1\n      0x12bb2ac8\n      eq\n      tag_4\n      jumpi\n      dup1\n      0x5ffcca73\n      eq\n      tag_5\n      jumpi\n      dup1\n      0x8b83bd53\n      eq\n      tag_6\n      jumpi\n      dup1\n      0xdcfdf61b\n      eq\n      tag_7\n      jumpi\n      dup1\n      0xe7e23780\n      eq\n      tag_8\n      jumpi\n    tag_2:\n      0x00\n      dup1\n      revert\n        /* \"contracts/12_StorageMemoryDemo.sol\":125:154  uint256[] public storageArray */\n    tag_3:\n      tag_9\n      0x04\n      dup1\n      calldatasize\n      sub\n      dup2\n      add\n      swap1\n      tag_10\n      swap2\n      swap1\n      tag_11\n      jump\t// in\n    tag_10:\n      tag_12\n      jump\t// in\n    tag_9:\n      mload(0x40)\n      tag_13\n      swap2\n      swap1\n      tag_14\n      jump\t// in\n    tag_13:\n      mload(0x40)\n      dup1\n      swap2\n      sub\n      swap1\n      return\n        /* \"contracts/12_StorageMemoryDemo.sol\":481:689  function copyFromStorage() external view returns (uint256[] memory) {... */\n    tag_4:\n      tag_15\n      tag_16\n      jump\t// in\n    tag_15:\n      mload(0x40)\n      tag_17\n      swap2\n      swap1\n      tag_18\n      jump\t// in\n    tag_17:\n      mload(0x40)\n      dup1\n      swap2\n      sub\n      swap1\n      return\n        /* \"contracts/12_StorageMemoryDemo.sol\":722:998  function copyMemoryArray(uint256[] memory originalArray) external pure returns (uint256[] memory) {... */\n    tag_5:\n      tag_19\n      0x04\n      dup1\n      calldatasize\n      sub\n      dup2\n      add\n      swap1\n      tag_20\n      swap2\n      swap1\n      tag_21\n      jump\t// in\n    tag_20:\n      tag_22\n      jump\t// in\n    tag_19:\n      mload(0x40)\n      tag_23\n      swap2\n      swap1\n      tag_18\n      jump\t// in\n    tag_23:\n      mload(0x40)\n      dup1\n      swap2\n      sub\n      swap1\n      return\n        /* \"contracts/12_StorageMemoryDemo.sol\":1515:1886  function setStorageFromCalldata(uint256[] calldata inputArray) external {... */\n    tag_6:\n      tag_24\n      0x04\n      dup1\n      calldatasize\n      sub\n      dup2\n      add\n      swap1\n      tag_25\n      swap2\n      swap1\n      tag_26\n      jump\t// in\n    tag_25:\n      tag_27\n      jump\t// in\n    tag_24:\n      stop\n        /* \"contracts/12_StorageMemoryDemo.sol\":1032:1192  function setStorageArray(uint256[] memory memoryArray) external {... */\n    tag_7:\n      tag_28\n      0x04\n      dup1\n      calldatasize\n      sub\n      dup2\n      add\n      swap1\n      tag_29\n      swap2\n      swap1\n      tag_21\n      jump\t// in\n    tag_29:\n      tag_30\n      jump\t// in\n    tag_28:\n      stop\n        /* \"contracts/12_StorageMemoryDemo.sol\":1227:1479  function processArray(uint256[] calldata inputArray) external pure returns (uint256) {... */\n    tag_8:\n      tag_31\n      0x04\n      dup1\n      calldatasize\n      sub\n      dup2\n      add\n      swap1\n      tag_32\n      swap2\n      swap1\n      tag_26\n      jump\t// in\n    tag_32:\n      tag_33\n      jump\t// in\n    tag_31:\n      mload(0x40)\n      tag_34\n      swap2\n      swap1\n      tag_14\n      jump\t// in\n    tag_34:\n      mload(0x40)\n      dup1\n      swap2\n      sub\n      swap1\n      return\n        /* \"contracts/12_StorageMemoryDemo.sol\":125:154  uint256[] public storageArray */\n    tag_12:\n      0x00\n      dup2\n      dup2\n      sload\n      dup2\n      lt\n      tag_35\n      jumpi\n      0x00\n      dup1\n      revert\n    tag_35:\n      swap1\n      0x00\n      mstore\n      keccak256(0x00, 0x20)\n      add\n      0x00\n      swap2\n      pop\n      swap1\n      pop\n      sload\n      dup2\n      jump\t// out\n        /* \"contracts/12_StorageMemoryDemo.sol\":481:689  function copyFromStorage() external view returns (uint256[] memory) {... */\n    tag_16:\n        /* \"contracts/12_StorageMemoryDemo.sol\":531:547  uint256[] memory */\n      0x60\n        /* \"contracts/12_StorageMemoryDemo.sol\":560:588  uint256[] memory memoryArray */\n      0x00\n        /* \"contracts/12_StorageMemoryDemo.sol\":591:603  storageArray */\n      dup1\n        /* \"contracts/12_StorageMemoryDemo.sol\":560:603  uint256[] memory memoryArray = storageArray */\n      dup1\n      sload\n      dup1\n      0x20\n      mul\n      0x20\n      add\n      mload(0x40)\n      swap1\n      dup2\n      add\n      0x40\n      mstore\n      dup1\n      swap3\n      swap2\n      swap1\n      dup2\n      dup2\n      mstore\n      0x20\n      add\n      dup3\n      dup1\n      sload\n      dup1\n      iszero\n      tag_38\n      jumpi\n      0x20\n      mul\n      dup3\n      add\n      swap2\n      swap1\n      0x00\n      mstore\n      keccak256(0x00, 0x20)\n      swap1\n    tag_39:\n      dup2\n      sload\n      dup2\n      mstore\n      0x20\n      add\n      swap1\n      0x01\n      add\n      swap1\n      dup1\n      dup4\n      gt\n      tag_39\n      jumpi\n    tag_38:\n      pop\n      pop\n      pop\n      pop\n      pop\n      swap1\n      pop\n        /* \"contracts/12_StorageMemoryDemo.sol\":654:665  memoryArray */\n      dup1\n        /* \"contracts/12_StorageMemoryDemo.sol\":647:665  return memoryArray */\n      swap2\n      pop\n      pop\n        /* \"contracts/12_StorageMemoryDemo.sol\":481:689  function copyFromStorage() external view returns (uint256[] memory) {... */\n      swap1\n      jump\t// out\n        /* \"contracts/12_StorageMemoryDemo.sol\":722:998  function copyMemoryArray(uint256[] memory originalArray) external pure returns (uint256[] memory) {... */\n    tag_22:\n        /* \"contracts/12_StorageMemoryDemo.sol\":802:818  uint256[] memory */\n      0x60\n        /* \"contracts/12_StorageMemoryDemo.sol\":831:859  uint256[] memory copiedArray */\n      0x00\n        /* \"contracts/12_StorageMemoryDemo.sol\":862:875  originalArray */\n      dup3\n        /* \"contracts/12_StorageMemoryDemo.sol\":831:875  uint256[] memory copiedArray = originalArray */\n      swap1\n      pop\n        /* \"contracts/12_StorageMemoryDemo.sol\":951:962  copiedArray */\n      dup1\n        /* \"contracts/12_StorageMemoryDemo.sol\":944:962  return copiedArray */\n      swap2\n      pop\n      pop\n        /* \"contracts/12_StorageMemoryDemo.sol\":722:998  function copyMemoryArray(uint256[] memory originalArray) external pure returns (uint256[] memory) {... */\n      swap2\n      swap1\n      pop\n      jump\t// out\n        /* \"contracts/12_StorageMemoryDemo.sol\":1515:1886  function setStorageFromCalldata(uint256[] calldata inputArray) external {... */\n    tag_27:\n        /* \"contracts/12_StorageMemoryDemo.sol\":1598:1626  uint256[] memory memoryArray */\n      0x00\n        /* \"contracts/12_StorageMemoryDemo.sol\":1643:1653  inputArray */\n      dup3\n      dup3\n        /* \"contracts/12_StorageMemoryDemo.sol\":1643:1660  inputArray.length */\n      swap1\n      pop\n        /* \"contracts/12_StorageMemoryDemo.sol\":1629:1661  new uint256[](inputArray.length) */\n      0xffffffffffffffff\n      dup2\n      gt\n      iszero\n      tag_42\n      jumpi\n      tag_43\n      tag_44\n      jump\t// in\n    tag_43:\n    tag_42:\n      mload(0x40)\n      swap1\n      dup1\n      dup3\n      mstore\n      dup1\n      0x20\n      mul\n      0x20\n      add\n      dup3\n      add\n      0x40\n      mstore\n      dup1\n      iszero\n      tag_45\n      jumpi\n      dup2\n      0x20\n      add\n      0x20\n      dup3\n      mul\n      dup1\n      calldatasize\n      dup4\n      calldatacopy\n      dup1\n      dup3\n      add\n      swap2\n      pop\n      pop\n      swap1\n      pop\n    tag_45:\n      pop\n        /* \"contracts/12_StorageMemoryDemo.sol\":1598:1661  uint256[] memory memoryArray = new uint256[](inputArray.length) */\n      swap1\n      pop\n        /* \"contracts/12_StorageMemoryDemo.sol\":1677:1686  uint256 i */\n      0x00\n        /* \"contracts/12_StorageMemoryDemo.sol\":1672:1810  for (uint256 i = 0; i < inputArray.length; i++) {... */\n    tag_46:\n        /* \"contracts/12_StorageMemoryDemo.sol\":1696:1706  inputArray */\n      dup4\n      dup4\n        /* \"contracts/12_StorageMemoryDemo.sol\":1696:1713  inputArray.length */\n      swap1\n      pop\n        /* \"contracts/12_StorageMemoryDemo.sol\":1692:1693  i */\n      dup2\n        /* \"contracts/12_StorageMemoryDemo.sol\":1692:1713  i < inputArray.length */\n      lt\n        /* \"contracts/12_StorageMemoryDemo.sol\":1672:1810  for (uint256 i = 0; i < inputArray.length; i++) {... */\n      iszero\n      tag_47\n      jumpi\n        /* \"contracts/12_StorageMemoryDemo.sol\":1752:1762  inputArray */\n      dup4\n      dup4\n        /* \"contracts/12_StorageMemoryDemo.sol\":1763:1764  i */\n      dup3\n        /* \"contracts/12_StorageMemoryDemo.sol\":1752:1765  inputArray[i] */\n      dup2\n      dup2\n      lt\n      tag_49\n      jumpi\n      tag_50\n      tag_51\n      jump\t// in\n    tag_50:\n    tag_49:\n      swap1\n      pop\n      0x20\n      mul\n      add\n      calldataload\n        /* \"contracts/12_StorageMemoryDemo.sol\":1735:1746  memoryArray */\n      dup3\n        /* \"contracts/12_StorageMemoryDemo.sol\":1747:1748  i */\n      dup3\n        /* \"contracts/12_StorageMemoryDemo.sol\":1735:1749  memoryArray[i] */\n      dup2\n      mload\n      dup2\n      lt\n      tag_52\n      jumpi\n      tag_53\n      tag_51\n      jump\t// in\n    tag_53:\n    tag_52:\n      0x20\n      mul\n      0x20\n      add\n      add\n        /* \"contracts/12_StorageMemoryDemo.sol\":1735:1765  memoryArray[i] = inputArray[i] */\n      dup2\n      dup2\n      mstore\n      pop\n      pop\n        /* \"contracts/12_StorageMemoryDemo.sol\":1715:1718  i++ */\n      dup1\n      dup1\n      0x01\n      add\n      swap2\n      pop\n      pop\n        /* \"contracts/12_StorageMemoryDemo.sol\":1672:1810  for (uint256 i = 0; i < inputArray.length; i++) {... */\n      jump(tag_46)\n    tag_47:\n      pop\n        /* \"contracts/12_StorageMemoryDemo.sol\":1835:1846  memoryArray */\n      dup1\n        /* \"contracts/12_StorageMemoryDemo.sol\":1820:1832  storageArray */\n      0x00\n        /* \"contracts/12_StorageMemoryDemo.sol\":1820:1846  storageArray = memoryArray */\n      swap1\n      dup1\n      mload\n      swap1\n      0x20\n      add\n      swap1\n      tag_54\n      swap3\n      swap2\n      swap1\n      tag_55\n      jump\t// in\n    tag_54:\n      pop\n        /* \"contracts/12_StorageMemoryDemo.sol\":1587:1886  {... */\n      pop\n        /* \"contracts/12_StorageMemoryDemo.sol\":1515:1886  function setStorageFromCalldata(uint256[] calldata inputArray) external {... */\n      pop\n      pop\n      jump\t// out\n        /* \"contracts/12_StorageMemoryDemo.sol\":1032:1192  function setStorageArray(uint256[] memory memoryArray) external {... */\n    tag_30:\n        /* \"contracts/12_StorageMemoryDemo.sol\":1122:1133  memoryArray */\n      dup1\n        /* \"contracts/12_StorageMemoryDemo.sol\":1107:1119  storageArray */\n      0x00\n        /* \"contracts/12_StorageMemoryDemo.sol\":1107:1133  storageArray = memoryArray */\n      swap1\n      dup1\n      mload\n      swap1\n      0x20\n      add\n      swap1\n      tag_57\n      swap3\n      swap2\n      swap1\n      tag_55\n      jump\t// in\n    tag_57:\n      pop\n        /* \"contracts/12_StorageMemoryDemo.sol\":1032:1192  function setStorageArray(uint256[] memory memoryArray) external {... */\n      pop\n      jump\t// out\n        /* \"contracts/12_StorageMemoryDemo.sol\":1227:1479  function processArray(uint256[] calldata inputArray) external pure returns (uint256) {... */\n    tag_33:\n        /* \"contracts/12_StorageMemoryDemo.sol\":1303:1310  uint256 */\n      0x00\n        /* \"contracts/12_StorageMemoryDemo.sol\":1323:1351  uint256[] memory memoryArray */\n      dup1\n        /* \"contracts/12_StorageMemoryDemo.sol\":1354:1364  inputArray */\n      dup4\n      dup4\n        /* \"contracts/12_StorageMemoryDemo.sol\":1323:1364  uint256[] memory memoryArray = inputArray */\n      dup1\n      dup1\n      0x20\n      mul\n      0x20\n      add\n      mload(0x40)\n      swap1\n      dup2\n      add\n      0x40\n      mstore\n      dup1\n      swap4\n      swap3\n      swap2\n      swap1\n      dup2\n      dup2\n      mstore\n      0x20\n      add\n      dup4\n      dup4\n      0x20\n      mul\n      dup1\n      dup3\n      dup5\n      calldatacopy\n      0x00\n      dup2\n      dup5\n      add\n      mstore\n      not(0x1f)\n      0x1f\n      dup3\n      add\n      and\n      swap1\n      pop\n      dup1\n      dup4\n      add\n      swap3\n      pop\n      pop\n      pop\n      pop\n      pop\n      pop\n      pop\n      swap1\n      pop\n        /* \"contracts/12_StorageMemoryDemo.sol\":1428:1439  memoryArray */\n      dup1\n        /* \"contracts/12_StorageMemoryDemo.sol\":1428:1446  memoryArray.length */\n      mload\n        /* \"contracts/12_StorageMemoryDemo.sol\":1421:1446  return memoryArray.length */\n      swap2\n      pop\n      pop\n        /* \"contracts/12_StorageMemoryDemo.sol\":1227:1479  function processArray(uint256[] calldata inputArray) external pure returns (uint256) {... */\n      swap3\n      swap2\n      pop\n      pop\n      jump\t// out\n    tag_55:\n      dup3\n      dup1\n      sload\n      dup3\n      dup3\n      sstore\n      swap1\n      0x00\n      mstore\n      keccak256(0x00, 0x20)\n      swap1\n      dup2\n      add\n      swap3\n      dup3\n      iszero\n      tag_59\n      jumpi\n      swap2\n      0x20\n      mul\n      dup3\n      add\n    tag_60:\n      dup3\n      dup2\n      gt\n      iszero\n      tag_61\n      jumpi\n      dup3\n      mload\n      dup3\n      sstore\n      swap2\n      0x20\n      add\n      swap2\n      swap1\n      0x01\n      add\n      swap1\n      jump(tag_60)\n    tag_61:\n    tag_59:\n      pop\n      swap1\n      pop\n      tag_62\n      swap2\n      swap1\n      tag_63\n      jump\t// in\n    tag_62:\n      pop\n      swap1\n      jump\t// out\n    tag_63:\n    tag_64:\n      dup1\n      dup3\n      gt\n      iszero\n      tag_65\n      jumpi\n      0x00\n      dup2\n      0x00\n      swap1\n      sstore\n      pop\n      0x01\n      add\n      jump(tag_64)\n    tag_65:\n      pop\n      swap1\n      jump\t// out\n        /* \"#utility.yul\":7:82   */\n    tag_66:\n        /* \"#utility.yul\":40:46   */\n      0x00\n        /* \"#utility.yul\":73:75   */\n      0x40\n        /* \"#utility.yul\":67:76   */\n      mload\n        /* \"#utility.yul\":57:76   */\n      swap1\n      pop\n        /* \"#utility.yul\":7:82   */\n      swap1\n      jump\t// out\n        /* \"#utility.yul\":88:205   */\n    tag_67:\n        /* \"#utility.yul\":197:198   */\n      0x00\n        /* \"#utility.yul\":194:195   */\n      dup1\n        /* \"#utility.yul\":187:199   */\n      revert\n        /* \"#utility.yul\":211:328   */\n    tag_68:\n        /* \"#utility.yul\":320:321   */\n      0x00\n        /* \"#utility.yul\":317:318   */\n      dup1\n        /* \"#utility.yul\":310:322   */\n      revert\n        /* \"#utility.yul\":334:411   */\n    tag_69:\n        /* \"#utility.yul\":371:378   */\n      0x00\n        /* \"#utility.yul\":400:405   */\n      dup2\n        /* \"#utility.yul\":389:405   */\n      swap1\n      pop\n        /* \"#utility.yul\":334:411   */\n      swap2\n      swap1\n      pop\n      jump\t// out\n        /* \"#utility.yul\":417:539   */\n    tag_70:\n        /* \"#utility.yul\":490:514   */\n      tag_96\n        /* \"#utility.yul\":508:513   */\n      dup2\n        /* \"#utility.yul\":490:514   */\n      tag_69\n      jump\t// in\n    tag_96:\n        /* \"#utility.yul\":483:488   */\n      dup2\n        /* \"#utility.yul\":480:515   */\n      eq\n        /* \"#utility.yul\":470:533   */\n      tag_97\n      jumpi\n        /* \"#utility.yul\":529:530   */\n      0x00\n        /* \"#utility.yul\":526:527   */\n      dup1\n        /* \"#utility.yul\":519:531   */\n      revert\n        /* \"#utility.yul\":470:533   */\n    tag_97:\n        /* \"#utility.yul\":417:539   */\n      pop\n      jump\t// out\n        /* \"#utility.yul\":545:684   */\n    tag_71:\n        /* \"#utility.yul\":591:596   */\n      0x00\n        /* \"#utility.yul\":629:635   */\n      dup2\n        /* \"#utility.yul\":616:636   */\n      calldataload\n        /* \"#utility.yul\":607:636   */\n      swap1\n      pop\n        /* \"#utility.yul\":645:678   */\n      tag_99\n        /* \"#utility.yul\":672:677   */\n      dup2\n        /* \"#utility.yul\":645:678   */\n      tag_70\n      jump\t// in\n    tag_99:\n        /* \"#utility.yul\":545:684   */\n      swap3\n      swap2\n      pop\n      pop\n      jump\t// out\n        /* \"#utility.yul\":690:1019   */\n    tag_11:\n        /* \"#utility.yul\":749:755   */\n      0x00\n        /* \"#utility.yul\":798:800   */\n      0x20\n        /* \"#utility.yul\":786:795   */\n      dup3\n        /* \"#utility.yul\":777:784   */\n      dup5\n        /* \"#utility.yul\":773:796   */\n      sub\n        /* \"#utility.yul\":769:801   */\n      slt\n        /* \"#utility.yul\":766:885   */\n      iszero\n      tag_101\n      jumpi\n        /* \"#utility.yul\":804:883   */\n      tag_102\n      tag_67\n      jump\t// in\n    tag_102:\n        /* \"#utility.yul\":766:885   */\n    tag_101:\n        /* \"#utility.yul\":924:925   */\n      0x00\n        /* \"#utility.yul\":949:1002   */\n      tag_103\n        /* \"#utility.yul\":994:1001   */\n      dup5\n        /* \"#utility.yul\":985:991   */\n      dup3\n        /* \"#utility.yul\":974:983   */\n      dup6\n        /* \"#utility.yul\":970:992   */\n      add\n        /* \"#utility.yul\":949:1002   */\n      tag_71\n      jump\t// in\n    tag_103:\n        /* \"#utility.yul\":939:1002   */\n      swap2\n      pop\n        /* \"#utility.yul\":895:1012   */\n      pop\n        /* \"#utility.yul\":690:1019   */\n      swap3\n      swap2\n      pop\n      pop\n      jump\t// out\n        /* \"#utility.yul\":1025:1143   */\n    tag_72:\n        /* \"#utility.yul\":1112:1136   */\n      tag_105\n        /* \"#utility.yul\":1130:1135   */\n      dup2\n        /* \"#utility.yul\":1112:1136   */\n      tag_69\n      jump\t// in\n    tag_105:\n        /* \"#utility.yul\":1107:1110   */\n      dup3\n        /* \"#utility.yul\":1100:1137   */\n      mstore\n        /* \"#utility.yul\":1025:1143   */\n      pop\n      pop\n      jump\t// out\n        /* \"#utility.yul\":1149:1371   */\n    tag_14:\n        /* \"#utility.yul\":1242:1246   */\n      0x00\n        /* \"#utility.yul\":1280:1282   */\n      0x20\n        /* \"#utility.yul\":1269:1278   */\n      dup3\n        /* \"#utility.yul\":1265:1283   */\n      add\n        /* \"#utility.yul\":1257:1283   */\n      swap1\n      pop\n        /* \"#utility.yul\":1293:1364   */\n      tag_107\n        /* \"#utility.yul\":1361:1362   */\n      0x00\n        /* \"#utility.yul\":1350:1359   */\n      dup4\n        /* \"#utility.yul\":1346:1363   */\n      add\n        /* \"#utility.yul\":1337:1343   */\n      dup5\n        /* \"#utility.yul\":1293:1364   */\n      tag_72\n      jump\t// in\n    tag_107:\n        /* \"#utility.yul\":1149:1371   */\n      swap3\n      swap2\n      pop\n      pop\n      jump\t// out\n        /* \"#utility.yul\":1377:1491   */\n    tag_73:\n        /* \"#utility.yul\":1444:1450   */\n      0x00\n        /* \"#utility.yul\":1478:1483   */\n      dup2\n        /* \"#utility.yul\":1472:1484   */\n      mload\n        /* \"#utility.yul\":1462:1484   */\n      swap1\n      pop\n        /* \"#utility.yul\":1377:1491   */\n      swap2\n      swap1\n      pop\n      jump\t// out\n        /* \"#utility.yul\":1497:1681   */\n    tag_74:\n        /* \"#utility.yul\":1596:1607   */\n      0x00\n        /* \"#utility.yul\":1630:1636   */\n      dup3\n        /* \"#utility.yul\":1625:1628   */\n      dup3\n        /* \"#utility.yul\":1618:1637   */\n      mstore\n        /* \"#utility.yul\":1670:1674   */\n      0x20\n        /* \"#utility.yul\":1665:1668   */\n      dup3\n        /* \"#utility.yul\":1661:1675   */\n      add\n        /* \"#utility.yul\":1646:1675   */\n      swap1\n      pop\n        /* \"#utility.yul\":1497:1681   */\n      swap3\n      swap2\n      pop\n      pop\n      jump\t// out\n        /* \"#utility.yul\":1687:1819   */\n    tag_75:\n        /* \"#utility.yul\":1754:1758   */\n      0x00\n        /* \"#utility.yul\":1777:1780   */\n      dup2\n        /* \"#utility.yul\":1769:1780   */\n      swap1\n      pop\n        /* \"#utility.yul\":1807:1811   */\n      0x20\n        /* \"#utility.yul\":1802:1805   */\n      dup3\n        /* \"#utility.yul\":1798:1812   */\n      add\n        /* \"#utility.yul\":1790:1812   */\n      swap1\n      pop\n        /* \"#utility.yul\":1687:1819   */\n      swap2\n      swap1\n      pop\n      jump\t// out\n        /* \"#utility.yul\":1825:1933   */\n    tag_76:\n        /* \"#utility.yul\":1902:1926   */\n      tag_112\n        /* \"#utility.yul\":1920:1925   */\n      dup2\n        /* \"#utility.yul\":1902:1926   */\n      tag_69\n      jump\t// in\n    tag_112:\n        /* \"#utility.yul\":1897:1900   */\n      dup3\n        /* \"#utility.yul\":1890:1927   */\n      mstore\n        /* \"#utility.yul\":1825:1933   */\n      pop\n      pop\n      jump\t// out\n        /* \"#utility.yul\":1939:2118   */\n    tag_77:\n        /* \"#utility.yul\":2008:2018   */\n      0x00\n        /* \"#utility.yul\":2029:2075   */\n      tag_114\n        /* \"#utility.yul\":2071:2074   */\n      dup4\n        /* \"#utility.yul\":2063:2069   */\n      dup4\n        /* \"#utility.yul\":2029:2075   */\n      tag_76\n      jump\t// in\n    tag_114:\n        /* \"#utility.yul\":2107:2111   */\n      0x20\n        /* \"#utility.yul\":2102:2105   */\n      dup4\n        /* \"#utility.yul\":2098:2112   */\n      add\n        /* \"#utility.yul\":2084:2112   */\n      swap1\n      pop\n        /* \"#utility.yul\":1939:2118   */\n      swap3\n      swap2\n      pop\n      pop\n      jump\t// out\n        /* \"#utility.yul\":2124:2237   */\n    tag_78:\n        /* \"#utility.yul\":2194:2198   */\n      0x00\n        /* \"#utility.yul\":2226:2230   */\n      0x20\n        /* \"#utility.yul\":2221:2224   */\n      dup3\n        /* \"#utility.yul\":2217:2231   */\n      add\n        /* \"#utility.yul\":2209:2231   */\n      swap1\n      pop\n        /* \"#utility.yul\":2124:2237   */\n      swap2\n      swap1\n      pop\n      jump\t// out\n        /* \"#utility.yul\":2273:3005   */\n    tag_79:\n        /* \"#utility.yul\":2392:2395   */\n      0x00\n        /* \"#utility.yul\":2421:2475   */\n      tag_117\n        /* \"#utility.yul\":2469:2474   */\n      dup3\n        /* \"#utility.yul\":2421:2475   */\n      tag_73\n      jump\t// in\n    tag_117:\n        /* \"#utility.yul\":2491:2577   */\n      tag_118\n        /* \"#utility.yul\":2570:2576   */\n      dup2\n        /* \"#utility.yul\":2565:2568   */\n      dup6\n        /* \"#utility.yul\":2491:2577   */\n      tag_74\n      jump\t// in\n    tag_118:\n        /* \"#utility.yul\":2484:2577   */\n      swap4\n      pop\n        /* \"#utility.yul\":2601:2657   */\n      tag_119\n        /* \"#utility.yul\":2651:2656   */\n      dup4\n        /* \"#utility.yul\":2601:2657   */\n      tag_75\n      jump\t// in\n    tag_119:\n        /* \"#utility.yul\":2680:2687   */\n      dup1\n        /* \"#utility.yul\":2711:2712   */\n      0x00\n        /* \"#utility.yul\":2696:2980   */\n    tag_120:\n        /* \"#utility.yul\":2721:2727   */\n      dup4\n        /* \"#utility.yul\":2718:2719   */\n      dup2\n        /* \"#utility.yul\":2715:2728   */\n      lt\n        /* \"#utility.yul\":2696:2980   */\n      iszero\n      tag_122\n      jumpi\n        /* \"#utility.yul\":2797:2803   */\n      dup2\n        /* \"#utility.yul\":2791:2804   */\n      mload\n        /* \"#utility.yul\":2824:2887   */\n      tag_123\n        /* \"#utility.yul\":2883:2886   */\n      dup9\n        /* \"#utility.yul\":2868:2881   */\n      dup3\n        /* \"#utility.yul\":2824:2887   */\n      tag_77\n      jump\t// in\n    tag_123:\n        /* \"#utility.yul\":2817:2887   */\n      swap8\n      pop\n        /* \"#utility.yul\":2910:2970   */\n      tag_124\n        /* \"#utility.yul\":2963:2969   */\n      dup4\n        /* \"#utility.yul\":2910:2970   */\n      tag_78\n      jump\t// in\n    tag_124:\n        /* \"#utility.yul\":2900:2970   */\n      swap3\n      pop\n        /* \"#utility.yul\":2756:2980   */\n      pop\n        /* \"#utility.yul\":2743:2744   */\n      0x01\n        /* \"#utility.yul\":2740:2741   */\n      dup2\n        /* \"#utility.yul\":2736:2745   */\n      add\n        /* \"#utility.yul\":2731:2745   */\n      swap1\n      pop\n        /* \"#utility.yul\":2696:2980   */\n      jump(tag_120)\n    tag_122:\n        /* \"#utility.yul\":2700:2714   */\n      pop\n        /* \"#utility.yul\":2996:2999   */\n      dup6\n        /* \"#utility.yul\":2989:2999   */\n      swap4\n      pop\n        /* \"#utility.yul\":2397:3005   */\n      pop\n      pop\n      pop\n        /* \"#utility.yul\":2273:3005   */\n      swap3\n      swap2\n      pop\n      pop\n      jump\t// out\n        /* \"#utility.yul\":3011:3384   */\n    tag_18:\n        /* \"#utility.yul\":3154:3158   */\n      0x00\n        /* \"#utility.yul\":3192:3194   */\n      0x20\n        /* \"#utility.yul\":3181:3190   */\n      dup3\n        /* \"#utility.yul\":3177:3195   */\n      add\n        /* \"#utility.yul\":3169:3195   */\n      swap1\n      pop\n        /* \"#utility.yul\":3241:3250   */\n      dup2\n        /* \"#utility.yul\":3235:3239   */\n      dup2\n        /* \"#utility.yul\":3231:3251   */\n      sub\n        /* \"#utility.yul\":3227:3228   */\n      0x00\n        /* \"#utility.yul\":3216:3225   */\n      dup4\n        /* \"#utility.yul\":3212:3229   */\n      add\n        /* \"#utility.yul\":3205:3252   */\n      mstore\n        /* \"#utility.yul\":3269:3377   */\n      tag_126\n        /* \"#utility.yul\":3372:3376   */\n      dup2\n        /* \"#utility.yul\":3363:3369   */\n      dup5\n        /* \"#utility.yul\":3269:3377   */\n      tag_79\n      jump\t// in\n    tag_126:\n        /* \"#utility.yul\":3261:3377   */\n      swap1\n      pop\n        /* \"#utility.yul\":3011:3384   */\n      swap3\n      swap2\n      pop\n      pop\n      jump\t// out\n        /* \"#utility.yul\":3390:3507   */\n    tag_80:\n        /* \"#utility.yul\":3499:3500   */\n      0x00\n        /* \"#utility.yul\":3496:3497   */\n      dup1\n        /* \"#utility.yul\":3489:3501   */\n      revert\n        /* \"#utility.yul\":3513:3615   */\n    tag_81:\n        /* \"#utility.yul\":3554:3560   */\n      0x00\n        /* \"#utility.yul\":3605:3607   */\n      0x1f\n        /* \"#utility.yul\":3601:3608   */\n      not\n        /* \"#utility.yul\":3596:3598   */\n      0x1f\n        /* \"#utility.yul\":3589:3594   */\n      dup4\n        /* \"#utility.yul\":3585:3599   */\n      add\n        /* \"#utility.yul\":3581:3609   */\n      and\n        /* \"#utility.yul\":3571:3609   */\n      swap1\n      pop\n        /* \"#utility.yul\":3513:3615   */\n      swap2\n      swap1\n      pop\n      jump\t// out\n        /* \"#utility.yul\":3621:3801   */\n    tag_44:\n        /* \"#utility.yul\":3669:3746   */\n      0x4e487b7100000000000000000000000000000000000000000000000000000000\n        /* \"#utility.yul\":3666:3667   */\n      0x00\n        /* \"#utility.yul\":3659:3747   */\n      mstore\n        /* \"#utility.yul\":3766:3770   */\n      0x41\n        /* \"#utility.yul\":3763:3764   */\n      0x04\n        /* \"#utility.yul\":3756:3771   */\n      mstore\n        /* \"#utility.yul\":3790:3794   */\n      0x24\n        /* \"#utility.yul\":3787:3788   */\n      0x00\n        /* \"#utility.yul\":3780:3795   */\n      revert\n        /* \"#utility.yul\":3807:4088   */\n    tag_82:\n        /* \"#utility.yul\":3890:3917   */\n      tag_131\n        /* \"#utility.yul\":3912:3916   */\n      dup3\n        /* \"#utility.yul\":3890:3917   */\n      tag_81\n      jump\t// in\n    tag_131:\n        /* \"#utility.yul\":3882:3888   */\n      dup2\n        /* \"#utility.yul\":3878:3918   */\n      add\n        /* \"#utility.yul\":4020:4026   */\n      dup2\n        /* \"#utility.yul\":4008:4018   */\n      dup2\n        /* \"#utility.yul\":4005:4027   */\n      lt\n        /* \"#utility.yul\":3984:4002   */\n      0xffffffffffffffff\n        /* \"#utility.yul\":3972:3982   */\n      dup3\n        /* \"#utility.yul\":3969:4003   */\n      gt\n        /* \"#utility.yul\":3966:4028   */\n      or\n        /* \"#utility.yul\":3963:4051   */\n      iszero\n      tag_132\n      jumpi\n        /* \"#utility.yul\":4031:4049   */\n      tag_133\n      tag_44\n      jump\t// in\n    tag_133:\n        /* \"#utility.yul\":3963:4051   */\n    tag_132:\n        /* \"#utility.yul\":4071:4081   */\n      dup1\n        /* \"#utility.yul\":4067:4069   */\n      0x40\n        /* \"#utility.yul\":4060:4082   */\n      mstore\n        /* \"#utility.yul\":3850:4088   */\n      pop\n        /* \"#utility.yul\":3807:4088   */\n      pop\n      pop\n      jump\t// out\n        /* \"#utility.yul\":4094:4223   */\n    tag_83:\n        /* \"#utility.yul\":4128:4134   */\n      0x00\n        /* \"#utility.yul\":4155:4175   */\n      tag_135\n      tag_66\n      jump\t// in\n    tag_135:\n        /* \"#utility.yul\":4145:4175   */\n      swap1\n      pop\n        /* \"#utility.yul\":4184:4217   */\n      tag_136\n        /* \"#utility.yul\":4212:4216   */\n      dup3\n        /* \"#utility.yul\":4204:4210   */\n      dup3\n        /* \"#utility.yul\":4184:4217   */\n      tag_82\n      jump\t// in\n    tag_136:\n        /* \"#utility.yul\":4094:4223   */\n      swap2\n      swap1\n      pop\n      jump\t// out\n        /* \"#utility.yul\":4229:4540   */\n    tag_84:\n        /* \"#utility.yul\":4306:4310   */\n      0x00\n        /* \"#utility.yul\":4396:4414   */\n      0xffffffffffffffff\n        /* \"#utility.yul\":4388:4394   */\n      dup3\n        /* \"#utility.yul\":4385:4415   */\n      gt\n        /* \"#utility.yul\":4382:4438   */\n      iszero\n      tag_138\n      jumpi\n        /* \"#utility.yul\":4418:4436   */\n      tag_139\n      tag_44\n      jump\t// in\n    tag_139:\n        /* \"#utility.yul\":4382:4438   */\n    tag_138:\n        /* \"#utility.yul\":4468:4472   */\n      0x20\n        /* \"#utility.yul\":4460:4466   */\n      dup3\n        /* \"#utility.yul\":4456:4473   */\n      mul\n        /* \"#utility.yul\":4448:4473   */\n      swap1\n      pop\n        /* \"#utility.yul\":4528:4532   */\n      0x20\n        /* \"#utility.yul\":4522:4526   */\n      dup2\n        /* \"#utility.yul\":4518:4533   */\n      add\n        /* \"#utility.yul\":4510:4533   */\n      swap1\n      pop\n        /* \"#utility.yul\":4229:4540   */\n      swap2\n      swap1\n      pop\n      jump\t// out\n        /* \"#utility.yul\":4546:4663   */\n    tag_85:\n        /* \"#utility.yul\":4655:4656   */\n      0x00\n        /* \"#utility.yul\":4652:4653   */\n      dup1\n        /* \"#utility.yul\":4645:4657   */\n      revert\n        /* \"#utility.yul\":4686:5396   */\n    tag_86:\n        /* \"#utility.yul\":4782:4787   */\n      0x00\n        /* \"#utility.yul\":4807:4888   */\n      tag_142\n        /* \"#utility.yul\":4823:4887   */\n      tag_143\n        /* \"#utility.yul\":4880:4886   */\n      dup5\n        /* \"#utility.yul\":4823:4887   */\n      tag_84\n      jump\t// in\n    tag_143:\n        /* \"#utility.yul\":4807:4888   */\n      tag_83\n      jump\t// in\n    tag_142:\n        /* \"#utility.yul\":4798:4888   */\n      swap1\n      pop\n        /* \"#utility.yul\":4908:4913   */\n      dup1\n        /* \"#utility.yul\":4937:4943   */\n      dup4\n        /* \"#utility.yul\":4930:4935   */\n      dup3\n        /* \"#utility.yul\":4923:4944   */\n      mstore\n        /* \"#utility.yul\":4971:4975   */\n      0x20\n        /* \"#utility.yul\":4964:4969   */\n      dup3\n        /* \"#utility.yul\":4960:4976   */\n      add\n        /* \"#utility.yul\":4953:4976   */\n      swap1\n      pop\n        /* \"#utility.yul\":5024:5028   */\n      0x20\n        /* \"#utility.yul\":5016:5022   */\n      dup5\n        /* \"#utility.yul\":5012:5029   */\n      mul\n        /* \"#utility.yul\":5004:5010   */\n      dup4\n        /* \"#utility.yul\":5000:5030   */\n      add\n        /* \"#utility.yul\":5053:5056   */\n      dup6\n        /* \"#utility.yul\":5045:5051   */\n      dup2\n        /* \"#utility.yul\":5042:5057   */\n      gt\n        /* \"#utility.yul\":5039:5161   */\n      iszero\n      tag_144\n      jumpi\n        /* \"#utility.yul\":5072:5151   */\n      tag_145\n      tag_85\n      jump\t// in\n    tag_145:\n        /* \"#utility.yul\":5039:5161   */\n    tag_144:\n        /* \"#utility.yul\":5187:5193   */\n      dup4\n        /* \"#utility.yul\":5170:5390   */\n    tag_146:\n        /* \"#utility.yul\":5204:5210   */\n      dup2\n        /* \"#utility.yul\":5199:5202   */\n      dup2\n        /* \"#utility.yul\":5196:5211   */\n      lt\n        /* \"#utility.yul\":5170:5390   */\n      iszero\n      tag_148\n      jumpi\n        /* \"#utility.yul\":5279:5282   */\n      dup1\n        /* \"#utility.yul\":5308:5345   */\n      tag_149\n        /* \"#utility.yul\":5341:5344   */\n      dup9\n        /* \"#utility.yul\":5329:5339   */\n      dup3\n        /* \"#utility.yul\":5308:5345   */\n      tag_71\n      jump\t// in\n    tag_149:\n        /* \"#utility.yul\":5303:5306   */\n      dup5\n        /* \"#utility.yul\":5296:5346   */\n      mstore\n        /* \"#utility.yul\":5375:5379   */\n      0x20\n        /* \"#utility.yul\":5370:5373   */\n      dup5\n        /* \"#utility.yul\":5366:5380   */\n      add\n        /* \"#utility.yul\":5359:5380   */\n      swap4\n      pop\n        /* \"#utility.yul\":5246:5390   */\n      pop\n        /* \"#utility.yul\":5230:5234   */\n      0x20\n        /* \"#utility.yul\":5225:5228   */\n      dup2\n        /* \"#utility.yul\":5221:5235   */\n      add\n        /* \"#utility.yul\":5214:5235   */\n      swap1\n      pop\n        /* \"#utility.yul\":5170:5390   */\n      jump(tag_146)\n    tag_148:\n        /* \"#utility.yul\":5174:5195   */\n      pop\n        /* \"#utility.yul\":4788:5396   */\n      pop\n      pop\n        /* \"#utility.yul\":4686:5396   */\n      swap4\n      swap3\n      pop\n      pop\n      pop\n      jump\t// out\n        /* \"#utility.yul\":5419:5789   */\n    tag_87:\n        /* \"#utility.yul\":5490:5495   */\n      0x00\n        /* \"#utility.yul\":5539:5542   */\n      dup3\n        /* \"#utility.yul\":5532:5536   */\n      0x1f\n        /* \"#utility.yul\":5524:5530   */\n      dup4\n        /* \"#utility.yul\":5520:5537   */\n      add\n        /* \"#utility.yul\":5516:5543   */\n      slt\n        /* \"#utility.yul\":5506:5628   */\n      tag_151\n      jumpi\n        /* \"#utility.yul\":5547:5626   */\n      tag_152\n      tag_80\n      jump\t// in\n    tag_152:\n        /* \"#utility.yul\":5506:5628   */\n    tag_151:\n        /* \"#utility.yul\":5664:5670   */\n      dup2\n        /* \"#utility.yul\":5651:5671   */\n      calldataload\n        /* \"#utility.yul\":5689:5783   */\n      tag_153\n        /* \"#utility.yul\":5779:5782   */\n      dup5\n        /* \"#utility.yul\":5771:5777   */\n      dup3\n        /* \"#utility.yul\":5764:5768   */\n      0x20\n        /* \"#utility.yul\":5756:5762   */\n      dup7\n        /* \"#utility.yul\":5752:5769   */\n      add\n        /* \"#utility.yul\":5689:5783   */\n      tag_86\n      jump\t// in\n    tag_153:\n        /* \"#utility.yul\":5680:5783   */\n      swap2\n      pop\n        /* \"#utility.yul\":5496:5789   */\n      pop\n        /* \"#utility.yul\":5419:5789   */\n      swap3\n      swap2\n      pop\n      pop\n      jump\t// out\n        /* \"#utility.yul\":5795:6334   */\n    tag_21:\n        /* \"#utility.yul\":5879:5885   */\n      0x00\n        /* \"#utility.yul\":5928:5930   */\n      0x20\n        /* \"#utility.yul\":5916:5925   */\n      dup3\n        /* \"#utility.yul\":5907:5914   */\n      dup5\n        /* \"#utility.yul\":5903:5926   */\n      sub\n        /* \"#utility.yul\":5899:5931   */\n      slt\n        /* \"#utility.yul\":5896:6015   */\n      iszero\n      tag_155\n      jumpi\n        /* \"#utility.yul\":5934:6013   */\n      tag_156\n      tag_67\n      jump\t// in\n    tag_156:\n        /* \"#utility.yul\":5896:6015   */\n    tag_155:\n        /* \"#utility.yul\":6082:6083   */\n      0x00\n        /* \"#utility.yul\":6071:6080   */\n      dup3\n        /* \"#utility.yul\":6067:6084   */\n      add\n        /* \"#utility.yul\":6054:6085   */\n      calldataload\n        /* \"#utility.yul\":6112:6130   */\n      0xffffffffffffffff\n        /* \"#utility.yul\":6104:6110   */\n      dup2\n        /* \"#utility.yul\":6101:6131   */\n      gt\n        /* \"#utility.yul\":6098:6215   */\n      iszero\n      tag_157\n      jumpi\n        /* \"#utility.yul\":6134:6213   */\n      tag_158\n      tag_68\n      jump\t// in\n    tag_158:\n        /* \"#utility.yul\":6098:6215   */\n    tag_157:\n        /* \"#utility.yul\":6239:6317   */\n      tag_159\n        /* \"#utility.yul\":6309:6316   */\n      dup5\n        /* \"#utility.yul\":6300:6306   */\n      dup3\n        /* \"#utility.yul\":6289:6298   */\n      dup6\n        /* \"#utility.yul\":6285:6307   */\n      add\n        /* \"#utility.yul\":6239:6317   */\n      tag_87\n      jump\t// in\n    tag_159:\n        /* \"#utility.yul\":6229:6317   */\n      swap2\n      pop\n        /* \"#utility.yul\":6025:6327   */\n      pop\n        /* \"#utility.yul\":5795:6334   */\n      swap3\n      swap2\n      pop\n      pop\n      jump\t// out\n        /* \"#utility.yul\":6340:6457   */\n    tag_88:\n        /* \"#utility.yul\":6449:6450   */\n      0x00\n        /* \"#utility.yul\":6446:6447   */\n      dup1\n        /* \"#utility.yul\":6439:6451   */\n      revert\n        /* \"#utility.yul\":6480:7048   */\n    tag_89:\n        /* \"#utility.yul\":6553:6561   */\n      0x00\n        /* \"#utility.yul\":6563:6569   */\n      dup1\n        /* \"#utility.yul\":6613:6616   */\n      dup4\n        /* \"#utility.yul\":6606:6610   */\n      0x1f\n        /* \"#utility.yul\":6598:6604   */\n      dup5\n        /* \"#utility.yul\":6594:6611   */\n      add\n        /* \"#utility.yul\":6590:6617   */\n      slt\n        /* \"#utility.yul\":6580:6702   */\n      tag_162\n      jumpi\n        /* \"#utility.yul\":6621:6700   */\n      tag_163\n      tag_80\n      jump\t// in\n    tag_163:\n        /* \"#utility.yul\":6580:6702   */\n    tag_162:\n        /* \"#utility.yul\":6734:6740   */\n      dup3\n        /* \"#utility.yul\":6721:6741   */\n      calldataload\n        /* \"#utility.yul\":6711:6741   */\n      swap1\n      pop\n        /* \"#utility.yul\":6764:6782   */\n      0xffffffffffffffff\n        /* \"#utility.yul\":6756:6762   */\n      dup2\n        /* \"#utility.yul\":6753:6783   */\n      gt\n        /* \"#utility.yul\":6750:6867   */\n      iszero\n      tag_164\n      jumpi\n        /* \"#utility.yul\":6786:6865   */\n      tag_165\n      tag_88\n      jump\t// in\n    tag_165:\n        /* \"#utility.yul\":6750:6867   */\n    tag_164:\n        /* \"#utility.yul\":6900:6904   */\n      0x20\n        /* \"#utility.yul\":6892:6898   */\n      dup4\n        /* \"#utility.yul\":6888:6905   */\n      add\n        /* \"#utility.yul\":6876:6905   */\n      swap2\n      pop\n        /* \"#utility.yul\":6954:6957   */\n      dup4\n        /* \"#utility.yul\":6946:6950   */\n      0x20\n        /* \"#utility.yul\":6938:6944   */\n      dup3\n        /* \"#utility.yul\":6934:6951   */\n      mul\n        /* \"#utility.yul\":6924:6932   */\n      dup4\n        /* \"#utility.yul\":6920:6952   */\n      add\n        /* \"#utility.yul\":6917:6958   */\n      gt\n        /* \"#utility.yul\":6914:7042   */\n      iszero\n      tag_166\n      jumpi\n        /* \"#utility.yul\":6961:7040   */\n      tag_167\n      tag_85\n      jump\t// in\n    tag_167:\n        /* \"#utility.yul\":6914:7042   */\n    tag_166:\n        /* \"#utility.yul\":6480:7048   */\n      swap3\n      pop\n      swap3\n      swap1\n      pop\n      jump\t// out\n        /* \"#utility.yul\":7054:7613   */\n    tag_26:\n        /* \"#utility.yul\":7140:7146   */\n      0x00\n        /* \"#utility.yul\":7148:7154   */\n      dup1\n        /* \"#utility.yul\":7197:7199   */\n      0x20\n        /* \"#utility.yul\":7185:7194   */\n      dup4\n        /* \"#utility.yul\":7176:7183   */\n      dup6\n        /* \"#utility.yul\":7172:7195   */\n      sub\n        /* \"#utility.yul\":7168:7200   */\n      slt\n        /* \"#utility.yul\":7165:7284   */\n      iszero\n      tag_169\n      jumpi\n        /* \"#utility.yul\":7203:7282   */\n      tag_170\n      tag_67\n      jump\t// in\n    tag_170:\n        /* \"#utility.yul\":7165:7284   */\n    tag_169:\n        /* \"#utility.yul\":7351:7352   */\n      0x00\n        /* \"#utility.yul\":7340:7349   */\n      dup4\n        /* \"#utility.yul\":7336:7353   */\n      add\n        /* \"#utility.yul\":7323:7354   */\n      calldataload\n        /* \"#utility.yul\":7381:7399   */\n      0xffffffffffffffff\n        /* \"#utility.yul\":7373:7379   */\n      dup2\n        /* \"#utility.yul\":7370:7400   */\n      gt\n        /* \"#utility.yul\":7367:7484   */\n      iszero\n      tag_171\n      jumpi\n        /* \"#utility.yul\":7403:7482   */\n      tag_172\n      tag_68\n      jump\t// in\n    tag_172:\n        /* \"#utility.yul\":7367:7484   */\n    tag_171:\n        /* \"#utility.yul\":7516:7596   */\n      tag_173\n        /* \"#utility.yul\":7588:7595   */\n      dup6\n        /* \"#utility.yul\":7579:7585   */\n      dup3\n        /* \"#utility.yul\":7568:7577   */\n      dup7\n        /* \"#utility.yul\":7564:7586   */\n      add\n        /* \"#utility.yul\":7516:7596   */\n      tag_89\n      jump\t// in\n    tag_173:\n        /* \"#utility.yul\":7498:7596   */\n      swap3\n      pop\n      swap3\n      pop\n        /* \"#utility.yul\":7294:7606   */\n      pop\n        /* \"#utility.yul\":7054:7613   */\n      swap3\n      pop\n      swap3\n      swap1\n      pop\n      jump\t// out\n        /* \"#utility.yul\":7619:7799   */\n    tag_51:\n        /* \"#utility.yul\":7667:7744   */\n      0x4e487b7100000000000000000000000000000000000000000000000000000000\n        /* \"#utility.yul\":7664:7665   */\n      0x00\n        /* \"#utility.yul\":7657:7745   */\n      mstore\n        /* \"#utility.yul\":7764:7768   */\n      0x32\n        /* \"#utility.yul\":7761:7762   */\n      0x04\n        /* \"#utility.yul\":7754:7769   */\n      mstore\n        /* \"#utility.yul\":7788:7792   */\n      0x24\n        /* \"#utility.yul\":7785:7786   */\n      0x00\n        /* \"#utility.yul\":7778:7793   */\n      revert\n\n    auxdata: 0xa2646970667358221220119e6ef47e3dea2222197523ec47dfc04714043305330f5fd4643c9f5e397ed764736f6c634300081a0033\n}\n",
				"bytecode": {
					"linkReferences": {},
					"object": "6080604052348015600e575f80fd5b5060016002908054601f9291906024565b506086565b828054828255905f5260205f20908101928215605e575f5260205f209182015b82811115605d5782548255916001019190600101906044565b5b50905060699190606d565b5090565b5b808211156082575f815f905550600101606e565b5090565b61076b806100935f395ff3fe608060405234801561000f575f80fd5b5060043610610060575f3560e01c80630e031ab11461006457806312bb2ac8146100945780635ffcca73146100b25780638b83bd53146100e2578063dcfdf61b146100fe578063e7e237801461011a575b5f80fd5b61007e600480360381019061007991906103a3565b61014a565b60405161008b91906103dd565b60405180910390f35b61009c610169565b6040516100a991906104ad565b60405180910390f35b6100cc60048036038101906100c7919061061d565b6101c3565b6040516100d991906104ad565b60405180910390f35b6100fc60048036038101906100f791906106bd565b6101d2565b005b6101186004803603810190610113919061061d565b610290565b005b610134600480360381019061012f91906106bd565b6102a9565b60405161014191906103dd565b60405180910390f35b5f8181548110610158575f80fd5b905f5260205f20015f915090505481565b60605f808054806020026020016040519081016040528092919081815260200182805480156101b557602002820191905f5260205f20905b8154815260200190600101908083116101a1575b505050505090508091505090565b60605f82905080915050919050565b5f8282905067ffffffffffffffff8111156101f0576101ef6104e1565b5b60405190808252806020026020018201604052801561021e5781602001602082028036833780820191505090505b5090505f5b838390508110156102745783838281811061024157610240610708565b5b9050602002013582828151811061025b5761025a610708565b5b6020026020010181815250508080600101915050610223565b50805f908051906020019061028a9291906102f9565b50505050565b805f90805190602001906102a59291906102f9565b5050565b5f808383808060200260200160405190810160405280939291908181526020018383602002808284375f81840152601f19601f820116905080830192505050505050509050805191505092915050565b828054828255905f5260205f20908101928215610333579160200282015b82811115610332578251825591602001919060010190610317565b5b5090506103409190610344565b5090565b5b8082111561035b575f815f905550600101610345565b5090565b5f604051905090565b5f80fd5b5f80fd5b5f819050919050565b61038281610370565b811461038c575f80fd5b50565b5f8135905061039d81610379565b92915050565b5f602082840312156103b8576103b7610368565b5b5f6103c58482850161038f565b91505092915050565b6103d781610370565b82525050565b5f6020820190506103f05f8301846103ce565b92915050565b5f81519050919050565b5f82825260208201905092915050565b5f819050602082019050919050565b61042881610370565b82525050565b5f610439838361041f565b60208301905092915050565b5f602082019050919050565b5f61045b826103f6565b6104658185610400565b935061047083610410565b805f5b838110156104a0578151610487888261042e565b975061049283610445565b925050600181019050610473565b5085935050505092915050565b5f6020820190508181035f8301526104c58184610451565b905092915050565b5f80fd5b5f601f19601f8301169050919050565b7f4e487b71000000000000000000000000000000000000000000000000000000005f52604160045260245ffd5b610517826104d1565b810181811067ffffffffffffffff82111715610536576105356104e1565b5b80604052505050565b5f61054861035f565b9050610554828261050e565b919050565b5f67ffffffffffffffff821115610573576105726104e1565b5b602082029050602081019050919050565b5f80fd5b5f61059a61059584610559565b61053f565b905080838252602082019050602084028301858111156105bd576105bc610584565b5b835b818110156105e657806105d2888261038f565b8452602084019350506020810190506105bf565b5050509392505050565b5f82601f830112610604576106036104cd565b5b8135610614848260208601610588565b91505092915050565b5f6020828403121561063257610631610368565b5b5f82013567ffffffffffffffff81111561064f5761064e61036c565b5b61065b848285016105f0565b91505092915050565b5f80fd5b5f8083601f84011261067d5761067c6104cd565b5b8235905067ffffffffffffffff81111561069a57610699610664565b5b6020830191508360208202830111156106b6576106b5610584565b5b9250929050565b5f80602083850312156106d3576106d2610368565b5b5f83013567ffffffffffffffff8111156106f0576106ef61036c565b5b6106fc85828601610668565b92509250509250929050565b7f4e487b71000000000000000000000000000000000000000000000000000000005f52603260045260245ffdfea2646970667358221220119e6ef47e3dea2222197523ec47dfc04714043305330f5fd4643c9f5e397ed764736f6c634300081a0033",
					"opcodes": "PUSH1 0x80 PUSH1 0x40 MSTORE CALLVALUE DUP1 ISZERO PUSH1 0xE JUMPI PUSH0 DUP1 REVERT JUMPDEST POP PUSH1 0x1 PUSH1 0x2 SWAP1 DUP1 SLOAD PUSH1 0x1F SWAP3 SWAP2 SWAP1 PUSH1 0x24 JUMP JUMPDEST POP PUSH1 0x86 JUMP JUMPDEST DUP3 DUP1 SLOAD DUP3 DUP3 SSTORE SWAP1 PUSH0 MSTORE PUSH1 0x20 PUSH0 KECCAK256 SWAP1 DUP2 ADD SWAP3 DUP3 ISZERO PUSH1 0x5E JUMPI PUSH0 MSTORE PUSH1 0x20 PUSH0 KECCAK256 SWAP2 DUP3 ADD JUMPDEST DUP3 DUP2 GT ISZERO PUSH1 0x5D JUMPI DUP3 SLOAD DUP3 SSTORE SWAP2 PUSH1 0x1 ADD SWAP2 SWAP1 PUSH1 0x1 ADD SWAP1 PUSH1 0x44 JUMP JUMPDEST JUMPDEST POP SWAP1 POP PUSH1 0x69 SWAP2 SWAP1 PUSH1 0x6D JUMP JUMPDEST POP SWAP1 JUMP JUMPDEST JUMPDEST DUP1 DUP3 GT ISZERO PUSH1 0x82 JUMPI PUSH0 DUP2 PUSH0 SWAP1 SSTORE POP PUSH1 0x1 ADD PUSH1 0x6E JUMP JUMPDEST POP SWAP1 JUMP JUMPDEST PUSH2 0x76B DUP1 PUSH2 0x93 PUSH0 CODECOPY PUSH0 RETURN INVALID PUSH1 0x80 PUSH1 0x40 MSTORE CALLVALUE DUP1 ISZERO PUSH2 0xF JUMPI PUSH0 DUP1 REVERT JUMPDEST POP PUSH1 0x4 CALLDATASIZE LT PUSH2 0x60 JUMPI PUSH0 CALLDATALOAD PUSH1 0xE0 SHR DUP1 PUSH4 0xE031AB1 EQ PUSH2 0x64 JUMPI DUP1 PUSH4 0x12BB2AC8 EQ PUSH2 0x94 JUMPI DUP1 PUSH4 0x5FFCCA73 EQ PUSH2 0xB2 JUMPI DUP1 PUSH4 0x8B83BD53 EQ PUSH2 0xE2 JUMPI DUP1 PUSH4 0xDCFDF61B EQ PUSH2 0xFE JUMPI DUP1 PUSH4 0xE7E23780 EQ PUSH2 0x11A JUMPI JUMPDEST PUSH0 DUP1 REVERT JUMPDEST PUSH2 0x7E PUSH1 0x4 DUP1 CALLDATASIZE SUB DUP2 ADD SWAP1 PUSH2 0x79 SWAP2 SWAP1 PUSH2 0x3A3 JUMP JUMPDEST PUSH2 0x14A JUMP JUMPDEST PUSH1 0x40 MLOAD PUSH2 0x8B SWAP2 SWAP1 PUSH2 0x3DD JUMP JUMPDEST PUSH1 0x40 MLOAD DUP1 SWAP2 SUB SWAP1 RETURN JUMPDEST PUSH2 0x9C PUSH2 0x169 JUMP JUMPDEST PUSH1 0x40 MLOAD PUSH2 0xA9 SWAP2 SWAP1 PUSH2 0x4AD JUMP JUMPDEST PUSH1 0x40 MLOAD DUP1 SWAP2 SUB SWAP1 RETURN JUMPDEST PUSH2 0xCC PUSH1 0x4 DUP1 CALLDATASIZE SUB DUP2 ADD SWAP1 PUSH2 0xC7 SWAP2 SWAP1 PUSH2 0x61D JUMP JUMPDEST PUSH2 0x1C3 JUMP JUMPDEST PUSH1 0x40 MLOAD PUSH2 0xD9 SWAP2 SWAP1 PUSH2 0x4AD JUMP JUMPDEST PUSH1 0x40 MLOAD DUP1 SWAP2 SUB SWAP1 RETURN JUMPDEST PUSH2 0xFC PUSH1 0x4 DUP1 CALLDATASIZE SUB DUP2 ADD SWAP1 PUSH2 0xF7 SWAP2 SWAP1 PUSH2 0x6BD JUMP JUMPDEST PUSH2 0x1D2 JUMP JUMPDEST STOP JUMPDEST PUSH2 0x118 PUSH1 0x4 DUP1 CALLDATASIZE SUB DUP2 ADD SWAP1 PUSH2 0x113 SWAP2 SWAP1 PUSH2 0x61D JUMP JUMPDEST PUSH2 0x290 JUMP JUMPDEST STOP JUMPDEST PUSH2 0x134 PUSH1 0x4 DUP1 CALLDATASIZE SUB DUP2 ADD SWAP1 PUSH2 0x12F SWAP2 SWAP1 PUSH2 0x6BD JUMP JUMPDEST PUSH2 0x2A9 JUMP JUMPDEST PUSH1 0x40 MLOAD PUSH2 0x141 SWAP2 SWAP1 PUSH2 0x3DD JUMP JUMPDEST PUSH1 0x40 MLOAD DUP1 SWAP2 SUB SWAP1 RETURN JUMPDEST PUSH0 DUP2 DUP2 SLOAD DUP2 LT PUSH2 0x158 JUMPI PUSH0 DUP1 REVERT JUMPDEST SWAP1 PUSH0 MSTORE PUSH1 0x20 PUSH0 KECCAK256 ADD PUSH0 SWAP2 POP SWAP1 POP SLOAD DUP2 JUMP JUMPDEST PUSH1 0x60 PUSH0 DUP1 DUP1 SLOAD DUP1 PUSH1 0x20 MUL PUSH1 0x20 ADD PUSH1 0x40 MLOAD SWAP1 DUP2 ADD PUSH1 0x40 MSTORE DUP1 SWAP3 SWAP2 SWAP1 DUP2 DUP2 MSTORE PUSH1 0x20 ADD DUP3 DUP1 SLOAD DUP1 ISZERO PUSH2 0x1B5 JUMPI PUSH1 0x20 MUL DUP3 ADD SWAP2 SWAP1 PUSH0 MSTORE PUSH1 0x20 PUSH0 KECCAK256 SWAP1 JUMPDEST DUP2 SLOAD DUP2 MSTORE PUSH1 0x20 ADD SWAP1 PUSH1 0x1 ADD SWAP1 DUP1 DUP4 GT PUSH2 0x1A1 JUMPI JUMPDEST POP POP POP POP POP SWAP1 POP DUP1 SWAP2 POP POP SWAP1 JUMP JUMPDEST PUSH1 0x60 PUSH0 DUP3 SWAP1 POP DUP1 SWAP2 POP POP SWAP2 SWAP1 POP JUMP JUMPDEST PUSH0 DUP3 DUP3 SWAP1 POP PUSH8 0xFFFFFFFFFFFFFFFF DUP2 GT ISZERO PUSH2 0x1F0 JUMPI PUSH2 0x1EF PUSH2 0x4E1 JUMP JUMPDEST JUMPDEST PUSH1 0x40 MLOAD SWAP1 DUP1 DUP3 MSTORE DUP1 PUSH1 0x20 MUL PUSH1 0x20 ADD DUP3 ADD PUSH1 0x40 MSTORE DUP1 ISZERO PUSH2 0x21E JUMPI DUP2 PUSH1 0x20 ADD PUSH1 0x20 DUP3 MUL DUP1 CALLDATASIZE DUP4 CALLDATACOPY DUP1 DUP3 ADD SWAP2 POP POP SWAP1 POP JUMPDEST POP SWAP1 POP PUSH0 JUMPDEST DUP4 DUP4 SWAP1 POP DUP2 LT ISZERO PUSH2 0x274 JUMPI DUP4 DUP4 DUP3 DUP2 DUP2 LT PUSH2 0x241 JUMPI PUSH2 0x240 PUSH2 0x708 JUMP JUMPDEST JUMPDEST SWAP1 POP PUSH1 0x20 MUL ADD CALLDATALOAD DUP3 DUP3 DUP2 MLOAD DUP2 LT PUSH2 0x25B JUMPI PUSH2 0x25A PUSH2 0x708 JUMP JUMPDEST JUMPDEST PUSH1 0x20 MUL PUSH1 0x20 ADD ADD DUP2 DUP2 MSTORE POP POP DUP1 DUP1 PUSH1 0x1 ADD SWAP2 POP POP PUSH2 0x223 JUMP JUMPDEST POP DUP1 PUSH0 SWAP1 DUP1 MLOAD SWAP1 PUSH1 0x20 ADD SWAP1 PUSH2 0x28A SWAP3 SWAP2 SWAP1 PUSH2 0x2F9 JUMP JUMPDEST POP POP POP POP JUMP JUMPDEST DUP1 PUSH0 SWAP1 DUP1 MLOAD SWAP1 PUSH1 0x20 ADD SWAP1 PUSH2 0x2A5 SWAP3 SWAP2 SWAP1 PUSH2 0x2F9 JUMP JUMPDEST POP POP JUMP JUMPDEST PUSH0 DUP1 DUP4 DUP4 DUP1 DUP1 PUSH1 0x20 MUL PUSH1 0x20 ADD PUSH1 0x40 MLOAD SWAP1 DUP2 ADD PUSH1 0x40 MSTORE DUP1 SWAP4 SWAP3 SWAP2 SWAP1 DUP2 DUP2 MSTORE PUSH1 0x20 ADD DUP4 DUP4 PUSH1 0x20 MUL DUP1 DUP3 DUP5 CALLDATACOPY PUSH0 DUP2 DUP5 ADD MSTORE PUSH1 0x1F NOT PUSH1 0x1F DUP3 ADD AND SWAP1 POP DUP1 DUP4 ADD SWAP3 POP POP POP POP POP POP POP SWAP1 POP DUP1 MLOAD SWAP2 POP POP SWAP3 SWAP2 POP POP JUMP JUMPDEST DUP3 DUP1 SLOAD DUP3 DUP3 SSTORE SWAP1 PUSH0 MSTORE PUSH1 0x20 PUSH0 KECCAK256 SWAP1 DUP2 ADD SWAP3 DUP3 ISZERO PUSH2 0x333 JUMPI SWAP2 PUSH1 0x20 MUL DUP3 ADD JUMPDEST DUP3 DUP2 GT ISZERO PUSH2 0x332 JUMPI DUP3 MLOAD DUP3 SSTORE SWAP2 PUSH1 0x20 ADD SWAP2 SWAP1 PUSH1 0x1 ADD SWAP1 PUSH2 0x317 JUMP JUMPDEST JUMPDEST POP SWAP1 POP PUSH2 0x340 SWAP2 SWAP1 PUSH2 0x344 JUMP JUMPDEST POP SWAP1 JUMP JUMPDEST JUMPDEST DUP1 DUP3 GT ISZERO PUSH2 0x35B JUMPI PUSH0 DUP2 PUSH0 SWAP1 SSTORE POP PUSH1 0x1 ADD PUSH2 0x345 JUMP JUMPDEST POP SWAP1 JUMP JUMPDEST PUSH0 PUSH1 0x40 MLOAD SWAP1 POP SWAP1 JUMP JUMPDEST PUSH0 DUP1 REVERT JUMPDEST PUSH0 DUP1 REVERT JUMPDEST PUSH0 DUP2 SWAP1 POP SWAP2 SWAP1 POP JUMP JUMPDEST PUSH2 0x382 DUP2 PUSH2 0x370 JUMP JUMPDEST DUP2 EQ PUSH2 0x38C JUMPI PUSH0 DUP1 REVERT JUMPDEST POP JUMP JUMPDEST PUSH0 DUP2 CALLDATALOAD SWAP1 POP PUSH2 0x39D DUP2 PUSH2 0x379 JUMP JUMPDEST SWAP3 SWAP2 POP POP JUMP JUMPDEST PUSH0 PUSH1 0x20 DUP3 DUP5 SUB SLT ISZERO PUSH2 0x3B8 JUMPI PUSH2 0x3B7 PUSH2 0x368 JUMP JUMPDEST JUMPDEST PUSH0 PUSH2 0x3C5 DUP5 DUP3 DUP6 ADD PUSH2 0x38F JUMP JUMPDEST SWAP2 POP POP SWAP3 SWAP2 POP POP JUMP JUMPDEST PUSH2 0x3D7 DUP2 PUSH2 0x370 JUMP JUMPDEST DUP3 MSTORE POP POP JUMP JUMPDEST PUSH0 PUSH1 0x20 DUP3 ADD SWAP1 POP PUSH2 0x3F0 PUSH0 DUP4 ADD DUP5 PUSH2 0x3CE JUMP JUMPDEST SWAP3 SWAP2 POP POP JUMP JUMPDEST PUSH0 DUP2 MLOAD SWAP1 POP SWAP2 SWAP1 POP JUMP JUMPDEST PUSH0 DUP3 DUP3 MSTORE PUSH1 0x20 DUP3 ADD SWAP1 POP SWAP3 SWAP2 POP POP JUMP JUMPDEST PUSH0 DUP2 SWAP1 POP PUSH1 0x20 DUP3 ADD SWAP1 POP SWAP2 SWAP1 POP JUMP JUMPDEST PUSH2 0x428 DUP2 PUSH2 0x370 JUMP JUMPDEST DUP3 MSTORE POP POP JUMP JUMPDEST PUSH0 PUSH2 0x439 DUP4 DUP4 PUSH2 0x41F JUMP JUMPDEST PUSH1 0x20 DUP4 ADD SWAP1 POP SWAP3 SWAP2 POP POP JUMP JUMPDEST PUSH0 PUSH1 0x20 DUP3 ADD SWAP1 POP SWAP2 SWAP1 POP JUMP JUMPDEST PUSH0 PUSH2 0x45B DUP3 PUSH2 0x3F6 JUMP JUMPDEST PUSH2 0x465 DUP2 DUP6 PUSH2 0x400 JUMP JUMPDEST SWAP4 POP PUSH2 0x470 DUP4 PUSH2 0x410 JUMP JUMPDEST DUP1 PUSH0 JUMPDEST DUP4 DUP2 LT ISZERO PUSH2 0x4A0 JUMPI DUP2 MLOAD PUSH2 0x487 DUP9 DUP3 PUSH2 0x42E JUMP JUMPDEST SWAP8 POP PUSH2 0x492 DUP4 PUSH2 0x445 JUMP JUMPDEST SWAP3 POP POP PUSH1 0x1 DUP2 ADD SWAP1 POP PUSH2 0x473 JUMP JUMPDEST POP DUP6 SWAP4 POP POP POP POP SWAP3 SWAP2 POP POP JUMP JUMPDEST PUSH0 PUSH1 0x20 DUP3 ADD SWAP1 POP DUP2 DUP2 SUB PUSH0 DUP4 ADD MSTORE PUSH2 0x4C5 DUP2 DUP5 PUSH2 0x451 JUMP JUMPDEST SWAP1 POP SWAP3 SWAP2 POP POP JUMP JUMPDEST PUSH0 DUP1 REVERT JUMPDEST PUSH0 PUSH1 0x1F NOT PUSH1 0x1F DUP4 ADD AND SWAP1 POP SWAP2 SWAP1 POP JUMP JUMPDEST PUSH32 0x4E487B7100000000000000000000000000000000000000000000000000000000 PUSH0 MSTORE PUSH1 0x41 PUSH1 0x4 MSTORE PUSH1 0x24 PUSH0 REVERT JUMPDEST PUSH2 0x517 DUP3 PUSH2 0x4D1 JUMP JUMPDEST DUP2 ADD DUP2 DUP2 LT PUSH8 0xFFFFFFFFFFFFFFFF DUP3 GT OR ISZERO PUSH2 0x536 JUMPI PUSH2 0x535 PUSH2 0x4E1 JUMP JUMPDEST JUMPDEST DUP1 PUSH1 0x40 MSTORE POP POP POP JUMP JUMPDEST PUSH0 PUSH2 0x548 PUSH2 0x35F JUMP JUMPDEST SWAP1 POP PUSH2 0x554 DUP3 DUP3 PUSH2 0x50E JUMP JUMPDEST SWAP2 SWAP1 POP JUMP JUMPDEST PUSH0 PUSH8 0xFFFFFFFFFFFFFFFF DUP3 GT ISZERO PUSH2 0x573 JUMPI PUSH2 0x572 PUSH2 0x4E1 JUMP JUMPDEST JUMPDEST PUSH1 0x20 DUP3 MUL SWAP1 POP PUSH1 0x20 DUP2 ADD SWAP1 POP SWAP2 SWAP1 POP JUMP JUMPDEST PUSH0 DUP1 REVERT JUMPDEST PUSH0 PUSH2 0x59A PUSH2 0x595 DUP5 PUSH2 0x559 JUMP JUMPDEST PUSH2 0x53F JUMP JUMPDEST SWAP1 POP DUP1 DUP4 DUP3 MSTORE PUSH1 0x20 DUP3 ADD SWAP1 POP PUSH1 0x20 DUP5 MUL DUP4 ADD DUP6 DUP2 GT ISZERO PUSH2 0x5BD JUMPI PUSH2 0x5BC PUSH2 0x584 JUMP JUMPDEST JUMPDEST DUP4 JUMPDEST DUP2 DUP2 LT ISZERO PUSH2 0x5E6 JUMPI DUP1 PUSH2 0x5D2 DUP9 DUP3 PUSH2 0x38F JUMP JUMPDEST DUP5 MSTORE PUSH1 0x20 DUP5 ADD SWAP4 POP POP PUSH1 0x20 DUP2 ADD SWAP1 POP PUSH2 0x5BF JUMP JUMPDEST POP POP POP SWAP4 SWAP3 POP POP POP JUMP JUMPDEST PUSH0 DUP3 PUSH1 0x1F DUP4 ADD SLT PUSH2 0x604 JUMPI PUSH2 0x603 PUSH2 0x4CD JUMP JUMPDEST JUMPDEST DUP2 CALLDATALOAD PUSH2 0x614 DUP5 DUP3 PUSH1 0x20 DUP7 ADD PUSH2 0x588 JUMP JUMPDEST SWAP2 POP POP SWAP3 SWAP2 POP POP JUMP JUMPDEST PUSH0 PUSH1 0x20 DUP3 DUP5 SUB SLT ISZERO PUSH2 0x632 JUMPI PUSH2 0x631 PUSH2 0x368 JUMP JUMPDEST JUMPDEST PUSH0 DUP3 ADD CALLDATALOAD PUSH8 0xFFFFFFFFFFFFFFFF DUP2 GT ISZERO PUSH2 0x64F JUMPI PUSH2 0x64E PUSH2 0x36C JUMP JUMPDEST JUMPDEST PUSH2 0x65B DUP5 DUP3 DUP6 ADD PUSH2 0x5F0 JUMP JUMPDEST SWAP2 POP POP SWAP3 SWAP2 POP POP JUMP JUMPDEST PUSH0 DUP1 REVERT JUMPDEST PUSH0 DUP1 DUP4 PUSH1 0x1F DUP5 ADD SLT PUSH2 0x67D JUMPI PUSH2 0x67C PUSH2 0x4CD JUMP JUMPDEST JUMPDEST DUP3 CALLDATALOAD SWAP1 POP PUSH8 0xFFFFFFFFFFFFFFFF DUP2 GT ISZERO PUSH2 0x69A JUMPI PUSH2 0x699 PUSH2 0x664 JUMP JUMPDEST JUMPDEST PUSH1 0x20 DUP4 ADD SWAP2 POP DUP4 PUSH1 0x20 DUP3 MUL DUP4 ADD GT ISZERO PUSH2 0x6B6 JUMPI PUSH2 0x6B5 PUSH2 0x584 JUMP JUMPDEST JUMPDEST SWAP3 POP SWAP3 SWAP1 POP JUMP JUMPDEST PUSH0 DUP1 PUSH1 0x20 DUP4 DUP6 SUB SLT ISZERO PUSH2 0x6D3 JUMPI PUSH2 0x6D2 PUSH2 0x368 JUMP JUMPDEST JUMPDEST PUSH0 DUP4 ADD CALLDATALOAD PUSH8 0xFFFFFFFFFFFFFFFF DUP2 GT ISZERO PUSH2 0x6F0 JUMPI PUSH2 0x6EF PUSH2 0x36C JUMP JUMPDEST JUMPDEST PUSH2 0x6FC DUP6 DUP3 DUP7 ADD PUSH2 0x668 JUMP JUMPDEST SWAP3 POP SWAP3 POP POP SWAP3 POP SWAP3 SWAP1 POP JUMP JUMPDEST PUSH32 0x4E487B7100000000000000000000000000000000000000000000000000000000 PUSH0 MSTORE PUSH1 0x32 PUSH1 0x4 MSTORE PUSH1 0x24 PUSH0 REVERT INVALID LOG2 PUSH5 0x6970667358 0x22 SLT KECCAK256 GT SWAP15 PUSH15 0xF47E3DEA2222197523EC47DFC04714 DIV CALLER SDIV CALLER 0xF PUSH0 0xD4 PUSH5 0x3C9F5E397E 0xD7 PUSH5 0x736F6C6343 STOP ADDMOD BYTE STOP CALLER "
				},
				"gasEstimates": {
					"creation": {
						"codeDepositCost": "379800",
						"executionCost": "infinite",
						"totalCost": "infinite"
					},
					"external": {
						"copyFromStorage()": "infinite",
						"copyMemoryArray(uint256[])": "infinite",
						"processArray(uint256[])": "infinite",
						"setStorageArray(uint256[])": "infinite",
						"setStorageFromCalldata(uint256[])": "infinite",
						"storageArray(uint256)": "infinite"
					}
				},
				"methodIdentifiers": {
					"copyFromStorage()": "12bb2ac8",
					"copyMemoryArray(uint256[])": "5ffcca73",
					"processArray(uint256[])": "e7e23780",
					"setStorageArray(uint256[])": "dcfdf61b",
					"setStorageFromCalldata(uint256[])": "8b83bd53",
					"storageArray(uint256)": "0e031ab1"
				}
			},
			"storageLayout": {
				"storage": [
					{
						"astId": 4,
						"contract": "contracts/12_StorageMemoryDemo.sol:StorageMemoryDemo",
						"label": "storageArray",
						"offset": 0,
						"slot": "0",
						"type": "t_array(t_uint256)dyn_storage"
					},
					{
						"astId": 7,
						"contract": "contracts/12_StorageMemoryDemo.sol:StorageMemoryDemo",
						"label": "storageArray1",
						"offset": 0,
						"slot": "1",
						"type": "t_array(t_uint256)dyn_storage"
					},
					{
						"astId": 10,
						"contract": "contracts/12_StorageMemoryDemo.sol:StorageMemoryDemo",
						"label": "storageArray2",
						"offset": 0,
						"slot": "2",
						"type": "t_array(t_uint256)dyn_storage"
					}
				],
				"types": {
					"t_array(t_uint256)dyn_storage": {
						"base": "t_uint256",
						"encoding": "dynamic_array",
						"label": "uint256[]",
						"numberOfBytes": "32"
					},
					"t_uint256": {
						"encoding": "inplace",
						"label": "uint256",
						"numberOfBytes": "32"
					}
				}
			},
			"userdoc": {
				"kind": "user",
				"methods": {},
				"version": 1
			}
		}
	}
}