{
	"contracts/17_StructDemo.sol": {
		"StructDemo": {
			"abi": [
				{
					"inputs": [
						{
							"internalType": "string",
							"name": "_name",
							"type": "string"
						},
						{
							"internalType": "uint256",
							"name": "_age",
							"type": "uint256"
						},
						{
							"internalType": "address",
							"name": "_walletAddress",
							"type": "address"
						}
					],
					"name": "addPerson",
					"outputs": [],
					"stateMutability": "nonpayable",
					"type": "function"
				},
				{
					"inputs": [],
					"name": "getPeopleCount",
					"outputs": [
						{
							"internalType": "uint256",
							"name": "",
							"type": "uint256"
						}
					],
					"stateMutability": "view",
					"type": "function"
				},
				{
					"inputs": [
						{
							"internalType": "uint256",
							"name": "index",
							"type": "uint256"
						}
					],
					"name": "getPerson",
					"outputs": [
						{
							"internalType": "string",
							"name": "",
							"type": "string"
						},
						{
							"internalType": "uint256",
							"name": "",
							"type": "uint256"
						},
						{
							"internalType": "address",
							"name": "",
							"type": "address"
						}
					],
					"stateMutability": "view",
					"type": "function"
				},
				{
					"inputs": [
						{
							"internalType": "uint256",
							"name": "",
							"type": "uint256"
						}
					],
					"name": "people",
					"outputs": [
						{
							"internalType": "string",
							"name": "name",
							"type": "string"
						},
						{
							"internalType": "uint256",
							"name": "age",
							"type": "uint256"
						},
						{
							"internalType": "address",
							"name": "walletAddress",
							"type": "address"
						}
					],
					"stateMutability": "view",
					"type": "function"
				}
			],
			"devdoc": {
				"kind": "dev",
				"methods": {},
				"version": 1
			},
			"evm": {
				"assembly": "    /* \"contracts/17_StructDemo.sol\":60:1068  contract StructDemo {... */\n  mstore(0x40, 0x80)\n  callvalue\n  dup1\n  iszero\n  tag_1\n  jumpi\n  0x00\n  dup1\n  revert\ntag_1:\n  pop\n  dataSize(sub_0)\n  dup1\n  dataOffset(sub_0)\n  0x00\n  codecopy\n  0x00\n  return\nstop\n\nsub_0: assembly {\n        /* \"contracts/17_StructDemo.sol\":60:1068  contract StructDemo {... */\n      mstore(0x40, 0x80)\n      callvalue\n      dup1\n      iszero\n      tag_1\n      jumpi\n      0x00\n      dup1\n      revert\n    tag_1:\n      pop\n      jumpi(tag_2, lt(calldatasize, 0x04))\n      shr(0xe0, calldataload(0x00))\n      dup1\n      0x246982c4\n      eq\n      tag_3\n      jumpi\n      dup1\n      0x9e7a13ad\n      eq\n      tag_4\n      jumpi\n      dup1\n      0xa9d53186\n      eq\n      tag_5\n      jumpi\n      dup1\n      0xe11641cf\n      eq\n      tag_6\n      jumpi\n    tag_2:\n      0x00\n      dup1\n      revert\n        /* \"contracts/17_StructDemo.sol\":660:926  function getPerson(uint index) public view returns (string memory, uint, address) {... */\n    tag_3:\n      tag_7\n      0x04\n      dup1\n      calldatasize\n      sub\n      dup2\n      add\n      swap1\n      tag_8\n      swap2\n      swap1\n      tag_9\n      jump\t// in\n    tag_8:\n      tag_10\n      jump\t// in\n    tag_7:\n      mload(0x40)\n      tag_11\n      swap4\n      swap3\n      swap2\n      swap1\n      tag_12\n      jump\t// in\n    tag_11:\n      mload(0x40)\n      dup1\n      swap2\n      sub\n      swap1\n      return\n        /* \"contracts/17_StructDemo.sol\":256:278  Person[] public people */\n    tag_4:\n      tag_13\n      0x04\n      dup1\n      calldatasize\n      sub\n      dup2\n      add\n      swap1\n      tag_14\n      swap2\n      swap1\n      tag_9\n      jump\t// in\n    tag_14:\n      tag_15\n      jump\t// in\n    tag_13:\n      mload(0x40)\n      tag_16\n      swap4\n      swap3\n      swap2\n      swap1\n      tag_12\n      jump\t// in\n    tag_16:\n      mload(0x40)\n      dup1\n      swap2\n      sub\n      swap1\n      return\n        /* \"contracts/17_StructDemo.sol\":973:1065  function getPeopleCount() public view returns (uint) {... */\n    tag_5:\n      tag_17\n      tag_18\n      jump\t// in\n    tag_17:\n      mload(0x40)\n      tag_19\n      swap2\n      swap1\n      tag_20\n      jump\t// in\n    tag_19:\n      mload(0x40)\n      dup1\n      swap2\n      sub\n      swap1\n      return\n        /* \"contracts/17_StructDemo.sol\":335:610  function addPerson(string memory _name, uint _age, address _walletAddress) public {... */\n    tag_6:\n      tag_21\n      0x04\n      dup1\n      calldatasize\n      sub\n      dup2\n      add\n      swap1\n      tag_22\n      swap2\n      swap1\n      tag_23\n      jump\t// in\n    tag_22:\n      tag_24\n      jump\t// in\n    tag_21:\n      stop\n        /* \"contracts/17_StructDemo.sol\":660:926  function getPerson(uint index) public view returns (string memory, uint, address) {... */\n    tag_10:\n        /* \"contracts/17_StructDemo.sol\":712:725  string memory */\n      0x60\n        /* \"contracts/17_StructDemo.sol\":727:731  uint */\n      0x00\n        /* \"contracts/17_StructDemo.sol\":733:740  address */\n      dup1\n        /* \"contracts/17_StructDemo.sol\":769:775  people */\n      0x00\n        /* \"contracts/17_StructDemo.sol\":769:782  people.length */\n      dup1\n      sload\n      swap1\n      pop\n        /* \"contracts/17_StructDemo.sol\":761:766  index */\n      dup5\n        /* \"contracts/17_StructDemo.sol\":761:782  index < people.length */\n      lt\n        /* \"contracts/17_StructDemo.sol\":753:806  require(index < people.length, \"Index out of bounds\") */\n      tag_26\n      jumpi\n      mload(0x40)\n      0x08c379a000000000000000000000000000000000000000000000000000000000\n      dup2\n      mstore\n      0x04\n      add\n      tag_27\n      swap1\n      tag_28\n      jump\t// in\n    tag_27:\n      mload(0x40)\n      dup1\n      swap2\n      sub\n      swap1\n      revert\n    tag_26:\n        /* \"contracts/17_StructDemo.sol\":817:837  Person memory person */\n      0x00\n        /* \"contracts/17_StructDemo.sol\":840:846  people */\n      dup1\n        /* \"contracts/17_StructDemo.sol\":847:852  index */\n      dup6\n        /* \"contracts/17_StructDemo.sol\":840:853  people[index] */\n      dup2\n      sload\n      dup2\n      lt\n      tag_29\n      jumpi\n      tag_30\n      tag_31\n      jump\t// in\n    tag_30:\n    tag_29:\n      swap1\n      0x00\n      mstore\n      keccak256(0x00, 0x20)\n      swap1\n      0x03\n      mul\n      add\n        /* \"contracts/17_StructDemo.sol\":817:853  Person memory person = people[index] */\n      mload(0x40)\n      dup1\n      0x60\n      add\n      0x40\n      mstore\n      swap1\n      dup2\n      0x00\n      dup3\n      add\n      dup1\n      sload\n      tag_33\n      swap1\n      tag_34\n      jump\t// in\n    tag_33:\n      dup1\n      0x1f\n      add\n      0x20\n      dup1\n      swap2\n      div\n      mul\n      0x20\n      add\n      mload(0x40)\n      swap1\n      dup2\n      add\n      0x40\n      mstore\n      dup1\n      swap3\n      swap2\n      swap1\n      dup2\n      dup2\n      mstore\n      0x20\n      add\n      dup3\n      dup1\n      sload\n      tag_35\n      swap1\n      tag_34\n      jump\t// in\n    tag_35:\n      dup1\n      iszero\n      tag_36\n      jumpi\n      dup1\n      0x1f\n      lt\n      tag_37\n      jumpi\n      0x0100\n      dup1\n      dup4\n      sload\n      div\n      mul\n      dup4\n      mstore\n      swap2\n      0x20\n      add\n      swap2\n      jump(tag_36)\n    tag_37:\n      dup3\n      add\n      swap2\n      swap1\n      0x00\n      mstore\n      keccak256(0x00, 0x20)\n      swap1\n    tag_38:\n      dup2\n      sload\n      dup2\n      mstore\n      swap1\n      0x01\n      add\n      swap1\n      0x20\n      add\n      dup1\n      dup4\n      gt\n      tag_38\n      jumpi\n      dup3\n      swap1\n      sub\n      0x1f\n      and\n      dup3\n      add\n      swap2\n    tag_36:\n      pop\n      pop\n      pop\n      pop\n      pop\n      dup2\n      mstore\n      0x20\n      add\n      0x01\n      dup3\n      add\n      sload\n      dup2\n      mstore\n      0x20\n      add\n      0x02\n      dup3\n      add\n      0x00\n      swap1\n      sload\n      swap1\n      0x0100\n      exp\n      swap1\n      div\n      0xffffffffffffffffffffffffffffffffffffffff\n      and\n      0xffffffffffffffffffffffffffffffffffffffff\n      and\n      0xffffffffffffffffffffffffffffffffffffffff\n      and\n      dup2\n      mstore\n      pop\n      pop\n      swap1\n      pop\n        /* \"contracts/17_StructDemo.sol\":872:878  person */\n      dup1\n        /* \"contracts/17_StructDemo.sol\":872:883  person.name */\n      0x00\n      add\n      mload\n        /* \"contracts/17_StructDemo.sol\":885:891  person */\n      dup2\n        /* \"contracts/17_StructDemo.sol\":885:895  person.age */\n      0x20\n      add\n      mload\n        /* \"contracts/17_StructDemo.sol\":897:903  person */\n      dup3\n        /* \"contracts/17_StructDemo.sol\":897:917  person.walletAddress */\n      0x40\n      add\n      mload\n        /* \"contracts/17_StructDemo.sol\":864:918  return (person.name, person.age, person.walletAddress) */\n      swap4\n      pop\n      swap4\n      pop\n      swap4\n      pop\n      pop\n        /* \"contracts/17_StructDemo.sol\":660:926  function getPerson(uint index) public view returns (string memory, uint, address) {... */\n      swap2\n      swap4\n      swap1\n      swap3\n      pop\n      jump\t// out\n        /* \"contracts/17_StructDemo.sol\":256:278  Person[] public people */\n    tag_15:\n      0x00\n      dup2\n      dup2\n      sload\n      dup2\n      lt\n      tag_39\n      jumpi\n      0x00\n      dup1\n      revert\n    tag_39:\n      swap1\n      0x00\n      mstore\n      keccak256(0x00, 0x20)\n      swap1\n      0x03\n      mul\n      add\n      0x00\n      swap2\n      pop\n      swap1\n      pop\n      dup1\n      0x00\n      add\n      dup1\n      sload\n      tag_41\n      swap1\n      tag_34\n      jump\t// in\n    tag_41:\n      dup1\n      0x1f\n      add\n      0x20\n      dup1\n      swap2\n      div\n      mul\n      0x20\n      add\n      mload(0x40)\n      swap1\n      dup2\n      add\n      0x40\n      mstore\n      dup1\n      swap3\n      swap2\n      swap1\n      dup2\n      dup2\n      mstore\n      0x20\n      add\n      dup3\n      dup1\n      sload\n      tag_42\n      swap1\n      tag_34\n      jump\t// in\n    tag_42:\n      dup1\n      iszero\n      tag_43\n      jumpi\n      dup1\n      0x1f\n      lt\n      tag_44\n      jumpi\n      0x0100\n      dup1\n      dup4\n      sload\n      div\n      mul\n      dup4\n      mstore\n      swap2\n      0x20\n      add\n      swap2\n      jump(tag_43)\n    tag_44:\n      dup3\n      add\n      swap2\n      swap1\n      0x00\n      mstore\n      keccak256(0x00, 0x20)\n      swap1\n    tag_45:\n      dup2\n      sload\n      dup2\n      mstore\n      swap1\n      0x01\n      add\n      swap1\n      0x20\n      add\n      dup1\n      dup4\n      gt\n      tag_45\n      jumpi\n      dup3\n      swap1\n      sub\n      0x1f\n      and\n      dup3\n      add\n      swap2\n    tag_43:\n      pop\n      pop\n      pop\n      pop\n      pop\n      swap1\n      dup1\n      0x01\n      add\n      sload\n      swap1\n      dup1\n      0x02\n      add\n      0x00\n      swap1\n      sload\n      swap1\n      0x0100\n      exp\n      swap1\n      div\n      0xffffffffffffffffffffffffffffffffffffffff\n      and\n      swap1\n      pop\n      dup4\n      jump\t// out\n        /* \"contracts/17_StructDemo.sol\":973:1065  function getPeopleCount() public view returns (uint) {... */\n    tag_18:\n        /* \"contracts/17_StructDemo.sol\":1020:1024  uint */\n      0x00\n        /* \"contracts/17_StructDemo.sol\":1044:1050  people */\n      dup1\n        /* \"contracts/17_StructDemo.sol\":1044:1057  people.length */\n      dup1\n      sload\n      swap1\n      pop\n        /* \"contracts/17_StructDemo.sol\":1037:1057  return people.length */\n      swap1\n      pop\n        /* \"contracts/17_StructDemo.sol\":973:1065  function getPeopleCount() public view returns (uint) {... */\n      swap1\n      jump\t// out\n        /* \"contracts/17_StructDemo.sol\":335:610  function addPerson(string memory _name, uint _age, address _walletAddress) public {... */\n    tag_24:\n        /* \"contracts/17_StructDemo.sol\":428:451  Person memory newPerson */\n      0x00\n        /* \"contracts/17_StructDemo.sol\":454:567  Person({... */\n      mload(0x40)\n      dup1\n      0x60\n      add\n      0x40\n      mstore\n      dup1\n        /* \"contracts/17_StructDemo.sol\":482:487  _name */\n      dup6\n        /* \"contracts/17_StructDemo.sol\":454:567  Person({... */\n      dup2\n      mstore\n      0x20\n      add\n        /* \"contracts/17_StructDemo.sol\":507:511  _age */\n      dup5\n        /* \"contracts/17_StructDemo.sol\":454:567  Person({... */\n      dup2\n      mstore\n      0x20\n      add\n        /* \"contracts/17_StructDemo.sol\":541:555  _walletAddress */\n      dup4\n        /* \"contracts/17_StructDemo.sol\":454:567  Person({... */\n      0xffffffffffffffffffffffffffffffffffffffff\n      and\n      dup2\n      mstore\n      pop\n        /* \"contracts/17_StructDemo.sol\":428:567  Person memory newPerson = Person({... */\n      swap1\n      pop\n        /* \"contracts/17_StructDemo.sol\":580:586  people */\n      0x00\n        /* \"contracts/17_StructDemo.sol\":592:601  newPerson */\n      dup2\n        /* \"contracts/17_StructDemo.sol\":580:602  people.push(newPerson) */\n      swap1\n      dup1\n      0x01\n      dup2\n      sload\n      add\n      dup1\n      dup3\n      sstore\n      dup1\n      swap2\n      pop\n      pop\n      0x01\n      swap1\n      sub\n      swap1\n      0x00\n      mstore\n      keccak256(0x00, 0x20)\n      swap1\n      0x03\n      mul\n      add\n      0x00\n      swap1\n      swap2\n      swap1\n      swap2\n      swap1\n      swap2\n      pop\n      0x00\n      dup3\n      add\n      mload\n      dup2\n      0x00\n      add\n      swap1\n      dup2\n      tag_49\n      swap2\n      swap1\n      tag_50\n      jump\t// in\n    tag_49:\n      pop\n      0x20\n      dup3\n      add\n      mload\n      dup2\n      0x01\n      add\n      sstore\n      0x40\n      dup3\n      add\n      mload\n      dup2\n      0x02\n      add\n      exp(0x0100, 0x00)\n      dup2\n      sload\n      dup2\n      0xffffffffffffffffffffffffffffffffffffffff\n      mul\n      not\n      and\n      swap1\n      dup4\n      0xffffffffffffffffffffffffffffffffffffffff\n      and\n      mul\n      or\n      swap1\n      sstore\n      pop\n      pop\n      pop\n        /* \"contracts/17_StructDemo.sol\":417:610  {... */\n      pop\n        /* \"contracts/17_StructDemo.sol\":335:610  function addPerson(string memory _name, uint _age, address _walletAddress) public {... */\n      pop\n      pop\n      pop\n      jump\t// out\n        /* \"#utility.yul\":7:82   */\n    tag_51:\n        /* \"#utility.yul\":40:46   */\n      0x00\n        /* \"#utility.yul\":73:75   */\n      0x40\n        /* \"#utility.yul\":67:76   */\n      mload\n        /* \"#utility.yul\":57:76   */\n      swap1\n      pop\n        /* \"#utility.yul\":7:82   */\n      swap1\n      jump\t// out\n        /* \"#utility.yul\":88:205   */\n    tag_52:\n        /* \"#utility.yul\":197:198   */\n      0x00\n        /* \"#utility.yul\":194:195   */\n      dup1\n        /* \"#utility.yul\":187:199   */\n      revert\n        /* \"#utility.yul\":211:328   */\n    tag_53:\n        /* \"#utility.yul\":320:321   */\n      0x00\n        /* \"#utility.yul\":317:318   */\n      dup1\n        /* \"#utility.yul\":310:322   */\n      revert\n        /* \"#utility.yul\":334:411   */\n    tag_54:\n        /* \"#utility.yul\":371:378   */\n      0x00\n        /* \"#utility.yul\":400:405   */\n      dup2\n        /* \"#utility.yul\":389:405   */\n      swap1\n      pop\n        /* \"#utility.yul\":334:411   */\n      swap2\n      swap1\n      pop\n      jump\t// out\n        /* \"#utility.yul\":417:539   */\n    tag_55:\n        /* \"#utility.yul\":490:514   */\n      tag_101\n        /* \"#utility.yul\":508:513   */\n      dup2\n        /* \"#utility.yul\":490:514   */\n      tag_54\n      jump\t// in\n    tag_101:\n        /* \"#utility.yul\":483:488   */\n      dup2\n        /* \"#utility.yul\":480:515   */\n      eq\n        /* \"#utility.yul\":470:533   */\n      tag_102\n      jumpi\n        /* \"#utility.yul\":529:530   */\n      0x00\n        /* \"#utility.yul\":526:527   */\n      dup1\n        /* \"#utility.yul\":519:531   */\n      revert\n        /* \"#utility.yul\":470:533   */\n    tag_102:\n        /* \"#utility.yul\":417:539   */\n      pop\n      jump\t// out\n        /* \"#utility.yul\":545:684   */\n    tag_56:\n        /* \"#utility.yul\":591:596   */\n      0x00\n        /* \"#utility.yul\":629:635   */\n      dup2\n        /* \"#utility.yul\":616:636   */\n      calldataload\n        /* \"#utility.yul\":607:636   */\n      swap1\n      pop\n        /* \"#utility.yul\":645:678   */\n      tag_104\n        /* \"#utility.yul\":672:677   */\n      dup2\n        /* \"#utility.yul\":645:678   */\n      tag_55\n      jump\t// in\n    tag_104:\n        /* \"#utility.yul\":545:684   */\n      swap3\n      swap2\n      pop\n      pop\n      jump\t// out\n        /* \"#utility.yul\":690:1019   */\n    tag_9:\n        /* \"#utility.yul\":749:755   */\n      0x00\n        /* \"#utility.yul\":798:800   */\n      0x20\n        /* \"#utility.yul\":786:795   */\n      dup3\n        /* \"#utility.yul\":777:784   */\n      dup5\n        /* \"#utility.yul\":773:796   */\n      sub\n        /* \"#utility.yul\":769:801   */\n      slt\n        /* \"#utility.yul\":766:885   */\n      iszero\n      tag_106\n      jumpi\n        /* \"#utility.yul\":804:883   */\n      tag_107\n      tag_52\n      jump\t// in\n    tag_107:\n        /* \"#utility.yul\":766:885   */\n    tag_106:\n        /* \"#utility.yul\":924:925   */\n      0x00\n        /* \"#utility.yul\":949:1002   */\n      tag_108\n        /* \"#utility.yul\":994:1001   */\n      dup5\n        /* \"#utility.yul\":985:991   */\n      dup3\n        /* \"#utility.yul\":974:983   */\n      dup6\n        /* \"#utility.yul\":970:992   */\n      add\n        /* \"#utility.yul\":949:1002   */\n      tag_56\n      jump\t// in\n    tag_108:\n        /* \"#utility.yul\":939:1002   */\n      swap2\n      pop\n        /* \"#utility.yul\":895:1012   */\n      pop\n        /* \"#utility.yul\":690:1019   */\n      swap3\n      swap2\n      pop\n      pop\n      jump\t// out\n        /* \"#utility.yul\":1025:1124   */\n    tag_57:\n        /* \"#utility.yul\":1077:1083   */\n      0x00\n        /* \"#utility.yul\":1111:1116   */\n      dup2\n        /* \"#utility.yul\":1105:1117   */\n      mload\n        /* \"#utility.yul\":1095:1117   */\n      swap1\n      pop\n        /* \"#utility.yul\":1025:1124   */\n      swap2\n      swap1\n      pop\n      jump\t// out\n        /* \"#utility.yul\":1130:1299   */\n    tag_58:\n        /* \"#utility.yul\":1214:1225   */\n      0x00\n        /* \"#utility.yul\":1248:1254   */\n      dup3\n        /* \"#utility.yul\":1243:1246   */\n      dup3\n        /* \"#utility.yul\":1236:1255   */\n      mstore\n        /* \"#utility.yul\":1288:1292   */\n      0x20\n        /* \"#utility.yul\":1283:1286   */\n      dup3\n        /* \"#utility.yul\":1279:1293   */\n      add\n        /* \"#utility.yul\":1264:1293   */\n      swap1\n      pop\n        /* \"#utility.yul\":1130:1299   */\n      swap3\n      swap2\n      pop\n      pop\n      jump\t// out\n        /* \"#utility.yul\":1305:1444   */\n    tag_59:\n        /* \"#utility.yul\":1394:1400   */\n      dup3\n        /* \"#utility.yul\":1389:1392   */\n      dup2\n        /* \"#utility.yul\":1384:1387   */\n      dup4\n        /* \"#utility.yul\":1378:1401   */\n      mcopy\n        /* \"#utility.yul\":1435:1436   */\n      0x00\n        /* \"#utility.yul\":1426:1432   */\n      dup4\n        /* \"#utility.yul\":1421:1424   */\n      dup4\n        /* \"#utility.yul\":1417:1433   */\n      add\n        /* \"#utility.yul\":1410:1437   */\n      mstore\n        /* \"#utility.yul\":1305:1444   */\n      pop\n      pop\n      pop\n      jump\t// out\n        /* \"#utility.yul\":1450:1552   */\n    tag_60:\n        /* \"#utility.yul\":1491:1497   */\n      0x00\n        /* \"#utility.yul\":1542:1544   */\n      0x1f\n        /* \"#utility.yul\":1538:1545   */\n      not\n        /* \"#utility.yul\":1533:1535   */\n      0x1f\n        /* \"#utility.yul\":1526:1531   */\n      dup4\n        /* \"#utility.yul\":1522:1536   */\n      add\n        /* \"#utility.yul\":1518:1546   */\n      and\n        /* \"#utility.yul\":1508:1546   */\n      swap1\n      pop\n        /* \"#utility.yul\":1450:1552   */\n      swap2\n      swap1\n      pop\n      jump\t// out\n        /* \"#utility.yul\":1558:1935   */\n    tag_61:\n        /* \"#utility.yul\":1646:1649   */\n      0x00\n        /* \"#utility.yul\":1674:1713   */\n      tag_114\n        /* \"#utility.yul\":1707:1712   */\n      dup3\n        /* \"#utility.yul\":1674:1713   */\n      tag_57\n      jump\t// in\n    tag_114:\n        /* \"#utility.yul\":1729:1800   */\n      tag_115\n        /* \"#utility.yul\":1793:1799   */\n      dup2\n        /* \"#utility.yul\":1788:1791   */\n      dup6\n        /* \"#utility.yul\":1729:1800   */\n      tag_58\n      jump\t// in\n    tag_115:\n        /* \"#utility.yul\":1722:1800   */\n      swap4\n      pop\n        /* \"#utility.yul\":1809:1874   */\n      tag_116\n        /* \"#utility.yul\":1867:1873   */\n      dup2\n        /* \"#utility.yul\":1862:1865   */\n      dup6\n        /* \"#utility.yul\":1855:1859   */\n      0x20\n        /* \"#utility.yul\":1848:1853   */\n      dup7\n        /* \"#utility.yul\":1844:1860   */\n      add\n        /* \"#utility.yul\":1809:1874   */\n      tag_59\n      jump\t// in\n    tag_116:\n        /* \"#utility.yul\":1899:1928   */\n      tag_117\n        /* \"#utility.yul\":1921:1927   */\n      dup2\n        /* \"#utility.yul\":1899:1928   */\n      tag_60\n      jump\t// in\n    tag_117:\n        /* \"#utility.yul\":1894:1897   */\n      dup5\n        /* \"#utility.yul\":1890:1929   */\n      add\n        /* \"#utility.yul\":1883:1929   */\n      swap2\n      pop\n        /* \"#utility.yul\":1650:1935   */\n      pop\n        /* \"#utility.yul\":1558:1935   */\n      swap3\n      swap2\n      pop\n      pop\n      jump\t// out\n        /* \"#utility.yul\":1941:2059   */\n    tag_62:\n        /* \"#utility.yul\":2028:2052   */\n      tag_119\n        /* \"#utility.yul\":2046:2051   */\n      dup2\n        /* \"#utility.yul\":2028:2052   */\n      tag_54\n      jump\t// in\n    tag_119:\n        /* \"#utility.yul\":2023:2026   */\n      dup3\n        /* \"#utility.yul\":2016:2053   */\n      mstore\n        /* \"#utility.yul\":1941:2059   */\n      pop\n      pop\n      jump\t// out\n        /* \"#utility.yul\":2065:2191   */\n    tag_63:\n        /* \"#utility.yul\":2102:2109   */\n      0x00\n        /* \"#utility.yul\":2142:2184   */\n      0xffffffffffffffffffffffffffffffffffffffff\n        /* \"#utility.yul\":2135:2140   */\n      dup3\n        /* \"#utility.yul\":2131:2185   */\n      and\n        /* \"#utility.yul\":2120:2185   */\n      swap1\n      pop\n        /* \"#utility.yul\":2065:2191   */\n      swap2\n      swap1\n      pop\n      jump\t// out\n        /* \"#utility.yul\":2197:2293   */\n    tag_64:\n        /* \"#utility.yul\":2234:2241   */\n      0x00\n        /* \"#utility.yul\":2263:2287   */\n      tag_122\n        /* \"#utility.yul\":2281:2286   */\n      dup3\n        /* \"#utility.yul\":2263:2287   */\n      tag_63\n      jump\t// in\n    tag_122:\n        /* \"#utility.yul\":2252:2287   */\n      swap1\n      pop\n        /* \"#utility.yul\":2197:2293   */\n      swap2\n      swap1\n      pop\n      jump\t// out\n        /* \"#utility.yul\":2299:2417   */\n    tag_65:\n        /* \"#utility.yul\":2386:2410   */\n      tag_124\n        /* \"#utility.yul\":2404:2409   */\n      dup2\n        /* \"#utility.yul\":2386:2410   */\n      tag_64\n      jump\t// in\n    tag_124:\n        /* \"#utility.yul\":2381:2384   */\n      dup3\n        /* \"#utility.yul\":2374:2411   */\n      mstore\n        /* \"#utility.yul\":2299:2417   */\n      pop\n      pop\n      jump\t// out\n        /* \"#utility.yul\":2423:2956   */\n    tag_12:\n        /* \"#utility.yul\":2592:2596   */\n      0x00\n        /* \"#utility.yul\":2630:2632   */\n      0x60\n        /* \"#utility.yul\":2619:2628   */\n      dup3\n        /* \"#utility.yul\":2615:2633   */\n      add\n        /* \"#utility.yul\":2607:2633   */\n      swap1\n      pop\n        /* \"#utility.yul\":2679:2688   */\n      dup2\n        /* \"#utility.yul\":2673:2677   */\n      dup2\n        /* \"#utility.yul\":2669:2689   */\n      sub\n        /* \"#utility.yul\":2665:2666   */\n      0x00\n        /* \"#utility.yul\":2654:2663   */\n      dup4\n        /* \"#utility.yul\":2650:2667   */\n      add\n        /* \"#utility.yul\":2643:2690   */\n      mstore\n        /* \"#utility.yul\":2707:2785   */\n      tag_126\n        /* \"#utility.yul\":2780:2784   */\n      dup2\n        /* \"#utility.yul\":2771:2777   */\n      dup7\n        /* \"#utility.yul\":2707:2785   */\n      tag_61\n      jump\t// in\n    tag_126:\n        /* \"#utility.yul\":2699:2785   */\n      swap1\n      pop\n        /* \"#utility.yul\":2795:2867   */\n      tag_127\n        /* \"#utility.yul\":2863:2865   */\n      0x20\n        /* \"#utility.yul\":2852:2861   */\n      dup4\n        /* \"#utility.yul\":2848:2866   */\n      add\n        /* \"#utility.yul\":2839:2845   */\n      dup6\n        /* \"#utility.yul\":2795:2867   */\n      tag_62\n      jump\t// in\n    tag_127:\n        /* \"#utility.yul\":2877:2949   */\n      tag_128\n        /* \"#utility.yul\":2945:2947   */\n      0x40\n        /* \"#utility.yul\":2934:2943   */\n      dup4\n        /* \"#utility.yul\":2930:2948   */\n      add\n        /* \"#utility.yul\":2921:2927   */\n      dup5\n        /* \"#utility.yul\":2877:2949   */\n      tag_65\n      jump\t// in\n    tag_128:\n        /* \"#utility.yul\":2423:2956   */\n      swap5\n      swap4\n      pop\n      pop\n      pop\n      pop\n      jump\t// out\n        /* \"#utility.yul\":2962:3184   */\n    tag_20:\n        /* \"#utility.yul\":3055:3059   */\n      0x00\n        /* \"#utility.yul\":3093:3095   */\n      0x20\n        /* \"#utility.yul\":3082:3091   */\n      dup3\n        /* \"#utility.yul\":3078:3096   */\n      add\n        /* \"#utility.yul\":3070:3096   */\n      swap1\n      pop\n        /* \"#utility.yul\":3106:3177   */\n      tag_130\n        /* \"#utility.yul\":3174:3175   */\n      0x00\n        /* \"#utility.yul\":3163:3172   */\n      dup4\n        /* \"#utility.yul\":3159:3176   */\n      add\n        /* \"#utility.yul\":3150:3156   */\n      dup5\n        /* \"#utility.yul\":3106:3177   */\n      tag_62\n      jump\t// in\n    tag_130:\n        /* \"#utility.yul\":2962:3184   */\n      swap3\n      swap2\n      pop\n      pop\n      jump\t// out\n        /* \"#utility.yul\":3190:3307   */\n    tag_66:\n        /* \"#utility.yul\":3299:3300   */\n      0x00\n        /* \"#utility.yul\":3296:3297   */\n      dup1\n        /* \"#utility.yul\":3289:3301   */\n      revert\n        /* \"#utility.yul\":3313:3430   */\n    tag_67:\n        /* \"#utility.yul\":3422:3423   */\n      0x00\n        /* \"#utility.yul\":3419:3420   */\n      dup1\n        /* \"#utility.yul\":3412:3424   */\n      revert\n        /* \"#utility.yul\":3436:3616   */\n    tag_68:\n        /* \"#utility.yul\":3484:3561   */\n      0x4e487b7100000000000000000000000000000000000000000000000000000000\n        /* \"#utility.yul\":3481:3482   */\n      0x00\n        /* \"#utility.yul\":3474:3562   */\n      mstore\n        /* \"#utility.yul\":3581:3585   */\n      0x41\n        /* \"#utility.yul\":3578:3579   */\n      0x04\n        /* \"#utility.yul\":3571:3586   */\n      mstore\n        /* \"#utility.yul\":3605:3609   */\n      0x24\n        /* \"#utility.yul\":3602:3603   */\n      0x00\n        /* \"#utility.yul\":3595:3610   */\n      revert\n        /* \"#utility.yul\":3622:3903   */\n    tag_69:\n        /* \"#utility.yul\":3705:3732   */\n      tag_135\n        /* \"#utility.yul\":3727:3731   */\n      dup3\n        /* \"#utility.yul\":3705:3732   */\n      tag_60\n      jump\t// in\n    tag_135:\n        /* \"#utility.yul\":3697:3703   */\n      dup2\n        /* \"#utility.yul\":3693:3733   */\n      add\n        /* \"#utility.yul\":3835:3841   */\n      dup2\n        /* \"#utility.yul\":3823:3833   */\n      dup2\n        /* \"#utility.yul\":3820:3842   */\n      lt\n        /* \"#utility.yul\":3799:3817   */\n      0xffffffffffffffff\n        /* \"#utility.yul\":3787:3797   */\n      dup3\n        /* \"#utility.yul\":3784:3818   */\n      gt\n        /* \"#utility.yul\":3781:3843   */\n      or\n        /* \"#utility.yul\":3778:3866   */\n      iszero\n      tag_136\n      jumpi\n        /* \"#utility.yul\":3846:3864   */\n      tag_137\n      tag_68\n      jump\t// in\n    tag_137:\n        /* \"#utility.yul\":3778:3866   */\n    tag_136:\n        /* \"#utility.yul\":3886:3896   */\n      dup1\n        /* \"#utility.yul\":3882:3884   */\n      0x40\n        /* \"#utility.yul\":3875:3897   */\n      mstore\n        /* \"#utility.yul\":3665:3903   */\n      pop\n        /* \"#utility.yul\":3622:3903   */\n      pop\n      pop\n      jump\t// out\n        /* \"#utility.yul\":3909:4038   */\n    tag_70:\n        /* \"#utility.yul\":3943:3949   */\n      0x00\n        /* \"#utility.yul\":3970:3990   */\n      tag_139\n      tag_51\n      jump\t// in\n    tag_139:\n        /* \"#utility.yul\":3960:3990   */\n      swap1\n      pop\n        /* \"#utility.yul\":3999:4032   */\n      tag_140\n        /* \"#utility.yul\":4027:4031   */\n      dup3\n        /* \"#utility.yul\":4019:4025   */\n      dup3\n        /* \"#utility.yul\":3999:4032   */\n      tag_69\n      jump\t// in\n    tag_140:\n        /* \"#utility.yul\":3909:4038   */\n      swap2\n      swap1\n      pop\n      jump\t// out\n        /* \"#utility.yul\":4044:4352   */\n    tag_71:\n        /* \"#utility.yul\":4106:4110   */\n      0x00\n        /* \"#utility.yul\":4196:4214   */\n      0xffffffffffffffff\n        /* \"#utility.yul\":4188:4194   */\n      dup3\n        /* \"#utility.yul\":4185:4215   */\n      gt\n        /* \"#utility.yul\":4182:4238   */\n      iszero\n      tag_142\n      jumpi\n        /* \"#utility.yul\":4218:4236   */\n      tag_143\n      tag_68\n      jump\t// in\n    tag_143:\n        /* \"#utility.yul\":4182:4238   */\n    tag_142:\n        /* \"#utility.yul\":4256:4285   */\n      tag_144\n        /* \"#utility.yul\":4278:4284   */\n      dup3\n        /* \"#utility.yul\":4256:4285   */\n      tag_60\n      jump\t// in\n    tag_144:\n        /* \"#utility.yul\":4248:4285   */\n      swap1\n      pop\n        /* \"#utility.yul\":4340:4344   */\n      0x20\n        /* \"#utility.yul\":4334:4338   */\n      dup2\n        /* \"#utility.yul\":4330:4345   */\n      add\n        /* \"#utility.yul\":4322:4345   */\n      swap1\n      pop\n        /* \"#utility.yul\":4044:4352   */\n      swap2\n      swap1\n      pop\n      jump\t// out\n        /* \"#utility.yul\":4358:4506   */\n    tag_72:\n        /* \"#utility.yul\":4456:4462   */\n      dup3\n        /* \"#utility.yul\":4451:4454   */\n      dup2\n        /* \"#utility.yul\":4446:4449   */\n      dup4\n        /* \"#utility.yul\":4433:4463   */\n      calldatacopy\n        /* \"#utility.yul\":4497:4498   */\n      0x00\n        /* \"#utility.yul\":4488:4494   */\n      dup4\n        /* \"#utility.yul\":4483:4486   */\n      dup4\n        /* \"#utility.yul\":4479:4495   */\n      add\n        /* \"#utility.yul\":4472:4499   */\n      mstore\n        /* \"#utility.yul\":4358:4506   */\n      pop\n      pop\n      pop\n      jump\t// out\n        /* \"#utility.yul\":4512:4937   */\n    tag_73:\n        /* \"#utility.yul\":4590:4595   */\n      0x00\n        /* \"#utility.yul\":4615:4681   */\n      tag_147\n        /* \"#utility.yul\":4631:4680   */\n      tag_148\n        /* \"#utility.yul\":4673:4679   */\n      dup5\n        /* \"#utility.yul\":4631:4680   */\n      tag_71\n      jump\t// in\n    tag_148:\n        /* \"#utility.yul\":4615:4681   */\n      tag_70\n      jump\t// in\n    tag_147:\n        /* \"#utility.yul\":4606:4681   */\n      swap1\n      pop\n        /* \"#utility.yul\":4704:4710   */\n      dup3\n        /* \"#utility.yul\":4697:4702   */\n      dup2\n        /* \"#utility.yul\":4690:4711   */\n      mstore\n        /* \"#utility.yul\":4742:4746   */\n      0x20\n        /* \"#utility.yul\":4735:4740   */\n      dup2\n        /* \"#utility.yul\":4731:4747   */\n      add\n        /* \"#utility.yul\":4780:4783   */\n      dup5\n        /* \"#utility.yul\":4771:4777   */\n      dup5\n        /* \"#utility.yul\":4766:4769   */\n      dup5\n        /* \"#utility.yul\":4762:4778   */\n      add\n        /* \"#utility.yul\":4759:4784   */\n      gt\n        /* \"#utility.yul\":4756:4868   */\n      iszero\n      tag_149\n      jumpi\n        /* \"#utility.yul\":4787:4866   */\n      tag_150\n      tag_67\n      jump\t// in\n    tag_150:\n        /* \"#utility.yul\":4756:4868   */\n    tag_149:\n        /* \"#utility.yul\":4877:4931   */\n      tag_151\n        /* \"#utility.yul\":4924:4930   */\n      dup5\n        /* \"#utility.yul\":4919:4922   */\n      dup3\n        /* \"#utility.yul\":4914:4917   */\n      dup6\n        /* \"#utility.yul\":4877:4931   */\n      tag_72\n      jump\t// in\n    tag_151:\n        /* \"#utility.yul\":4596:4937   */\n      pop\n        /* \"#utility.yul\":4512:4937   */\n      swap4\n      swap3\n      pop\n      pop\n      pop\n      jump\t// out\n        /* \"#utility.yul\":4957:5297   */\n    tag_74:\n        /* \"#utility.yul\":5013:5018   */\n      0x00\n        /* \"#utility.yul\":5062:5065   */\n      dup3\n        /* \"#utility.yul\":5055:5059   */\n      0x1f\n        /* \"#utility.yul\":5047:5053   */\n      dup4\n        /* \"#utility.yul\":5043:5060   */\n      add\n        /* \"#utility.yul\":5039:5066   */\n      slt\n        /* \"#utility.yul\":5029:5151   */\n      tag_153\n      jumpi\n        /* \"#utility.yul\":5070:5149   */\n      tag_154\n      tag_66\n      jump\t// in\n    tag_154:\n        /* \"#utility.yul\":5029:5151   */\n    tag_153:\n        /* \"#utility.yul\":5187:5193   */\n      dup2\n        /* \"#utility.yul\":5174:5194   */\n      calldataload\n        /* \"#utility.yul\":5212:5291   */\n      tag_155\n        /* \"#utility.yul\":5287:5290   */\n      dup5\n        /* \"#utility.yul\":5279:5285   */\n      dup3\n        /* \"#utility.yul\":5272:5276   */\n      0x20\n        /* \"#utility.yul\":5264:5270   */\n      dup7\n        /* \"#utility.yul\":5260:5277   */\n      add\n        /* \"#utility.yul\":5212:5291   */\n      tag_73\n      jump\t// in\n    tag_155:\n        /* \"#utility.yul\":5203:5291   */\n      swap2\n      pop\n        /* \"#utility.yul\":5019:5297   */\n      pop\n        /* \"#utility.yul\":4957:5297   */\n      swap3\n      swap2\n      pop\n      pop\n      jump\t// out\n        /* \"#utility.yul\":5303:5425   */\n    tag_75:\n        /* \"#utility.yul\":5376:5400   */\n      tag_157\n        /* \"#utility.yul\":5394:5399   */\n      dup2\n        /* \"#utility.yul\":5376:5400   */\n      tag_64\n      jump\t// in\n    tag_157:\n        /* \"#utility.yul\":5369:5374   */\n      dup2\n        /* \"#utility.yul\":5366:5401   */\n      eq\n        /* \"#utility.yul\":5356:5419   */\n      tag_158\n      jumpi\n        /* \"#utility.yul\":5415:5416   */\n      0x00\n        /* \"#utility.yul\":5412:5413   */\n      dup1\n        /* \"#utility.yul\":5405:5417   */\n      revert\n        /* \"#utility.yul\":5356:5419   */\n    tag_158:\n        /* \"#utility.yul\":5303:5425   */\n      pop\n      jump\t// out\n        /* \"#utility.yul\":5431:5570   */\n    tag_76:\n        /* \"#utility.yul\":5477:5482   */\n      0x00\n        /* \"#utility.yul\":5515:5521   */\n      dup2\n        /* \"#utility.yul\":5502:5522   */\n      calldataload\n        /* \"#utility.yul\":5493:5522   */\n      swap1\n      pop\n        /* \"#utility.yul\":5531:5564   */\n      tag_160\n        /* \"#utility.yul\":5558:5563   */\n      dup2\n        /* \"#utility.yul\":5531:5564   */\n      tag_75\n      jump\t// in\n    tag_160:\n        /* \"#utility.yul\":5431:5570   */\n      swap3\n      swap2\n      pop\n      pop\n      jump\t// out\n        /* \"#utility.yul\":5576:6375   */\n    tag_23:\n        /* \"#utility.yul\":5663:5669   */\n      0x00\n        /* \"#utility.yul\":5671:5677   */\n      dup1\n        /* \"#utility.yul\":5679:5685   */\n      0x00\n        /* \"#utility.yul\":5728:5730   */\n      0x60\n        /* \"#utility.yul\":5716:5725   */\n      dup5\n        /* \"#utility.yul\":5707:5714   */\n      dup7\n        /* \"#utility.yul\":5703:5726   */\n      sub\n        /* \"#utility.yul\":5699:5731   */\n      slt\n        /* \"#utility.yul\":5696:5815   */\n      iszero\n      tag_162\n      jumpi\n        /* \"#utility.yul\":5734:5813   */\n      tag_163\n      tag_52\n      jump\t// in\n    tag_163:\n        /* \"#utility.yul\":5696:5815   */\n    tag_162:\n        /* \"#utility.yul\":5882:5883   */\n      0x00\n        /* \"#utility.yul\":5871:5880   */\n      dup5\n        /* \"#utility.yul\":5867:5884   */\n      add\n        /* \"#utility.yul\":5854:5885   */\n      calldataload\n        /* \"#utility.yul\":5912:5930   */\n      0xffffffffffffffff\n        /* \"#utility.yul\":5904:5910   */\n      dup2\n        /* \"#utility.yul\":5901:5931   */\n      gt\n        /* \"#utility.yul\":5898:6015   */\n      iszero\n      tag_164\n      jumpi\n        /* \"#utility.yul\":5934:6013   */\n      tag_165\n      tag_53\n      jump\t// in\n    tag_165:\n        /* \"#utility.yul\":5898:6015   */\n    tag_164:\n        /* \"#utility.yul\":6039:6102   */\n      tag_166\n        /* \"#utility.yul\":6094:6101   */\n      dup7\n        /* \"#utility.yul\":6085:6091   */\n      dup3\n        /* \"#utility.yul\":6074:6083   */\n      dup8\n        /* \"#utility.yul\":6070:6092   */\n      add\n        /* \"#utility.yul\":6039:6102   */\n      tag_74\n      jump\t// in\n    tag_166:\n        /* \"#utility.yul\":6029:6102   */\n      swap4\n      pop\n        /* \"#utility.yul\":5825:6112   */\n      pop\n        /* \"#utility.yul\":6151:6153   */\n      0x20\n        /* \"#utility.yul\":6177:6230   */\n      tag_167\n        /* \"#utility.yul\":6222:6229   */\n      dup7\n        /* \"#utility.yul\":6213:6219   */\n      dup3\n        /* \"#utility.yul\":6202:6211   */\n      dup8\n        /* \"#utility.yul\":6198:6220   */\n      add\n        /* \"#utility.yul\":6177:6230   */\n      tag_56\n      jump\t// in\n    tag_167:\n        /* \"#utility.yul\":6167:6230   */\n      swap3\n      pop\n        /* \"#utility.yul\":6122:6240   */\n      pop\n        /* \"#utility.yul\":6279:6281   */\n      0x40\n        /* \"#utility.yul\":6305:6358   */\n      tag_168\n        /* \"#utility.yul\":6350:6357   */\n      dup7\n        /* \"#utility.yul\":6341:6347   */\n      dup3\n        /* \"#utility.yul\":6330:6339   */\n      dup8\n        /* \"#utility.yul\":6326:6348   */\n      add\n        /* \"#utility.yul\":6305:6358   */\n      tag_76\n      jump\t// in\n    tag_168:\n        /* \"#utility.yul\":6295:6358   */\n      swap2\n      pop\n        /* \"#utility.yul\":6250:6368   */\n      pop\n        /* \"#utility.yul\":5576:6375   */\n      swap3\n      pop\n      swap3\n      pop\n      swap3\n      jump\t// out\n        /* \"#utility.yul\":6381:6550   */\n    tag_77:\n        /* \"#utility.yul\":6521:6542   */\n      0x496e646578206f7574206f6620626f756e647300000000000000000000000000\n        /* \"#utility.yul\":6517:6518   */\n      0x00\n        /* \"#utility.yul\":6509:6515   */\n      dup3\n        /* \"#utility.yul\":6505:6519   */\n      add\n        /* \"#utility.yul\":6498:6543   */\n      mstore\n        /* \"#utility.yul\":6381:6550   */\n      pop\n      jump\t// out\n        /* \"#utility.yul\":6556:6922   */\n    tag_78:\n        /* \"#utility.yul\":6698:6701   */\n      0x00\n        /* \"#utility.yul\":6719:6786   */\n      tag_171\n        /* \"#utility.yul\":6783:6785   */\n      0x13\n        /* \"#utility.yul\":6778:6781   */\n      dup4\n        /* \"#utility.yul\":6719:6786   */\n      tag_58\n      jump\t// in\n    tag_171:\n        /* \"#utility.yul\":6712:6786   */\n      swap2\n      pop\n        /* \"#utility.yul\":6795:6888   */\n      tag_172\n        /* \"#utility.yul\":6884:6887   */\n      dup3\n        /* \"#utility.yul\":6795:6888   */\n      tag_77\n      jump\t// in\n    tag_172:\n        /* \"#utility.yul\":6913:6915   */\n      0x20\n        /* \"#utility.yul\":6908:6911   */\n      dup3\n        /* \"#utility.yul\":6904:6916   */\n      add\n        /* \"#utility.yul\":6897:6916   */\n      swap1\n      pop\n        /* \"#utility.yul\":6556:6922   */\n      swap2\n      swap1\n      pop\n      jump\t// out\n        /* \"#utility.yul\":6928:7347   */\n    tag_28:\n        /* \"#utility.yul\":7094:7098   */\n      0x00\n        /* \"#utility.yul\":7132:7134   */\n      0x20\n        /* \"#utility.yul\":7121:7130   */\n      dup3\n        /* \"#utility.yul\":7117:7135   */\n      add\n        /* \"#utility.yul\":7109:7135   */\n      swap1\n      pop\n        /* \"#utility.yul\":7181:7190   */\n      dup2\n        /* \"#utility.yul\":7175:7179   */\n      dup2\n        /* \"#utility.yul\":7171:7191   */\n      sub\n        /* \"#utility.yul\":7167:7168   */\n      0x00\n        /* \"#utility.yul\":7156:7165   */\n      dup4\n        /* \"#utility.yul\":7152:7169   */\n      add\n        /* \"#utility.yul\":7145:7192   */\n      mstore\n        /* \"#utility.yul\":7209:7340   */\n      tag_174\n        /* \"#utility.yul\":7335:7339   */\n      dup2\n        /* \"#utility.yul\":7209:7340   */\n      tag_78\n      jump\t// in\n    tag_174:\n        /* \"#utility.yul\":7201:7340   */\n      swap1\n      pop\n        /* \"#utility.yul\":6928:7347   */\n      swap2\n      swap1\n      pop\n      jump\t// out\n        /* \"#utility.yul\":7353:7533   */\n    tag_31:\n        /* \"#utility.yul\":7401:7478   */\n      0x4e487b7100000000000000000000000000000000000000000000000000000000\n        /* \"#utility.yul\":7398:7399   */\n      0x00\n        /* \"#utility.yul\":7391:7479   */\n      mstore\n        /* \"#utility.yul\":7498:7502   */\n      0x32\n        /* \"#utility.yul\":7495:7496   */\n      0x04\n        /* \"#utility.yul\":7488:7503   */\n      mstore\n        /* \"#utility.yul\":7522:7526   */\n      0x24\n        /* \"#utility.yul\":7519:7520   */\n      0x00\n        /* \"#utility.yul\":7512:7527   */\n      revert\n        /* \"#utility.yul\":7539:7719   */\n    tag_79:\n        /* \"#utility.yul\":7587:7664   */\n      0x4e487b7100000000000000000000000000000000000000000000000000000000\n        /* \"#utility.yul\":7584:7585   */\n      0x00\n        /* \"#utility.yul\":7577:7665   */\n      mstore\n        /* \"#utility.yul\":7684:7688   */\n      0x22\n        /* \"#utility.yul\":7681:7682   */\n      0x04\n        /* \"#utility.yul\":7674:7689   */\n      mstore\n        /* \"#utility.yul\":7708:7712   */\n      0x24\n        /* \"#utility.yul\":7705:7706   */\n      0x00\n        /* \"#utility.yul\":7698:7713   */\n      revert\n        /* \"#utility.yul\":7725:8045   */\n    tag_34:\n        /* \"#utility.yul\":7769:7775   */\n      0x00\n        /* \"#utility.yul\":7806:7807   */\n      0x02\n        /* \"#utility.yul\":7800:7804   */\n      dup3\n        /* \"#utility.yul\":7796:7808   */\n      div\n        /* \"#utility.yul\":7786:7808   */\n      swap1\n      pop\n        /* \"#utility.yul\":7853:7854   */\n      0x01\n        /* \"#utility.yul\":7847:7851   */\n      dup3\n        /* \"#utility.yul\":7843:7855   */\n      and\n        /* \"#utility.yul\":7874:7892   */\n      dup1\n        /* \"#utility.yul\":7864:7945   */\n      tag_178\n      jumpi\n        /* \"#utility.yul\":7930:7934   */\n      0x7f\n        /* \"#utility.yul\":7922:7928   */\n      dup3\n        /* \"#utility.yul\":7918:7935   */\n      and\n        /* \"#utility.yul\":7908:7935   */\n      swap2\n      pop\n        /* \"#utility.yul\":7864:7945   */\n    tag_178:\n        /* \"#utility.yul\":7992:7994   */\n      0x20\n        /* \"#utility.yul\":7984:7990   */\n      dup3\n        /* \"#utility.yul\":7981:7995   */\n      lt\n        /* \"#utility.yul\":7961:7979   */\n      dup2\n        /* \"#utility.yul\":7958:7996   */\n      sub\n        /* \"#utility.yul\":7955:8039   */\n      tag_179\n      jumpi\n        /* \"#utility.yul\":8011:8029   */\n      tag_180\n      tag_79\n      jump\t// in\n    tag_180:\n        /* \"#utility.yul\":7955:8039   */\n    tag_179:\n        /* \"#utility.yul\":7776:8045   */\n      pop\n        /* \"#utility.yul\":7725:8045   */\n      swap2\n      swap1\n      pop\n      jump\t// out\n        /* \"#utility.yul\":8051:8192   */\n    tag_80:\n        /* \"#utility.yul\":8100:8104   */\n      0x00\n        /* \"#utility.yul\":8123:8126   */\n      dup2\n        /* \"#utility.yul\":8115:8126   */\n      swap1\n      pop\n        /* \"#utility.yul\":8146:8149   */\n      dup2\n        /* \"#utility.yul\":8143:8144   */\n      0x00\n        /* \"#utility.yul\":8136:8150   */\n      mstore\n        /* \"#utility.yul\":8180:8184   */\n      0x20\n        /* \"#utility.yul\":8177:8178   */\n      0x00\n        /* \"#utility.yul\":8167:8185   */\n      keccak256\n        /* \"#utility.yul\":8159:8185   */\n      swap1\n      pop\n        /* \"#utility.yul\":8051:8192   */\n      swap2\n      swap1\n      pop\n      jump\t// out\n        /* \"#utility.yul\":8198:8291   */\n    tag_81:\n        /* \"#utility.yul\":8235:8241   */\n      0x00\n        /* \"#utility.yul\":8282:8284   */\n      0x20\n        /* \"#utility.yul\":8277:8279   */\n      0x1f\n        /* \"#utility.yul\":8270:8275   */\n      dup4\n        /* \"#utility.yul\":8266:8280   */\n      add\n        /* \"#utility.yul\":8262:8285   */\n      div\n        /* \"#utility.yul\":8252:8285   */\n      swap1\n      pop\n        /* \"#utility.yul\":8198:8291   */\n      swap2\n      swap1\n      pop\n      jump\t// out\n        /* \"#utility.yul\":8297:8404   */\n    tag_82:\n        /* \"#utility.yul\":8341:8349   */\n      0x00\n        /* \"#utility.yul\":8391:8396   */\n      dup3\n        /* \"#utility.yul\":8385:8389   */\n      dup3\n        /* \"#utility.yul\":8381:8397   */\n      shl\n        /* \"#utility.yul\":8360:8397   */\n      swap1\n      pop\n        /* \"#utility.yul\":8297:8404   */\n      swap3\n      swap2\n      pop\n      pop\n      jump\t// out\n        /* \"#utility.yul\":8410:8803   */\n    tag_83:\n        /* \"#utility.yul\":8479:8485   */\n      0x00\n        /* \"#utility.yul\":8529:8530   */\n      0x08\n        /* \"#utility.yul\":8517:8527   */\n      dup4\n        /* \"#utility.yul\":8513:8531   */\n      mul\n        /* \"#utility.yul\":8552:8649   */\n      tag_185\n        /* \"#utility.yul\":8582:8648   */\n      0xffffffffffffffffffffffffffffffffffffffffffffffffffffffffffffffff\n        /* \"#utility.yul\":8571:8580   */\n      dup3\n        /* \"#utility.yul\":8552:8649   */\n      tag_82\n      jump\t// in\n    tag_185:\n        /* \"#utility.yul\":8670:8709   */\n      tag_186\n        /* \"#utility.yul\":8700:8708   */\n      dup7\n        /* \"#utility.yul\":8689:8698   */\n      dup4\n        /* \"#utility.yul\":8670:8709   */\n      tag_82\n      jump\t// in\n    tag_186:\n        /* \"#utility.yul\":8658:8709   */\n      swap6\n      pop\n        /* \"#utility.yul\":8742:8746   */\n      dup1\n        /* \"#utility.yul\":8738:8747   */\n      not\n        /* \"#utility.yul\":8731:8736   */\n      dup5\n        /* \"#utility.yul\":8727:8748   */\n      and\n        /* \"#utility.yul\":8718:8748   */\n      swap4\n      pop\n        /* \"#utility.yul\":8791:8795   */\n      dup1\n        /* \"#utility.yul\":8781:8789   */\n      dup7\n        /* \"#utility.yul\":8777:8796   */\n      and\n        /* \"#utility.yul\":8770:8775   */\n      dup5\n        /* \"#utility.yul\":8767:8797   */\n      or\n        /* \"#utility.yul\":8757:8797   */\n      swap3\n      pop\n        /* \"#utility.yul\":8486:8803   */\n      pop\n      pop\n        /* \"#utility.yul\":8410:8803   */\n      swap4\n      swap3\n      pop\n      pop\n      pop\n      jump\t// out\n        /* \"#utility.yul\":8809:8869   */\n    tag_84:\n        /* \"#utility.yul\":8837:8840   */\n      0x00\n        /* \"#utility.yul\":8858:8863   */\n      dup2\n        /* \"#utility.yul\":8851:8863   */\n      swap1\n      pop\n        /* \"#utility.yul\":8809:8869   */\n      swap2\n      swap1\n      pop\n      jump\t// out\n        /* \"#utility.yul\":8875:9017   */\n    tag_85:\n        /* \"#utility.yul\":8925:8934   */\n      0x00\n        /* \"#utility.yul\":8958:9011   */\n      tag_189\n        /* \"#utility.yul\":8976:9010   */\n      tag_190\n        /* \"#utility.yul\":8985:9009   */\n      tag_191\n        /* \"#utility.yul\":9003:9008   */\n      dup5\n        /* \"#utility.yul\":8985:9009   */\n      tag_54\n      jump\t// in\n    tag_191:\n        /* \"#utility.yul\":8976:9010   */\n      tag_84\n      jump\t// in\n    tag_190:\n        /* \"#utility.yul\":8958:9011   */\n      tag_54\n      jump\t// in\n    tag_189:\n        /* \"#utility.yul\":8945:9011   */\n      swap1\n      pop\n        /* \"#utility.yul\":8875:9017   */\n      swap2\n      swap1\n      pop\n      jump\t// out\n        /* \"#utility.yul\":9023:9098   */\n    tag_86:\n        /* \"#utility.yul\":9066:9069   */\n      0x00\n        /* \"#utility.yul\":9087:9092   */\n      dup2\n        /* \"#utility.yul\":9080:9092   */\n      swap1\n      pop\n        /* \"#utility.yul\":9023:9098   */\n      swap2\n      swap1\n      pop\n      jump\t// out\n        /* \"#utility.yul\":9104:9373   */\n    tag_87:\n        /* \"#utility.yul\":9214:9253   */\n      tag_194\n        /* \"#utility.yul\":9245:9252   */\n      dup4\n        /* \"#utility.yul\":9214:9253   */\n      tag_85\n      jump\t// in\n    tag_194:\n        /* \"#utility.yul\":9275:9366   */\n      tag_195\n        /* \"#utility.yul\":9324:9365   */\n      tag_196\n        /* \"#utility.yul\":9348:9364   */\n      dup3\n        /* \"#utility.yul\":9324:9365   */\n      tag_86\n      jump\t// in\n    tag_196:\n        /* \"#utility.yul\":9316:9322   */\n      dup5\n        /* \"#utility.yul\":9309:9313   */\n      dup5\n        /* \"#utility.yul\":9303:9314   */\n      sload\n        /* \"#utility.yul\":9275:9366   */\n      tag_83\n      jump\t// in\n    tag_195:\n        /* \"#utility.yul\":9269:9273   */\n      dup3\n        /* \"#utility.yul\":9262:9367   */\n      sstore\n        /* \"#utility.yul\":9180:9373   */\n      pop\n        /* \"#utility.yul\":9104:9373   */\n      pop\n      pop\n      pop\n      jump\t// out\n        /* \"#utility.yul\":9379:9452   */\n    tag_88:\n        /* \"#utility.yul\":9424:9427   */\n      0x00\n        /* \"#utility.yul\":9379:9452   */\n      swap1\n      jump\t// out\n        /* \"#utility.yul\":9458:9647   */\n    tag_89:\n        /* \"#utility.yul\":9535:9567   */\n      tag_199\n      tag_88\n      jump\t// in\n    tag_199:\n        /* \"#utility.yul\":9576:9641   */\n      tag_200\n        /* \"#utility.yul\":9634:9640   */\n      dup2\n        /* \"#utility.yul\":9626:9632   */\n      dup5\n        /* \"#utility.yul\":9620:9624   */\n      dup5\n        /* \"#utility.yul\":9576:9641   */\n      tag_87\n      jump\t// in\n    tag_200:\n        /* \"#utility.yul\":9511:9647   */\n      pop\n        /* \"#utility.yul\":9458:9647   */\n      pop\n      pop\n      jump\t// out\n        /* \"#utility.yul\":9653:9839   */\n    tag_90:\n        /* \"#utility.yul\":9713:9833   */\n    tag_202:\n        /* \"#utility.yul\":9730:9733   */\n      dup2\n        /* \"#utility.yul\":9723:9728   */\n      dup2\n        /* \"#utility.yul\":9720:9734   */\n      lt\n        /* \"#utility.yul\":9713:9833   */\n      iszero\n      tag_204\n      jumpi\n        /* \"#utility.yul\":9784:9823   */\n      tag_205\n        /* \"#utility.yul\":9821:9822   */\n      0x00\n        /* \"#utility.yul\":9814:9819   */\n      dup3\n        /* \"#utility.yul\":9784:9823   */\n      tag_89\n      jump\t// in\n    tag_205:\n        /* \"#utility.yul\":9757:9758   */\n      0x01\n        /* \"#utility.yul\":9750:9755   */\n      dup2\n        /* \"#utility.yul\":9746:9759   */\n      add\n        /* \"#utility.yul\":9737:9759   */\n      swap1\n      pop\n        /* \"#utility.yul\":9713:9833   */\n      jump(tag_202)\n    tag_204:\n        /* \"#utility.yul\":9653:9839   */\n      pop\n      pop\n      jump\t// out\n        /* \"#utility.yul\":9845:10388   */\n    tag_91:\n        /* \"#utility.yul\":9946:9948   */\n      0x1f\n        /* \"#utility.yul\":9941:9944   */\n      dup3\n        /* \"#utility.yul\":9938:9949   */\n      gt\n        /* \"#utility.yul\":9935:10381   */\n      iszero\n      tag_207\n      jumpi\n        /* \"#utility.yul\":9980:10018   */\n      tag_208\n        /* \"#utility.yul\":10012:10017   */\n      dup2\n        /* \"#utility.yul\":9980:10018   */\n      tag_80\n      jump\t// in\n    tag_208:\n        /* \"#utility.yul\":10064:10093   */\n      tag_209\n        /* \"#utility.yul\":10082:10092   */\n      dup5\n        /* \"#utility.yul\":10064:10093   */\n      tag_81\n      jump\t// in\n    tag_209:\n        /* \"#utility.yul\":10054:10062   */\n      dup2\n        /* \"#utility.yul\":10050:10094   */\n      add\n        /* \"#utility.yul\":10247:10249   */\n      0x20\n        /* \"#utility.yul\":10235:10245   */\n      dup6\n        /* \"#utility.yul\":10232:10250   */\n      lt\n        /* \"#utility.yul\":10229:10278   */\n      iszero\n      tag_210\n      jumpi\n        /* \"#utility.yul\":10268:10276   */\n      dup2\n        /* \"#utility.yul\":10253:10276   */\n      swap1\n      pop\n        /* \"#utility.yul\":10229:10278   */\n    tag_210:\n        /* \"#utility.yul\":10291:10371   */\n      tag_211\n        /* \"#utility.yul\":10347:10369   */\n      tag_212\n        /* \"#utility.yul\":10365:10368   */\n      dup6\n        /* \"#utility.yul\":10347:10369   */\n      tag_81\n      jump\t// in\n    tag_212:\n        /* \"#utility.yul\":10337:10345   */\n      dup4\n        /* \"#utility.yul\":10333:10370   */\n      add\n        /* \"#utility.yul\":10320:10331   */\n      dup3\n        /* \"#utility.yul\":10291:10371   */\n      tag_90\n      jump\t// in\n    tag_211:\n        /* \"#utility.yul\":9950:10381   */\n      pop\n      pop\n        /* \"#utility.yul\":9935:10381   */\n    tag_207:\n        /* \"#utility.yul\":9845:10388   */\n      pop\n      pop\n      pop\n      jump\t// out\n        /* \"#utility.yul\":10394:10511   */\n    tag_92:\n        /* \"#utility.yul\":10448:10456   */\n      0x00\n        /* \"#utility.yul\":10498:10503   */\n      dup3\n        /* \"#utility.yul\":10492:10496   */\n      dup3\n        /* \"#utility.yul\":10488:10504   */\n      shr\n        /* \"#utility.yul\":10467:10504   */\n      swap1\n      pop\n        /* \"#utility.yul\":10394:10511   */\n      swap3\n      swap2\n      pop\n      pop\n      jump\t// out\n        /* \"#utility.yul\":10517:10686   */\n    tag_93:\n        /* \"#utility.yul\":10561:10567   */\n      0x00\n        /* \"#utility.yul\":10594:10645   */\n      tag_215\n        /* \"#utility.yul\":10642:10643   */\n      0x00\n        /* \"#utility.yul\":10638:10644   */\n      not\n        /* \"#utility.yul\":10630:10635   */\n      dup5\n        /* \"#utility.yul\":10627:10628   */\n      0x08\n        /* \"#utility.yul\":10623:10636   */\n      mul\n        /* \"#utility.yul\":10594:10645   */\n      tag_92\n      jump\t// in\n    tag_215:\n        /* \"#utility.yul\":10590:10646   */\n      not\n        /* \"#utility.yul\":10675:10679   */\n      dup1\n        /* \"#utility.yul\":10669:10673   */\n      dup4\n        /* \"#utility.yul\":10665:10680   */\n      and\n        /* \"#utility.yul\":10655:10680   */\n      swap2\n      pop\n        /* \"#utility.yul\":10568:10686   */\n      pop\n        /* \"#utility.yul\":10517:10686   */\n      swap3\n      swap2\n      pop\n      pop\n      jump\t// out\n        /* \"#utility.yul\":10691:10986   */\n    tag_94:\n        /* \"#utility.yul\":10767:10771   */\n      0x00\n        /* \"#utility.yul\":10913:10942   */\n      tag_217\n        /* \"#utility.yul\":10938:10941   */\n      dup4\n        /* \"#utility.yul\":10932:10936   */\n      dup4\n        /* \"#utility.yul\":10913:10942   */\n      tag_93\n      jump\t// in\n    tag_217:\n        /* \"#utility.yul\":10905:10942   */\n      swap2\n      pop\n        /* \"#utility.yul\":10975:10978   */\n      dup3\n        /* \"#utility.yul\":10972:10973   */\n      0x02\n        /* \"#utility.yul\":10968:10979   */\n      mul\n        /* \"#utility.yul\":10962:10966   */\n      dup3\n        /* \"#utility.yul\":10959:10980   */\n      or\n        /* \"#utility.yul\":10951:10980   */\n      swap1\n      pop\n        /* \"#utility.yul\":10691:10986   */\n      swap3\n      swap2\n      pop\n      pop\n      jump\t// out\n        /* \"#utility.yul\":10991:12386   */\n    tag_50:\n        /* \"#utility.yul\":11108:11145   */\n      tag_219\n        /* \"#utility.yul\":11141:11144   */\n      dup3\n        /* \"#utility.yul\":11108:11145   */\n      tag_57\n      jump\t// in\n    tag_219:\n        /* \"#utility.yul\":11210:11228   */\n      0xffffffffffffffff\n        /* \"#utility.yul\":11202:11208   */\n      dup2\n        /* \"#utility.yul\":11199:11229   */\n      gt\n        /* \"#utility.yul\":11196:11252   */\n      iszero\n      tag_220\n      jumpi\n        /* \"#utility.yul\":11232:11250   */\n      tag_221\n      tag_68\n      jump\t// in\n    tag_221:\n        /* \"#utility.yul\":11196:11252   */\n    tag_220:\n        /* \"#utility.yul\":11276:11314   */\n      tag_222\n        /* \"#utility.yul\":11308:11312   */\n      dup3\n        /* \"#utility.yul\":11302:11313   */\n      sload\n        /* \"#utility.yul\":11276:11314   */\n      tag_34\n      jump\t// in\n    tag_222:\n        /* \"#utility.yul\":11361:11428   */\n      tag_223\n        /* \"#utility.yul\":11421:11427   */\n      dup3\n        /* \"#utility.yul\":11413:11419   */\n      dup3\n        /* \"#utility.yul\":11407:11411   */\n      dup6\n        /* \"#utility.yul\":11361:11428   */\n      tag_91\n      jump\t// in\n    tag_223:\n        /* \"#utility.yul\":11455:11456   */\n      0x00\n        /* \"#utility.yul\":11479:11483   */\n      0x20\n        /* \"#utility.yul\":11466:11483   */\n      swap1\n      pop\n        /* \"#utility.yul\":11511:11513   */\n      0x1f\n        /* \"#utility.yul\":11503:11509   */\n      dup4\n        /* \"#utility.yul\":11500:11514   */\n      gt\n        /* \"#utility.yul\":11528:11529   */\n      0x01\n        /* \"#utility.yul\":11523:12141   */\n      dup2\n      eq\n      tag_225\n      jumpi\n        /* \"#utility.yul\":12185:12186   */\n      0x00\n        /* \"#utility.yul\":12202:12208   */\n      dup5\n        /* \"#utility.yul\":12199:12276   */\n      iszero\n      tag_226\n      jumpi\n        /* \"#utility.yul\":12251:12260   */\n      dup3\n        /* \"#utility.yul\":12246:12249   */\n      dup8\n        /* \"#utility.yul\":12242:12261   */\n      add\n        /* \"#utility.yul\":12236:12262   */\n      mload\n        /* \"#utility.yul\":12227:12262   */\n      swap1\n      pop\n        /* \"#utility.yul\":12199:12276   */\n    tag_226:\n        /* \"#utility.yul\":12302:12369   */\n      tag_227\n        /* \"#utility.yul\":12362:12368   */\n      dup6\n        /* \"#utility.yul\":12355:12360   */\n      dup3\n        /* \"#utility.yul\":12302:12369   */\n      tag_94\n      jump\t// in\n    tag_227:\n        /* \"#utility.yul\":12296:12300   */\n      dup7\n        /* \"#utility.yul\":12289:12370   */\n      sstore\n        /* \"#utility.yul\":12158:12380   */\n      pop\n        /* \"#utility.yul\":11493:12380   */\n      jump(tag_224)\n        /* \"#utility.yul\":11523:12141   */\n    tag_225:\n        /* \"#utility.yul\":11575:11579   */\n      0x1f\n        /* \"#utility.yul\":11571:11580   */\n      not\n        /* \"#utility.yul\":11563:11569   */\n      dup5\n        /* \"#utility.yul\":11559:11581   */\n      and\n        /* \"#utility.yul\":11609:11646   */\n      tag_228\n        /* \"#utility.yul\":11641:11645   */\n      dup7\n        /* \"#utility.yul\":11609:11646   */\n      tag_80\n      jump\t// in\n    tag_228:\n        /* \"#utility.yul\":11668:11669   */\n      0x00\n        /* \"#utility.yul\":11682:11890   */\n    tag_229:\n        /* \"#utility.yul\":11696:11703   */\n      dup3\n        /* \"#utility.yul\":11693:11694   */\n      dup2\n        /* \"#utility.yul\":11690:11704   */\n      lt\n        /* \"#utility.yul\":11682:11890   */\n      iszero\n      tag_231\n      jumpi\n        /* \"#utility.yul\":11775:11784   */\n      dup5\n        /* \"#utility.yul\":11770:11773   */\n      dup10\n        /* \"#utility.yul\":11766:11785   */\n      add\n        /* \"#utility.yul\":11760:11786   */\n      mload\n        /* \"#utility.yul\":11752:11758   */\n      dup3\n        /* \"#utility.yul\":11745:11787   */\n      sstore\n        /* \"#utility.yul\":11826:11827   */\n      0x01\n        /* \"#utility.yul\":11818:11824   */\n      dup3\n        /* \"#utility.yul\":11814:11828   */\n      add\n        /* \"#utility.yul\":11804:11828   */\n      swap2\n      pop\n        /* \"#utility.yul\":11873:11875   */\n      0x20\n        /* \"#utility.yul\":11862:11871   */\n      dup6\n        /* \"#utility.yul\":11858:11876   */\n      add\n        /* \"#utility.yul\":11845:11876   */\n      swap5\n      pop\n        /* \"#utility.yul\":11719:11723   */\n      0x20\n        /* \"#utility.yul\":11716:11717   */\n      dup2\n        /* \"#utility.yul\":11712:11724   */\n      add\n        /* \"#utility.yul\":11707:11724   */\n      swap1\n      pop\n        /* \"#utility.yul\":11682:11890   */\n      jump(tag_229)\n    tag_231:\n        /* \"#utility.yul\":11918:11924   */\n      dup7\n        /* \"#utility.yul\":11909:11916   */\n      dup4\n        /* \"#utility.yul\":11906:11925   */\n      lt\n        /* \"#utility.yul\":11903:12082   */\n      iszero\n      tag_232\n      jumpi\n        /* \"#utility.yul\":11976:11985   */\n      dup5\n        /* \"#utility.yul\":11971:11974   */\n      dup10\n        /* \"#utility.yul\":11967:11986   */\n      add\n        /* \"#utility.yul\":11961:11987   */\n      mload\n        /* \"#utility.yul\":12019:12067   */\n      tag_233\n        /* \"#utility.yul\":12061:12065   */\n      0x1f\n        /* \"#utility.yul\":12053:12059   */\n      dup10\n        /* \"#utility.yul\":12049:12066   */\n      and\n        /* \"#utility.yul\":12038:12047   */\n      dup3\n        /* \"#utility.yul\":12019:12067   */\n      tag_93\n      jump\t// in\n    tag_233:\n        /* \"#utility.yul\":12011:12017   */\n      dup4\n        /* \"#utility.yul\":12004:12068   */\n      sstore\n        /* \"#utility.yul\":11926:12082   */\n      pop\n        /* \"#utility.yul\":11903:12082   */\n    tag_232:\n        /* \"#utility.yul\":12128:12129   */\n      0x01\n        /* \"#utility.yul\":12124:12125   */\n      0x02\n        /* \"#utility.yul\":12116:12122   */\n      dup9\n        /* \"#utility.yul\":12112:12126   */\n      mul\n        /* \"#utility.yul\":12108:12130   */\n      add\n        /* \"#utility.yul\":12102:12106   */\n      dup9\n        /* \"#utility.yul\":12095:12131   */\n      sstore\n        /* \"#utility.yul\":11530:12141   */\n      pop\n      pop\n      pop\n        /* \"#utility.yul\":11493:12380   */\n    tag_224:\n      pop\n        /* \"#utility.yul\":11083:12386   */\n      pop\n      pop\n      pop\n        /* \"#utility.yul\":10991:12386   */\n      pop\n      pop\n      jump\t// out\n\n    auxdata: 0xa26469706673582212206a9776ba7da8d486fd079db5feb45a7fba6fc68560fb1ed883126a04a7efe75864736f6c634300081a0033\n}\n",
				"bytecode": {
					"linkReferences": {},
					"object": "6080604052348015600e575f80fd5b50610af18061001c5f395ff3fe608060405234801561000f575f80fd5b506004361061004a575f3560e01c8063246982c41461004e5780639e7a13ad14610080578063a9d53186146100b2578063e11641cf146100d0575b5f80fd5b6100686004803603810190610063919061045d565b6100ec565b60405161007793929190610546565b60405180910390f35b61009a6004803603810190610095919061045d565b61026d565b6040516100a993929190610546565b60405180910390f35b6100ba610346565b6040516100c79190610582565b60405180910390f35b6100ea60048036038101906100e591906106f1565b610351565b005b60605f805f805490508410610136576040517f08c379a000000000000000000000000000000000000000000000000000000000815260040161012d906107a7565b60405180910390fd5b5f80858154811061014a576101496107c5565b5b905f5260205f2090600302016040518060600160405290815f820180546101709061081f565b80601f016020809104026020016040519081016040528092919081815260200182805461019c9061081f565b80156101e75780601f106101be576101008083540402835291602001916101e7565b820191905f5260205f20905b8154815290600101906020018083116101ca57829003601f168201915b5050505050815260200160018201548152602001600282015f9054906101000a900473ffffffffffffffffffffffffffffffffffffffff1673ffffffffffffffffffffffffffffffffffffffff1673ffffffffffffffffffffffffffffffffffffffff16815250509050805f015181602001518260400151935093509350509193909250565b5f818154811061027b575f80fd5b905f5260205f2090600302015f91509050805f01805461029a9061081f565b80601f01602080910402602001604051908101604052809291908181526020018280546102c69061081f565b80156103115780601f106102e857610100808354040283529160200191610311565b820191905f5260205f20905b8154815290600101906020018083116102f457829003601f168201915b505050505090806001015490806002015f9054906101000a900473ffffffffffffffffffffffffffffffffffffffff16905083565b5f8080549050905090565b5f60405180606001604052808581526020018481526020018373ffffffffffffffffffffffffffffffffffffffff1681525090505f81908060018154018082558091505060019003905f5260205f2090600302015f909190919091505f820151815f0190816103c091906109ec565b50602082015181600101556040820151816002015f6101000a81548173ffffffffffffffffffffffffffffffffffffffff021916908373ffffffffffffffffffffffffffffffffffffffff160217905550505050505050565b5f604051905090565b5f80fd5b5f80fd5b5f819050919050565b61043c8161042a565b8114610446575f80fd5b50565b5f8135905061045781610433565b92915050565b5f6020828403121561047257610471610422565b5b5f61047f84828501610449565b91505092915050565b5f81519050919050565b5f82825260208201905092915050565b8281835e5f83830152505050565b5f601f19601f8301169050919050565b5f6104ca82610488565b6104d48185610492565b93506104e48185602086016104a2565b6104ed816104b0565b840191505092915050565b6105018161042a565b82525050565b5f73ffffffffffffffffffffffffffffffffffffffff82169050919050565b5f61053082610507565b9050919050565b61054081610526565b82525050565b5f6060820190508181035f83015261055e81866104c0565b905061056d60208301856104f8565b61057a6040830184610537565b949350505050565b5f6020820190506105955f8301846104f8565b92915050565b5f80fd5b5f80fd5b7f4e487b71000000000000000000000000000000000000000000000000000000005f52604160045260245ffd5b6105d9826104b0565b810181811067ffffffffffffffff821117156105f8576105f76105a3565b5b80604052505050565b5f61060a610419565b905061061682826105d0565b919050565b5f67ffffffffffffffff821115610635576106346105a3565b5b61063e826104b0565b9050602081019050919050565b828183375f83830152505050565b5f61066b6106668461061b565b610601565b9050828152602081018484840111156106875761068661059f565b5b61069284828561064b565b509392505050565b5f82601f8301126106ae576106ad61059b565b5b81356106be848260208601610659565b91505092915050565b6106d081610526565b81146106da575f80fd5b50565b5f813590506106eb816106c7565b92915050565b5f805f6060848603121561070857610707610422565b5b5f84013567ffffffffffffffff81111561072557610724610426565b5b6107318682870161069a565b935050602061074286828701610449565b9250506040610753868287016106dd565b9150509250925092565b7f496e646578206f7574206f6620626f756e6473000000000000000000000000005f82015250565b5f610791601383610492565b915061079c8261075d565b602082019050919050565b5f6020820190508181035f8301526107be81610785565b9050919050565b7f4e487b71000000000000000000000000000000000000000000000000000000005f52603260045260245ffd5b7f4e487b71000000000000000000000000000000000000000000000000000000005f52602260045260245ffd5b5f600282049050600182168061083657607f821691505b602082108103610849576108486107f2565b5b50919050565b5f819050815f5260205f209050919050565b5f6020601f8301049050919050565b5f82821b905092915050565b5f600883026108ab7fffffffffffffffffffffffffffffffffffffffffffffffffffffffffffffffff82610870565b6108b58683610870565b95508019841693508086168417925050509392505050565b5f819050919050565b5f6108f06108eb6108e68461042a565b6108cd565b61042a565b9050919050565b5f819050919050565b610909836108d6565b61091d610915826108f7565b84845461087c565b825550505050565b5f90565b610931610925565b61093c818484610900565b505050565b5b8181101561095f576109545f82610929565b600181019050610942565b5050565b601f8211156109a4576109758161084f565b61097e84610861565b8101602085101561098d578190505b6109a161099985610861565b830182610941565b50505b505050565b5f82821c905092915050565b5f6109c45f19846008026109a9565b1980831691505092915050565b5f6109dc83836109b5565b9150826002028217905092915050565b6109f582610488565b67ffffffffffffffff811115610a0e57610a0d6105a3565b5b610a18825461081f565b610a23828285610963565b5f60209050601f831160018114610a54575f8415610a42578287015190505b610a4c85826109d1565b865550610ab3565b601f198416610a628661084f565b5f5b82811015610a8957848901518255600182019150602085019450602081019050610a64565b86831015610aa65784890151610aa2601f8916826109b5565b8355505b6001600288020188555050505b50505050505056fea26469706673582212206a9776ba7da8d486fd079db5feb45a7fba6fc68560fb1ed883126a04a7efe75864736f6c634300081a0033",
					"opcodes": "PUSH1 0x80 PUSH1 0x40 MSTORE CALLVALUE DUP1 ISZERO PUSH1 0xE JUMPI PUSH0 DUP1 REVERT JUMPDEST POP PUSH2 0xAF1 DUP1 PUSH2 0x1C PUSH0 CODECOPY PUSH0 RETURN INVALID PUSH1 0x80 PUSH1 0x40 MSTORE CALLVALUE DUP1 ISZERO PUSH2 0xF JUMPI PUSH0 DUP1 REVERT JUMPDEST POP PUSH1 0x4 CALLDATASIZE LT PUSH2 0x4A JUMPI PUSH0 CALLDATALOAD PUSH1 0xE0 SHR DUP1 PUSH4 0x246982C4 EQ PUSH2 0x4E JUMPI DUP1 PUSH4 0x9E7A13AD EQ PUSH2 0x80 JUMPI DUP1 PUSH4 0xA9D53186 EQ PUSH2 0xB2 JUMPI DUP1 PUSH4 0xE11641CF EQ PUSH2 0xD0 JUMPI JUMPDEST PUSH0 DUP1 REVERT JUMPDEST PUSH2 0x68 PUSH1 0x4 DUP1 CALLDATASIZE SUB DUP2 ADD SWAP1 PUSH2 0x63 SWAP2 SWAP1 PUSH2 0x45D JUMP JUMPDEST PUSH2 0xEC JUMP JUMPDEST PUSH1 0x40 MLOAD PUSH2 0x77 SWAP4 SWAP3 SWAP2 SWAP1 PUSH2 0x546 JUMP JUMPDEST PUSH1 0x40 MLOAD DUP1 SWAP2 SUB SWAP1 RETURN JUMPDEST PUSH2 0x9A PUSH1 0x4 DUP1 CALLDATASIZE SUB DUP2 ADD SWAP1 PUSH2 0x95 SWAP2 SWAP1 PUSH2 0x45D JUMP JUMPDEST PUSH2 0x26D JUMP JUMPDEST PUSH1 0x40 MLOAD PUSH2 0xA9 SWAP4 SWAP3 SWAP2 SWAP1 PUSH2 0x546 JUMP JUMPDEST PUSH1 0x40 MLOAD DUP1 SWAP2 SUB SWAP1 RETURN JUMPDEST PUSH2 0xBA PUSH2 0x346 JUMP JUMPDEST PUSH1 0x40 MLOAD PUSH2 0xC7 SWAP2 SWAP1 PUSH2 0x582 JUMP JUMPDEST PUSH1 0x40 MLOAD DUP1 SWAP2 SUB SWAP1 RETURN JUMPDEST PUSH2 0xEA PUSH1 0x4 DUP1 CALLDATASIZE SUB DUP2 ADD SWAP1 PUSH2 0xE5 SWAP2 SWAP1 PUSH2 0x6F1 JUMP JUMPDEST PUSH2 0x351 JUMP JUMPDEST STOP JUMPDEST PUSH1 0x60 PUSH0 DUP1 PUSH0 DUP1 SLOAD SWAP1 POP DUP5 LT PUSH2 0x136 JUMPI PUSH1 0x40 MLOAD PUSH32 0x8C379A000000000000000000000000000000000000000000000000000000000 DUP2 MSTORE PUSH1 0x4 ADD PUSH2 0x12D SWAP1 PUSH2 0x7A7 JUMP JUMPDEST PUSH1 0x40 MLOAD DUP1 SWAP2 SUB SWAP1 REVERT JUMPDEST PUSH0 DUP1 DUP6 DUP2 SLOAD DUP2 LT PUSH2 0x14A JUMPI PUSH2 0x149 PUSH2 0x7C5 JUMP JUMPDEST JUMPDEST SWAP1 PUSH0 MSTORE PUSH1 0x20 PUSH0 KECCAK256 SWAP1 PUSH1 0x3 MUL ADD PUSH1 0x40 MLOAD DUP1 PUSH1 0x60 ADD PUSH1 0x40 MSTORE SWAP1 DUP2 PUSH0 DUP3 ADD DUP1 SLOAD PUSH2 0x170 SWAP1 PUSH2 0x81F JUMP JUMPDEST DUP1 PUSH1 0x1F ADD PUSH1 0x20 DUP1 SWAP2 DIV MUL PUSH1 0x20 ADD PUSH1 0x40 MLOAD SWAP1 DUP2 ADD PUSH1 0x40 MSTORE DUP1 SWAP3 SWAP2 SWAP1 DUP2 DUP2 MSTORE PUSH1 0x20 ADD DUP3 DUP1 SLOAD PUSH2 0x19C SWAP1 PUSH2 0x81F JUMP JUMPDEST DUP1 ISZERO PUSH2 0x1E7 JUMPI DUP1 PUSH1 0x1F LT PUSH2 0x1BE JUMPI PUSH2 0x100 DUP1 DUP4 SLOAD DIV MUL DUP4 MSTORE SWAP2 PUSH1 0x20 ADD SWAP2 PUSH2 0x1E7 JUMP JUMPDEST DUP3 ADD SWAP2 SWAP1 PUSH0 MSTORE PUSH1 0x20 PUSH0 KECCAK256 SWAP1 JUMPDEST DUP2 SLOAD DUP2 MSTORE SWAP1 PUSH1 0x1 ADD SWAP1 PUSH1 0x20 ADD DUP1 DUP4 GT PUSH2 0x1CA JUMPI DUP3 SWAP1 SUB PUSH1 0x1F AND DUP3 ADD SWAP2 JUMPDEST POP POP POP POP POP DUP2 MSTORE PUSH1 0x20 ADD PUSH1 0x1 DUP3 ADD SLOAD DUP2 MSTORE PUSH1 0x20 ADD PUSH1 0x2 DUP3 ADD PUSH0 SWAP1 SLOAD SWAP1 PUSH2 0x100 EXP SWAP1 DIV PUSH20 0xFFFFFFFFFFFFFFFFFFFFFFFFFFFFFFFFFFFFFFFF AND PUSH20 0xFFFFFFFFFFFFFFFFFFFFFFFFFFFFFFFFFFFFFFFF AND PUSH20 0xFFFFFFFFFFFFFFFFFFFFFFFFFFFFFFFFFFFFFFFF AND DUP2 MSTORE POP POP SWAP1 POP DUP1 PUSH0 ADD MLOAD DUP2 PUSH1 0x20 ADD MLOAD DUP3 PUSH1 0x40 ADD MLOAD SWAP4 POP SWAP4 POP SWAP4 POP POP SWAP2 SWAP4 SWAP1 SWAP3 POP JUMP JUMPDEST PUSH0 DUP2 DUP2 SLOAD DUP2 LT PUSH2 0x27B JUMPI PUSH0 DUP1 REVERT JUMPDEST SWAP1 PUSH0 MSTORE PUSH1 0x20 PUSH0 KECCAK256 SWAP1 PUSH1 0x3 MUL ADD PUSH0 SWAP2 POP SWAP1 POP DUP1 PUSH0 ADD DUP1 SLOAD PUSH2 0x29A SWAP1 PUSH2 0x81F JUMP JUMPDEST DUP1 PUSH1 0x1F ADD PUSH1 0x20 DUP1 SWAP2 DIV MUL PUSH1 0x20 ADD PUSH1 0x40 MLOAD SWAP1 DUP2 ADD PUSH1 0x40 MSTORE DUP1 SWAP3 SWAP2 SWAP1 DUP2 DUP2 MSTORE PUSH1 0x20 ADD DUP3 DUP1 SLOAD PUSH2 0x2C6 SWAP1 PUSH2 0x81F JUMP JUMPDEST DUP1 ISZERO PUSH2 0x311 JUMPI DUP1 PUSH1 0x1F LT PUSH2 0x2E8 JUMPI PUSH2 0x100 DUP1 DUP4 SLOAD DIV MUL DUP4 MSTORE SWAP2 PUSH1 0x20 ADD SWAP2 PUSH2 0x311 JUMP JUMPDEST DUP3 ADD SWAP2 SWAP1 PUSH0 MSTORE PUSH1 0x20 PUSH0 KECCAK256 SWAP1 JUMPDEST DUP2 SLOAD DUP2 MSTORE SWAP1 PUSH1 0x1 ADD SWAP1 PUSH1 0x20 ADD DUP1 DUP4 GT PUSH2 0x2F4 JUMPI DUP3 SWAP1 SUB PUSH1 0x1F AND DUP3 ADD SWAP2 JUMPDEST POP POP POP POP POP SWAP1 DUP1 PUSH1 0x1 ADD SLOAD SWAP1 DUP1 PUSH1 0x2 ADD PUSH0 SWAP1 SLOAD SWAP1 PUSH2 0x100 EXP SWAP1 DIV PUSH20 0xFFFFFFFFFFFFFFFFFFFFFFFFFFFFFFFFFFFFFFFF AND SWAP1 POP DUP4 JUMP JUMPDEST PUSH0 DUP1 DUP1 SLOAD SWAP1 POP SWAP1 POP SWAP1 JUMP JUMPDEST PUSH0 PUSH1 0x40 MLOAD DUP1 PUSH1 0x60 ADD PUSH1 0x40 MSTORE DUP1 DUP6 DUP2 MSTORE PUSH1 0x20 ADD DUP5 DUP2 MSTORE PUSH1 0x20 ADD DUP4 PUSH20 0xFFFFFFFFFFFFFFFFFFFFFFFFFFFFFFFFFFFFFFFF AND DUP2 MSTORE POP SWAP1 POP PUSH0 DUP2 SWAP1 DUP1 PUSH1 0x1 DUP2 SLOAD ADD DUP1 DUP3 SSTORE DUP1 SWAP2 POP POP PUSH1 0x1 SWAP1 SUB SWAP1 PUSH0 MSTORE PUSH1 0x20 PUSH0 KECCAK256 SWAP1 PUSH1 0x3 MUL ADD PUSH0 SWAP1 SWAP2 SWAP1 SWAP2 SWAP1 SWAP2 POP PUSH0 DUP3 ADD MLOAD DUP2 PUSH0 ADD SWAP1 DUP2 PUSH2 0x3C0 SWAP2 SWAP1 PUSH2 0x9EC JUMP JUMPDEST POP PUSH1 0x20 DUP3 ADD MLOAD DUP2 PUSH1 0x1 ADD SSTORE PUSH1 0x40 DUP3 ADD MLOAD DUP2 PUSH1 0x2 ADD PUSH0 PUSH2 0x100 EXP DUP2 SLOAD DUP2 PUSH20 0xFFFFFFFFFFFFFFFFFFFFFFFFFFFFFFFFFFFFFFFF MUL NOT AND SWAP1 DUP4 PUSH20 0xFFFFFFFFFFFFFFFFFFFFFFFFFFFFFFFFFFFFFFFF AND MUL OR SWAP1 SSTORE POP POP POP POP POP POP POP JUMP JUMPDEST PUSH0 PUSH1 0x40 MLOAD SWAP1 POP SWAP1 JUMP JUMPDEST PUSH0 DUP1 REVERT JUMPDEST PUSH0 DUP1 REVERT JUMPDEST PUSH0 DUP2 SWAP1 POP SWAP2 SWAP1 POP JUMP JUMPDEST PUSH2 0x43C DUP2 PUSH2 0x42A JUMP JUMPDEST DUP2 EQ PUSH2 0x446 JUMPI PUSH0 DUP1 REVERT JUMPDEST POP JUMP JUMPDEST PUSH0 DUP2 CALLDATALOAD SWAP1 POP PUSH2 0x457 DUP2 PUSH2 0x433 JUMP JUMPDEST SWAP3 SWAP2 POP POP JUMP JUMPDEST PUSH0 PUSH1 0x20 DUP3 DUP5 SUB SLT ISZERO PUSH2 0x472 JUMPI PUSH2 0x471 PUSH2 0x422 JUMP JUMPDEST JUMPDEST PUSH0 PUSH2 0x47F DUP5 DUP3 DUP6 ADD PUSH2 0x449 JUMP JUMPDEST SWAP2 POP POP SWAP3 SWAP2 POP POP JUMP JUMPDEST PUSH0 DUP2 MLOAD SWAP1 POP SWAP2 SWAP1 POP JUMP JUMPDEST PUSH0 DUP3 DUP3 MSTORE PUSH1 0x20 DUP3 ADD SWAP1 POP SWAP3 SWAP2 POP POP JUMP JUMPDEST DUP3 DUP2 DUP4 MCOPY PUSH0 DUP4 DUP4 ADD MSTORE POP POP POP JUMP JUMPDEST PUSH0 PUSH1 0x1F NOT PUSH1 0x1F DUP4 ADD AND SWAP1 POP SWAP2 SWAP1 POP JUMP JUMPDEST PUSH0 PUSH2 0x4CA DUP3 PUSH2 0x488 JUMP JUMPDEST PUSH2 0x4D4 DUP2 DUP6 PUSH2 0x492 JUMP JUMPDEST SWAP4 POP PUSH2 0x4E4 DUP2 DUP6 PUSH1 0x20 DUP7 ADD PUSH2 0x4A2 JUMP JUMPDEST PUSH2 0x4ED DUP2 PUSH2 0x4B0 JUMP JUMPDEST DUP5 ADD SWAP2 POP POP SWAP3 SWAP2 POP POP JUMP JUMPDEST PUSH2 0x501 DUP2 PUSH2 0x42A JUMP JUMPDEST DUP3 MSTORE POP POP JUMP JUMPDEST PUSH0 PUSH20 0xFFFFFFFFFFFFFFFFFFFFFFFFFFFFFFFFFFFFFFFF DUP3 AND SWAP1 POP SWAP2 SWAP1 POP JUMP JUMPDEST PUSH0 PUSH2 0x530 DUP3 PUSH2 0x507 JUMP JUMPDEST SWAP1 POP SWAP2 SWAP1 POP JUMP JUMPDEST PUSH2 0x540 DUP2 PUSH2 0x526 JUMP JUMPDEST DUP3 MSTORE POP POP JUMP JUMPDEST PUSH0 PUSH1 0x60 DUP3 ADD SWAP1 POP DUP2 DUP2 SUB PUSH0 DUP4 ADD MSTORE PUSH2 0x55E DUP2 DUP7 PUSH2 0x4C0 JUMP JUMPDEST SWAP1 POP PUSH2 0x56D PUSH1 0x20 DUP4 ADD DUP6 PUSH2 0x4F8 JUMP JUMPDEST PUSH2 0x57A PUSH1 0x40 DUP4 ADD DUP5 PUSH2 0x537 JUMP JUMPDEST SWAP5 SWAP4 POP POP POP POP JUMP JUMPDEST PUSH0 PUSH1 0x20 DUP3 ADD SWAP1 POP PUSH2 0x595 PUSH0 DUP4 ADD DUP5 PUSH2 0x4F8 JUMP JUMPDEST SWAP3 SWAP2 POP POP JUMP JUMPDEST PUSH0 DUP1 REVERT JUMPDEST PUSH0 DUP1 REVERT JUMPDEST PUSH32 0x4E487B7100000000000000000000000000000000000000000000000000000000 PUSH0 MSTORE PUSH1 0x41 PUSH1 0x4 MSTORE PUSH1 0x24 PUSH0 REVERT JUMPDEST PUSH2 0x5D9 DUP3 PUSH2 0x4B0 JUMP JUMPDEST DUP2 ADD DUP2 DUP2 LT PUSH8 0xFFFFFFFFFFFFFFFF DUP3 GT OR ISZERO PUSH2 0x5F8 JUMPI PUSH2 0x5F7 PUSH2 0x5A3 JUMP JUMPDEST JUMPDEST DUP1 PUSH1 0x40 MSTORE POP POP POP JUMP JUMPDEST PUSH0 PUSH2 0x60A PUSH2 0x419 JUMP JUMPDEST SWAP1 POP PUSH2 0x616 DUP3 DUP3 PUSH2 0x5D0 JUMP JUMPDEST SWAP2 SWAP1 POP JUMP JUMPDEST PUSH0 PUSH8 0xFFFFFFFFFFFFFFFF DUP3 GT ISZERO PUSH2 0x635 JUMPI PUSH2 0x634 PUSH2 0x5A3 JUMP JUMPDEST JUMPDEST PUSH2 0x63E DUP3 PUSH2 0x4B0 JUMP JUMPDEST SWAP1 POP PUSH1 0x20 DUP2 ADD SWAP1 POP SWAP2 SWAP1 POP JUMP JUMPDEST DUP3 DUP2 DUP4 CALLDATACOPY PUSH0 DUP4 DUP4 ADD MSTORE POP POP POP JUMP JUMPDEST PUSH0 PUSH2 0x66B PUSH2 0x666 DUP5 PUSH2 0x61B JUMP JUMPDEST PUSH2 0x601 JUMP JUMPDEST SWAP1 POP DUP3 DUP2 MSTORE PUSH1 0x20 DUP2 ADD DUP5 DUP5 DUP5 ADD GT ISZERO PUSH2 0x687 JUMPI PUSH2 0x686 PUSH2 0x59F JUMP JUMPDEST JUMPDEST PUSH2 0x692 DUP5 DUP3 DUP6 PUSH2 0x64B JUMP JUMPDEST POP SWAP4 SWAP3 POP POP POP JUMP JUMPDEST PUSH0 DUP3 PUSH1 0x1F DUP4 ADD SLT PUSH2 0x6AE JUMPI PUSH2 0x6AD PUSH2 0x59B JUMP JUMPDEST JUMPDEST DUP2 CALLDATALOAD PUSH2 0x6BE DUP5 DUP3 PUSH1 0x20 DUP7 ADD PUSH2 0x659 JUMP JUMPDEST SWAP2 POP POP SWAP3 SWAP2 POP POP JUMP JUMPDEST PUSH2 0x6D0 DUP2 PUSH2 0x526 JUMP JUMPDEST DUP2 EQ PUSH2 0x6DA JUMPI PUSH0 DUP1 REVERT JUMPDEST POP JUMP JUMPDEST PUSH0 DUP2 CALLDATALOAD SWAP1 POP PUSH2 0x6EB DUP2 PUSH2 0x6C7 JUMP JUMPDEST SWAP3 SWAP2 POP POP JUMP JUMPDEST PUSH0 DUP1 PUSH0 PUSH1 0x60 DUP5 DUP7 SUB SLT ISZERO PUSH2 0x708 JUMPI PUSH2 0x707 PUSH2 0x422 JUMP JUMPDEST JUMPDEST PUSH0 DUP5 ADD CALLDATALOAD PUSH8 0xFFFFFFFFFFFFFFFF DUP2 GT ISZERO PUSH2 0x725 JUMPI PUSH2 0x724 PUSH2 0x426 JUMP JUMPDEST JUMPDEST PUSH2 0x731 DUP7 DUP3 DUP8 ADD PUSH2 0x69A JUMP JUMPDEST SWAP4 POP POP PUSH1 0x20 PUSH2 0x742 DUP7 DUP3 DUP8 ADD PUSH2 0x449 JUMP JUMPDEST SWAP3 POP POP PUSH1 0x40 PUSH2 0x753 DUP7 DUP3 DUP8 ADD PUSH2 0x6DD JUMP JUMPDEST SWAP2 POP POP SWAP3 POP SWAP3 POP SWAP3 JUMP JUMPDEST PUSH32 0x496E646578206F7574206F6620626F756E647300000000000000000000000000 PUSH0 DUP3 ADD MSTORE POP JUMP JUMPDEST PUSH0 PUSH2 0x791 PUSH1 0x13 DUP4 PUSH2 0x492 JUMP JUMPDEST SWAP2 POP PUSH2 0x79C DUP3 PUSH2 0x75D JUMP JUMPDEST PUSH1 0x20 DUP3 ADD SWAP1 POP SWAP2 SWAP1 POP JUMP JUMPDEST PUSH0 PUSH1 0x20 DUP3 ADD SWAP1 POP DUP2 DUP2 SUB PUSH0 DUP4 ADD MSTORE PUSH2 0x7BE DUP2 PUSH2 0x785 JUMP JUMPDEST SWAP1 POP SWAP2 SWAP1 POP JUMP JUMPDEST PUSH32 0x4E487B7100000000000000000000000000000000000000000000000000000000 PUSH0 MSTORE PUSH1 0x32 PUSH1 0x4 MSTORE PUSH1 0x24 PUSH0 REVERT JUMPDEST PUSH32 0x4E487B7100000000000000000000000000000000000000000000000000000000 PUSH0 MSTORE PUSH1 0x22 PUSH1 0x4 MSTORE PUSH1 0x24 PUSH0 REVERT JUMPDEST PUSH0 PUSH1 0x2 DUP3 DIV SWAP1 POP PUSH1 0x1 DUP3 AND DUP1 PUSH2 0x836 JUMPI PUSH1 0x7F DUP3 AND SWAP2 POP JUMPDEST PUSH1 0x20 DUP3 LT DUP2 SUB PUSH2 0x849 JUMPI PUSH2 0x848 PUSH2 0x7F2 JUMP JUMPDEST JUMPDEST POP SWAP2 SWAP1 POP JUMP JUMPDEST PUSH0 DUP2 SWAP1 POP DUP2 PUSH0 MSTORE PUSH1 0x20 PUSH0 KECCAK256 SWAP1 POP SWAP2 SWAP1 POP JUMP JUMPDEST PUSH0 PUSH1 0x20 PUSH1 0x1F DUP4 ADD DIV SWAP1 POP SWAP2 SWAP1 POP JUMP JUMPDEST PUSH0 DUP3 DUP3 SHL SWAP1 POP SWAP3 SWAP2 POP POP JUMP JUMPDEST PUSH0 PUSH1 0x8 DUP4 MUL PUSH2 0x8AB PUSH32 0xFFFFFFFFFFFFFFFFFFFFFFFFFFFFFFFFFFFFFFFFFFFFFFFFFFFFFFFFFFFFFFFF DUP3 PUSH2 0x870 JUMP JUMPDEST PUSH2 0x8B5 DUP7 DUP4 PUSH2 0x870 JUMP JUMPDEST SWAP6 POP DUP1 NOT DUP5 AND SWAP4 POP DUP1 DUP7 AND DUP5 OR SWAP3 POP POP POP SWAP4 SWAP3 POP POP POP JUMP JUMPDEST PUSH0 DUP2 SWAP1 POP SWAP2 SWAP1 POP JUMP JUMPDEST PUSH0 PUSH2 0x8F0 PUSH2 0x8EB PUSH2 0x8E6 DUP5 PUSH2 0x42A JUMP JUMPDEST PUSH2 0x8CD JUMP JUMPDEST PUSH2 0x42A JUMP JUMPDEST SWAP1 POP SWAP2 SWAP1 POP JUMP JUMPDEST PUSH0 DUP2 SWAP1 POP SWAP2 SWAP1 POP JUMP JUMPDEST PUSH2 0x909 DUP4 PUSH2 0x8D6 JUMP JUMPDEST PUSH2 0x91D PUSH2 0x915 DUP3 PUSH2 0x8F7 JUMP JUMPDEST DUP5 DUP5 SLOAD PUSH2 0x87C JUMP JUMPDEST DUP3 SSTORE POP POP POP POP JUMP JUMPDEST PUSH0 SWAP1 JUMP JUMPDEST PUSH2 0x931 PUSH2 0x925 JUMP JUMPDEST PUSH2 0x93C DUP2 DUP5 DUP5 PUSH2 0x900 JUMP JUMPDEST POP POP POP JUMP JUMPDEST JUMPDEST DUP2 DUP2 LT ISZERO PUSH2 0x95F JUMPI PUSH2 0x954 PUSH0 DUP3 PUSH2 0x929 JUMP JUMPDEST PUSH1 0x1 DUP2 ADD SWAP1 POP PUSH2 0x942 JUMP JUMPDEST POP POP JUMP JUMPDEST PUSH1 0x1F DUP3 GT ISZERO PUSH2 0x9A4 JUMPI PUSH2 0x975 DUP2 PUSH2 0x84F JUMP JUMPDEST PUSH2 0x97E DUP5 PUSH2 0x861 JUMP JUMPDEST DUP2 ADD PUSH1 0x20 DUP6 LT ISZERO PUSH2 0x98D JUMPI DUP2 SWAP1 POP JUMPDEST PUSH2 0x9A1 PUSH2 0x999 DUP6 PUSH2 0x861 JUMP JUMPDEST DUP4 ADD DUP3 PUSH2 0x941 JUMP JUMPDEST POP POP JUMPDEST POP POP POP JUMP JUMPDEST PUSH0 DUP3 DUP3 SHR SWAP1 POP SWAP3 SWAP2 POP POP JUMP JUMPDEST PUSH0 PUSH2 0x9C4 PUSH0 NOT DUP5 PUSH1 0x8 MUL PUSH2 0x9A9 JUMP JUMPDEST NOT DUP1 DUP4 AND SWAP2 POP POP SWAP3 SWAP2 POP POP JUMP JUMPDEST PUSH0 PUSH2 0x9DC DUP4 DUP4 PUSH2 0x9B5 JUMP JUMPDEST SWAP2 POP DUP3 PUSH1 0x2 MUL DUP3 OR SWAP1 POP SWAP3 SWAP2 POP POP JUMP JUMPDEST PUSH2 0x9F5 DUP3 PUSH2 0x488 JUMP JUMPDEST PUSH8 0xFFFFFFFFFFFFFFFF DUP2 GT ISZERO PUSH2 0xA0E JUMPI PUSH2 0xA0D PUSH2 0x5A3 JUMP JUMPDEST JUMPDEST PUSH2 0xA18 DUP3 SLOAD PUSH2 0x81F JUMP JUMPDEST PUSH2 0xA23 DUP3 DUP3 DUP6 PUSH2 0x963 JUMP JUMPDEST PUSH0 PUSH1 0x20 SWAP1 POP PUSH1 0x1F DUP4 GT PUSH1 0x1 DUP2 EQ PUSH2 0xA54 JUMPI PUSH0 DUP5 ISZERO PUSH2 0xA42 JUMPI DUP3 DUP8 ADD MLOAD SWAP1 POP JUMPDEST PUSH2 0xA4C DUP6 DUP3 PUSH2 0x9D1 JUMP JUMPDEST DUP7 SSTORE POP PUSH2 0xAB3 JUMP JUMPDEST PUSH1 0x1F NOT DUP5 AND PUSH2 0xA62 DUP7 PUSH2 0x84F JUMP JUMPDEST PUSH0 JUMPDEST DUP3 DUP2 LT ISZERO PUSH2 0xA89 JUMPI DUP5 DUP10 ADD MLOAD DUP3 SSTORE PUSH1 0x1 DUP3 ADD SWAP2 POP PUSH1 0x20 DUP6 ADD SWAP5 POP PUSH1 0x20 DUP2 ADD SWAP1 POP PUSH2 0xA64 JUMP JUMPDEST DUP7 DUP4 LT ISZERO PUSH2 0xAA6 JUMPI DUP5 DUP10 ADD MLOAD PUSH2 0xAA2 PUSH1 0x1F DUP10 AND DUP3 PUSH2 0x9B5 JUMP JUMPDEST DUP4 SSTORE POP JUMPDEST PUSH1 0x1 PUSH1 0x2 DUP9 MUL ADD DUP9 SSTORE POP POP POP JUMPDEST POP POP POP POP POP POP JUMP INVALID LOG2 PUSH5 0x6970667358 0x22 SLT KECCAK256 PUSH11 0x9776BA7DA8D486FD079DB5 INVALID 0xB4 GAS PUSH32 0xBA6FC68560FB1ED883126A04A7EFE75864736F6C634300081A00330000000000 "
				},
				"gasEstimates": {
					"creation": {
						"codeDepositCost": "560200",
						"executionCost": "592",
						"totalCost": "560792"
					},
					"external": {
						"addPerson(string,uint256,address)": "infinite",
						"getPeopleCount()": "2462",
						"getPerson(uint256)": "infinite",
						"people(uint256)": "infinite"
					}
				},
				"methodIdentifiers": {
					"addPerson(string,uint256,address)": "e11641cf",
					"getPeopleCount()": "a9d53186",
					"getPerson(uint256)": "246982c4",
					"people(uint256)": "9e7a13ad"
				}
			},
			"storageLayout": {
				"storage": [
					{
						"astId": 12,
						"contract": "contracts/17_StructDemo.sol:StructDemo",
						"label": "people",
						"offset": 0,
						"slot": "0",
						"type": "t_array(t_struct(Person)8_storage)dyn_storage"
					}
				],
				"types": {
					"t_address": {
						"encoding": "inplace",
						"label": "address",
						"numberOfBytes": "20"
					},
					"t_array(t_struct(Person)8_storage)dyn_storage": {
						"base": "t_struct(Person)8_storage",
						"encoding": "dynamic_array",
						"label": "struct StructDemo.Person[]",
						"numberOfBytes": "32"
					},
					"t_string_storage": {
						"encoding": "bytes",
						"label": "string",
						"numberOfBytes": "32"
					},
					"t_struct(Person)8_storage": {
						"encoding": "inplace",
						"label": "struct StructDemo.Person",
						"members": [
							{
								"astId": 3,
								"contract": "contracts/17_StructDemo.sol:StructDemo",
								"label": "name",
								"offset": 0,
								"slot": "0",
								"type": "t_string_storage"
							},
							{
								"astId": 5,
								"contract": "contracts/17_StructDemo.sol:StructDemo",
								"label": "age",
								"offset": 0,
								"slot": "1",
								"type": "t_uint256"
							},
							{
								"astId": 7,
								"contract": "contracts/17_StructDemo.sol:StructDemo",
								"label": "walletAddress",
								"offset": 0,
								"slot": "2",
								"type": "t_address"
							}
						],
						"numberOfBytes": "96"
					},
					"t_uint256": {
						"encoding": "inplace",
						"label": "uint256",
						"numberOfBytes": "32"
					}
				}
			},
			"userdoc": {
				"kind": "user",
				"methods": {},
				"version": 1
			}
		}
	}
}