{
	"contracts/2_ValueTypesDemo.sol": {
		"ValueTypesDemo": {
			"abi": [
				{
					"inputs": [],
					"name": "defaultAddress",
					"outputs": [
						{
							"internalType": "address",
							"name": "",
							"type": "address"
						}
					],
					"stateMutability": "view",
					"type": "function"
				},
				{
					"inputs": [],
					"name": "defaultBool",
					"outputs": [
						{
							"internalType": "bool",
							"name": "",
							"type": "bool"
						}
					],
					"stateMutability": "view",
					"type": "function"
				},
				{
					"inputs": [],
					"name": "defaultBytes1",
					"outputs": [
						{
							"internalType": "bytes1",
							"name": "",
							"type": "bytes1"
						}
					],
					"stateMutability": "view",
					"type": "function"
				},
				{
					"inputs": [],
					"name": "defaultEnum",
					"outputs": [
						{
							"internalType": "enum ValueTypesDemo.ActionSet",
							"name": "",
							"type": "uint8"
						}
					],
					"stateMutability": "view",
					"type": "function"
				},
				{
					"inputs": [],
					"name": "defaultInt",
					"outputs": [
						{
							"internalType": "int256",
							"name": "",
							"type": "int256"
						}
					],
					"stateMutability": "view",
					"type": "function"
				},
				{
					"inputs": [],
					"name": "defaultUint",
					"outputs": [
						{
							"internalType": "uint256",
							"name": "",
							"type": "uint256"
						}
					],
					"stateMutability": "view",
					"type": "function"
				}
			],
			"devdoc": {
				"kind": "dev",
				"methods": {},
				"version": 1
			},
			"evm": {
				"assembly": "    /* \"contracts/2_ValueTypesDemo.sol\":60:323  contract ValueTypesDemo {... */\n  mstore(0x40, 0x80)\n  callvalue\n  dup1\n  iszero\n  tag_1\n  jumpi\n  0x00\n  dup1\n  revert\ntag_1:\n  pop\n  dataSize(sub_0)\n  dup1\n  dataOffset(sub_0)\n  0x00\n  codecopy\n  0x00\n  return\nstop\n\nsub_0: assembly {\n        /* \"contracts/2_ValueTypesDemo.sol\":60:323  contract ValueTypesDemo {... */\n      mstore(0x40, 0x80)\n      callvalue\n      dup1\n      iszero\n      tag_1\n      jumpi\n      0x00\n      dup1\n      revert\n    tag_1:\n      pop\n      jumpi(tag_2, lt(calldatasize, 0x04))\n      shr(0xe0, calldataload(0x00))\n      dup1\n      0x1570c2cb\n      eq\n      tag_3\n      jumpi\n      dup1\n      0x5abe622b\n      eq\n      tag_4\n      jumpi\n      dup1\n      0x5c101693\n      eq\n      tag_5\n      jumpi\n      dup1\n      0x64da813a\n      eq\n      tag_6\n      jumpi\n      dup1\n      0x952ff216\n      eq\n      tag_7\n      jumpi\n      dup1\n      0xd668f5b5\n      eq\n      tag_8\n      jumpi\n    tag_2:\n      0x00\n      dup1\n      revert\n        /* \"contracts/2_ValueTypesDemo.sol\":119:142  uint public defaultUint */\n    tag_3:\n      tag_9\n      tag_10\n      jump\t// in\n    tag_9:\n      mload(0x40)\n      tag_11\n      swap2\n      swap1\n      tag_12\n      jump\t// in\n    tag_11:\n      mload(0x40)\n      dup1\n      swap2\n      sub\n      swap1\n      return\n        /* \"contracts/2_ValueTypesDemo.sol\":91:112  int public defaultInt */\n    tag_4:\n      tag_13\n      tag_14\n      jump\t// in\n    tag_13:\n      mload(0x40)\n      tag_15\n      swap2\n      swap1\n      tag_16\n      jump\t// in\n    tag_15:\n      mload(0x40)\n      dup1\n      swap2\n      sub\n      swap1\n      return\n        /* \"contracts/2_ValueTypesDemo.sol\":179:208  address public defaultAddress */\n    tag_5:\n      tag_17\n      tag_18\n      jump\t// in\n    tag_17:\n      mload(0x40)\n      tag_19\n      swap2\n      swap1\n      tag_20\n      jump\t// in\n    tag_19:\n      mload(0x40)\n      dup1\n      swap2\n      sub\n      swap1\n      return\n        /* \"contracts/2_ValueTypesDemo.sol\":215:242  bytes1 public defaultBytes1 */\n    tag_6:\n      tag_21\n      tag_22\n      jump\t// in\n    tag_21:\n      mload(0x40)\n      tag_23\n      swap2\n      swap1\n      tag_24\n      jump\t// in\n    tag_23:\n      mload(0x40)\n      dup1\n      swap2\n      sub\n      swap1\n      return\n        /* \"contracts/2_ValueTypesDemo.sol\":291:319  ActionSet public defaultEnum */\n    tag_7:\n      tag_25\n      tag_26\n      jump\t// in\n    tag_25:\n      mload(0x40)\n      tag_27\n      swap2\n      swap1\n      tag_28\n      jump\t// in\n    tag_27:\n      mload(0x40)\n      dup1\n      swap2\n      sub\n      swap1\n      return\n        /* \"contracts/2_ValueTypesDemo.sol\":149:172  bool public defaultBool */\n    tag_8:\n      tag_29\n      tag_30\n      jump\t// in\n    tag_29:\n      mload(0x40)\n      tag_31\n      swap2\n      swap1\n      tag_32\n      jump\t// in\n    tag_31:\n      mload(0x40)\n      dup1\n      swap2\n      sub\n      swap1\n      return\n        /* \"contracts/2_ValueTypesDemo.sol\":119:142  uint public defaultUint */\n    tag_10:\n      sload(0x01)\n      dup2\n      jump\t// out\n        /* \"contracts/2_ValueTypesDemo.sol\":91:112  int public defaultInt */\n    tag_14:\n      sload(0x00)\n      dup2\n      jump\t// out\n        /* \"contracts/2_ValueTypesDemo.sol\":179:208  address public defaultAddress */\n    tag_18:\n      0x02\n      0x01\n      swap1\n      sload\n      swap1\n      0x0100\n      exp\n      swap1\n      div\n      0xffffffffffffffffffffffffffffffffffffffff\n      and\n      dup2\n      jump\t// out\n        /* \"contracts/2_ValueTypesDemo.sol\":215:242  bytes1 public defaultBytes1 */\n    tag_22:\n      0x02\n      0x15\n      swap1\n      sload\n      swap1\n      0x0100\n      exp\n      swap1\n      div\n      0xf8\n      shl\n      dup2\n      jump\t// out\n        /* \"contracts/2_ValueTypesDemo.sol\":291:319  ActionSet public defaultEnum */\n    tag_26:\n      0x02\n      0x16\n      swap1\n      sload\n      swap1\n      0x0100\n      exp\n      swap1\n      div\n      0xff\n      and\n      dup2\n      jump\t// out\n        /* \"contracts/2_ValueTypesDemo.sol\":149:172  bool public defaultBool */\n    tag_30:\n      0x02\n      0x00\n      swap1\n      sload\n      swap1\n      0x0100\n      exp\n      swap1\n      div\n      0xff\n      and\n      dup2\n      jump\t// out\n        /* \"#utility.yul\":7:84   */\n    tag_33:\n        /* \"#utility.yul\":44:51   */\n      0x00\n        /* \"#utility.yul\":73:78   */\n      dup2\n        /* \"#utility.yul\":62:78   */\n      swap1\n      pop\n        /* \"#utility.yul\":7:84   */\n      swap2\n      swap1\n      pop\n      jump\t// out\n        /* \"#utility.yul\":90:208   */\n    tag_34:\n        /* \"#utility.yul\":177:201   */\n      tag_52\n        /* \"#utility.yul\":195:200   */\n      dup2\n        /* \"#utility.yul\":177:201   */\n      tag_33\n      jump\t// in\n    tag_52:\n        /* \"#utility.yul\":172:175   */\n      dup3\n        /* \"#utility.yul\":165:202   */\n      mstore\n        /* \"#utility.yul\":90:208   */\n      pop\n      pop\n      jump\t// out\n        /* \"#utility.yul\":214:436   */\n    tag_12:\n        /* \"#utility.yul\":307:311   */\n      0x00\n        /* \"#utility.yul\":345:347   */\n      0x20\n        /* \"#utility.yul\":334:343   */\n      dup3\n        /* \"#utility.yul\":330:348   */\n      add\n        /* \"#utility.yul\":322:348   */\n      swap1\n      pop\n        /* \"#utility.yul\":358:429   */\n      tag_54\n        /* \"#utility.yul\":426:427   */\n      0x00\n        /* \"#utility.yul\":415:424   */\n      dup4\n        /* \"#utility.yul\":411:428   */\n      add\n        /* \"#utility.yul\":402:408   */\n      dup5\n        /* \"#utility.yul\":358:429   */\n      tag_34\n      jump\t// in\n    tag_54:\n        /* \"#utility.yul\":214:436   */\n      swap3\n      swap2\n      pop\n      pop\n      jump\t// out\n        /* \"#utility.yul\":442:518   */\n    tag_35:\n        /* \"#utility.yul\":478:485   */\n      0x00\n        /* \"#utility.yul\":507:512   */\n      dup2\n        /* \"#utility.yul\":496:512   */\n      swap1\n      pop\n        /* \"#utility.yul\":442:518   */\n      swap2\n      swap1\n      pop\n      jump\t// out\n        /* \"#utility.yul\":524:639   */\n    tag_36:\n        /* \"#utility.yul\":609:632   */\n      tag_57\n        /* \"#utility.yul\":626:631   */\n      dup2\n        /* \"#utility.yul\":609:632   */\n      tag_35\n      jump\t// in\n    tag_57:\n        /* \"#utility.yul\":604:607   */\n      dup3\n        /* \"#utility.yul\":597:633   */\n      mstore\n        /* \"#utility.yul\":524:639   */\n      pop\n      pop\n      jump\t// out\n        /* \"#utility.yul\":645:863   */\n    tag_16:\n        /* \"#utility.yul\":736:740   */\n      0x00\n        /* \"#utility.yul\":774:776   */\n      0x20\n        /* \"#utility.yul\":763:772   */\n      dup3\n        /* \"#utility.yul\":759:777   */\n      add\n        /* \"#utility.yul\":751:777   */\n      swap1\n      pop\n        /* \"#utility.yul\":787:856   */\n      tag_59\n        /* \"#utility.yul\":853:854   */\n      0x00\n        /* \"#utility.yul\":842:851   */\n      dup4\n        /* \"#utility.yul\":838:855   */\n      add\n        /* \"#utility.yul\":829:835   */\n      dup5\n        /* \"#utility.yul\":787:856   */\n      tag_36\n      jump\t// in\n    tag_59:\n        /* \"#utility.yul\":645:863   */\n      swap3\n      swap2\n      pop\n      pop\n      jump\t// out\n        /* \"#utility.yul\":869:995   */\n    tag_37:\n        /* \"#utility.yul\":906:913   */\n      0x00\n        /* \"#utility.yul\":946:988   */\n      0xffffffffffffffffffffffffffffffffffffffff\n        /* \"#utility.yul\":939:944   */\n      dup3\n        /* \"#utility.yul\":935:989   */\n      and\n        /* \"#utility.yul\":924:989   */\n      swap1\n      pop\n        /* \"#utility.yul\":869:995   */\n      swap2\n      swap1\n      pop\n      jump\t// out\n        /* \"#utility.yul\":1001:1097   */\n    tag_38:\n        /* \"#utility.yul\":1038:1045   */\n      0x00\n        /* \"#utility.yul\":1067:1091   */\n      tag_62\n        /* \"#utility.yul\":1085:1090   */\n      dup3\n        /* \"#utility.yul\":1067:1091   */\n      tag_37\n      jump\t// in\n    tag_62:\n        /* \"#utility.yul\":1056:1091   */\n      swap1\n      pop\n        /* \"#utility.yul\":1001:1097   */\n      swap2\n      swap1\n      pop\n      jump\t// out\n        /* \"#utility.yul\":1103:1221   */\n    tag_39:\n        /* \"#utility.yul\":1190:1214   */\n      tag_64\n        /* \"#utility.yul\":1208:1213   */\n      dup2\n        /* \"#utility.yul\":1190:1214   */\n      tag_38\n      jump\t// in\n    tag_64:\n        /* \"#utility.yul\":1185:1188   */\n      dup3\n        /* \"#utility.yul\":1178:1215   */\n      mstore\n        /* \"#utility.yul\":1103:1221   */\n      pop\n      pop\n      jump\t// out\n        /* \"#utility.yul\":1227:1449   */\n    tag_20:\n        /* \"#utility.yul\":1320:1324   */\n      0x00\n        /* \"#utility.yul\":1358:1360   */\n      0x20\n        /* \"#utility.yul\":1347:1356   */\n      dup3\n        /* \"#utility.yul\":1343:1361   */\n      add\n        /* \"#utility.yul\":1335:1361   */\n      swap1\n      pop\n        /* \"#utility.yul\":1371:1442   */\n      tag_66\n        /* \"#utility.yul\":1439:1440   */\n      0x00\n        /* \"#utility.yul\":1428:1437   */\n      dup4\n        /* \"#utility.yul\":1424:1441   */\n      add\n        /* \"#utility.yul\":1415:1421   */\n      dup5\n        /* \"#utility.yul\":1371:1442   */\n      tag_39\n      jump\t// in\n    tag_66:\n        /* \"#utility.yul\":1227:1449   */\n      swap3\n      swap2\n      pop\n      pop\n      jump\t// out\n        /* \"#utility.yul\":1455:1604   */\n    tag_40:\n        /* \"#utility.yul\":1491:1498   */\n      0x00\n        /* \"#utility.yul\":1531:1597   */\n      0xff00000000000000000000000000000000000000000000000000000000000000\n        /* \"#utility.yul\":1524:1529   */\n      dup3\n        /* \"#utility.yul\":1520:1598   */\n      and\n        /* \"#utility.yul\":1509:1598   */\n      swap1\n      pop\n        /* \"#utility.yul\":1455:1604   */\n      swap2\n      swap1\n      pop\n      jump\t// out\n        /* \"#utility.yul\":1610:1725   */\n    tag_41:\n        /* \"#utility.yul\":1695:1718   */\n      tag_69\n        /* \"#utility.yul\":1712:1717   */\n      dup2\n        /* \"#utility.yul\":1695:1718   */\n      tag_40\n      jump\t// in\n    tag_69:\n        /* \"#utility.yul\":1690:1693   */\n      dup3\n        /* \"#utility.yul\":1683:1719   */\n      mstore\n        /* \"#utility.yul\":1610:1725   */\n      pop\n      pop\n      jump\t// out\n        /* \"#utility.yul\":1731:1949   */\n    tag_24:\n        /* \"#utility.yul\":1822:1826   */\n      0x00\n        /* \"#utility.yul\":1860:1862   */\n      0x20\n        /* \"#utility.yul\":1849:1858   */\n      dup3\n        /* \"#utility.yul\":1845:1863   */\n      add\n        /* \"#utility.yul\":1837:1863   */\n      swap1\n      pop\n        /* \"#utility.yul\":1873:1942   */\n      tag_71\n        /* \"#utility.yul\":1939:1940   */\n      0x00\n        /* \"#utility.yul\":1928:1937   */\n      dup4\n        /* \"#utility.yul\":1924:1941   */\n      add\n        /* \"#utility.yul\":1915:1921   */\n      dup5\n        /* \"#utility.yul\":1873:1942   */\n      tag_41\n      jump\t// in\n    tag_71:\n        /* \"#utility.yul\":1731:1949   */\n      swap3\n      swap2\n      pop\n      pop\n      jump\t// out\n        /* \"#utility.yul\":1955:2135   */\n    tag_42:\n        /* \"#utility.yul\":2003:2080   */\n      0x4e487b7100000000000000000000000000000000000000000000000000000000\n        /* \"#utility.yul\":2000:2001   */\n      0x00\n        /* \"#utility.yul\":1993:2081   */\n      mstore\n        /* \"#utility.yul\":2100:2104   */\n      0x21\n        /* \"#utility.yul\":2097:2098   */\n      0x04\n        /* \"#utility.yul\":2090:2105   */\n      mstore\n        /* \"#utility.yul\":2124:2128   */\n      0x24\n        /* \"#utility.yul\":2121:2122   */\n      0x00\n        /* \"#utility.yul\":2114:2129   */\n      revert\n        /* \"#utility.yul\":2141:2258   */\n    tag_43:\n        /* \"#utility.yul\":2226:2227   */\n      0x03\n        /* \"#utility.yul\":2219:2224   */\n      dup2\n        /* \"#utility.yul\":2216:2228   */\n      lt\n        /* \"#utility.yul\":2206:2252   */\n      tag_74\n      jumpi\n        /* \"#utility.yul\":2232:2250   */\n      tag_75\n      tag_42\n      jump\t// in\n    tag_75:\n        /* \"#utility.yul\":2206:2252   */\n    tag_74:\n        /* \"#utility.yul\":2141:2258   */\n      pop\n      jump\t// out\n        /* \"#utility.yul\":2264:2399   */\n    tag_44:\n        /* \"#utility.yul\":2313:2320   */\n      0x00\n        /* \"#utility.yul\":2342:2347   */\n      dup2\n        /* \"#utility.yul\":2331:2347   */\n      swap1\n      pop\n        /* \"#utility.yul\":2348:2393   */\n      tag_77\n        /* \"#utility.yul\":2387:2392   */\n      dup3\n        /* \"#utility.yul\":2348:2393   */\n      tag_43\n      jump\t// in\n    tag_77:\n        /* \"#utility.yul\":2264:2399   */\n      swap2\n      swap1\n      pop\n      jump\t// out\n        /* \"#utility.yul\":2405:2540   */\n    tag_45:\n        /* \"#utility.yul\":2465:2474   */\n      0x00\n        /* \"#utility.yul\":2498:2534   */\n      tag_79\n        /* \"#utility.yul\":2528:2533   */\n      dup3\n        /* \"#utility.yul\":2498:2534   */\n      tag_44\n      jump\t// in\n    tag_79:\n        /* \"#utility.yul\":2485:2534   */\n      swap1\n      pop\n        /* \"#utility.yul\":2405:2540   */\n      swap2\n      swap1\n      pop\n      jump\t// out\n        /* \"#utility.yul\":2546:2697   */\n    tag_46:\n        /* \"#utility.yul\":2643:2690   */\n      tag_81\n        /* \"#utility.yul\":2684:2689   */\n      dup2\n        /* \"#utility.yul\":2643:2690   */\n      tag_45\n      jump\t// in\n    tag_81:\n        /* \"#utility.yul\":2638:2641   */\n      dup3\n        /* \"#utility.yul\":2631:2691   */\n      mstore\n        /* \"#utility.yul\":2546:2697   */\n      pop\n      pop\n      jump\t// out\n        /* \"#utility.yul\":2703:2945   */\n    tag_28:\n        /* \"#utility.yul\":2806:2810   */\n      0x00\n        /* \"#utility.yul\":2844:2846   */\n      0x20\n        /* \"#utility.yul\":2833:2842   */\n      dup3\n        /* \"#utility.yul\":2829:2847   */\n      add\n        /* \"#utility.yul\":2821:2847   */\n      swap1\n      pop\n        /* \"#utility.yul\":2857:2938   */\n      tag_83\n        /* \"#utility.yul\":2935:2936   */\n      0x00\n        /* \"#utility.yul\":2924:2933   */\n      dup4\n        /* \"#utility.yul\":2920:2937   */\n      add\n        /* \"#utility.yul\":2911:2917   */\n      dup5\n        /* \"#utility.yul\":2857:2938   */\n      tag_46\n      jump\t// in\n    tag_83:\n        /* \"#utility.yul\":2703:2945   */\n      swap3\n      swap2\n      pop\n      pop\n      jump\t// out\n        /* \"#utility.yul\":2951:3041   */\n    tag_47:\n        /* \"#utility.yul\":2985:2992   */\n      0x00\n        /* \"#utility.yul\":3028:3033   */\n      dup2\n        /* \"#utility.yul\":3021:3034   */\n      iszero\n        /* \"#utility.yul\":3014:3035   */\n      iszero\n        /* \"#utility.yul\":3003:3035   */\n      swap1\n      pop\n        /* \"#utility.yul\":2951:3041   */\n      swap2\n      swap1\n      pop\n      jump\t// out\n        /* \"#utility.yul\":3047:3156   */\n    tag_48:\n        /* \"#utility.yul\":3128:3149   */\n      tag_86\n        /* \"#utility.yul\":3143:3148   */\n      dup2\n        /* \"#utility.yul\":3128:3149   */\n      tag_47\n      jump\t// in\n    tag_86:\n        /* \"#utility.yul\":3123:3126   */\n      dup3\n        /* \"#utility.yul\":3116:3150   */\n      mstore\n        /* \"#utility.yul\":3047:3156   */\n      pop\n      pop\n      jump\t// out\n        /* \"#utility.yul\":3162:3372   */\n    tag_32:\n        /* \"#utility.yul\":3249:3253   */\n      0x00\n        /* \"#utility.yul\":3287:3289   */\n      0x20\n        /* \"#utility.yul\":3276:3285   */\n      dup3\n        /* \"#utility.yul\":3272:3290   */\n      add\n        /* \"#utility.yul\":3264:3290   */\n      swap1\n      pop\n        /* \"#utility.yul\":3300:3365   */\n      tag_88\n        /* \"#utility.yul\":3362:3363   */\n      0x00\n        /* \"#utility.yul\":3351:3360   */\n      dup4\n        /* \"#utility.yul\":3347:3364   */\n      add\n        /* \"#utility.yul\":3338:3344   */\n      dup5\n        /* \"#utility.yul\":3300:3365   */\n      tag_48\n      jump\t// in\n    tag_88:\n        /* \"#utility.yul\":3162:3372   */\n      swap3\n      swap2\n      pop\n      pop\n      jump\t// out\n\n    auxdata: 0xa264697066735822122054ccf44bb33f34e43659d765a414a2e26da0c47e29d99992c1db37a1e8ebe5dd64736f6c634300081a0033\n}\n",
				"bytecode": {
					"linkReferences": {},
					"object": "6080604052348015600e575f80fd5b506103838061001c5f395ff3fe608060405234801561000f575f80fd5b5060043610610060575f3560e01c80631570c2cb146100645780635abe622b146100825780635c101693146100a057806364da813a146100be578063952ff216146100dc578063d668f5b5146100fa575b5f80fd5b61006c610118565b6040516100799190610199565b60405180910390f35b61008a61011e565b60405161009791906101ca565b60405180910390f35b6100a8610123565b6040516100b59190610222565b60405180910390f35b6100c6610149565b6040516100d39190610275565b60405180910390f35b6100e461015c565b6040516100f19190610301565b60405180910390f35b61010261016f565b60405161010f9190610334565b60405180910390f35b60015481565b5f5481565b600260019054906101000a900473ffffffffffffffffffffffffffffffffffffffff1681565b600260159054906101000a900460f81b81565b600260169054906101000a900460ff1681565b60025f9054906101000a900460ff1681565b5f819050919050565b61019381610181565b82525050565b5f6020820190506101ac5f83018461018a565b92915050565b5f819050919050565b6101c4816101b2565b82525050565b5f6020820190506101dd5f8301846101bb565b92915050565b5f73ffffffffffffffffffffffffffffffffffffffff82169050919050565b5f61020c826101e3565b9050919050565b61021c81610202565b82525050565b5f6020820190506102355f830184610213565b92915050565b5f7fff0000000000000000000000000000000000000000000000000000000000000082169050919050565b61026f8161023b565b82525050565b5f6020820190506102885f830184610266565b92915050565b7f4e487b71000000000000000000000000000000000000000000000000000000005f52602160045260245ffd5b600381106102cc576102cb61028e565b5b50565b5f8190506102dc826102bb565b919050565b5f6102eb826102cf565b9050919050565b6102fb816102e1565b82525050565b5f6020820190506103145f8301846102f2565b92915050565b5f8115159050919050565b61032e8161031a565b82525050565b5f6020820190506103475f830184610325565b9291505056fea264697066735822122054ccf44bb33f34e43659d765a414a2e26da0c47e29d99992c1db37a1e8ebe5dd64736f6c634300081a0033",
					"opcodes": "PUSH1 0x80 PUSH1 0x40 MSTORE CALLVALUE DUP1 ISZERO PUSH1 0xE JUMPI PUSH0 DUP1 REVERT JUMPDEST POP PUSH2 0x383 DUP1 PUSH2 0x1C PUSH0 CODECOPY PUSH0 RETURN INVALID PUSH1 0x80 PUSH1 0x40 MSTORE CALLVALUE DUP1 ISZERO PUSH2 0xF JUMPI PUSH0 DUP1 REVERT JUMPDEST POP PUSH1 0x4 CALLDATASIZE LT PUSH2 0x60 JUMPI PUSH0 CALLDATALOAD PUSH1 0xE0 SHR DUP1 PUSH4 0x1570C2CB EQ PUSH2 0x64 JUMPI DUP1 PUSH4 0x5ABE622B EQ PUSH2 0x82 JUMPI DUP1 PUSH4 0x5C101693 EQ PUSH2 0xA0 JUMPI DUP1 PUSH4 0x64DA813A EQ PUSH2 0xBE JUMPI DUP1 PUSH4 0x952FF216 EQ PUSH2 0xDC JUMPI DUP1 PUSH4 0xD668F5B5 EQ PUSH2 0xFA JUMPI JUMPDEST PUSH0 DUP1 REVERT JUMPDEST PUSH2 0x6C PUSH2 0x118 JUMP JUMPDEST PUSH1 0x40 MLOAD PUSH2 0x79 SWAP2 SWAP1 PUSH2 0x199 JUMP JUMPDEST PUSH1 0x40 MLOAD DUP1 SWAP2 SUB SWAP1 RETURN JUMPDEST PUSH2 0x8A PUSH2 0x11E JUMP JUMPDEST PUSH1 0x40 MLOAD PUSH2 0x97 SWAP2 SWAP1 PUSH2 0x1CA JUMP JUMPDEST PUSH1 0x40 MLOAD DUP1 SWAP2 SUB SWAP1 RETURN JUMPDEST PUSH2 0xA8 PUSH2 0x123 JUMP JUMPDEST PUSH1 0x40 MLOAD PUSH2 0xB5 SWAP2 SWAP1 PUSH2 0x222 JUMP JUMPDEST PUSH1 0x40 MLOAD DUP1 SWAP2 SUB SWAP1 RETURN JUMPDEST PUSH2 0xC6 PUSH2 0x149 JUMP JUMPDEST PUSH1 0x40 MLOAD PUSH2 0xD3 SWAP2 SWAP1 PUSH2 0x275 JUMP JUMPDEST PUSH1 0x40 MLOAD DUP1 SWAP2 SUB SWAP1 RETURN JUMPDEST PUSH2 0xE4 PUSH2 0x15C JUMP JUMPDEST PUSH1 0x40 MLOAD PUSH2 0xF1 SWAP2 SWAP1 PUSH2 0x301 JUMP JUMPDEST PUSH1 0x40 MLOAD DUP1 SWAP2 SUB SWAP1 RETURN JUMPDEST PUSH2 0x102 PUSH2 0x16F JUMP JUMPDEST PUSH1 0x40 MLOAD PUSH2 0x10F SWAP2 SWAP1 PUSH2 0x334 JUMP JUMPDEST PUSH1 0x40 MLOAD DUP1 SWAP2 SUB SWAP1 RETURN JUMPDEST PUSH1 0x1 SLOAD DUP2 JUMP JUMPDEST PUSH0 SLOAD DUP2 JUMP JUMPDEST PUSH1 0x2 PUSH1 0x1 SWAP1 SLOAD SWAP1 PUSH2 0x100 EXP SWAP1 DIV PUSH20 0xFFFFFFFFFFFFFFFFFFFFFFFFFFFFFFFFFFFFFFFF AND DUP2 JUMP JUMPDEST PUSH1 0x2 PUSH1 0x15 SWAP1 SLOAD SWAP1 PUSH2 0x100 EXP SWAP1 DIV PUSH1 0xF8 SHL DUP2 JUMP JUMPDEST PUSH1 0x2 PUSH1 0x16 SWAP1 SLOAD SWAP1 PUSH2 0x100 EXP SWAP1 DIV PUSH1 0xFF AND DUP2 JUMP JUMPDEST PUSH1 0x2 PUSH0 SWAP1 SLOAD SWAP1 PUSH2 0x100 EXP SWAP1 DIV PUSH1 0xFF AND DUP2 JUMP JUMPDEST PUSH0 DUP2 SWAP1 POP SWAP2 SWAP1 POP JUMP JUMPDEST PUSH2 0x193 DUP2 PUSH2 0x181 JUMP JUMPDEST DUP3 MSTORE POP POP JUMP JUMPDEST PUSH0 PUSH1 0x20 DUP3 ADD SWAP1 POP PUSH2 0x1AC PUSH0 DUP4 ADD DUP5 PUSH2 0x18A JUMP JUMPDEST SWAP3 SWAP2 POP POP JUMP JUMPDEST PUSH0 DUP2 SWAP1 POP SWAP2 SWAP1 POP JUMP JUMPDEST PUSH2 0x1C4 DUP2 PUSH2 0x1B2 JUMP JUMPDEST DUP3 MSTORE POP POP JUMP JUMPDEST PUSH0 PUSH1 0x20 DUP3 ADD SWAP1 POP PUSH2 0x1DD PUSH0 DUP4 ADD DUP5 PUSH2 0x1BB JUMP JUMPDEST SWAP3 SWAP2 POP POP JUMP JUMPDEST PUSH0 PUSH20 0xFFFFFFFFFFFFFFFFFFFFFFFFFFFFFFFFFFFFFFFF DUP3 AND SWAP1 POP SWAP2 SWAP1 POP JUMP JUMPDEST PUSH0 PUSH2 0x20C DUP3 PUSH2 0x1E3 JUMP JUMPDEST SWAP1 POP SWAP2 SWAP1 POP JUMP JUMPDEST PUSH2 0x21C DUP2 PUSH2 0x202 JUMP JUMPDEST DUP3 MSTORE POP POP JUMP JUMPDEST PUSH0 PUSH1 0x20 DUP3 ADD SWAP1 POP PUSH2 0x235 PUSH0 DUP4 ADD DUP5 PUSH2 0x213 JUMP JUMPDEST SWAP3 SWAP2 POP POP JUMP JUMPDEST PUSH0 PUSH32 0xFF00000000000000000000000000000000000000000000000000000000000000 DUP3 AND SWAP1 POP SWAP2 SWAP1 POP JUMP JUMPDEST PUSH2 0x26F DUP2 PUSH2 0x23B JUMP JUMPDEST DUP3 MSTORE POP POP JUMP JUMPDEST PUSH0 PUSH1 0x20 DUP3 ADD SWAP1 POP PUSH2 0x288 PUSH0 DUP4 ADD DUP5 PUSH2 0x266 JUMP JUMPDEST SWAP3 SWAP2 POP POP JUMP JUMPDEST PUSH32 0x4E487B7100000000000000000000000000000000000000000000000000000000 PUSH0 MSTORE PUSH1 0x21 PUSH1 0x4 MSTORE PUSH1 0x24 PUSH0 REVERT JUMPDEST PUSH1 0x3 DUP2 LT PUSH2 0x2CC JUMPI PUSH2 0x2CB PUSH2 0x28E JUMP JUMPDEST JUMPDEST POP JUMP JUMPDEST PUSH0 DUP2 SWAP1 POP PUSH2 0x2DC DUP3 PUSH2 0x2BB JUMP JUMPDEST SWAP2 SWAP1 POP JUMP JUMPDEST PUSH0 PUSH2 0x2EB DUP3 PUSH2 0x2CF JUMP JUMPDEST SWAP1 POP SWAP2 SWAP1 POP JUMP JUMPDEST PUSH2 0x2FB DUP2 PUSH2 0x2E1 JUMP JUMPDEST DUP3 MSTORE POP POP JUMP JUMPDEST PUSH0 PUSH1 0x20 DUP3 ADD SWAP1 POP PUSH2 0x314 PUSH0 DUP4 ADD DUP5 PUSH2 0x2F2 JUMP JUMPDEST SWAP3 SWAP2 POP POP JUMP JUMPDEST PUSH0 DUP2 ISZERO ISZERO SWAP1 POP SWAP2 SWAP1 POP JUMP JUMPDEST PUSH2 0x32E DUP2 PUSH2 0x31A JUMP JUMPDEST DUP3 MSTORE POP POP JUMP JUMPDEST PUSH0 PUSH1 0x20 DUP3 ADD SWAP1 POP PUSH2 0x347 PUSH0 DUP4 ADD DUP5 PUSH2 0x325 JUMP JUMPDEST SWAP3 SWAP2 POP POP JUMP INVALID LOG2 PUSH5 0x6970667358 0x22 SLT KECCAK256 SLOAD 0xCC DELEGATECALL 0x4B 0xB3 EXTCODEHASH CALLVALUE 0xE4 CALLDATASIZE MSIZE 0xD7 PUSH6 0xA414A2E26DA0 0xC4 PUSH31 0x29D99992C1DB37A1E8EBE5DD64736F6C634300081A00330000000000000000 "
				},
				"gasEstimates": {
					"creation": {
						"codeDepositCost": "179800",
						"executionCost": "224",
						"totalCost": "180024"
					},
					"external": {
						"defaultAddress()": "2581",
						"defaultBool()": "2554",
						"defaultBytes1()": "2561",
						"defaultEnum()": "2671",
						"defaultInt()": "2424",
						"defaultUint()": "2403"
					}
				},
				"methodIdentifiers": {
					"defaultAddress()": "5c101693",
					"defaultBool()": "d668f5b5",
					"defaultBytes1()": "64da813a",
					"defaultEnum()": "952ff216",
					"defaultInt()": "5abe622b",
					"defaultUint()": "1570c2cb"
				}
			},
			"storageLayout": {
				"storage": [
					{
						"astId": 3,
						"contract": "contracts/2_ValueTypesDemo.sol:ValueTypesDemo",
						"label": "defaultInt",
						"offset": 0,
						"slot": "0",
						"type": "t_int256"
					},
					{
						"astId": 5,
						"contract": "contracts/2_ValueTypesDemo.sol:ValueTypesDemo",
						"label": "defaultUint",
						"offset": 0,
						"slot": "1",
						"type": "t_uint256"
					},
					{
						"astId": 7,
						"contract": "contracts/2_ValueTypesDemo.sol:ValueTypesDemo",
						"label": "defaultBool",
						"offset": 0,
						"slot": "2",
						"type": "t_bool"
					},
					{
						"astId": 9,
						"contract": "contracts/2_ValueTypesDemo.sol:ValueTypesDemo",
						"label": "defaultAddress",
						"offset": 1,
						"slot": "2",
						"type": "t_address"
					},
					{
						"astId": 11,
						"contract": "contracts/2_ValueTypesDemo.sol:ValueTypesDemo",
						"label": "defaultBytes1",
						"offset": 21,
						"slot": "2",
						"type": "t_bytes1"
					},
					{
						"astId": 18,
						"contract": "contracts/2_ValueTypesDemo.sol:ValueTypesDemo",
						"label": "defaultEnum",
						"offset": 22,
						"slot": "2",
						"type": "t_enum(ActionSet)15"
					}
				],
				"types": {
					"t_address": {
						"encoding": "inplace",
						"label": "address",
						"numberOfBytes": "20"
					},
					"t_bool": {
						"encoding": "inplace",
						"label": "bool",
						"numberOfBytes": "1"
					},
					"t_bytes1": {
						"encoding": "inplace",
						"label": "bytes1",
						"numberOfBytes": "1"
					},
					"t_enum(ActionSet)15": {
						"encoding": "inplace",
						"label": "enum ValueTypesDemo.ActionSet",
						"numberOfBytes": "1"
					},
					"t_int256": {
						"encoding": "inplace",
						"label": "int256",
						"numberOfBytes": "32"
					},
					"t_uint256": {
						"encoding": "inplace",
						"label": "uint256",
						"numberOfBytes": "32"
					}
				}
			},
			"userdoc": {
				"kind": "user",
				"methods": {},
				"version": 1
			}
		}
	}
}