{
	"contracts/4_FunctionVisibilityDemo.sol": {
		"FunctionVisibilityDemo": {
			"abi": [
				{
					"inputs": [],
					"name": "callExternalUsingThis",
					"outputs": [],
					"stateMutability": "nonpayable",
					"type": "function"
				},
				{
					"inputs": [],
					"name": "internalCall",
					"outputs": [],
					"stateMutability": "nonpayable",
					"type": "function"
				},
				{
					"inputs": [],
					"name": "publicVar",
					"outputs": [
						{
							"internalType": "uint256",
							"name": "",
							"type": "uint256"
						}
					],
					"stateMutability": "view",
					"type": "function"
				},
				{
					"inputs": [
						{
							"internalType": "uint256",
							"name": "_value",
							"type": "uint256"
						}
					],
					"name": "setExternalVar",
					"outputs": [],
					"stateMutability": "nonpayable",
					"type": "function"
				},
				{
					"inputs": [
						{
							"internalType": "uint256",
							"name": "_value",
							"type": "uint256"
						}
					],
					"name": "setPublicVar",
					"outputs": [],
					"stateMutability": "nonpayable",
					"type": "function"
				}
			],
			"devdoc": {
				"kind": "dev",
				"methods": {},
				"version": 1
			},
			"evm": {
				"assembly": "    /* \"contracts/4_FunctionVisibilityDemo.sol\":60:1169  contract FunctionVisibilityDemo {... */\n  mstore(0x40, 0x80)\n    /* \"contracts/4_FunctionVisibilityDemo.sol\":123:126  100 */\n  0x64\n    /* \"contracts/4_FunctionVisibilityDemo.sol\":99:126  uint public publicVar = 100 */\n  0x00\n  sstore\n    /* \"contracts/4_FunctionVisibilityDemo.sol\":60:1169  contract FunctionVisibilityDemo {... */\n  callvalue\n  dup1\n  iszero\n  tag_1\n  jumpi\n  0x00\n  dup1\n  revert\ntag_1:\n  pop\n  dataSize(sub_0)\n  dup1\n  dataOffset(sub_0)\n  0x00\n  codecopy\n  0x00\n  return\nstop\n\nsub_0: assembly {\n        /* \"contracts/4_FunctionVisibilityDemo.sol\":60:1169  contract FunctionVisibilityDemo {... */\n      mstore(0x40, 0x80)\n      callvalue\n      dup1\n      iszero\n      tag_1\n      jumpi\n      0x00\n      dup1\n      revert\n    tag_1:\n      pop\n      jumpi(tag_2, lt(calldatasize, 0x04))\n      shr(0xe0, calldataload(0x00))\n      dup1\n      0x1151fad8\n      eq\n      tag_3\n      jumpi\n      dup1\n      0x1427a693\n      eq\n      tag_4\n      jumpi\n      dup1\n      0x8728ea11\n      eq\n      tag_5\n      jumpi\n      dup1\n      0xbb5f04b6\n      eq\n      tag_6\n      jumpi\n      dup1\n      0xde1ada6e\n      eq\n      tag_7\n      jumpi\n    tag_2:\n      0x00\n      dup1\n      revert\n        /* \"contracts/4_FunctionVisibilityDemo.sol\":99:126  uint public publicVar = 100 */\n    tag_3:\n      tag_8\n      tag_9\n      jump\t// in\n    tag_8:\n      mload(0x40)\n      tag_10\n      swap2\n      swap1\n      tag_11\n      jump\t// in\n    tag_10:\n      mload(0x40)\n      dup1\n      swap2\n      sub\n      swap1\n      return\n        /* \"contracts/4_FunctionVisibilityDemo.sol\":845:997  function internalCall() public {... */\n    tag_4:\n      tag_12\n      tag_13\n      jump\t// in\n    tag_12:\n      stop\n        /* \"contracts/4_FunctionVisibilityDemo.sol\":400:483  function setExternalVar(uint _value) external {... */\n    tag_5:\n      tag_14\n      0x04\n      dup1\n      calldatasize\n      sub\n      dup2\n      add\n      swap1\n      tag_15\n      swap2\n      swap1\n      tag_16\n      jump\t// in\n    tag_15:\n      tag_17\n      jump\t// in\n    tag_14:\n      stop\n        /* \"contracts/4_FunctionVisibilityDemo.sol\":229:308  function setPublicVar(uint _value) public {... */\n    tag_6:\n      tag_18\n      0x04\n      dup1\n      calldatasize\n      sub\n      dup2\n      add\n      swap1\n      tag_19\n      swap2\n      swap1\n      tag_16\n      jump\t// in\n    tag_19:\n      tag_20\n      jump\t// in\n    tag_18:\n      stop\n        /* \"contracts/4_FunctionVisibilityDemo.sol\":1048:1164  function callExternalUsingThis() public {... */\n    tag_7:\n      tag_21\n      tag_22\n      jump\t// in\n    tag_21:\n      stop\n        /* \"contracts/4_FunctionVisibilityDemo.sol\":99:126  uint public publicVar = 100 */\n    tag_9:\n      sload(0x00)\n      dup2\n      jump\t// out\n        /* \"contracts/4_FunctionVisibilityDemo.sol\":845:997  function internalCall() public {... */\n    tag_13:\n        /* \"contracts/4_FunctionVisibilityDemo.sol\":887:906  setInternalVar(200) */\n      tag_24\n        /* \"contracts/4_FunctionVisibilityDemo.sol\":902:905  200 */\n      0xc8\n        /* \"contracts/4_FunctionVisibilityDemo.sol\":887:901  setInternalVar */\n      tag_25\n        /* \"contracts/4_FunctionVisibilityDemo.sol\":887:906  setInternalVar(200) */\n      jump\t// in\n    tag_24:\n        /* \"contracts/4_FunctionVisibilityDemo.sol\":944:962  setPrivateVar(300) */\n      tag_26\n        /* \"contracts/4_FunctionVisibilityDemo.sol\":958:961  300 */\n      0x012c\n        /* \"contracts/4_FunctionVisibilityDemo.sol\":944:957  setPrivateVar */\n      tag_27\n        /* \"contracts/4_FunctionVisibilityDemo.sol\":944:962  setPrivateVar(300) */\n      jump\t// in\n    tag_26:\n        /* \"contracts/4_FunctionVisibilityDemo.sol\":845:997  function internalCall() public {... */\n      jump\t// out\n        /* \"contracts/4_FunctionVisibilityDemo.sol\":400:483  function setExternalVar(uint _value) external {... */\n    tag_17:\n        /* \"contracts/4_FunctionVisibilityDemo.sol\":469:475  _value */\n      dup1\n        /* \"contracts/4_FunctionVisibilityDemo.sol\":457:466  publicVar */\n      0x00\n        /* \"contracts/4_FunctionVisibilityDemo.sol\":457:475  publicVar = _value */\n      dup2\n      swap1\n      sstore\n      pop\n        /* \"contracts/4_FunctionVisibilityDemo.sol\":400:483  function setExternalVar(uint _value) external {... */\n      pop\n      jump\t// out\n        /* \"contracts/4_FunctionVisibilityDemo.sol\":229:308  function setPublicVar(uint _value) public {... */\n    tag_20:\n        /* \"contracts/4_FunctionVisibilityDemo.sol\":294:300  _value */\n      dup1\n        /* \"contracts/4_FunctionVisibilityDemo.sol\":282:291  publicVar */\n      0x00\n        /* \"contracts/4_FunctionVisibilityDemo.sol\":282:300  publicVar = _value */\n      dup2\n      swap1\n      sstore\n      pop\n        /* \"contracts/4_FunctionVisibilityDemo.sol\":229:308  function setPublicVar(uint _value) public {... */\n      pop\n      jump\t// out\n        /* \"contracts/4_FunctionVisibilityDemo.sol\":1048:1164  function callExternalUsingThis() public {... */\n    tag_22:\n        /* \"contracts/4_FunctionVisibilityDemo.sol\":1099:1103  this */\n      address\n        /* \"contracts/4_FunctionVisibilityDemo.sol\":1099:1118  this.setExternalVar */\n      0xffffffffffffffffffffffffffffffffffffffff\n      and\n      0x8728ea11\n        /* \"contracts/4_FunctionVisibilityDemo.sol\":1119:1122  400 */\n      0x0190\n        /* \"contracts/4_FunctionVisibilityDemo.sol\":1099:1123  this.setExternalVar(400) */\n      mload(0x40)\n      dup3\n      0xffffffff\n      and\n      0xe0\n      shl\n      dup2\n      mstore\n      0x04\n      add\n      tag_31\n      swap2\n      swap1\n      tag_32\n      jump\t// in\n    tag_31:\n      0x00\n      mload(0x40)\n      dup1\n      dup4\n      sub\n      dup2\n      0x00\n      dup8\n      dup1\n      extcodesize\n      iszero\n      dup1\n      iszero\n      tag_33\n      jumpi\n      0x00\n      dup1\n      revert\n    tag_33:\n      pop\n      gas\n      call\n      iszero\n      dup1\n      iszero\n      tag_35\n      jumpi\n      returndatasize\n      0x00\n      dup1\n      returndatacopy\n      revert(0x00, returndatasize)\n    tag_35:\n      pop\n      pop\n      pop\n      pop\n        /* \"contracts/4_FunctionVisibilityDemo.sol\":1048:1164  function callExternalUsingThis() public {... */\n      jump\t// out\n        /* \"contracts/4_FunctionVisibilityDemo.sol\":560:643  function setInternalVar(uint _value) internal {... */\n    tag_25:\n        /* \"contracts/4_FunctionVisibilityDemo.sol\":629:635  _value */\n      dup1\n        /* \"contracts/4_FunctionVisibilityDemo.sol\":617:626  publicVar */\n      0x00\n        /* \"contracts/4_FunctionVisibilityDemo.sol\":617:635  publicVar = _value */\n      dup2\n      swap1\n      sstore\n      pop\n        /* \"contracts/4_FunctionVisibilityDemo.sol\":560:643  function setInternalVar(uint _value) internal {... */\n      pop\n      jump\t// out\n        /* \"contracts/4_FunctionVisibilityDemo.sol\":707:788  function setPrivateVar(uint _value) private {... */\n    tag_27:\n        /* \"contracts/4_FunctionVisibilityDemo.sol\":774:780  _value */\n      dup1\n        /* \"contracts/4_FunctionVisibilityDemo.sol\":762:771  publicVar */\n      0x00\n        /* \"contracts/4_FunctionVisibilityDemo.sol\":762:780  publicVar = _value */\n      dup2\n      swap1\n      sstore\n      pop\n        /* \"contracts/4_FunctionVisibilityDemo.sol\":707:788  function setPrivateVar(uint _value) private {... */\n      pop\n      jump\t// out\n        /* \"#utility.yul\":7:84   */\n    tag_38:\n        /* \"#utility.yul\":44:51   */\n      0x00\n        /* \"#utility.yul\":73:78   */\n      dup2\n        /* \"#utility.yul\":62:78   */\n      swap1\n      pop\n        /* \"#utility.yul\":7:84   */\n      swap2\n      swap1\n      pop\n      jump\t// out\n        /* \"#utility.yul\":90:208   */\n    tag_39:\n        /* \"#utility.yul\":177:201   */\n      tag_52\n        /* \"#utility.yul\":195:200   */\n      dup2\n        /* \"#utility.yul\":177:201   */\n      tag_38\n      jump\t// in\n    tag_52:\n        /* \"#utility.yul\":172:175   */\n      dup3\n        /* \"#utility.yul\":165:202   */\n      mstore\n        /* \"#utility.yul\":90:208   */\n      pop\n      pop\n      jump\t// out\n        /* \"#utility.yul\":214:436   */\n    tag_11:\n        /* \"#utility.yul\":307:311   */\n      0x00\n        /* \"#utility.yul\":345:347   */\n      0x20\n        /* \"#utility.yul\":334:343   */\n      dup3\n        /* \"#utility.yul\":330:348   */\n      add\n        /* \"#utility.yul\":322:348   */\n      swap1\n      pop\n        /* \"#utility.yul\":358:429   */\n      tag_54\n        /* \"#utility.yul\":426:427   */\n      0x00\n        /* \"#utility.yul\":415:424   */\n      dup4\n        /* \"#utility.yul\":411:428   */\n      add\n        /* \"#utility.yul\":402:408   */\n      dup5\n        /* \"#utility.yul\":358:429   */\n      tag_39\n      jump\t// in\n    tag_54:\n        /* \"#utility.yul\":214:436   */\n      swap3\n      swap2\n      pop\n      pop\n      jump\t// out\n        /* \"#utility.yul\":523:640   */\n    tag_41:\n        /* \"#utility.yul\":632:633   */\n      0x00\n        /* \"#utility.yul\":629:630   */\n      dup1\n        /* \"#utility.yul\":622:634   */\n      revert\n        /* \"#utility.yul\":769:891   */\n    tag_43:\n        /* \"#utility.yul\":842:866   */\n      tag_59\n        /* \"#utility.yul\":860:865   */\n      dup2\n        /* \"#utility.yul\":842:866   */\n      tag_38\n      jump\t// in\n    tag_59:\n        /* \"#utility.yul\":835:840   */\n      dup2\n        /* \"#utility.yul\":832:867   */\n      eq\n        /* \"#utility.yul\":822:885   */\n      tag_60\n      jumpi\n        /* \"#utility.yul\":881:882   */\n      0x00\n        /* \"#utility.yul\":878:879   */\n      dup1\n        /* \"#utility.yul\":871:883   */\n      revert\n        /* \"#utility.yul\":822:885   */\n    tag_60:\n        /* \"#utility.yul\":769:891   */\n      pop\n      jump\t// out\n        /* \"#utility.yul\":897:1036   */\n    tag_44:\n        /* \"#utility.yul\":943:948   */\n      0x00\n        /* \"#utility.yul\":981:987   */\n      dup2\n        /* \"#utility.yul\":968:988   */\n      calldataload\n        /* \"#utility.yul\":959:988   */\n      swap1\n      pop\n        /* \"#utility.yul\":997:1030   */\n      tag_62\n        /* \"#utility.yul\":1024:1029   */\n      dup2\n        /* \"#utility.yul\":997:1030   */\n      tag_43\n      jump\t// in\n    tag_62:\n        /* \"#utility.yul\":897:1036   */\n      swap3\n      swap2\n      pop\n      pop\n      jump\t// out\n        /* \"#utility.yul\":1042:1371   */\n    tag_16:\n        /* \"#utility.yul\":1101:1107   */\n      0x00\n        /* \"#utility.yul\":1150:1152   */\n      0x20\n        /* \"#utility.yul\":1138:1147   */\n      dup3\n        /* \"#utility.yul\":1129:1136   */\n      dup5\n        /* \"#utility.yul\":1125:1148   */\n      sub\n        /* \"#utility.yul\":1121:1153   */\n      slt\n        /* \"#utility.yul\":1118:1237   */\n      iszero\n      tag_64\n      jumpi\n        /* \"#utility.yul\":1156:1235   */\n      tag_65\n      tag_41\n      jump\t// in\n    tag_65:\n        /* \"#utility.yul\":1118:1237   */\n    tag_64:\n        /* \"#utility.yul\":1276:1277   */\n      0x00\n        /* \"#utility.yul\":1301:1354   */\n      tag_66\n        /* \"#utility.yul\":1346:1353   */\n      dup5\n        /* \"#utility.yul\":1337:1343   */\n      dup3\n        /* \"#utility.yul\":1326:1335   */\n      dup6\n        /* \"#utility.yul\":1322:1344   */\n      add\n        /* \"#utility.yul\":1301:1354   */\n      tag_44\n      jump\t// in\n    tag_66:\n        /* \"#utility.yul\":1291:1354   */\n      swap2\n      pop\n        /* \"#utility.yul\":1247:1364   */\n      pop\n        /* \"#utility.yul\":1042:1371   */\n      swap3\n      swap2\n      pop\n      pop\n      jump\t// out\n        /* \"#utility.yul\":1377:1464   */\n    tag_45:\n        /* \"#utility.yul\":1424:1431   */\n      0x00\n        /* \"#utility.yul\":1453:1458   */\n      dup2\n        /* \"#utility.yul\":1442:1458   */\n      swap1\n      pop\n        /* \"#utility.yul\":1377:1464   */\n      swap2\n      swap1\n      pop\n      jump\t// out\n        /* \"#utility.yul\":1470:1530   */\n    tag_46:\n        /* \"#utility.yul\":1498:1501   */\n      0x00\n        /* \"#utility.yul\":1519:1524   */\n      dup2\n        /* \"#utility.yul\":1512:1524   */\n      swap1\n      pop\n        /* \"#utility.yul\":1470:1530   */\n      swap2\n      swap1\n      pop\n      jump\t// out\n        /* \"#utility.yul\":1536:1698   */\n    tag_47:\n        /* \"#utility.yul\":1596:1605   */\n      0x00\n        /* \"#utility.yul\":1629:1692   */\n      tag_70\n        /* \"#utility.yul\":1647:1691   */\n      tag_71\n        /* \"#utility.yul\":1656:1690   */\n      tag_72\n        /* \"#utility.yul\":1684:1689   */\n      dup5\n        /* \"#utility.yul\":1656:1690   */\n      tag_45\n      jump\t// in\n    tag_72:\n        /* \"#utility.yul\":1647:1691   */\n      tag_46\n      jump\t// in\n    tag_71:\n        /* \"#utility.yul\":1629:1692   */\n      tag_38\n      jump\t// in\n    tag_70:\n        /* \"#utility.yul\":1616:1692   */\n      swap1\n      pop\n        /* \"#utility.yul\":1536:1698   */\n      swap2\n      swap1\n      pop\n      jump\t// out\n        /* \"#utility.yul\":1704:1855   */\n    tag_48:\n        /* \"#utility.yul\":1801:1848   */\n      tag_74\n        /* \"#utility.yul\":1842:1847   */\n      dup2\n        /* \"#utility.yul\":1801:1848   */\n      tag_47\n      jump\t// in\n    tag_74:\n        /* \"#utility.yul\":1796:1799   */\n      dup3\n        /* \"#utility.yul\":1789:1849   */\n      mstore\n        /* \"#utility.yul\":1704:1855   */\n      pop\n      pop\n      jump\t// out\n        /* \"#utility.yul\":1861:2103   */\n    tag_32:\n        /* \"#utility.yul\":1964:1968   */\n      0x00\n        /* \"#utility.yul\":2002:2004   */\n      0x20\n        /* \"#utility.yul\":1991:2000   */\n      dup3\n        /* \"#utility.yul\":1987:2005   */\n      add\n        /* \"#utility.yul\":1979:2005   */\n      swap1\n      pop\n        /* \"#utility.yul\":2015:2096   */\n      tag_76\n        /* \"#utility.yul\":2093:2094   */\n      0x00\n        /* \"#utility.yul\":2082:2091   */\n      dup4\n        /* \"#utility.yul\":2078:2095   */\n      add\n        /* \"#utility.yul\":2069:2075   */\n      dup5\n        /* \"#utility.yul\":2015:2096   */\n      tag_48\n      jump\t// in\n    tag_76:\n        /* \"#utility.yul\":1861:2103   */\n      swap3\n      swap2\n      pop\n      pop\n      jump\t// out\n\n    auxdata: 0xa26469706673582212203683e065098b960dcc03db4835067c70468e451ad193f3fcf98e962b0e8cc70464736f6c634300081a0033\n}\n",
				"bytecode": {
					"linkReferences": {},
					"object": "608060405260645f553480156012575f80fd5b50610288806100205f395ff3fe608060405234801561000f575f80fd5b5060043610610055575f3560e01c80631151fad8146100595780631427a693146100775780638728ea1114610081578063bb5f04b61461009d578063de1ada6e146100b9575b5f80fd5b6100616100c3565b60405161006e9190610185565b60405180910390f35b61007f6100c8565b005b61009b600480360381019061009691906101cc565b6100df565b005b6100b760048036038101906100b291906101cc565b6100e8565b005b6100c16100f1565b005b5f5481565b6100d260c861015b565b6100dd61012c610164565b565b805f8190555050565b805f8190555050565b3073ffffffffffffffffffffffffffffffffffffffff16638728ea116101906040518263ffffffff1660e01b815260040161012c9190610239565b5f604051808303815f87803b158015610143575f80fd5b505af1158015610155573d5f803e3d5ffd5b50505050565b805f8190555050565b805f8190555050565b5f819050919050565b61017f8161016d565b82525050565b5f6020820190506101985f830184610176565b92915050565b5f80fd5b6101ab8161016d565b81146101b5575f80fd5b50565b5f813590506101c6816101a2565b92915050565b5f602082840312156101e1576101e061019e565b5b5f6101ee848285016101b8565b91505092915050565b5f819050919050565b5f819050919050565b5f61022361021e610219846101f7565b610200565b61016d565b9050919050565b61023381610209565b82525050565b5f60208201905061024c5f83018461022a565b9291505056fea26469706673582212203683e065098b960dcc03db4835067c70468e451ad193f3fcf98e962b0e8cc70464736f6c634300081a0033",
					"opcodes": "PUSH1 0x80 PUSH1 0x40 MSTORE PUSH1 0x64 PUSH0 SSTORE CALLVALUE DUP1 ISZERO PUSH1 0x12 JUMPI PUSH0 DUP1 REVERT JUMPDEST POP PUSH2 0x288 DUP1 PUSH2 0x20 PUSH0 CODECOPY PUSH0 RETURN INVALID PUSH1 0x80 PUSH1 0x40 MSTORE CALLVALUE DUP1 ISZERO PUSH2 0xF JUMPI PUSH0 DUP1 REVERT JUMPDEST POP PUSH1 0x4 CALLDATASIZE LT PUSH2 0x55 JUMPI PUSH0 CALLDATALOAD PUSH1 0xE0 SHR DUP1 PUSH4 0x1151FAD8 EQ PUSH2 0x59 JUMPI DUP1 PUSH4 0x1427A693 EQ PUSH2 0x77 JUMPI DUP1 PUSH4 0x8728EA11 EQ PUSH2 0x81 JUMPI DUP1 PUSH4 0xBB5F04B6 EQ PUSH2 0x9D JUMPI DUP1 PUSH4 0xDE1ADA6E EQ PUSH2 0xB9 JUMPI JUMPDEST PUSH0 DUP1 REVERT JUMPDEST PUSH2 0x61 PUSH2 0xC3 JUMP JUMPDEST PUSH1 0x40 MLOAD PUSH2 0x6E SWAP2 SWAP1 PUSH2 0x185 JUMP JUMPDEST PUSH1 0x40 MLOAD DUP1 SWAP2 SUB SWAP1 RETURN JUMPDEST PUSH2 0x7F PUSH2 0xC8 JUMP JUMPDEST STOP JUMPDEST PUSH2 0x9B PUSH1 0x4 DUP1 CALLDATASIZE SUB DUP2 ADD SWAP1 PUSH2 0x96 SWAP2 SWAP1 PUSH2 0x1CC JUMP JUMPDEST PUSH2 0xDF JUMP JUMPDEST STOP JUMPDEST PUSH2 0xB7 PUSH1 0x4 DUP1 CALLDATASIZE SUB DUP2 ADD SWAP1 PUSH2 0xB2 SWAP2 SWAP1 PUSH2 0x1CC JUMP JUMPDEST PUSH2 0xE8 JUMP JUMPDEST STOP JUMPDEST PUSH2 0xC1 PUSH2 0xF1 JUMP JUMPDEST STOP JUMPDEST PUSH0 SLOAD DUP2 JUMP JUMPDEST PUSH2 0xD2 PUSH1 0xC8 PUSH2 0x15B JUMP JUMPDEST PUSH2 0xDD PUSH2 0x12C PUSH2 0x164 JUMP JUMPDEST JUMP JUMPDEST DUP1 PUSH0 DUP2 SWAP1 SSTORE POP POP JUMP JUMPDEST DUP1 PUSH0 DUP2 SWAP1 SSTORE POP POP JUMP JUMPDEST ADDRESS PUSH20 0xFFFFFFFFFFFFFFFFFFFFFFFFFFFFFFFFFFFFFFFF AND PUSH4 0x8728EA11 PUSH2 0x190 PUSH1 0x40 MLOAD DUP3 PUSH4 0xFFFFFFFF AND PUSH1 0xE0 SHL DUP2 MSTORE PUSH1 0x4 ADD PUSH2 0x12C SWAP2 SWAP1 PUSH2 0x239 JUMP JUMPDEST PUSH0 PUSH1 0x40 MLOAD DUP1 DUP4 SUB DUP2 PUSH0 DUP8 DUP1 EXTCODESIZE ISZERO DUP1 ISZERO PUSH2 0x143 JUMPI PUSH0 DUP1 REVERT JUMPDEST POP GAS CALL ISZERO DUP1 ISZERO PUSH2 0x155 JUMPI RETURNDATASIZE PUSH0 DUP1 RETURNDATACOPY RETURNDATASIZE PUSH0 REVERT JUMPDEST POP POP POP POP JUMP JUMPDEST DUP1 PUSH0 DUP2 SWAP1 SSTORE POP POP JUMP JUMPDEST DUP1 PUSH0 DUP2 SWAP1 SSTORE POP POP JUMP JUMPDEST PUSH0 DUP2 SWAP1 POP SWAP2 SWAP1 POP JUMP JUMPDEST PUSH2 0x17F DUP2 PUSH2 0x16D JUMP JUMPDEST DUP3 MSTORE POP POP JUMP JUMPDEST PUSH0 PUSH1 0x20 DUP3 ADD SWAP1 POP PUSH2 0x198 PUSH0 DUP4 ADD DUP5 PUSH2 0x176 JUMP JUMPDEST SWAP3 SWAP2 POP POP JUMP JUMPDEST PUSH0 DUP1 REVERT JUMPDEST PUSH2 0x1AB DUP2 PUSH2 0x16D JUMP JUMPDEST DUP2 EQ PUSH2 0x1B5 JUMPI PUSH0 DUP1 REVERT JUMPDEST POP JUMP JUMPDEST PUSH0 DUP2 CALLDATALOAD SWAP1 POP PUSH2 0x1C6 DUP2 PUSH2 0x1A2 JUMP JUMPDEST SWAP3 SWAP2 POP POP JUMP JUMPDEST PUSH0 PUSH1 0x20 DUP3 DUP5 SUB SLT ISZERO PUSH2 0x1E1 JUMPI PUSH2 0x1E0 PUSH2 0x19E JUMP JUMPDEST JUMPDEST PUSH0 PUSH2 0x1EE DUP5 DUP3 DUP6 ADD PUSH2 0x1B8 JUMP JUMPDEST SWAP2 POP POP SWAP3 SWAP2 POP POP JUMP JUMPDEST PUSH0 DUP2 SWAP1 POP SWAP2 SWAP1 POP JUMP JUMPDEST PUSH0 DUP2 SWAP1 POP SWAP2 SWAP1 POP JUMP JUMPDEST PUSH0 PUSH2 0x223 PUSH2 0x21E PUSH2 0x219 DUP5 PUSH2 0x1F7 JUMP JUMPDEST PUSH2 0x200 JUMP JUMPDEST PUSH2 0x16D JUMP JUMPDEST SWAP1 POP SWAP2 SWAP1 POP JUMP JUMPDEST PUSH2 0x233 DUP2 PUSH2 0x209 JUMP JUMPDEST DUP3 MSTORE POP POP JUMP JUMPDEST PUSH0 PUSH1 0x20 DUP3 ADD SWAP1 POP PUSH2 0x24C PUSH0 DUP4 ADD DUP5 PUSH2 0x22A JUMP JUMPDEST SWAP3 SWAP2 POP POP JUMP INVALID LOG2 PUSH5 0x6970667358 0x22 SLT KECCAK256 CALLDATASIZE DUP4 0xE0 PUSH6 0x98B960DCC03 0xDB BASEFEE CALLDATALOAD MOD PUSH29 0x70468E451AD193F3FCF98E962B0E8CC70464736F6C634300081A003300 "
				},
				"gasEstimates": {
					"creation": {
						"codeDepositCost": "129600",
						"executionCost": "22280",
						"totalCost": "151880"
					},
					"external": {
						"callExternalUsingThis()": "infinite",
						"internalCall()": "27327",
						"publicVar()": "2402",
						"setExternalVar(uint256)": "22536",
						"setPublicVar(uint256)": "22558"
					},
					"internal": {
						"setInternalVar(uint256)": "22124",
						"setPrivateVar(uint256)": "22124"
					}
				},
				"methodIdentifiers": {
					"callExternalUsingThis()": "de1ada6e",
					"internalCall()": "1427a693",
					"publicVar()": "1151fad8",
					"setExternalVar(uint256)": "8728ea11",
					"setPublicVar(uint256)": "bb5f04b6"
				}
			},
			"storageLayout": {
				"storage": [
					{
						"astId": 4,
						"contract": "contracts/4_FunctionVisibilityDemo.sol:FunctionVisibilityDemo",
						"label": "publicVar",
						"offset": 0,
						"slot": "0",
						"type": "t_uint256"
					}
				],
				"types": {
					"t_uint256": {
						"encoding": "inplace",
						"label": "uint256",
						"numberOfBytes": "32"
					}
				}
			},
			"userdoc": {
				"kind": "user",
				"methods": {},
				"version": 1
			}
		}
	}
}