{
	"data": {
		"bytecode": {
			"linkReferences": {},
			"object": "608060405260646001553480156013575f80fd5b50335f806101000a81548173ffffffffffffffffffffffffffffffffffffffff021916908373ffffffffffffffffffffffffffffffffffffffff1602179055505f8060146101000a81548160ff021916908360ff1602179055506108098061007a5f395ff3fe608060405234801561000f575f80fd5b5060043610610086575f3560e01c80636ecd2306116100595780636ecd2306146100ea5780638da5cb5b146101065780639c4eda5c14610124578063f88e9fbf1461014257610086565b80631036e0a81461008a57806318160ddd146100945780632e1a7d4d146100b2578063441a3e70146100ce575b5f80fd5b610092610172565b005b61009c610201565b6040516100a991906103b8565b60405180910390f35b6100cc60048036038101906100c79190610408565b610213565b005b6100e860048036038101906100e39190610433565b610279565b005b61010460048036038101906100ff919061049b565b6102c0565b005b61010e61031d565b60405161011b9190610505565b60405180910390f35b61012c610340565b604051610139919061052d565b60405180910390f35b61015c60048036038101906101579190610433565b610346565b604051610169919061052d565b60405180910390f35b5f8054906101000a900473ffffffffffffffffffffffffffffffffffffffff1673ffffffffffffffffffffffffffffffffffffffff163373ffffffffffffffffffffffffffffffffffffffff16146101ff576040517f08c379a00000000000000000000000000000000000000000000000000000000081526004016101f6906105a0565b60405180910390fd5b565b5f60149054906101000a900460ff1681565b60015481111561025e57806001546040517fcf4791810000000000000000000000000000000000000000000000000000000081526004016102559291906105be565b60405180910390fd5b8060015f82825461026f9190610612565b9250508190555050565b808211156102bc576040517f08c379a00000000000000000000000000000000000000000000000000000000081526004016102b39061068f565b60405180910390fd5b5050565b805f60148282829054906101000a900460ff166102dd91906106ad565b92506101000a81548160ff021916908360ff1602179055508060ff165f60149054906101000a900460ff1660ff16101561031a576103196106e1565b5b50565b5f8054906101000a900473ffffffffffffffffffffffffffffffffffffffff1681565b60015481565b5f808203610389576040517f08c379a000000000000000000000000000000000000000000000000000000000815260040161038090610758565b60405180910390fd5b818361039591906107a3565b905092915050565b5f60ff82169050919050565b6103b28161039d565b82525050565b5f6020820190506103cb5f8301846103a9565b92915050565b5f80fd5b5f819050919050565b6103e7816103d5565b81146103f1575f80fd5b50565b5f81359050610402816103de565b92915050565b5f6020828403121561041d5761041c6103d1565b5b5f61042a848285016103f4565b91505092915050565b5f8060408385031215610449576104486103d1565b5b5f610456858286016103f4565b9250506020610467858286016103f4565b9150509250929050565b61047a8161039d565b8114610484575f80fd5b50565b5f8135905061049581610471565b92915050565b5f602082840312156104b0576104af6103d1565b5b5f6104bd84828501610487565b91505092915050565b5f73ffffffffffffffffffffffffffffffffffffffff82169050919050565b5f6104ef826104c6565b9050919050565b6104ff816104e5565b82525050565b5f6020820190506105185f8301846104f6565b92915050565b610527816103d5565b82525050565b5f6020820190506105405f83018461051e565b92915050565b5f82825260208201905092915050565b7f4e6f742074686520636f6e7472616374206f776e6572000000000000000000005f82015250565b5f61058a601683610546565b915061059582610556565b602082019050919050565b5f6020820190508181035f8301526105b78161057e565b9050919050565b5f6040820190506105d15f83018561051e565b6105de602083018461051e565b9392505050565b7f4e487b71000000000000000000000000000000000000000000000000000000005f52601160045260245ffd5b5f61061c826103d5565b9150610627836103d5565b925082820390508181111561063f5761063e6105e5565b5b92915050565b7f496e73756666696369656e742062616c616e63650000000000000000000000005f82015250565b5f610679601483610546565b915061068482610645565b602082019050919050565b5f6020820190508181035f8301526106a68161066d565b9050919050565b5f6106b78261039d565b91506106c28361039d565b9250828201905060ff8111156106db576106da6105e5565b5b92915050565b7f4e487b71000000000000000000000000000000000000000000000000000000005f52600160045260245ffd5b7f4469766973696f6e206279205a65726f000000000000000000000000000000005f82015250565b5f610742601083610546565b915061074d8261070e565b602082019050919050565b5f6020820190508181035f83015261076f81610736565b9050919050565b7f4e487b71000000000000000000000000000000000000000000000000000000005f52601260045260245ffd5b5f6107ad826103d5565b91506107b8836103d5565b9250826107c8576107c7610776565b5b82820490509291505056fea2646970667358221220121f567b62ab6251e9a06dad32f1ba5f2aac3a9c4904b9960fccc29e21bdb64c64736f6c634300081a0033",
			"opcodes": "PUSH1 0x80 PUSH1 0x40 MSTORE PUSH1 0x64 PUSH1 0x1 SSTORE CALLVALUE DUP1 ISZERO PUSH1 0x13 JUMPI PUSH0 DUP1 REVERT JUMPDEST POP CALLER PUSH0 DUP1 PUSH2 0x100 EXP DUP2 SLOAD DUP2 PUSH20 0xFFFFFFFFFFFFFFFFFFFFFFFFFFFFFFFFFFFFFFFF MUL NOT AND SWAP1 DUP4 PUSH20 0xFFFFFFFFFFFFFFFFFFFFFFFFFFFFFFFFFFFFFFFF AND MUL OR SWAP1 SSTORE POP PUSH0 DUP1 PUSH1 0x14 PUSH2 0x100 EXP DUP2 SLOAD DUP2 PUSH1 0xFF MUL NOT AND SWAP1 DUP4 PUSH1 0xFF AND MUL OR SWAP1 SSTORE POP PUSH2 0x809 DUP1 PUSH2 0x7A PUSH0 CODECOPY PUSH0 RETURN INVALID PUSH1 0x80 PUSH1 0x40 MSTORE CALLVALUE DUP1 ISZERO PUSH2 0xF JUMPI PUSH0 DUP1 REVERT JUMPDEST POP PUSH1 0x4 CALLDATASIZE LT PUSH2 0x86 JUMPI PUSH0 CALLDATALOAD PUSH1 0xE0 SHR DUP1 PUSH4 0x6ECD2306 GT PUSH2 0x59 JUMPI DUP1 PUSH4 0x6ECD2306 EQ PUSH2 0xEA JUMPI DUP1 PUSH4 0x8DA5CB5B EQ PUSH2 0x106 JUMPI DUP1 PUSH4 0x9C4EDA5C EQ PUSH2 0x124 JUMPI DUP1 PUSH4 0xF88E9FBF EQ PUSH2 0x142 JUMPI PUSH2 0x86 JUMP JUMPDEST DUP1 PUSH4 0x1036E0A8 EQ PUSH2 0x8A JUMPI DUP1 PUSH4 0x18160DDD EQ PUSH2 0x94 JUMPI DUP1 PUSH4 0x2E1A7D4D EQ PUSH2 0xB2 JUMPI DUP1 PUSH4 0x441A3E70 EQ PUSH2 0xCE JUMPI JUMPDEST PUSH0 DUP1 REVERT JUMPDEST PUSH2 0x92 PUSH2 0x172 JUMP JUMPDEST STOP JUMPDEST PUSH2 0x9C PUSH2 0x201 JUMP JUMPDEST PUSH1 0x40 MLOAD PUSH2 0xA9 SWAP2 SWAP1 PUSH2 0x3B8 JUMP JUMPDEST PUSH1 0x40 MLOAD DUP1 SWAP2 SUB SWAP1 RETURN JUMPDEST PUSH2 0xCC PUSH1 0x4 DUP1 CALLDATASIZE SUB DUP2 ADD SWAP1 PUSH2 0xC7 SWAP2 SWAP1 PUSH2 0x408 JUMP JUMPDEST PUSH2 0x213 JUMP JUMPDEST STOP JUMPDEST PUSH2 0xE8 PUSH1 0x4 DUP1 CALLDATASIZE SUB DUP2 ADD SWAP1 PUSH2 0xE3 SWAP2 SWAP1 PUSH2 0x433 JUMP JUMPDEST PUSH2 0x279 JUMP JUMPDEST STOP JUMPDEST PUSH2 0x104 PUSH1 0x4 DUP1 CALLDATASIZE SUB DUP2 ADD SWAP1 PUSH2 0xFF SWAP2 SWAP1 PUSH2 0x49B JUMP JUMPDEST PUSH2 0x2C0 JUMP JUMPDEST STOP JUMPDEST PUSH2 0x10E PUSH2 0x31D JUMP JUMPDEST PUSH1 0x40 MLOAD PUSH2 0x11B SWAP2 SWAP1 PUSH2 0x505 JUMP JUMPDEST PUSH1 0x40 MLOAD DUP1 SWAP2 SUB SWAP1 RETURN JUMPDEST PUSH2 0x12C PUSH2 0x340 JUMP JUMPDEST PUSH1 0x40 MLOAD PUSH2 0x139 SWAP2 SWAP1 PUSH2 0x52D JUMP JUMPDEST PUSH1 0x40 MLOAD DUP1 SWAP2 SUB SWAP1 RETURN JUMPDEST PUSH2 0x15C PUSH1 0x4 DUP1 CALLDATASIZE SUB DUP2 ADD SWAP1 PUSH2 0x157 SWAP2 SWAP1 PUSH2 0x433 JUMP JUMPDEST PUSH2 0x346 JUMP JUMPDEST PUSH1 0x40 MLOAD PUSH2 0x169 SWAP2 SWAP1 PUSH2 0x52D JUMP JUMPDEST PUSH1 0x40 MLOAD DUP1 SWAP2 SUB SWAP1 RETURN JUMPDEST PUSH0 DUP1 SLOAD SWAP1 PUSH2 0x100 EXP SWAP1 DIV PUSH20 0xFFFFFFFFFFFFFFFFFFFFFFFFFFFFFFFFFFFFFFFF AND PUSH20 0xFFFFFFFFFFFFFFFFFFFFFFFFFFFFFFFFFFFFFFFF AND CALLER PUSH20 0xFFFFFFFFFFFFFFFFFFFFFFFFFFFFFFFFFFFFFFFF AND EQ PUSH2 0x1FF JUMPI PUSH1 0x40 MLOAD PUSH32 0x8C379A000000000000000000000000000000000000000000000000000000000 DUP2 MSTORE PUSH1 0x4 ADD PUSH2 0x1F6 SWAP1 PUSH2 0x5A0 JUMP JUMPDEST PUSH1 0x40 MLOAD DUP1 SWAP2 SUB SWAP1 REVERT JUMPDEST JUMP JUMPDEST PUSH0 PUSH1 0x14 SWAP1 SLOAD SWAP1 PUSH2 0x100 EXP SWAP1 DIV PUSH1 0xFF AND DUP2 JUMP JUMPDEST PUSH1 0x1 SLOAD DUP2 GT ISZERO PUSH2 0x25E JUMPI DUP1 PUSH1 0x1 SLOAD PUSH1 0x40 MLOAD PUSH32 0xCF47918100000000000000000000000000000000000000000000000000000000 DUP2 MSTORE PUSH1 0x4 ADD PUSH2 0x255 SWAP3 SWAP2 SWAP1 PUSH2 0x5BE JUMP JUMPDEST PUSH1 0x40 MLOAD DUP1 SWAP2 SUB SWAP1 REVERT JUMPDEST DUP1 PUSH1 0x1 PUSH0 DUP3 DUP3 SLOAD PUSH2 0x26F SWAP2 SWAP1 PUSH2 0x612 JUMP JUMPDEST SWAP3 POP POP DUP2 SWAP1 SSTORE POP POP JUMP JUMPDEST DUP1 DUP3 GT ISZERO PUSH2 0x2BC JUMPI PUSH1 0x40 MLOAD PUSH32 0x8C379A000000000000000000000000000000000000000000000000000000000 DUP2 MSTORE PUSH1 0x4 ADD PUSH2 0x2B3 SWAP1 PUSH2 0x68F JUMP JUMPDEST PUSH1 0x40 MLOAD DUP1 SWAP2 SUB SWAP1 REVERT JUMPDEST POP POP JUMP JUMPDEST DUP1 PUSH0 PUSH1 0x14 DUP3 DUP3 DUP3 SWAP1 SLOAD SWAP1 PUSH2 0x100 EXP SWAP1 DIV PUSH1 0xFF AND PUSH2 0x2DD SWAP2 SWAP1 PUSH2 0x6AD JUMP JUMPDEST SWAP3 POP PUSH2 0x100 EXP DUP2 SLOAD DUP2 PUSH1 0xFF MUL NOT AND SWAP1 DUP4 PUSH1 0xFF AND MUL OR SWAP1 SSTORE POP DUP1 PUSH1 0xFF AND PUSH0 PUSH1 0x14 SWAP1 SLOAD SWAP1 PUSH2 0x100 EXP SWAP1 DIV PUSH1 0xFF AND PUSH1 0xFF AND LT ISZERO PUSH2 0x31A JUMPI PUSH2 0x319 PUSH2 0x6E1 JUMP JUMPDEST JUMPDEST POP JUMP JUMPDEST PUSH0 DUP1 SLOAD SWAP1 PUSH2 0x100 EXP SWAP1 DIV PUSH20 0xFFFFFFFFFFFFFFFFFFFFFFFFFFFFFFFFFFFFFFFF AND DUP2 JUMP JUMPDEST PUSH1 0x1 SLOAD DUP2 JUMP JUMPDEST PUSH0 DUP1 DUP3 SUB PUSH2 0x389 JUMPI PUSH1 0x40 MLOAD PUSH32 0x8C379A000000000000000000000000000000000000000000000000000000000 DUP2 MSTORE PUSH1 0x4 ADD PUSH2 0x380 SWAP1 PUSH2 0x758 JUMP JUMPDEST PUSH1 0x40 MLOAD DUP1 SWAP2 SUB SWAP1 REVERT JUMPDEST DUP2 DUP4 PUSH2 0x395 SWAP2 SWAP1 PUSH2 0x7A3 JUMP JUMPDEST SWAP1 POP SWAP3 SWAP2 POP POP JUMP JUMPDEST PUSH0 PUSH1 0xFF DUP3 AND SWAP1 POP SWAP2 SWAP1 POP JUMP JUMPDEST PUSH2 0x3B2 DUP2 PUSH2 0x39D JUMP JUMPDEST DUP3 MSTORE POP POP JUMP JUMPDEST PUSH0 PUSH1 0x20 DUP3 ADD SWAP1 POP PUSH2 0x3CB PUSH0 DUP4 ADD DUP5 PUSH2 0x3A9 JUMP JUMPDEST SWAP3 SWAP2 POP POP JUMP JUMPDEST PUSH0 DUP1 REVERT JUMPDEST PUSH0 DUP2 SWAP1 POP SWAP2 SWAP1 POP JUMP JUMPDEST PUSH2 0x3E7 DUP2 PUSH2 0x3D5 JUMP JUMPDEST DUP2 EQ PUSH2 0x3F1 JUMPI PUSH0 DUP1 REVERT JUMPDEST POP JUMP JUMPDEST PUSH0 DUP2 CALLDATALOAD SWAP1 POP PUSH2 0x402 DUP2 PUSH2 0x3DE JUMP JUMPDEST SWAP3 SWAP2 POP POP JUMP JUMPDEST PUSH0 PUSH1 0x20 DUP3 DUP5 SUB SLT ISZERO PUSH2 0x41D JUMPI PUSH2 0x41C PUSH2 0x3D1 JUMP JUMPDEST JUMPDEST PUSH0 PUSH2 0x42A DUP5 DUP3 DUP6 ADD PUSH2 0x3F4 JUMP JUMPDEST SWAP2 POP POP SWAP3 SWAP2 POP POP JUMP JUMPDEST PUSH0 DUP1 PUSH1 0x40 DUP4 DUP6 SUB SLT ISZERO PUSH2 0x449 JUMPI PUSH2 0x448 PUSH2 0x3D1 JUMP JUMPDEST JUMPDEST PUSH0 PUSH2 0x456 DUP6 DUP3 DUP7 ADD PUSH2 0x3F4 JUMP JUMPDEST SWAP3 POP POP PUSH1 0x20 PUSH2 0x467 DUP6 DUP3 DUP7 ADD PUSH2 0x3F4 JUMP JUMPDEST SWAP2 POP POP SWAP3 POP SWAP3 SWAP1 POP JUMP JUMPDEST PUSH2 0x47A DUP2 PUSH2 0x39D JUMP JUMPDEST DUP2 EQ PUSH2 0x484 JUMPI PUSH0 DUP1 REVERT JUMPDEST POP JUMP JUMPDEST PUSH0 DUP2 CALLDATALOAD SWAP1 POP PUSH2 0x495 DUP2 PUSH2 0x471 JUMP JUMPDEST SWAP3 SWAP2 POP POP JUMP JUMPDEST PUSH0 PUSH1 0x20 DUP3 DUP5 SUB SLT ISZERO PUSH2 0x4B0 JUMPI PUSH2 0x4AF PUSH2 0x3D1 JUMP JUMPDEST JUMPDEST PUSH0 PUSH2 0x4BD DUP5 DUP3 DUP6 ADD PUSH2 0x487 JUMP JUMPDEST SWAP2 POP POP SWAP3 SWAP2 POP POP JUMP JUMPDEST PUSH0 PUSH20 0xFFFFFFFFFFFFFFFFFFFFFFFFFFFFFFFFFFFFFFFF DUP3 AND SWAP1 POP SWAP2 SWAP1 POP JUMP JUMPDEST PUSH0 PUSH2 0x4EF DUP3 PUSH2 0x4C6 JUMP JUMPDEST SWAP1 POP SWAP2 SWAP1 POP JUMP JUMPDEST PUSH2 0x4FF DUP2 PUSH2 0x4E5 JUMP JUMPDEST DUP3 MSTORE POP POP JUMP JUMPDEST PUSH0 PUSH1 0x20 DUP3 ADD SWAP1 POP PUSH2 0x518 PUSH0 DUP4 ADD DUP5 PUSH2 0x4F6 JUMP JUMPDEST SWAP3 SWAP2 POP POP JUMP JUMPDEST PUSH2 0x527 DUP2 PUSH2 0x3D5 JUMP JUMPDEST DUP3 MSTORE POP POP JUMP JUMPDEST PUSH0 PUSH1 0x20 DUP3 ADD SWAP1 POP PUSH2 0x540 PUSH0 DUP4 ADD DUP5 PUSH2 0x51E JUMP JUMPDEST SWAP3 SWAP2 POP POP JUMP JUMPDEST PUSH0 DUP3 DUP3 MSTORE PUSH1 0x20 DUP3 ADD SWAP1 POP SWAP3 SWAP2 POP POP JUMP JUMPDEST PUSH32 0x4E6F742074686520636F6E7472616374206F776E657200000000000000000000 PUSH0 DUP3 ADD MSTORE POP JUMP JUMPDEST PUSH0 PUSH2 0x58A PUSH1 0x16 DUP4 PUSH2 0x546 JUMP JUMPDEST SWAP2 POP PUSH2 0x595 DUP3 PUSH2 0x556 JUMP JUMPDEST PUSH1 0x20 DUP3 ADD SWAP1 POP SWAP2 SWAP1 POP JUMP JUMPDEST PUSH0 PUSH1 0x20 DUP3 ADD SWAP1 POP DUP2 DUP2 SUB PUSH0 DUP4 ADD MSTORE PUSH2 0x5B7 DUP2 PUSH2 0x57E JUMP JUMPDEST SWAP1 POP SWAP2 SWAP1 POP JUMP JUMPDEST PUSH0 PUSH1 0x40 DUP3 ADD SWAP1 POP PUSH2 0x5D1 PUSH0 DUP4 ADD DUP6 PUSH2 0x51E JUMP JUMPDEST PUSH2 0x5DE PUSH1 0x20 DUP4 ADD DUP5 PUSH2 0x51E JUMP JUMPDEST SWAP4 SWAP3 POP POP POP JUMP JUMPDEST PUSH32 0x4E487B7100000000000000000000000000000000000000000000000000000000 PUSH0 MSTORE PUSH1 0x11 PUSH1 0x4 MSTORE PUSH1 0x24 PUSH0 REVERT JUMPDEST PUSH0 PUSH2 0x61C DUP3 PUSH2 0x3D5 JUMP JUMPDEST SWAP2 POP PUSH2 0x627 DUP4 PUSH2 0x3D5 JUMP JUMPDEST SWAP3 POP DUP3 DUP3 SUB SWAP1 POP DUP2 DUP2 GT ISZERO PUSH2 0x63F JUMPI PUSH2 0x63E PUSH2 0x5E5 JUMP JUMPDEST JUMPDEST SWAP3 SWAP2 POP POP JUMP JUMPDEST PUSH32 0x496E73756666696369656E742062616C616E6365000000000000000000000000 PUSH0 DUP3 ADD MSTORE POP JUMP JUMPDEST PUSH0 PUSH2 0x679 PUSH1 0x14 DUP4 PUSH2 0x546 JUMP JUMPDEST SWAP2 POP PUSH2 0x684 DUP3 PUSH2 0x645 JUMP JUMPDEST PUSH1 0x20 DUP3 ADD SWAP1 POP SWAP2 SWAP1 POP JUMP JUMPDEST PUSH0 PUSH1 0x20 DUP3 ADD SWAP1 POP DUP2 DUP2 SUB PUSH0 DUP4 ADD MSTORE PUSH2 0x6A6 DUP2 PUSH2 0x66D JUMP JUMPDEST SWAP1 POP SWAP2 SWAP1 POP JUMP JUMPDEST PUSH0 PUSH2 0x6B7 DUP3 PUSH2 0x39D JUMP JUMPDEST SWAP2 POP PUSH2 0x6C2 DUP4 PUSH2 0x39D JUMP JUMPDEST SWAP3 POP DUP3 DUP3 ADD SWAP1 POP PUSH1 0xFF DUP2 GT ISZERO PUSH2 0x6DB JUMPI PUSH2 0x6DA PUSH2 0x5E5 JUMP JUMPDEST JUMPDEST SWAP3 SWAP2 POP POP JUMP JUMPDEST PUSH32 0x4E487B7100000000000000000000000000000000000000000000000000000000 PUSH0 MSTORE PUSH1 0x1 PUSH1 0x4 MSTORE PUSH1 0x24 PUSH0 REVERT JUMPDEST PUSH32 0x4469766973696F6E206279205A65726F00000000000000000000000000000000 PUSH0 DUP3 ADD MSTORE POP JUMP JUMPDEST PUSH0 PUSH2 0x742 PUSH1 0x10 DUP4 PUSH2 0x546 JUMP JUMPDEST SWAP2 POP PUSH2 0x74D DUP3 PUSH2 0x70E JUMP JUMPDEST PUSH1 0x20 DUP3 ADD SWAP1 POP SWAP2 SWAP1 POP JUMP JUMPDEST PUSH0 PUSH1 0x20 DUP3 ADD SWAP1 POP DUP2 DUP2 SUB PUSH0 DUP4 ADD MSTORE PUSH2 0x76F DUP2 PUSH2 0x736 JUMP JUMPDEST SWAP1 POP SWAP2 SWAP1 POP JUMP JUMPDEST PUSH32 0x4E487B7100000000000000000000000000000000000000000000000000000000 PUSH0 MSTORE PUSH1 0x12 PUSH1 0x4 MSTORE PUSH1 0x24 PUSH0 REVERT JUMPDEST PUSH0 PUSH2 0x7AD DUP3 PUSH2 0x3D5 JUMP JUMPDEST SWAP2 POP PUSH2 0x7B8 DUP4 PUSH2 0x3D5 JUMP JUMPDEST SWAP3 POP DUP3 PUSH2 0x7C8 JUMPI PUSH2 0x7C7 PUSH2 0x776 JUMP JUMPDEST JUMPDEST DUP3 DUP3 DIV SWAP1 POP SWAP3 SWAP2 POP POP JUMP INVALID LOG2 PUSH5 0x6970667358 0x22 SLT KECCAK256 SLT 0x1F JUMP PUSH28 0x62AB6251E9A06DAD32F1BA5F2AAC3A9C4904B9960FCCC29E21BDB64C PUSH5 0x736F6C6343 STOP ADDMOD BYTE STOP CALLER "
		},
		"gasEstimates": {
			"creation": {
				"codeDepositCost": "411400",
				"executionCost": "71134",
				"totalCost": "482534"
			},
			"external": {
				"balanceA()": "2469",
				"divide(uint256,uint256)": "infinite",
				"mint(uint8)": "infinite",
				"onlyOwner()": "2594",
				"owner()": "2527",
				"totalSupply()": "2539",
				"withdraw(uint256)": "infinite",
				"withdraw(uint256,uint256)": "infinite"
			}
		},
		"methodIdentifiers": {
			"balanceA()": "9c4eda5c",
			"divide(uint256,uint256)": "f88e9fbf",
			"mint(uint8)": "6ecd2306",
			"onlyOwner()": "1036e0a8",
			"owner()": "8da5cb5b",
			"totalSupply()": "18160ddd",
			"withdraw(uint256)": "2e1a7d4d",
			"withdraw(uint256,uint256)": "441a3e70"
		}
	},
	"abi": [
		{
			"inputs": [],
			"stateMutability": "nonpayable",
			"type": "constructor"
		},
		{
			"inputs": [
				{
					"internalType": "uint256",
					"name": "requested",
					"type": "uint256"
				},
				{
					"internalType": "uint256",
					"name": "available",
					"type": "uint256"
				}
			],
			"name": "InsufficientBalance",
			"type": "error"
		},
		{
			"inputs": [],
			"name": "balanceA",
			"outputs": [
				{
					"internalType": "uint256",
					"name": "",
					"type": "uint256"
				}
			],
			"stateMutability": "view",
			"type": "function"
		},
		{
			"inputs": [
				{
					"internalType": "uint256",
					"name": "a",
					"type": "uint256"
				},
				{
					"internalType": "uint256",
					"name": "b",
					"type": "uint256"
				}
			],
			"name": "divide",
			"outputs": [
				{
					"internalType": "uint256",
					"name": "",
					"type": "uint256"
				}
			],
			"stateMutability": "pure",
			"type": "function"
		},
		{
			"inputs": [
				{
					"internalType": "uint8",
					"name": "amount",
					"type": "uint8"
				}
			],
			"name": "mint",
			"outputs": [],
			"stateMutability": "nonpayable",
			"type": "function"
		},
		{
			"inputs": [],
			"name": "onlyOwner",
			"outputs": [],
			"stateMutability": "view",
			"type": "function"
		},
		{
			"inputs": [],
			"name": "owner",
			"outputs": [
				{
					"internalType": "address",
					"name": "",
					"type": "address"
				}
			],
			"stateMutability": "view",
			"type": "function"
		},
		{
			"inputs": [],
			"name": "totalSupply",
			"outputs": [
				{
					"internalType": "uint8",
					"name": "",
					"type": "uint8"
				}
			],
			"stateMutability": "view",
			"type": "function"
		},
		{
			"inputs": [
				{
					"internalType": "uint256",
					"name": "amount",
					"type": "uint256"
				}
			],
			"name": "withdraw",
			"outputs": [],
			"stateMutability": "nonpayable",
			"type": "function"
		},
		{
			"inputs": [
				{
					"internalType": "uint256",
					"name": "amount",
					"type": "uint256"
				},
				{
					"internalType": "uint256",
					"name": "balance",
					"type": "uint256"
				}
			],
			"name": "withdraw",
			"outputs": [],
			"stateMutability": "pure",
			"type": "function"
		}
	]
}