{
	"data": {
		"bytecode": {
			"linkReferences": {},
			"object": "6080604052348015600e575f80fd5b506102148061001c5f395ff3fe608060405234801561000f575f80fd5b5060043610610055575f3560e01c80631b9e48cc146100595780633450bd6a14610078578063537d190514610096578063b9a4e568146100b5578063e61e4008146100d3575b5f80fd5b6100616100f2565b60405161006f92919061015d565b60405180910390f35b610080610100565b60405161008d9190610184565b60405180910390f35b61009e610108565b6040516100ac9291906101b7565b60405180910390f35b6100bd610124565b6040516100ca9190610184565b60405180910390f35b6100db610138565b6040516100e99291906101b7565b60405180910390f35b5f80600a9150601490509091565b5f6006905090565b5f805f80610114610138565b9150915081819350935050509091565b5f8061012e610138565b5090508091505090565b5f80600180915091509091565b5f819050919050565b61015781610145565b82525050565b5f6040820190506101705f83018561014e565b61017d602083018461014e565b9392505050565b5f6020820190506101975f83018461014e565b92915050565b5f8115159050919050565b6101b18161019d565b82525050565b5f6040820190506101ca5f83018561014e565b6101d760208301846101a8565b939250505056fea2646970667358221220bd600edc2d3ed7b14f2e4fe581b030d946dfccc327a695206e52b83871e55bfa64736f6c634300081a0033",
			"opcodes": "PUSH1 0x80 PUSH1 0x40 MSTORE CALLVALUE DUP1 ISZERO PUSH1 0xE JUMPI PUSH0 DUP1 REVERT JUMPDEST POP PUSH2 0x214 DUP1 PUSH2 0x1C PUSH0 CODECOPY PUSH0 RETURN INVALID PUSH1 0x80 PUSH1 0x40 MSTORE CALLVALUE DUP1 ISZERO PUSH2 0xF JUMPI PUSH0 DUP1 REVERT JUMPDEST POP PUSH1 0x4 CALLDATASIZE LT PUSH2 0x55 JUMPI PUSH0 CALLDATALOAD PUSH1 0xE0 SHR DUP1 PUSH4 0x1B9E48CC EQ PUSH2 0x59 JUMPI DUP1 PUSH4 0x3450BD6A EQ PUSH2 0x78 JUMPI DUP1 PUSH4 0x537D1905 EQ PUSH2 0x96 JUMPI DUP1 PUSH4 0xB9A4E568 EQ PUSH2 0xB5 JUMPI DUP1 PUSH4 0xE61E4008 EQ PUSH2 0xD3 JUMPI JUMPDEST PUSH0 DUP1 REVERT JUMPDEST PUSH2 0x61 PUSH2 0xF2 JUMP JUMPDEST PUSH1 0x40 MLOAD PUSH2 0x6F SWAP3 SWAP2 SWAP1 PUSH2 0x15D JUMP JUMPDEST PUSH1 0x40 MLOAD DUP1 SWAP2 SUB SWAP1 RETURN JUMPDEST PUSH2 0x80 PUSH2 0x100 JUMP JUMPDEST PUSH1 0x40 MLOAD PUSH2 0x8D SWAP2 SWAP1 PUSH2 0x184 JUMP JUMPDEST PUSH1 0x40 MLOAD DUP1 SWAP2 SUB SWAP1 RETURN JUMPDEST PUSH2 0x9E PUSH2 0x108 JUMP JUMPDEST PUSH1 0x40 MLOAD PUSH2 0xAC SWAP3 SWAP2 SWAP1 PUSH2 0x1B7 JUMP JUMPDEST PUSH1 0x40 MLOAD DUP1 SWAP2 SUB SWAP1 RETURN JUMPDEST PUSH2 0xBD PUSH2 0x124 JUMP JUMPDEST PUSH1 0x40 MLOAD PUSH2 0xCA SWAP2 SWAP1 PUSH2 0x184 JUMP JUMPDEST PUSH1 0x40 MLOAD DUP1 SWAP2 SUB SWAP1 RETURN JUMPDEST PUSH2 0xDB PUSH2 0x138 JUMP JUMPDEST PUSH1 0x40 MLOAD PUSH2 0xE9 SWAP3 SWAP2 SWAP1 PUSH2 0x1B7 JUMP JUMPDEST PUSH1 0x40 MLOAD DUP1 SWAP2 SUB SWAP1 RETURN JUMPDEST PUSH0 DUP1 PUSH1 0xA SWAP2 POP PUSH1 0x14 SWAP1 POP SWAP1 SWAP2 JUMP JUMPDEST PUSH0 PUSH1 0x6 SWAP1 POP SWAP1 JUMP JUMPDEST PUSH0 DUP1 PUSH0 DUP1 PUSH2 0x114 PUSH2 0x138 JUMP JUMPDEST SWAP2 POP SWAP2 POP DUP2 DUP2 SWAP4 POP SWAP4 POP POP POP SWAP1 SWAP2 JUMP JUMPDEST PUSH0 DUP1 PUSH2 0x12E PUSH2 0x138 JUMP JUMPDEST POP SWAP1 POP DUP1 SWAP2 POP POP SWAP1 JUMP JUMPDEST PUSH0 DUP1 PUSH1 0x1 DUP1 SWAP2 POP SWAP2 POP SWAP1 SWAP2 JUMP JUMPDEST PUSH0 DUP2 SWAP1 POP SWAP2 SWAP1 POP JUMP JUMPDEST PUSH2 0x157 DUP2 PUSH2 0x145 JUMP JUMPDEST DUP3 MSTORE POP POP JUMP JUMPDEST PUSH0 PUSH1 0x40 DUP3 ADD SWAP1 POP PUSH2 0x170 PUSH0 DUP4 ADD DUP6 PUSH2 0x14E JUMP JUMPDEST PUSH2 0x17D PUSH1 0x20 DUP4 ADD DUP5 PUSH2 0x14E JUMP JUMPDEST SWAP4 SWAP3 POP POP POP JUMP JUMPDEST PUSH0 PUSH1 0x20 DUP3 ADD SWAP1 POP PUSH2 0x197 PUSH0 DUP4 ADD DUP5 PUSH2 0x14E JUMP JUMPDEST SWAP3 SWAP2 POP POP JUMP JUMPDEST PUSH0 DUP2 ISZERO ISZERO SWAP1 POP SWAP2 SWAP1 POP JUMP JUMPDEST PUSH2 0x1B1 DUP2 PUSH2 0x19D JUMP JUMPDEST DUP3 MSTORE POP POP JUMP JUMPDEST PUSH0 PUSH1 0x40 DUP3 ADD SWAP1 POP PUSH2 0x1CA PUSH0 DUP4 ADD DUP6 PUSH2 0x14E JUMP JUMPDEST PUSH2 0x1D7 PUSH1 0x20 DUP4 ADD DUP5 PUSH2 0x1A8 JUMP JUMPDEST SWAP4 SWAP3 POP POP POP JUMP INVALID LOG2 PUSH5 0x6970667358 0x22 SLT KECCAK256 0xBD PUSH1 0xE 0xDC 0x2D RETURNDATACOPY 0xD7 0xB1 0x4F 0x2E 0x4F 0xE5 DUP2 0xB0 ADDRESS 0xD9 CHAINID 0xDF 0xCC 0xC3 0x27 0xA6 SWAP6 KECCAK256 PUSH15 0x52B83871E55BFA64736F6C63430008 BYTE STOP CALLER "
		},
		"gasEstimates": {
			"creation": {
				"codeDepositCost": "106400",
				"executionCost": "151",
				"totalCost": "106551"
			},
			"external": {
				"returnMultiple()": "517",
				"returnNamedValues()": "infinite",
				"returnNumber()": "332",
				"usePartialValues()": "439",
				"useValues()": "543"
			}
		},
		"methodIdentifiers": {
			"returnMultiple()": "e61e4008",
			"returnNamedValues()": "1b9e48cc",
			"returnNumber()": "3450bd6a",
			"usePartialValues()": "b9a4e568",
			"useValues()": "537d1905"
		}
	},
	"abi": [
		{
			"inputs": [],
			"name": "returnMultiple",
			"outputs": [
				{
					"internalType": "uint256",
					"name": "",
					"type": "uint256"
				},
				{
					"internalType": "bool",
					"name": "",
					"type": "bool"
				}
			],
			"stateMutability": "pure",
			"type": "function"
		},
		{
			"inputs": [],
			"name": "returnNamedValues",
			"outputs": [
				{
					"internalType": "uint256",
					"name": "x",
					"type": "uint256"
				},
				{
					"internalType": "uint256",
					"name": "y",
					"type": "uint256"
				}
			],
			"stateMutability": "pure",
			"type": "function"
		},
		{
			"inputs": [],
			"name": "returnNumber",
			"outputs": [
				{
					"internalType": "uint256",
					"name": "",
					"type": "uint256"
				}
			],
			"stateMutability": "pure",
			"type": "function"
		},
		{
			"inputs": [],
			"name": "usePartialValues",
			"outputs": [
				{
					"internalType": "uint256",
					"name": "",
					"type": "uint256"
				}
			],
			"stateMutability": "pure",
			"type": "function"
		},
		{
			"inputs": [],
			"name": "useValues",
			"outputs": [
				{
					"internalType": "uint256",
					"name": "",
					"type": "uint256"
				},
				{
					"internalType": "bool",
					"name": "",
					"type": "bool"
				}
			],
			"stateMutability": "pure",
			"type": "function"
		}
	]
}