{
	"contracts/test_demo/PointsExchange.sol": {
		"PointsExchange": {
			"abi": [
				{
					"inputs": [
						{
							"internalType": "address",
							"name": "_universalPoints",
							"type": "address"
						}
					],
					"stateMutability": "nonpayable",
					"type": "constructor"
				},
				{
					"inputs": [
						{
							"internalType": "address",
							"name": "regularPointsAddress",
							"type": "address"
						},
						{
							"internalType": "uint256",
							"name": "amount",
							"type": "uint256"
						}
					],
					"name": "exchangeRPTToUPT",
					"outputs": [],
					"stateMutability": "nonpayable",
					"type": "function"
				},
				{
					"inputs": [
						{
							"internalType": "address",
							"name": "",
							"type": "address"
						}
					],
					"name": "exchangeRates",
					"outputs": [
						{
							"internalType": "uint256",
							"name": "",
							"type": "uint256"
						}
					],
					"stateMutability": "view",
					"type": "function"
				},
				{
					"inputs": [
						{
							"internalType": "address",
							"name": "regularPointsAddress",
							"type": "address"
						},
						{
							"internalType": "uint256",
							"name": "newRate",
							"type": "uint256"
						}
					],
					"name": "setExchangeRate",
					"outputs": [],
					"stateMutability": "nonpayable",
					"type": "function"
				},
				{
					"inputs": [],
					"name": "universalPoints",
					"outputs": [
						{
							"internalType": "contract UniversalPoints",
							"name": "",
							"type": "address"
						}
					],
					"stateMutability": "view",
					"type": "function"
				}
			],
			"devdoc": {
				"kind": "dev",
				"methods": {},
				"version": 1
			},
			"evm": {
				"assembly": "    /* \"contracts/test_demo/PointsExchange.sol\":126:1527  contract PointsExchange {... */\n  mstore(0x40, 0x80)\n    /* \"contracts/test_demo/PointsExchange.sol\":455:563  constructor(address _universalPoints) {... */\n  callvalue\n  dup1\n  iszero\n  tag_1\n  jumpi\n  0x00\n  dup1\n  revert\ntag_1:\n  pop\n  mload(0x40)\n  sub(codesize, bytecodeSize)\n  dup1\n  bytecodeSize\n  dup4\n  codecopy\n  dup2\n  dup2\n  add\n  0x40\n  mstore\n  dup2\n  add\n  swap1\n  tag_2\n  swap2\n  swap1\n  tag_3\n  jump\t// in\ntag_2:\n    /* \"contracts/test_demo/PointsExchange.sol\":538:554  _universalPoints */\n  dup1\n    /* \"contracts/test_demo/PointsExchange.sol\":504:519  universalPoints */\n  0x00\n  dup1\n    /* \"contracts/test_demo/PointsExchange.sol\":504:555  universalPoints = UniversalPoints(_universalPoints) */\n  0x0100\n  exp\n  dup2\n  sload\n  dup2\n  0xffffffffffffffffffffffffffffffffffffffff\n  mul\n  not\n  and\n  swap1\n  dup4\n  0xffffffffffffffffffffffffffffffffffffffff\n  and\n  mul\n  or\n  swap1\n  sstore\n  pop\n    /* \"contracts/test_demo/PointsExchange.sol\":455:563  constructor(address _universalPoints) {... */\n  pop\n    /* \"contracts/test_demo/PointsExchange.sol\":126:1527  contract PointsExchange {... */\n  jump(tag_6)\n    /* \"#utility.yul\":88:205   */\ntag_8:\n    /* \"#utility.yul\":197:198   */\n  0x00\n    /* \"#utility.yul\":194:195   */\n  dup1\n    /* \"#utility.yul\":187:199   */\n  revert\n    /* \"#utility.yul\":334:460   */\ntag_10:\n    /* \"#utility.yul\":371:378   */\n  0x00\n    /* \"#utility.yul\":411:453   */\n  0xffffffffffffffffffffffffffffffffffffffff\n    /* \"#utility.yul\":404:409   */\n  dup3\n    /* \"#utility.yul\":400:454   */\n  and\n    /* \"#utility.yul\":389:454   */\n  swap1\n  pop\n    /* \"#utility.yul\":334:460   */\n  swap2\n  swap1\n  pop\n  jump\t// out\n    /* \"#utility.yul\":466:562   */\ntag_11:\n    /* \"#utility.yul\":503:510   */\n  0x00\n    /* \"#utility.yul\":532:556   */\n  tag_20\n    /* \"#utility.yul\":550:555   */\n  dup3\n    /* \"#utility.yul\":532:556   */\n  tag_10\n  jump\t// in\ntag_20:\n    /* \"#utility.yul\":521:556   */\n  swap1\n  pop\n    /* \"#utility.yul\":466:562   */\n  swap2\n  swap1\n  pop\n  jump\t// out\n    /* \"#utility.yul\":568:690   */\ntag_12:\n    /* \"#utility.yul\":641:665   */\n  tag_22\n    /* \"#utility.yul\":659:664   */\n  dup2\n    /* \"#utility.yul\":641:665   */\n  tag_11\n  jump\t// in\ntag_22:\n    /* \"#utility.yul\":634:639   */\n  dup2\n    /* \"#utility.yul\":631:666   */\n  eq\n    /* \"#utility.yul\":621:684   */\n  tag_23\n  jumpi\n    /* \"#utility.yul\":680:681   */\n  0x00\n    /* \"#utility.yul\":677:678   */\n  dup1\n    /* \"#utility.yul\":670:682   */\n  revert\n    /* \"#utility.yul\":621:684   */\ntag_23:\n    /* \"#utility.yul\":568:690   */\n  pop\n  jump\t// out\n    /* \"#utility.yul\":696:839   */\ntag_13:\n    /* \"#utility.yul\":753:758   */\n  0x00\n    /* \"#utility.yul\":784:790   */\n  dup2\n    /* \"#utility.yul\":778:791   */\n  mload\n    /* \"#utility.yul\":769:791   */\n  swap1\n  pop\n    /* \"#utility.yul\":800:833   */\n  tag_25\n    /* \"#utility.yul\":827:832   */\n  dup2\n    /* \"#utility.yul\":800:833   */\n  tag_12\n  jump\t// in\ntag_25:\n    /* \"#utility.yul\":696:839   */\n  swap3\n  swap2\n  pop\n  pop\n  jump\t// out\n    /* \"#utility.yul\":845:1196   */\ntag_3:\n    /* \"#utility.yul\":915:921   */\n  0x00\n    /* \"#utility.yul\":964:966   */\n  0x20\n    /* \"#utility.yul\":952:961   */\n  dup3\n    /* \"#utility.yul\":943:950   */\n  dup5\n    /* \"#utility.yul\":939:962   */\n  sub\n    /* \"#utility.yul\":935:967   */\n  slt\n    /* \"#utility.yul\":932:1051   */\n  iszero\n  tag_27\n  jumpi\n    /* \"#utility.yul\":970:1049   */\n  tag_28\n  tag_8\n  jump\t// in\ntag_28:\n    /* \"#utility.yul\":932:1051   */\ntag_27:\n    /* \"#utility.yul\":1090:1091   */\n  0x00\n    /* \"#utility.yul\":1115:1179   */\n  tag_29\n    /* \"#utility.yul\":1171:1178   */\n  dup5\n    /* \"#utility.yul\":1162:1168   */\n  dup3\n    /* \"#utility.yul\":1151:1160   */\n  dup6\n    /* \"#utility.yul\":1147:1169   */\n  add\n    /* \"#utility.yul\":1115:1179   */\n  tag_13\n  jump\t// in\ntag_29:\n    /* \"#utility.yul\":1105:1179   */\n  swap2\n  pop\n    /* \"#utility.yul\":1061:1189   */\n  pop\n    /* \"#utility.yul\":845:1196   */\n  swap3\n  swap2\n  pop\n  pop\n  jump\t// out\n    /* \"contracts/test_demo/PointsExchange.sol\":126:1527  contract PointsExchange {... */\ntag_6:\n  dataSize(sub_0)\n  dup1\n  dataOffset(sub_0)\n  0x00\n  codecopy\n  0x00\n  return\nstop\n\nsub_0: assembly {\n        /* \"contracts/test_demo/PointsExchange.sol\":126:1527  contract PointsExchange {... */\n      mstore(0x40, 0x80)\n      callvalue\n      dup1\n      iszero\n      tag_1\n      jumpi\n      0x00\n      dup1\n      revert\n    tag_1:\n      pop\n      jumpi(tag_2, lt(calldatasize, 0x04))\n      shr(0xe0, calldataload(0x00))\n      dup1\n      0x85c15d9a\n      eq\n      tag_3\n      jumpi\n      dup1\n      0xb3b98f14\n      eq\n      tag_4\n      jumpi\n      dup1\n      0xbd5c5420\n      eq\n      tag_5\n      jumpi\n      dup1\n      0xfbe4e720\n      eq\n      tag_6\n      jumpi\n    tag_2:\n      0x00\n      dup1\n      revert\n        /* \"contracts/test_demo/PointsExchange.sol\":332:380  mapping(address => uint256) public exchangeRates */\n    tag_3:\n      tag_7\n      0x04\n      dup1\n      calldatasize\n      sub\n      dup2\n      add\n      swap1\n      tag_8\n      swap2\n      swap1\n      tag_9\n      jump\t// in\n    tag_8:\n      tag_10\n      jump\t// in\n    tag_7:\n      mload(0x40)\n      tag_11\n      swap2\n      swap1\n      tag_12\n      jump\t// in\n    tag_11:\n      mload(0x40)\n      dup1\n      swap2\n      sub\n      swap1\n      return\n        /* \"contracts/test_demo/PointsExchange.sol\":613:1299  function exchangeRPTToUPT(address regularPointsAddress, uint256 amount) external {... */\n    tag_4:\n      tag_13\n      0x04\n      dup1\n      calldatasize\n      sub\n      dup2\n      add\n      swap1\n      tag_14\n      swap2\n      swap1\n      tag_15\n      jump\t// in\n    tag_14:\n      tag_16\n      jump\t// in\n    tag_13:\n      stop\n        /* \"contracts/test_demo/PointsExchange.sol\":1379:1524  function setExchangeRate(address regularPointsAddress, uint256 newRate) external {... */\n    tag_5:\n      tag_17\n      0x04\n      dup1\n      calldatasize\n      sub\n      dup2\n      add\n      swap1\n      tag_18\n      swap2\n      swap1\n      tag_15\n      jump\t// in\n    tag_18:\n      tag_19\n      jump\t// in\n    tag_17:\n      stop\n        /* \"contracts/test_demo/PointsExchange.sol\":157:195  UniversalPoints public universalPoints */\n    tag_6:\n      tag_20\n      tag_21\n      jump\t// in\n    tag_20:\n      mload(0x40)\n      tag_22\n      swap2\n      swap1\n      tag_23\n      jump\t// in\n    tag_22:\n      mload(0x40)\n      dup1\n      swap2\n      sub\n      swap1\n      return\n        /* \"contracts/test_demo/PointsExchange.sol\":332:380  mapping(address => uint256) public exchangeRates */\n    tag_10:\n      mstore(0x20, 0x01)\n      dup1\n      0x00\n      mstore\n      keccak256(0x00, 0x40)\n      0x00\n      swap2\n      pop\n      swap1\n      pop\n      sload\n      dup2\n      jump\t// out\n        /* \"contracts/test_demo/PointsExchange.sol\":613:1299  function exchangeRPTToUPT(address regularPointsAddress, uint256 amount) external {... */\n    tag_16:\n        /* \"contracts/test_demo/PointsExchange.sol\":705:732  RegularPoints regularPoints */\n      0x00\n        /* \"contracts/test_demo/PointsExchange.sol\":749:769  regularPointsAddress */\n      dup3\n        /* \"contracts/test_demo/PointsExchange.sol\":705:770  RegularPoints regularPoints = RegularPoints(regularPointsAddress) */\n      swap1\n      pop\n        /* \"contracts/test_demo/PointsExchange.sol\":791:803  uint256 rate */\n      0x00\n        /* \"contracts/test_demo/PointsExchange.sol\":806:819  exchangeRates */\n      0x01\n        /* \"contracts/test_demo/PointsExchange.sol\":806:841  exchangeRates[regularPointsAddress] */\n      0x00\n        /* \"contracts/test_demo/PointsExchange.sol\":820:840  regularPointsAddress */\n      dup6\n        /* \"contracts/test_demo/PointsExchange.sol\":806:841  exchangeRates[regularPointsAddress] */\n      0xffffffffffffffffffffffffffffffffffffffff\n      and\n      0xffffffffffffffffffffffffffffffffffffffff\n      and\n      dup2\n      mstore\n      0x20\n      add\n      swap1\n      dup2\n      mstore\n      0x20\n      add\n      0x00\n      keccak256\n      sload\n        /* \"contracts/test_demo/PointsExchange.sol\":791:841  uint256 rate = exchangeRates[regularPointsAddress] */\n      swap1\n      pop\n        /* \"contracts/test_demo/PointsExchange.sol\":867:868  0 */\n      0x00\n        /* \"contracts/test_demo/PointsExchange.sol\":860:864  rate */\n      dup2\n        /* \"contracts/test_demo/PointsExchange.sol\":860:868  rate > 0 */\n      gt\n        /* \"contracts/test_demo/PointsExchange.sol\":852:909  require(rate > 0, \"Exchange rate not set for this token\") */\n      tag_25\n      jumpi\n      mload(0x40)\n      0x08c379a000000000000000000000000000000000000000000000000000000000\n      dup2\n      mstore\n      0x04\n      add\n      tag_26\n      swap1\n      tag_27\n      jump\t// in\n    tag_26:\n      mload(0x40)\n      dup1\n      swap2\n      sub\n      swap1\n      revert\n    tag_25:\n        /* \"contracts/test_demo/PointsExchange.sol\":922:942  uint256 amountToMint */\n      0x00\n        /* \"contracts/test_demo/PointsExchange.sol\":954:958  rate */\n      dup2\n        /* \"contracts/test_demo/PointsExchange.sol\":945:951  amount */\n      dup5\n        /* \"contracts/test_demo/PointsExchange.sol\":945:958  amount * rate */\n      tag_28\n      swap2\n      swap1\n      tag_29\n      jump\t// in\n    tag_28:\n        /* \"contracts/test_demo/PointsExchange.sol\":922:958  uint256 amountToMint = amount * rate */\n      swap1\n      pop\n        /* \"contracts/test_demo/PointsExchange.sol\":1016:1022  amount */\n      dup4\n        /* \"contracts/test_demo/PointsExchange.sol\":977:990  regularPoints */\n      dup4\n        /* \"contracts/test_demo/PointsExchange.sol\":977:1000  regularPoints.balanceOf */\n      0xffffffffffffffffffffffffffffffffffffffff\n      and\n      0x70a08231\n        /* \"contracts/test_demo/PointsExchange.sol\":1001:1011  msg.sender */\n      caller\n        /* \"contracts/test_demo/PointsExchange.sol\":977:1012  regularPoints.balanceOf(msg.sender) */\n      mload(0x40)\n      dup3\n      0xffffffff\n      and\n      0xe0\n      shl\n      dup2\n      mstore\n      0x04\n      add\n      tag_30\n      swap2\n      swap1\n      tag_31\n      jump\t// in\n    tag_30:\n      0x20\n      mload(0x40)\n      dup1\n      dup4\n      sub\n      dup2\n      dup7\n      gas\n      staticcall\n      iszero\n      dup1\n      iszero\n      tag_33\n      jumpi\n      returndatasize\n      0x00\n      dup1\n      returndatacopy\n      revert(0x00, returndatasize)\n    tag_33:\n      pop\n      pop\n      pop\n      pop\n      mload(0x40)\n      returndatasize\n      not(0x1f)\n      0x1f\n      dup3\n      add\n      and\n      dup3\n      add\n      dup1\n      0x40\n      mstore\n      pop\n      dup2\n      add\n      swap1\n      tag_34\n      swap2\n      swap1\n      tag_35\n      jump\t// in\n    tag_34:\n        /* \"contracts/test_demo/PointsExchange.sol\":977:1022  regularPoints.balanceOf(msg.sender) >= amount */\n      lt\n      iszero\n        /* \"contracts/test_demo/PointsExchange.sol\":969:1051  require(regularPoints.balanceOf(msg.sender) >= amount, \"Insufficient RPT balance\") */\n      tag_36\n      jumpi\n      mload(0x40)\n      0x08c379a000000000000000000000000000000000000000000000000000000000\n      dup2\n      mstore\n      0x04\n      add\n      tag_37\n      swap1\n      tag_38\n      jump\t// in\n    tag_37:\n      mload(0x40)\n      dup1\n      swap2\n      sub\n      swap1\n      revert\n    tag_36:\n        /* \"contracts/test_demo/PointsExchange.sol\":1127:1140  regularPoints */\n      dup3\n        /* \"contracts/test_demo/PointsExchange.sol\":1127:1153  regularPoints.transferFrom */\n      0xffffffffffffffffffffffffffffffffffffffff\n      and\n      0x23b872dd\n        /* \"contracts/test_demo/PointsExchange.sol\":1154:1164  msg.sender */\n      caller\n        /* \"contracts/test_demo/PointsExchange.sol\":1174:1178  this */\n      address\n        /* \"contracts/test_demo/PointsExchange.sol\":1181:1187  amount */\n      dup8\n        /* \"contracts/test_demo/PointsExchange.sol\":1127:1188  regularPoints.transferFrom(msg.sender, address(this), amount) */\n      mload(0x40)\n      dup5\n      0xffffffff\n      and\n      0xe0\n      shl\n      dup2\n      mstore\n      0x04\n      add\n      tag_39\n      swap4\n      swap3\n      swap2\n      swap1\n      tag_40\n      jump\t// in\n    tag_39:\n      0x20\n      mload(0x40)\n      dup1\n      dup4\n      sub\n      dup2\n      0x00\n      dup8\n      gas\n      call\n      iszero\n      dup1\n      iszero\n      tag_42\n      jumpi\n      returndatasize\n      0x00\n      dup1\n      returndatacopy\n      revert(0x00, returndatasize)\n    tag_42:\n      pop\n      pop\n      pop\n      pop\n      mload(0x40)\n      returndatasize\n      not(0x1f)\n      0x1f\n      dup3\n      add\n      and\n      dup3\n      add\n      dup1\n      0x40\n      mstore\n      pop\n      dup2\n      add\n      swap1\n      tag_43\n      swap2\n      swap1\n      tag_44\n      jump\t// in\n    tag_43:\n      pop\n        /* \"contracts/test_demo/PointsExchange.sol\":1241:1256  universalPoints */\n      0x00\n      dup1\n      sload\n      swap1\n      0x0100\n      exp\n      swap1\n      div\n      0xffffffffffffffffffffffffffffffffffffffff\n      and\n        /* \"contracts/test_demo/PointsExchange.sol\":1241:1265  universalPoints.transfer */\n      0xffffffffffffffffffffffffffffffffffffffff\n      and\n      0xa9059cbb\n        /* \"contracts/test_demo/PointsExchange.sol\":1266:1276  msg.sender */\n      caller\n        /* \"contracts/test_demo/PointsExchange.sol\":1278:1290  amountToMint */\n      dup4\n        /* \"contracts/test_demo/PointsExchange.sol\":1241:1291  universalPoints.transfer(msg.sender, amountToMint) */\n      mload(0x40)\n      dup4\n      0xffffffff\n      and\n      0xe0\n      shl\n      dup2\n      mstore\n      0x04\n      add\n      tag_45\n      swap3\n      swap2\n      swap1\n      tag_46\n      jump\t// in\n    tag_45:\n      0x20\n      mload(0x40)\n      dup1\n      dup4\n      sub\n      dup2\n      0x00\n      dup8\n      gas\n      call\n      iszero\n      dup1\n      iszero\n      tag_48\n      jumpi\n      returndatasize\n      0x00\n      dup1\n      returndatacopy\n      revert(0x00, returndatasize)\n    tag_48:\n      pop\n      pop\n      pop\n      pop\n      mload(0x40)\n      returndatasize\n      not(0x1f)\n      0x1f\n      dup3\n      add\n      and\n      dup3\n      add\n      dup1\n      0x40\n      mstore\n      pop\n      dup2\n      add\n      swap1\n      tag_49\n      swap2\n      swap1\n      tag_44\n      jump\t// in\n    tag_49:\n      pop\n        /* \"contracts/test_demo/PointsExchange.sol\":694:1299  {... */\n      pop\n      pop\n      pop\n        /* \"contracts/test_demo/PointsExchange.sol\":613:1299  function exchangeRPTToUPT(address regularPointsAddress, uint256 amount) external {... */\n      pop\n      pop\n      jump\t// out\n        /* \"contracts/test_demo/PointsExchange.sol\":1379:1524  function setExchangeRate(address regularPointsAddress, uint256 newRate) external {... */\n    tag_19:\n        /* \"contracts/test_demo/PointsExchange.sol\":1509:1516  newRate */\n      dup1\n        /* \"contracts/test_demo/PointsExchange.sol\":1471:1484  exchangeRates */\n      0x01\n        /* \"contracts/test_demo/PointsExchange.sol\":1471:1506  exchangeRates[regularPointsAddress] */\n      0x00\n        /* \"contracts/test_demo/PointsExchange.sol\":1485:1505  regularPointsAddress */\n      dup5\n        /* \"contracts/test_demo/PointsExchange.sol\":1471:1506  exchangeRates[regularPointsAddress] */\n      0xffffffffffffffffffffffffffffffffffffffff\n      and\n      0xffffffffffffffffffffffffffffffffffffffff\n      and\n      dup2\n      mstore\n      0x20\n      add\n      swap1\n      dup2\n      mstore\n      0x20\n      add\n      0x00\n      keccak256\n        /* \"contracts/test_demo/PointsExchange.sol\":1471:1516  exchangeRates[regularPointsAddress] = newRate */\n      dup2\n      swap1\n      sstore\n      pop\n        /* \"contracts/test_demo/PointsExchange.sol\":1379:1524  function setExchangeRate(address regularPointsAddress, uint256 newRate) external {... */\n      pop\n      pop\n      jump\t// out\n        /* \"contracts/test_demo/PointsExchange.sol\":157:195  UniversalPoints public universalPoints */\n    tag_21:\n      0x00\n      dup1\n      sload\n      swap1\n      0x0100\n      exp\n      swap1\n      div\n      0xffffffffffffffffffffffffffffffffffffffff\n      and\n      dup2\n      jump\t// out\n        /* \"#utility.yul\":88:205   */\n    tag_52:\n        /* \"#utility.yul\":197:198   */\n      0x00\n        /* \"#utility.yul\":194:195   */\n      dup1\n        /* \"#utility.yul\":187:199   */\n      revert\n        /* \"#utility.yul\":334:460   */\n    tag_54:\n        /* \"#utility.yul\":371:378   */\n      0x00\n        /* \"#utility.yul\":411:453   */\n      0xffffffffffffffffffffffffffffffffffffffff\n        /* \"#utility.yul\":404:409   */\n      dup3\n        /* \"#utility.yul\":400:454   */\n      and\n        /* \"#utility.yul\":389:454   */\n      swap1\n      pop\n        /* \"#utility.yul\":334:460   */\n      swap2\n      swap1\n      pop\n      jump\t// out\n        /* \"#utility.yul\":466:562   */\n    tag_55:\n        /* \"#utility.yul\":503:510   */\n      0x00\n        /* \"#utility.yul\":532:556   */\n      tag_84\n        /* \"#utility.yul\":550:555   */\n      dup3\n        /* \"#utility.yul\":532:556   */\n      tag_54\n      jump\t// in\n    tag_84:\n        /* \"#utility.yul\":521:556   */\n      swap1\n      pop\n        /* \"#utility.yul\":466:562   */\n      swap2\n      swap1\n      pop\n      jump\t// out\n        /* \"#utility.yul\":568:690   */\n    tag_56:\n        /* \"#utility.yul\":641:665   */\n      tag_86\n        /* \"#utility.yul\":659:664   */\n      dup2\n        /* \"#utility.yul\":641:665   */\n      tag_55\n      jump\t// in\n    tag_86:\n        /* \"#utility.yul\":634:639   */\n      dup2\n        /* \"#utility.yul\":631:666   */\n      eq\n        /* \"#utility.yul\":621:684   */\n      tag_87\n      jumpi\n        /* \"#utility.yul\":680:681   */\n      0x00\n        /* \"#utility.yul\":677:678   */\n      dup1\n        /* \"#utility.yul\":670:682   */\n      revert\n        /* \"#utility.yul\":621:684   */\n    tag_87:\n        /* \"#utility.yul\":568:690   */\n      pop\n      jump\t// out\n        /* \"#utility.yul\":696:835   */\n    tag_57:\n        /* \"#utility.yul\":742:747   */\n      0x00\n        /* \"#utility.yul\":780:786   */\n      dup2\n        /* \"#utility.yul\":767:787   */\n      calldataload\n        /* \"#utility.yul\":758:787   */\n      swap1\n      pop\n        /* \"#utility.yul\":796:829   */\n      tag_89\n        /* \"#utility.yul\":823:828   */\n      dup2\n        /* \"#utility.yul\":796:829   */\n      tag_56\n      jump\t// in\n    tag_89:\n        /* \"#utility.yul\":696:835   */\n      swap3\n      swap2\n      pop\n      pop\n      jump\t// out\n        /* \"#utility.yul\":841:1170   */\n    tag_9:\n        /* \"#utility.yul\":900:906   */\n      0x00\n        /* \"#utility.yul\":949:951   */\n      0x20\n        /* \"#utility.yul\":937:946   */\n      dup3\n        /* \"#utility.yul\":928:935   */\n      dup5\n        /* \"#utility.yul\":924:947   */\n      sub\n        /* \"#utility.yul\":920:952   */\n      slt\n        /* \"#utility.yul\":917:1036   */\n      iszero\n      tag_91\n      jumpi\n        /* \"#utility.yul\":955:1034   */\n      tag_92\n      tag_52\n      jump\t// in\n    tag_92:\n        /* \"#utility.yul\":917:1036   */\n    tag_91:\n        /* \"#utility.yul\":1075:1076   */\n      0x00\n        /* \"#utility.yul\":1100:1153   */\n      tag_93\n        /* \"#utility.yul\":1145:1152   */\n      dup5\n        /* \"#utility.yul\":1136:1142   */\n      dup3\n        /* \"#utility.yul\":1125:1134   */\n      dup6\n        /* \"#utility.yul\":1121:1143   */\n      add\n        /* \"#utility.yul\":1100:1153   */\n      tag_57\n      jump\t// in\n    tag_93:\n        /* \"#utility.yul\":1090:1153   */\n      swap2\n      pop\n        /* \"#utility.yul\":1046:1163   */\n      pop\n        /* \"#utility.yul\":841:1170   */\n      swap3\n      swap2\n      pop\n      pop\n      jump\t// out\n        /* \"#utility.yul\":1176:1253   */\n    tag_58:\n        /* \"#utility.yul\":1213:1220   */\n      0x00\n        /* \"#utility.yul\":1242:1247   */\n      dup2\n        /* \"#utility.yul\":1231:1247   */\n      swap1\n      pop\n        /* \"#utility.yul\":1176:1253   */\n      swap2\n      swap1\n      pop\n      jump\t// out\n        /* \"#utility.yul\":1259:1377   */\n    tag_59:\n        /* \"#utility.yul\":1346:1370   */\n      tag_96\n        /* \"#utility.yul\":1364:1369   */\n      dup2\n        /* \"#utility.yul\":1346:1370   */\n      tag_58\n      jump\t// in\n    tag_96:\n        /* \"#utility.yul\":1341:1344   */\n      dup3\n        /* \"#utility.yul\":1334:1371   */\n      mstore\n        /* \"#utility.yul\":1259:1377   */\n      pop\n      pop\n      jump\t// out\n        /* \"#utility.yul\":1383:1605   */\n    tag_12:\n        /* \"#utility.yul\":1476:1480   */\n      0x00\n        /* \"#utility.yul\":1514:1516   */\n      0x20\n        /* \"#utility.yul\":1503:1512   */\n      dup3\n        /* \"#utility.yul\":1499:1517   */\n      add\n        /* \"#utility.yul\":1491:1517   */\n      swap1\n      pop\n        /* \"#utility.yul\":1527:1598   */\n      tag_98\n        /* \"#utility.yul\":1595:1596   */\n      0x00\n        /* \"#utility.yul\":1584:1593   */\n      dup4\n        /* \"#utility.yul\":1580:1597   */\n      add\n        /* \"#utility.yul\":1571:1577   */\n      dup5\n        /* \"#utility.yul\":1527:1598   */\n      tag_59\n      jump\t// in\n    tag_98:\n        /* \"#utility.yul\":1383:1605   */\n      swap3\n      swap2\n      pop\n      pop\n      jump\t// out\n        /* \"#utility.yul\":1611:1733   */\n    tag_60:\n        /* \"#utility.yul\":1684:1708   */\n      tag_100\n        /* \"#utility.yul\":1702:1707   */\n      dup2\n        /* \"#utility.yul\":1684:1708   */\n      tag_58\n      jump\t// in\n    tag_100:\n        /* \"#utility.yul\":1677:1682   */\n      dup2\n        /* \"#utility.yul\":1674:1709   */\n      eq\n        /* \"#utility.yul\":1664:1727   */\n      tag_101\n      jumpi\n        /* \"#utility.yul\":1723:1724   */\n      0x00\n        /* \"#utility.yul\":1720:1721   */\n      dup1\n        /* \"#utility.yul\":1713:1725   */\n      revert\n        /* \"#utility.yul\":1664:1727   */\n    tag_101:\n        /* \"#utility.yul\":1611:1733   */\n      pop\n      jump\t// out\n        /* \"#utility.yul\":1739:1878   */\n    tag_61:\n        /* \"#utility.yul\":1785:1790   */\n      0x00\n        /* \"#utility.yul\":1823:1829   */\n      dup2\n        /* \"#utility.yul\":1810:1830   */\n      calldataload\n        /* \"#utility.yul\":1801:1830   */\n      swap1\n      pop\n        /* \"#utility.yul\":1839:1872   */\n      tag_103\n        /* \"#utility.yul\":1866:1871   */\n      dup2\n        /* \"#utility.yul\":1839:1872   */\n      tag_60\n      jump\t// in\n    tag_103:\n        /* \"#utility.yul\":1739:1878   */\n      swap3\n      swap2\n      pop\n      pop\n      jump\t// out\n        /* \"#utility.yul\":1884:2358   */\n    tag_15:\n        /* \"#utility.yul\":1952:1958   */\n      0x00\n        /* \"#utility.yul\":1960:1966   */\n      dup1\n        /* \"#utility.yul\":2009:2011   */\n      0x40\n        /* \"#utility.yul\":1997:2006   */\n      dup4\n        /* \"#utility.yul\":1988:1995   */\n      dup6\n        /* \"#utility.yul\":1984:2007   */\n      sub\n        /* \"#utility.yul\":1980:2012   */\n      slt\n        /* \"#utility.yul\":1977:2096   */\n      iszero\n      tag_105\n      jumpi\n        /* \"#utility.yul\":2015:2094   */\n      tag_106\n      tag_52\n      jump\t// in\n    tag_106:\n        /* \"#utility.yul\":1977:2096   */\n    tag_105:\n        /* \"#utility.yul\":2135:2136   */\n      0x00\n        /* \"#utility.yul\":2160:2213   */\n      tag_107\n        /* \"#utility.yul\":2205:2212   */\n      dup6\n        /* \"#utility.yul\":2196:2202   */\n      dup3\n        /* \"#utility.yul\":2185:2194   */\n      dup7\n        /* \"#utility.yul\":2181:2203   */\n      add\n        /* \"#utility.yul\":2160:2213   */\n      tag_57\n      jump\t// in\n    tag_107:\n        /* \"#utility.yul\":2150:2213   */\n      swap3\n      pop\n        /* \"#utility.yul\":2106:2223   */\n      pop\n        /* \"#utility.yul\":2262:2264   */\n      0x20\n        /* \"#utility.yul\":2288:2341   */\n      tag_108\n        /* \"#utility.yul\":2333:2340   */\n      dup6\n        /* \"#utility.yul\":2324:2330   */\n      dup3\n        /* \"#utility.yul\":2313:2322   */\n      dup7\n        /* \"#utility.yul\":2309:2331   */\n      add\n        /* \"#utility.yul\":2288:2341   */\n      tag_61\n      jump\t// in\n    tag_108:\n        /* \"#utility.yul\":2278:2341   */\n      swap2\n      pop\n        /* \"#utility.yul\":2233:2351   */\n      pop\n        /* \"#utility.yul\":1884:2358   */\n      swap3\n      pop\n      swap3\n      swap1\n      pop\n      jump\t// out\n        /* \"#utility.yul\":2364:2424   */\n    tag_62:\n        /* \"#utility.yul\":2392:2395   */\n      0x00\n        /* \"#utility.yul\":2413:2418   */\n      dup2\n        /* \"#utility.yul\":2406:2418   */\n      swap1\n      pop\n        /* \"#utility.yul\":2364:2424   */\n      swap2\n      swap1\n      pop\n      jump\t// out\n        /* \"#utility.yul\":2430:2572   */\n    tag_63:\n        /* \"#utility.yul\":2480:2489   */\n      0x00\n        /* \"#utility.yul\":2513:2566   */\n      tag_111\n        /* \"#utility.yul\":2531:2565   */\n      tag_112\n        /* \"#utility.yul\":2540:2564   */\n      tag_113\n        /* \"#utility.yul\":2558:2563   */\n      dup5\n        /* \"#utility.yul\":2540:2564   */\n      tag_54\n      jump\t// in\n    tag_113:\n        /* \"#utility.yul\":2531:2565   */\n      tag_62\n      jump\t// in\n    tag_112:\n        /* \"#utility.yul\":2513:2566   */\n      tag_54\n      jump\t// in\n    tag_111:\n        /* \"#utility.yul\":2500:2566   */\n      swap1\n      pop\n        /* \"#utility.yul\":2430:2572   */\n      swap2\n      swap1\n      pop\n      jump\t// out\n        /* \"#utility.yul\":2578:2704   */\n    tag_64:\n        /* \"#utility.yul\":2628:2637   */\n      0x00\n        /* \"#utility.yul\":2661:2698   */\n      tag_115\n        /* \"#utility.yul\":2692:2697   */\n      dup3\n        /* \"#utility.yul\":2661:2698   */\n      tag_63\n      jump\t// in\n    tag_115:\n        /* \"#utility.yul\":2648:2698   */\n      swap1\n      pop\n        /* \"#utility.yul\":2578:2704   */\n      swap2\n      swap1\n      pop\n      jump\t// out\n        /* \"#utility.yul\":2710:2860   */\n    tag_65:\n        /* \"#utility.yul\":2784:2793   */\n      0x00\n        /* \"#utility.yul\":2817:2854   */\n      tag_117\n        /* \"#utility.yul\":2848:2853   */\n      dup3\n        /* \"#utility.yul\":2817:2854   */\n      tag_64\n      jump\t// in\n    tag_117:\n        /* \"#utility.yul\":2804:2854   */\n      swap1\n      pop\n        /* \"#utility.yul\":2710:2860   */\n      swap2\n      swap1\n      pop\n      jump\t// out\n        /* \"#utility.yul\":2866:3045   */\n    tag_66:\n        /* \"#utility.yul\":2977:3038   */\n      tag_119\n        /* \"#utility.yul\":3032:3037   */\n      dup2\n        /* \"#utility.yul\":2977:3038   */\n      tag_65\n      jump\t// in\n    tag_119:\n        /* \"#utility.yul\":2972:2975   */\n      dup3\n        /* \"#utility.yul\":2965:3039   */\n      mstore\n        /* \"#utility.yul\":2866:3045   */\n      pop\n      pop\n      jump\t// out\n        /* \"#utility.yul\":3051:3321   */\n    tag_23:\n        /* \"#utility.yul\":3168:3172   */\n      0x00\n        /* \"#utility.yul\":3206:3208   */\n      0x20\n        /* \"#utility.yul\":3195:3204   */\n      dup3\n        /* \"#utility.yul\":3191:3209   */\n      add\n        /* \"#utility.yul\":3183:3209   */\n      swap1\n      pop\n        /* \"#utility.yul\":3219:3314   */\n      tag_121\n        /* \"#utility.yul\":3311:3312   */\n      0x00\n        /* \"#utility.yul\":3300:3309   */\n      dup4\n        /* \"#utility.yul\":3296:3313   */\n      add\n        /* \"#utility.yul\":3287:3293   */\n      dup5\n        /* \"#utility.yul\":3219:3314   */\n      tag_66\n      jump\t// in\n    tag_121:\n        /* \"#utility.yul\":3051:3321   */\n      swap3\n      swap2\n      pop\n      pop\n      jump\t// out\n        /* \"#utility.yul\":3327:3496   */\n    tag_67:\n        /* \"#utility.yul\":3411:3422   */\n      0x00\n        /* \"#utility.yul\":3445:3451   */\n      dup3\n        /* \"#utility.yul\":3440:3443   */\n      dup3\n        /* \"#utility.yul\":3433:3452   */\n      mstore\n        /* \"#utility.yul\":3485:3489   */\n      0x20\n        /* \"#utility.yul\":3480:3483   */\n      dup3\n        /* \"#utility.yul\":3476:3490   */\n      add\n        /* \"#utility.yul\":3461:3490   */\n      swap1\n      pop\n        /* \"#utility.yul\":3327:3496   */\n      swap3\n      swap2\n      pop\n      pop\n      jump\t// out\n        /* \"#utility.yul\":3502:3725   */\n    tag_68:\n        /* \"#utility.yul\":3642:3676   */\n      0x45786368616e67652072617465206e6f742073657420666f7220746869732074\n        /* \"#utility.yul\":3638:3639   */\n      0x00\n        /* \"#utility.yul\":3630:3636   */\n      dup3\n        /* \"#utility.yul\":3626:3640   */\n      add\n        /* \"#utility.yul\":3619:3677   */\n      mstore\n        /* \"#utility.yul\":3711:3717   */\n      0x6f6b656e00000000000000000000000000000000000000000000000000000000\n        /* \"#utility.yul\":3706:3708   */\n      0x20\n        /* \"#utility.yul\":3698:3704   */\n      dup3\n        /* \"#utility.yul\":3694:3709   */\n      add\n        /* \"#utility.yul\":3687:3718   */\n      mstore\n        /* \"#utility.yul\":3502:3725   */\n      pop\n      jump\t// out\n        /* \"#utility.yul\":3731:4097   */\n    tag_69:\n        /* \"#utility.yul\":3873:3876   */\n      0x00\n        /* \"#utility.yul\":3894:3961   */\n      tag_125\n        /* \"#utility.yul\":3958:3960   */\n      0x24\n        /* \"#utility.yul\":3953:3956   */\n      dup4\n        /* \"#utility.yul\":3894:3961   */\n      tag_67\n      jump\t// in\n    tag_125:\n        /* \"#utility.yul\":3887:3961   */\n      swap2\n      pop\n        /* \"#utility.yul\":3970:4063   */\n      tag_126\n        /* \"#utility.yul\":4059:4062   */\n      dup3\n        /* \"#utility.yul\":3970:4063   */\n      tag_68\n      jump\t// in\n    tag_126:\n        /* \"#utility.yul\":4088:4090   */\n      0x40\n        /* \"#utility.yul\":4083:4086   */\n      dup3\n        /* \"#utility.yul\":4079:4091   */\n      add\n        /* \"#utility.yul\":4072:4091   */\n      swap1\n      pop\n        /* \"#utility.yul\":3731:4097   */\n      swap2\n      swap1\n      pop\n      jump\t// out\n        /* \"#utility.yul\":4103:4522   */\n    tag_27:\n        /* \"#utility.yul\":4269:4273   */\n      0x00\n        /* \"#utility.yul\":4307:4309   */\n      0x20\n        /* \"#utility.yul\":4296:4305   */\n      dup3\n        /* \"#utility.yul\":4292:4310   */\n      add\n        /* \"#utility.yul\":4284:4310   */\n      swap1\n      pop\n        /* \"#utility.yul\":4356:4365   */\n      dup2\n        /* \"#utility.yul\":4350:4354   */\n      dup2\n        /* \"#utility.yul\":4346:4366   */\n      sub\n        /* \"#utility.yul\":4342:4343   */\n      0x00\n        /* \"#utility.yul\":4331:4340   */\n      dup4\n        /* \"#utility.yul\":4327:4344   */\n      add\n        /* \"#utility.yul\":4320:4367   */\n      mstore\n        /* \"#utility.yul\":4384:4515   */\n      tag_128\n        /* \"#utility.yul\":4510:4514   */\n      dup2\n        /* \"#utility.yul\":4384:4515   */\n      tag_69\n      jump\t// in\n    tag_128:\n        /* \"#utility.yul\":4376:4515   */\n      swap1\n      pop\n        /* \"#utility.yul\":4103:4522   */\n      swap2\n      swap1\n      pop\n      jump\t// out\n        /* \"#utility.yul\":4528:4708   */\n    tag_70:\n        /* \"#utility.yul\":4576:4653   */\n      0x4e487b7100000000000000000000000000000000000000000000000000000000\n        /* \"#utility.yul\":4573:4574   */\n      0x00\n        /* \"#utility.yul\":4566:4654   */\n      mstore\n        /* \"#utility.yul\":4673:4677   */\n      0x11\n        /* \"#utility.yul\":4670:4671   */\n      0x04\n        /* \"#utility.yul\":4663:4678   */\n      mstore\n        /* \"#utility.yul\":4697:4701   */\n      0x24\n        /* \"#utility.yul\":4694:4695   */\n      0x00\n        /* \"#utility.yul\":4687:4702   */\n      revert\n        /* \"#utility.yul\":4714:5124   */\n    tag_29:\n        /* \"#utility.yul\":4754:4761   */\n      0x00\n        /* \"#utility.yul\":4777:4797   */\n      tag_131\n        /* \"#utility.yul\":4795:4796   */\n      dup3\n        /* \"#utility.yul\":4777:4797   */\n      tag_58\n      jump\t// in\n    tag_131:\n        /* \"#utility.yul\":4772:4797   */\n      swap2\n      pop\n        /* \"#utility.yul\":4811:4831   */\n      tag_132\n        /* \"#utility.yul\":4829:4830   */\n      dup4\n        /* \"#utility.yul\":4811:4831   */\n      tag_58\n      jump\t// in\n    tag_132:\n        /* \"#utility.yul\":4806:4831   */\n      swap3\n      pop\n        /* \"#utility.yul\":4866:4867   */\n      dup3\n        /* \"#utility.yul\":4863:4864   */\n      dup3\n        /* \"#utility.yul\":4859:4868   */\n      mul\n        /* \"#utility.yul\":4888:4918   */\n      tag_133\n        /* \"#utility.yul\":4906:4917   */\n      dup2\n        /* \"#utility.yul\":4888:4918   */\n      tag_58\n      jump\t// in\n    tag_133:\n        /* \"#utility.yul\":4877:4918   */\n      swap2\n      pop\n        /* \"#utility.yul\":5067:5068   */\n      dup3\n        /* \"#utility.yul\":5058:5065   */\n      dup3\n        /* \"#utility.yul\":5054:5069   */\n      div\n        /* \"#utility.yul\":5051:5052   */\n      dup5\n        /* \"#utility.yul\":5048:5070   */\n      eq\n        /* \"#utility.yul\":5028:5029   */\n      dup4\n        /* \"#utility.yul\":5021:5030   */\n      iszero\n        /* \"#utility.yul\":5001:5084   */\n      or\n        /* \"#utility.yul\":4978:5117   */\n      tag_134\n      jumpi\n        /* \"#utility.yul\":5097:5115   */\n      tag_135\n      tag_70\n      jump\t// in\n    tag_135:\n        /* \"#utility.yul\":4978:5117   */\n    tag_134:\n        /* \"#utility.yul\":4762:5124   */\n      pop\n        /* \"#utility.yul\":4714:5124   */\n      swap3\n      swap2\n      pop\n      pop\n      jump\t// out\n        /* \"#utility.yul\":5130:5248   */\n    tag_71:\n        /* \"#utility.yul\":5217:5241   */\n      tag_137\n        /* \"#utility.yul\":5235:5240   */\n      dup2\n        /* \"#utility.yul\":5217:5241   */\n      tag_55\n      jump\t// in\n    tag_137:\n        /* \"#utility.yul\":5212:5215   */\n      dup3\n        /* \"#utility.yul\":5205:5242   */\n      mstore\n        /* \"#utility.yul\":5130:5248   */\n      pop\n      pop\n      jump\t// out\n        /* \"#utility.yul\":5254:5476   */\n    tag_31:\n        /* \"#utility.yul\":5347:5351   */\n      0x00\n        /* \"#utility.yul\":5385:5387   */\n      0x20\n        /* \"#utility.yul\":5374:5383   */\n      dup3\n        /* \"#utility.yul\":5370:5388   */\n      add\n        /* \"#utility.yul\":5362:5388   */\n      swap1\n      pop\n        /* \"#utility.yul\":5398:5469   */\n      tag_139\n        /* \"#utility.yul\":5466:5467   */\n      0x00\n        /* \"#utility.yul\":5455:5464   */\n      dup4\n        /* \"#utility.yul\":5451:5468   */\n      add\n        /* \"#utility.yul\":5442:5448   */\n      dup5\n        /* \"#utility.yul\":5398:5469   */\n      tag_71\n      jump\t// in\n    tag_139:\n        /* \"#utility.yul\":5254:5476   */\n      swap3\n      swap2\n      pop\n      pop\n      jump\t// out\n        /* \"#utility.yul\":5482:5625   */\n    tag_72:\n        /* \"#utility.yul\":5539:5544   */\n      0x00\n        /* \"#utility.yul\":5570:5576   */\n      dup2\n        /* \"#utility.yul\":5564:5577   */\n      mload\n        /* \"#utility.yul\":5555:5577   */\n      swap1\n      pop\n        /* \"#utility.yul\":5586:5619   */\n      tag_141\n        /* \"#utility.yul\":5613:5618   */\n      dup2\n        /* \"#utility.yul\":5586:5619   */\n      tag_60\n      jump\t// in\n    tag_141:\n        /* \"#utility.yul\":5482:5625   */\n      swap3\n      swap2\n      pop\n      pop\n      jump\t// out\n        /* \"#utility.yul\":5631:5982   */\n    tag_35:\n        /* \"#utility.yul\":5701:5707   */\n      0x00\n        /* \"#utility.yul\":5750:5752   */\n      0x20\n        /* \"#utility.yul\":5738:5747   */\n      dup3\n        /* \"#utility.yul\":5729:5736   */\n      dup5\n        /* \"#utility.yul\":5725:5748   */\n      sub\n        /* \"#utility.yul\":5721:5753   */\n      slt\n        /* \"#utility.yul\":5718:5837   */\n      iszero\n      tag_143\n      jumpi\n        /* \"#utility.yul\":5756:5835   */\n      tag_144\n      tag_52\n      jump\t// in\n    tag_144:\n        /* \"#utility.yul\":5718:5837   */\n    tag_143:\n        /* \"#utility.yul\":5876:5877   */\n      0x00\n        /* \"#utility.yul\":5901:5965   */\n      tag_145\n        /* \"#utility.yul\":5957:5964   */\n      dup5\n        /* \"#utility.yul\":5948:5954   */\n      dup3\n        /* \"#utility.yul\":5937:5946   */\n      dup6\n        /* \"#utility.yul\":5933:5955   */\n      add\n        /* \"#utility.yul\":5901:5965   */\n      tag_72\n      jump\t// in\n    tag_145:\n        /* \"#utility.yul\":5891:5965   */\n      swap2\n      pop\n        /* \"#utility.yul\":5847:5975   */\n      pop\n        /* \"#utility.yul\":5631:5982   */\n      swap3\n      swap2\n      pop\n      pop\n      jump\t// out\n        /* \"#utility.yul\":5988:6162   */\n    tag_73:\n        /* \"#utility.yul\":6128:6154   */\n      0x496e73756666696369656e74205250542062616c616e63650000000000000000\n        /* \"#utility.yul\":6124:6125   */\n      0x00\n        /* \"#utility.yul\":6116:6122   */\n      dup3\n        /* \"#utility.yul\":6112:6126   */\n      add\n        /* \"#utility.yul\":6105:6155   */\n      mstore\n        /* \"#utility.yul\":5988:6162   */\n      pop\n      jump\t// out\n        /* \"#utility.yul\":6168:6534   */\n    tag_74:\n        /* \"#utility.yul\":6310:6313   */\n      0x00\n        /* \"#utility.yul\":6331:6398   */\n      tag_148\n        /* \"#utility.yul\":6395:6397   */\n      0x18\n        /* \"#utility.yul\":6390:6393   */\n      dup4\n        /* \"#utility.yul\":6331:6398   */\n      tag_67\n      jump\t// in\n    tag_148:\n        /* \"#utility.yul\":6324:6398   */\n      swap2\n      pop\n        /* \"#utility.yul\":6407:6500   */\n      tag_149\n        /* \"#utility.yul\":6496:6499   */\n      dup3\n        /* \"#utility.yul\":6407:6500   */\n      tag_73\n      jump\t// in\n    tag_149:\n        /* \"#utility.yul\":6525:6527   */\n      0x20\n        /* \"#utility.yul\":6520:6523   */\n      dup3\n        /* \"#utility.yul\":6516:6528   */\n      add\n        /* \"#utility.yul\":6509:6528   */\n      swap1\n      pop\n        /* \"#utility.yul\":6168:6534   */\n      swap2\n      swap1\n      pop\n      jump\t// out\n        /* \"#utility.yul\":6540:6959   */\n    tag_38:\n        /* \"#utility.yul\":6706:6710   */\n      0x00\n        /* \"#utility.yul\":6744:6746   */\n      0x20\n        /* \"#utility.yul\":6733:6742   */\n      dup3\n        /* \"#utility.yul\":6729:6747   */\n      add\n        /* \"#utility.yul\":6721:6747   */\n      swap1\n      pop\n        /* \"#utility.yul\":6793:6802   */\n      dup2\n        /* \"#utility.yul\":6787:6791   */\n      dup2\n        /* \"#utility.yul\":6783:6803   */\n      sub\n        /* \"#utility.yul\":6779:6780   */\n      0x00\n        /* \"#utility.yul\":6768:6777   */\n      dup4\n        /* \"#utility.yul\":6764:6781   */\n      add\n        /* \"#utility.yul\":6757:6804   */\n      mstore\n        /* \"#utility.yul\":6821:6952   */\n      tag_151\n        /* \"#utility.yul\":6947:6951   */\n      dup2\n        /* \"#utility.yul\":6821:6952   */\n      tag_74\n      jump\t// in\n    tag_151:\n        /* \"#utility.yul\":6813:6952   */\n      swap1\n      pop\n        /* \"#utility.yul\":6540:6959   */\n      swap2\n      swap1\n      pop\n      jump\t// out\n        /* \"#utility.yul\":6965:7407   */\n    tag_40:\n        /* \"#utility.yul\":7114:7118   */\n      0x00\n        /* \"#utility.yul\":7152:7154   */\n      0x60\n        /* \"#utility.yul\":7141:7150   */\n      dup3\n        /* \"#utility.yul\":7137:7155   */\n      add\n        /* \"#utility.yul\":7129:7155   */\n      swap1\n      pop\n        /* \"#utility.yul\":7165:7236   */\n      tag_153\n        /* \"#utility.yul\":7233:7234   */\n      0x00\n        /* \"#utility.yul\":7222:7231   */\n      dup4\n        /* \"#utility.yul\":7218:7235   */\n      add\n        /* \"#utility.yul\":7209:7215   */\n      dup7\n        /* \"#utility.yul\":7165:7236   */\n      tag_71\n      jump\t// in\n    tag_153:\n        /* \"#utility.yul\":7246:7318   */\n      tag_154\n        /* \"#utility.yul\":7314:7316   */\n      0x20\n        /* \"#utility.yul\":7303:7312   */\n      dup4\n        /* \"#utility.yul\":7299:7317   */\n      add\n        /* \"#utility.yul\":7290:7296   */\n      dup6\n        /* \"#utility.yul\":7246:7318   */\n      tag_71\n      jump\t// in\n    tag_154:\n        /* \"#utility.yul\":7328:7400   */\n      tag_155\n        /* \"#utility.yul\":7396:7398   */\n      0x40\n        /* \"#utility.yul\":7385:7394   */\n      dup4\n        /* \"#utility.yul\":7381:7399   */\n      add\n        /* \"#utility.yul\":7372:7378   */\n      dup5\n        /* \"#utility.yul\":7328:7400   */\n      tag_59\n      jump\t// in\n    tag_155:\n        /* \"#utility.yul\":6965:7407   */\n      swap5\n      swap4\n      pop\n      pop\n      pop\n      pop\n      jump\t// out\n        /* \"#utility.yul\":7413:7503   */\n    tag_75:\n        /* \"#utility.yul\":7447:7454   */\n      0x00\n        /* \"#utility.yul\":7490:7495   */\n      dup2\n        /* \"#utility.yul\":7483:7496   */\n      iszero\n        /* \"#utility.yul\":7476:7497   */\n      iszero\n        /* \"#utility.yul\":7465:7497   */\n      swap1\n      pop\n        /* \"#utility.yul\":7413:7503   */\n      swap2\n      swap1\n      pop\n      jump\t// out\n        /* \"#utility.yul\":7509:7625   */\n    tag_76:\n        /* \"#utility.yul\":7579:7600   */\n      tag_158\n        /* \"#utility.yul\":7594:7599   */\n      dup2\n        /* \"#utility.yul\":7579:7600   */\n      tag_75\n      jump\t// in\n    tag_158:\n        /* \"#utility.yul\":7572:7577   */\n      dup2\n        /* \"#utility.yul\":7569:7601   */\n      eq\n        /* \"#utility.yul\":7559:7619   */\n      tag_159\n      jumpi\n        /* \"#utility.yul\":7615:7616   */\n      0x00\n        /* \"#utility.yul\":7612:7613   */\n      dup1\n        /* \"#utility.yul\":7605:7617   */\n      revert\n        /* \"#utility.yul\":7559:7619   */\n    tag_159:\n        /* \"#utility.yul\":7509:7625   */\n      pop\n      jump\t// out\n        /* \"#utility.yul\":7631:7768   */\n    tag_77:\n        /* \"#utility.yul\":7685:7690   */\n      0x00\n        /* \"#utility.yul\":7716:7722   */\n      dup2\n        /* \"#utility.yul\":7710:7723   */\n      mload\n        /* \"#utility.yul\":7701:7723   */\n      swap1\n      pop\n        /* \"#utility.yul\":7732:7762   */\n      tag_161\n        /* \"#utility.yul\":7756:7761   */\n      dup2\n        /* \"#utility.yul\":7732:7762   */\n      tag_76\n      jump\t// in\n    tag_161:\n        /* \"#utility.yul\":7631:7768   */\n      swap3\n      swap2\n      pop\n      pop\n      jump\t// out\n        /* \"#utility.yul\":7774:8119   */\n    tag_44:\n        /* \"#utility.yul\":7841:7847   */\n      0x00\n        /* \"#utility.yul\":7890:7892   */\n      0x20\n        /* \"#utility.yul\":7878:7887   */\n      dup3\n        /* \"#utility.yul\":7869:7876   */\n      dup5\n        /* \"#utility.yul\":7865:7888   */\n      sub\n        /* \"#utility.yul\":7861:7893   */\n      slt\n        /* \"#utility.yul\":7858:7977   */\n      iszero\n      tag_163\n      jumpi\n        /* \"#utility.yul\":7896:7975   */\n      tag_164\n      tag_52\n      jump\t// in\n    tag_164:\n        /* \"#utility.yul\":7858:7977   */\n    tag_163:\n        /* \"#utility.yul\":8016:8017   */\n      0x00\n        /* \"#utility.yul\":8041:8102   */\n      tag_165\n        /* \"#utility.yul\":8094:8101   */\n      dup5\n        /* \"#utility.yul\":8085:8091   */\n      dup3\n        /* \"#utility.yul\":8074:8083   */\n      dup6\n        /* \"#utility.yul\":8070:8092   */\n      add\n        /* \"#utility.yul\":8041:8102   */\n      tag_77\n      jump\t// in\n    tag_165:\n        /* \"#utility.yul\":8031:8102   */\n      swap2\n      pop\n        /* \"#utility.yul\":7987:8112   */\n      pop\n        /* \"#utility.yul\":7774:8119   */\n      swap3\n      swap2\n      pop\n      pop\n      jump\t// out\n        /* \"#utility.yul\":8125:8457   */\n    tag_46:\n        /* \"#utility.yul\":8246:8250   */\n      0x00\n        /* \"#utility.yul\":8284:8286   */\n      0x40\n        /* \"#utility.yul\":8273:8282   */\n      dup3\n        /* \"#utility.yul\":8269:8287   */\n      add\n        /* \"#utility.yul\":8261:8287   */\n      swap1\n      pop\n        /* \"#utility.yul\":8297:8368   */\n      tag_167\n        /* \"#utility.yul\":8365:8366   */\n      0x00\n        /* \"#utility.yul\":8354:8363   */\n      dup4\n        /* \"#utility.yul\":8350:8367   */\n      add\n        /* \"#utility.yul\":8341:8347   */\n      dup6\n        /* \"#utility.yul\":8297:8368   */\n      tag_71\n      jump\t// in\n    tag_167:\n        /* \"#utility.yul\":8378:8450   */\n      tag_168\n        /* \"#utility.yul\":8446:8448   */\n      0x20\n        /* \"#utility.yul\":8435:8444   */\n      dup4\n        /* \"#utility.yul\":8431:8449   */\n      add\n        /* \"#utility.yul\":8422:8428   */\n      dup5\n        /* \"#utility.yul\":8378:8450   */\n      tag_59\n      jump\t// in\n    tag_168:\n        /* \"#utility.yul\":8125:8457   */\n      swap4\n      swap3\n      pop\n      pop\n      pop\n      jump\t// out\n\n    auxdata: 0xa2646970667358221220fa0987ed2ec36a045f230d555e0862c8d043b0ca6205b04b71de237b1eb4dc8d64736f6c634300081a0033\n}\n",
				"bytecode": {
					"linkReferences": {},
					"object": "608060405234801561000f575f80fd5b50604051610931380380610931833981810160405281019061003191906100d4565b805f806101000a81548173ffffffffffffffffffffffffffffffffffffffff021916908373ffffffffffffffffffffffffffffffffffffffff160217905550506100ff565b5f80fd5b5f73ffffffffffffffffffffffffffffffffffffffff82169050919050565b5f6100a38261007a565b9050919050565b6100b381610099565b81146100bd575f80fd5b50565b5f815190506100ce816100aa565b92915050565b5f602082840312156100e9576100e8610076565b5b5f6100f6848285016100c0565b91505092915050565b6108258061010c5f395ff3fe608060405234801561000f575f80fd5b506004361061004a575f3560e01c806385c15d9a1461004e578063b3b98f141461007e578063bd5c54201461009a578063fbe4e720146100b6575b5f80fd5b61006860048036038101906100639190610420565b6100d4565b6040516100759190610463565b60405180910390f35b610098600480360381019061009391906104a6565b6100e9565b005b6100b460048036038101906100af91906104a6565b610359565b005b6100be61039f565b6040516100cb919061053f565b60405180910390f35b6001602052805f5260405f205f915090505481565b5f8290505f60015f8573ffffffffffffffffffffffffffffffffffffffff1673ffffffffffffffffffffffffffffffffffffffff1681526020019081526020015f205490505f8111610170576040517f08c379a0000000000000000000000000000000000000000000000000000000008152600401610167906105d8565b60405180910390fd5b5f818461017d9190610623565b9050838373ffffffffffffffffffffffffffffffffffffffff166370a08231336040518263ffffffff1660e01b81526004016101b99190610673565b602060405180830381865afa1580156101d4573d5f803e3d5ffd5b505050506040513d601f19601f820116820180604052508101906101f891906106a0565b1015610239576040517f08c379a000000000000000000000000000000000000000000000000000000000815260040161023090610715565b60405180910390fd5b8273ffffffffffffffffffffffffffffffffffffffff166323b872dd3330876040518463ffffffff1660e01b815260040161027693929190610733565b6020604051808303815f875af1158015610292573d5f803e3d5ffd5b505050506040513d601f19601f820116820180604052508101906102b6919061079d565b505f8054906101000a900473ffffffffffffffffffffffffffffffffffffffff1673ffffffffffffffffffffffffffffffffffffffff1663a9059cbb33836040518363ffffffff1660e01b81526004016103119291906107c8565b6020604051808303815f875af115801561032d573d5f803e3d5ffd5b505050506040513d601f19601f82011682018060405250810190610351919061079d565b505050505050565b8060015f8473ffffffffffffffffffffffffffffffffffffffff1673ffffffffffffffffffffffffffffffffffffffff1681526020019081526020015f20819055505050565b5f8054906101000a900473ffffffffffffffffffffffffffffffffffffffff1681565b5f80fd5b5f73ffffffffffffffffffffffffffffffffffffffff82169050919050565b5f6103ef826103c6565b9050919050565b6103ff816103e5565b8114610409575f80fd5b50565b5f8135905061041a816103f6565b92915050565b5f60208284031215610435576104346103c2565b5b5f6104428482850161040c565b91505092915050565b5f819050919050565b61045d8161044b565b82525050565b5f6020820190506104765f830184610454565b92915050565b6104858161044b565b811461048f575f80fd5b50565b5f813590506104a08161047c565b92915050565b5f80604083850312156104bc576104bb6103c2565b5b5f6104c98582860161040c565b92505060206104da85828601610492565b9150509250929050565b5f819050919050565b5f6105076105026104fd846103c6565b6104e4565b6103c6565b9050919050565b5f610518826104ed565b9050919050565b5f6105298261050e565b9050919050565b6105398161051f565b82525050565b5f6020820190506105525f830184610530565b92915050565b5f82825260208201905092915050565b7f45786368616e67652072617465206e6f742073657420666f72207468697320745f8201527f6f6b656e00000000000000000000000000000000000000000000000000000000602082015250565b5f6105c2602483610558565b91506105cd82610568565b604082019050919050565b5f6020820190508181035f8301526105ef816105b6565b9050919050565b7f4e487b71000000000000000000000000000000000000000000000000000000005f52601160045260245ffd5b5f61062d8261044b565b91506106388361044b565b92508282026106468161044b565b9150828204841483151761065d5761065c6105f6565b5b5092915050565b61066d816103e5565b82525050565b5f6020820190506106865f830184610664565b92915050565b5f8151905061069a8161047c565b92915050565b5f602082840312156106b5576106b46103c2565b5b5f6106c28482850161068c565b91505092915050565b7f496e73756666696369656e74205250542062616c616e636500000000000000005f82015250565b5f6106ff601883610558565b915061070a826106cb565b602082019050919050565b5f6020820190508181035f83015261072c816106f3565b9050919050565b5f6060820190506107465f830186610664565b6107536020830185610664565b6107606040830184610454565b949350505050565b5f8115159050919050565b61077c81610768565b8114610786575f80fd5b50565b5f8151905061079781610773565b92915050565b5f602082840312156107b2576107b16103c2565b5b5f6107bf84828501610789565b91505092915050565b5f6040820190506107db5f830185610664565b6107e86020830184610454565b939250505056fea2646970667358221220fa0987ed2ec36a045f230d555e0862c8d043b0ca6205b04b71de237b1eb4dc8d64736f6c634300081a0033",
					"opcodes": "PUSH1 0x80 PUSH1 0x40 MSTORE CALLVALUE DUP1 ISZERO PUSH2 0xF JUMPI PUSH0 DUP1 REVERT JUMPDEST POP PUSH1 0x40 MLOAD PUSH2 0x931 CODESIZE SUB DUP1 PUSH2 0x931 DUP4 CODECOPY DUP2 DUP2 ADD PUSH1 0x40 MSTORE DUP2 ADD SWAP1 PUSH2 0x31 SWAP2 SWAP1 PUSH2 0xD4 JUMP JUMPDEST DUP1 PUSH0 DUP1 PUSH2 0x100 EXP DUP2 SLOAD DUP2 PUSH20 0xFFFFFFFFFFFFFFFFFFFFFFFFFFFFFFFFFFFFFFFF MUL NOT AND SWAP1 DUP4 PUSH20 0xFFFFFFFFFFFFFFFFFFFFFFFFFFFFFFFFFFFFFFFF AND MUL OR SWAP1 SSTORE POP POP PUSH2 0xFF JUMP JUMPDEST PUSH0 DUP1 REVERT JUMPDEST PUSH0 PUSH20 0xFFFFFFFFFFFFFFFFFFFFFFFFFFFFFFFFFFFFFFFF DUP3 AND SWAP1 POP SWAP2 SWAP1 POP JUMP JUMPDEST PUSH0 PUSH2 0xA3 DUP3 PUSH2 0x7A JUMP JUMPDEST SWAP1 POP SWAP2 SWAP1 POP JUMP JUMPDEST PUSH2 0xB3 DUP2 PUSH2 0x99 JUMP JUMPDEST DUP2 EQ PUSH2 0xBD JUMPI PUSH0 DUP1 REVERT JUMPDEST POP JUMP JUMPDEST PUSH0 DUP2 MLOAD SWAP1 POP PUSH2 0xCE DUP2 PUSH2 0xAA JUMP JUMPDEST SWAP3 SWAP2 POP POP JUMP JUMPDEST PUSH0 PUSH1 0x20 DUP3 DUP5 SUB SLT ISZERO PUSH2 0xE9 JUMPI PUSH2 0xE8 PUSH2 0x76 JUMP JUMPDEST JUMPDEST PUSH0 PUSH2 0xF6 DUP5 DUP3 DUP6 ADD PUSH2 0xC0 JUMP JUMPDEST SWAP2 POP POP SWAP3 SWAP2 POP POP JUMP JUMPDEST PUSH2 0x825 DUP1 PUSH2 0x10C PUSH0 CODECOPY PUSH0 RETURN INVALID PUSH1 0x80 PUSH1 0x40 MSTORE CALLVALUE DUP1 ISZERO PUSH2 0xF JUMPI PUSH0 DUP1 REVERT JUMPDEST POP PUSH1 0x4 CALLDATASIZE LT PUSH2 0x4A JUMPI PUSH0 CALLDATALOAD PUSH1 0xE0 SHR DUP1 PUSH4 0x85C15D9A EQ PUSH2 0x4E JUMPI DUP1 PUSH4 0xB3B98F14 EQ PUSH2 0x7E JUMPI DUP1 PUSH4 0xBD5C5420 EQ PUSH2 0x9A JUMPI DUP1 PUSH4 0xFBE4E720 EQ PUSH2 0xB6 JUMPI JUMPDEST PUSH0 DUP1 REVERT JUMPDEST PUSH2 0x68 PUSH1 0x4 DUP1 CALLDATASIZE SUB DUP2 ADD SWAP1 PUSH2 0x63 SWAP2 SWAP1 PUSH2 0x420 JUMP JUMPDEST PUSH2 0xD4 JUMP JUMPDEST PUSH1 0x40 MLOAD PUSH2 0x75 SWAP2 SWAP1 PUSH2 0x463 JUMP JUMPDEST PUSH1 0x40 MLOAD DUP1 SWAP2 SUB SWAP1 RETURN JUMPDEST PUSH2 0x98 PUSH1 0x4 DUP1 CALLDATASIZE SUB DUP2 ADD SWAP1 PUSH2 0x93 SWAP2 SWAP1 PUSH2 0x4A6 JUMP JUMPDEST PUSH2 0xE9 JUMP JUMPDEST STOP JUMPDEST PUSH2 0xB4 PUSH1 0x4 DUP1 CALLDATASIZE SUB DUP2 ADD SWAP1 PUSH2 0xAF SWAP2 SWAP1 PUSH2 0x4A6 JUMP JUMPDEST PUSH2 0x359 JUMP JUMPDEST STOP JUMPDEST PUSH2 0xBE PUSH2 0x39F JUMP JUMPDEST PUSH1 0x40 MLOAD PUSH2 0xCB SWAP2 SWAP1 PUSH2 0x53F JUMP JUMPDEST PUSH1 0x40 MLOAD DUP1 SWAP2 SUB SWAP1 RETURN JUMPDEST PUSH1 0x1 PUSH1 0x20 MSTORE DUP1 PUSH0 MSTORE PUSH1 0x40 PUSH0 KECCAK256 PUSH0 SWAP2 POP SWAP1 POP SLOAD DUP2 JUMP JUMPDEST PUSH0 DUP3 SWAP1 POP PUSH0 PUSH1 0x1 PUSH0 DUP6 PUSH20 0xFFFFFFFFFFFFFFFFFFFFFFFFFFFFFFFFFFFFFFFF AND PUSH20 0xFFFFFFFFFFFFFFFFFFFFFFFFFFFFFFFFFFFFFFFF AND DUP2 MSTORE PUSH1 0x20 ADD SWAP1 DUP2 MSTORE PUSH1 0x20 ADD PUSH0 KECCAK256 SLOAD SWAP1 POP PUSH0 DUP2 GT PUSH2 0x170 JUMPI PUSH1 0x40 MLOAD PUSH32 0x8C379A000000000000000000000000000000000000000000000000000000000 DUP2 MSTORE PUSH1 0x4 ADD PUSH2 0x167 SWAP1 PUSH2 0x5D8 JUMP JUMPDEST PUSH1 0x40 MLOAD DUP1 SWAP2 SUB SWAP1 REVERT JUMPDEST PUSH0 DUP2 DUP5 PUSH2 0x17D SWAP2 SWAP1 PUSH2 0x623 JUMP JUMPDEST SWAP1 POP DUP4 DUP4 PUSH20 0xFFFFFFFFFFFFFFFFFFFFFFFFFFFFFFFFFFFFFFFF AND PUSH4 0x70A08231 CALLER PUSH1 0x40 MLOAD DUP3 PUSH4 0xFFFFFFFF AND PUSH1 0xE0 SHL DUP2 MSTORE PUSH1 0x4 ADD PUSH2 0x1B9 SWAP2 SWAP1 PUSH2 0x673 JUMP JUMPDEST PUSH1 0x20 PUSH1 0x40 MLOAD DUP1 DUP4 SUB DUP2 DUP7 GAS STATICCALL ISZERO DUP1 ISZERO PUSH2 0x1D4 JUMPI RETURNDATASIZE PUSH0 DUP1 RETURNDATACOPY RETURNDATASIZE PUSH0 REVERT JUMPDEST POP POP POP POP PUSH1 0x40 MLOAD RETURNDATASIZE PUSH1 0x1F NOT PUSH1 0x1F DUP3 ADD AND DUP3 ADD DUP1 PUSH1 0x40 MSTORE POP DUP2 ADD SWAP1 PUSH2 0x1F8 SWAP2 SWAP1 PUSH2 0x6A0 JUMP JUMPDEST LT ISZERO PUSH2 0x239 JUMPI PUSH1 0x40 MLOAD PUSH32 0x8C379A000000000000000000000000000000000000000000000000000000000 DUP2 MSTORE PUSH1 0x4 ADD PUSH2 0x230 SWAP1 PUSH2 0x715 JUMP JUMPDEST PUSH1 0x40 MLOAD DUP1 SWAP2 SUB SWAP1 REVERT JUMPDEST DUP3 PUSH20 0xFFFFFFFFFFFFFFFFFFFFFFFFFFFFFFFFFFFFFFFF AND PUSH4 0x23B872DD CALLER ADDRESS DUP8 PUSH1 0x40 MLOAD DUP5 PUSH4 0xFFFFFFFF AND PUSH1 0xE0 SHL DUP2 MSTORE PUSH1 0x4 ADD PUSH2 0x276 SWAP4 SWAP3 SWAP2 SWAP1 PUSH2 0x733 JUMP JUMPDEST PUSH1 0x20 PUSH1 0x40 MLOAD DUP1 DUP4 SUB DUP2 PUSH0 DUP8 GAS CALL ISZERO DUP1 ISZERO PUSH2 0x292 JUMPI RETURNDATASIZE PUSH0 DUP1 RETURNDATACOPY RETURNDATASIZE PUSH0 REVERT JUMPDEST POP POP POP POP PUSH1 0x40 MLOAD RETURNDATASIZE PUSH1 0x1F NOT PUSH1 0x1F DUP3 ADD AND DUP3 ADD DUP1 PUSH1 0x40 MSTORE POP DUP2 ADD SWAP1 PUSH2 0x2B6 SWAP2 SWAP1 PUSH2 0x79D JUMP JUMPDEST POP PUSH0 DUP1 SLOAD SWAP1 PUSH2 0x100 EXP SWAP1 DIV PUSH20 0xFFFFFFFFFFFFFFFFFFFFFFFFFFFFFFFFFFFFFFFF AND PUSH20 0xFFFFFFFFFFFFFFFFFFFFFFFFFFFFFFFFFFFFFFFF AND PUSH4 0xA9059CBB CALLER DUP4 PUSH1 0x40 MLOAD DUP4 PUSH4 0xFFFFFFFF AND PUSH1 0xE0 SHL DUP2 MSTORE PUSH1 0x4 ADD PUSH2 0x311 SWAP3 SWAP2 SWAP1 PUSH2 0x7C8 JUMP JUMPDEST PUSH1 0x20 PUSH1 0x40 MLOAD DUP1 DUP4 SUB DUP2 PUSH0 DUP8 GAS CALL ISZERO DUP1 ISZERO PUSH2 0x32D JUMPI RETURNDATASIZE PUSH0 DUP1 RETURNDATACOPY RETURNDATASIZE PUSH0 REVERT JUMPDEST POP POP POP POP PUSH1 0x40 MLOAD RETURNDATASIZE PUSH1 0x1F NOT PUSH1 0x1F DUP3 ADD AND DUP3 ADD DUP1 PUSH1 0x40 MSTORE POP DUP2 ADD SWAP1 PUSH2 0x351 SWAP2 SWAP1 PUSH2 0x79D JUMP JUMPDEST POP POP POP POP POP POP JUMP JUMPDEST DUP1 PUSH1 0x1 PUSH0 DUP5 PUSH20 0xFFFFFFFFFFFFFFFFFFFFFFFFFFFFFFFFFFFFFFFF AND PUSH20 0xFFFFFFFFFFFFFFFFFFFFFFFFFFFFFFFFFFFFFFFF AND DUP2 MSTORE PUSH1 0x20 ADD SWAP1 DUP2 MSTORE PUSH1 0x20 ADD PUSH0 KECCAK256 DUP2 SWAP1 SSTORE POP POP POP JUMP JUMPDEST PUSH0 DUP1 SLOAD SWAP1 PUSH2 0x100 EXP SWAP1 DIV PUSH20 0xFFFFFFFFFFFFFFFFFFFFFFFFFFFFFFFFFFFFFFFF AND DUP2 JUMP JUMPDEST PUSH0 DUP1 REVERT JUMPDEST PUSH0 PUSH20 0xFFFFFFFFFFFFFFFFFFFFFFFFFFFFFFFFFFFFFFFF DUP3 AND SWAP1 POP SWAP2 SWAP1 POP JUMP JUMPDEST PUSH0 PUSH2 0x3EF DUP3 PUSH2 0x3C6 JUMP JUMPDEST SWAP1 POP SWAP2 SWAP1 POP JUMP JUMPDEST PUSH2 0x3FF DUP2 PUSH2 0x3E5 JUMP JUMPDEST DUP2 EQ PUSH2 0x409 JUMPI PUSH0 DUP1 REVERT JUMPDEST POP JUMP JUMPDEST PUSH0 DUP2 CALLDATALOAD SWAP1 POP PUSH2 0x41A DUP2 PUSH2 0x3F6 JUMP JUMPDEST SWAP3 SWAP2 POP POP JUMP JUMPDEST PUSH0 PUSH1 0x20 DUP3 DUP5 SUB SLT ISZERO PUSH2 0x435 JUMPI PUSH2 0x434 PUSH2 0x3C2 JUMP JUMPDEST JUMPDEST PUSH0 PUSH2 0x442 DUP5 DUP3 DUP6 ADD PUSH2 0x40C JUMP JUMPDEST SWAP2 POP POP SWAP3 SWAP2 POP POP JUMP JUMPDEST PUSH0 DUP2 SWAP1 POP SWAP2 SWAP1 POP JUMP JUMPDEST PUSH2 0x45D DUP2 PUSH2 0x44B JUMP JUMPDEST DUP3 MSTORE POP POP JUMP JUMPDEST PUSH0 PUSH1 0x20 DUP3 ADD SWAP1 POP PUSH2 0x476 PUSH0 DUP4 ADD DUP5 PUSH2 0x454 JUMP JUMPDEST SWAP3 SWAP2 POP POP JUMP JUMPDEST PUSH2 0x485 DUP2 PUSH2 0x44B JUMP JUMPDEST DUP2 EQ PUSH2 0x48F JUMPI PUSH0 DUP1 REVERT JUMPDEST POP JUMP JUMPDEST PUSH0 DUP2 CALLDATALOAD SWAP1 POP PUSH2 0x4A0 DUP2 PUSH2 0x47C JUMP JUMPDEST SWAP3 SWAP2 POP POP JUMP JUMPDEST PUSH0 DUP1 PUSH1 0x40 DUP4 DUP6 SUB SLT ISZERO PUSH2 0x4BC JUMPI PUSH2 0x4BB PUSH2 0x3C2 JUMP JUMPDEST JUMPDEST PUSH0 PUSH2 0x4C9 DUP6 DUP3 DUP7 ADD PUSH2 0x40C JUMP JUMPDEST SWAP3 POP POP PUSH1 0x20 PUSH2 0x4DA DUP6 DUP3 DUP7 ADD PUSH2 0x492 JUMP JUMPDEST SWAP2 POP POP SWAP3 POP SWAP3 SWAP1 POP JUMP JUMPDEST PUSH0 DUP2 SWAP1 POP SWAP2 SWAP1 POP JUMP JUMPDEST PUSH0 PUSH2 0x507 PUSH2 0x502 PUSH2 0x4FD DUP5 PUSH2 0x3C6 JUMP JUMPDEST PUSH2 0x4E4 JUMP JUMPDEST PUSH2 0x3C6 JUMP JUMPDEST SWAP1 POP SWAP2 SWAP1 POP JUMP JUMPDEST PUSH0 PUSH2 0x518 DUP3 PUSH2 0x4ED JUMP JUMPDEST SWAP1 POP SWAP2 SWAP1 POP JUMP JUMPDEST PUSH0 PUSH2 0x529 DUP3 PUSH2 0x50E JUMP JUMPDEST SWAP1 POP SWAP2 SWAP1 POP JUMP JUMPDEST PUSH2 0x539 DUP2 PUSH2 0x51F JUMP JUMPDEST DUP3 MSTORE POP POP JUMP JUMPDEST PUSH0 PUSH1 0x20 DUP3 ADD SWAP1 POP PUSH2 0x552 PUSH0 DUP4 ADD DUP5 PUSH2 0x530 JUMP JUMPDEST SWAP3 SWAP2 POP POP JUMP JUMPDEST PUSH0 DUP3 DUP3 MSTORE PUSH1 0x20 DUP3 ADD SWAP1 POP SWAP3 SWAP2 POP POP JUMP JUMPDEST PUSH32 0x45786368616E67652072617465206E6F742073657420666F7220746869732074 PUSH0 DUP3 ADD MSTORE PUSH32 0x6F6B656E00000000000000000000000000000000000000000000000000000000 PUSH1 0x20 DUP3 ADD MSTORE POP JUMP JUMPDEST PUSH0 PUSH2 0x5C2 PUSH1 0x24 DUP4 PUSH2 0x558 JUMP JUMPDEST SWAP2 POP PUSH2 0x5CD DUP3 PUSH2 0x568 JUMP JUMPDEST PUSH1 0x40 DUP3 ADD SWAP1 POP SWAP2 SWAP1 POP JUMP JUMPDEST PUSH0 PUSH1 0x20 DUP3 ADD SWAP1 POP DUP2 DUP2 SUB PUSH0 DUP4 ADD MSTORE PUSH2 0x5EF DUP2 PUSH2 0x5B6 JUMP JUMPDEST SWAP1 POP SWAP2 SWAP1 POP JUMP JUMPDEST PUSH32 0x4E487B7100000000000000000000000000000000000000000000000000000000 PUSH0 MSTORE PUSH1 0x11 PUSH1 0x4 MSTORE PUSH1 0x24 PUSH0 REVERT JUMPDEST PUSH0 PUSH2 0x62D DUP3 PUSH2 0x44B JUMP JUMPDEST SWAP2 POP PUSH2 0x638 DUP4 PUSH2 0x44B JUMP JUMPDEST SWAP3 POP DUP3 DUP3 MUL PUSH2 0x646 DUP2 PUSH2 0x44B JUMP JUMPDEST SWAP2 POP DUP3 DUP3 DIV DUP5 EQ DUP4 ISZERO OR PUSH2 0x65D JUMPI PUSH2 0x65C PUSH2 0x5F6 JUMP JUMPDEST JUMPDEST POP SWAP3 SWAP2 POP POP JUMP JUMPDEST PUSH2 0x66D DUP2 PUSH2 0x3E5 JUMP JUMPDEST DUP3 MSTORE POP POP JUMP JUMPDEST PUSH0 PUSH1 0x20 DUP3 ADD SWAP1 POP PUSH2 0x686 PUSH0 DUP4 ADD DUP5 PUSH2 0x664 JUMP JUMPDEST SWAP3 SWAP2 POP POP JUMP JUMPDEST PUSH0 DUP2 MLOAD SWAP1 POP PUSH2 0x69A DUP2 PUSH2 0x47C JUMP JUMPDEST SWAP3 SWAP2 POP POP JUMP JUMPDEST PUSH0 PUSH1 0x20 DUP3 DUP5 SUB SLT ISZERO PUSH2 0x6B5 JUMPI PUSH2 0x6B4 PUSH2 0x3C2 JUMP JUMPDEST JUMPDEST PUSH0 PUSH2 0x6C2 DUP5 DUP3 DUP6 ADD PUSH2 0x68C JUMP JUMPDEST SWAP2 POP POP SWAP3 SWAP2 POP POP JUMP JUMPDEST PUSH32 0x496E73756666696369656E74205250542062616C616E63650000000000000000 PUSH0 DUP3 ADD MSTORE POP JUMP JUMPDEST PUSH0 PUSH2 0x6FF PUSH1 0x18 DUP4 PUSH2 0x558 JUMP JUMPDEST SWAP2 POP PUSH2 0x70A DUP3 PUSH2 0x6CB JUMP JUMPDEST PUSH1 0x20 DUP3 ADD SWAP1 POP SWAP2 SWAP1 POP JUMP JUMPDEST PUSH0 PUSH1 0x20 DUP3 ADD SWAP1 POP DUP2 DUP2 SUB PUSH0 DUP4 ADD MSTORE PUSH2 0x72C DUP2 PUSH2 0x6F3 JUMP JUMPDEST SWAP1 POP SWAP2 SWAP1 POP JUMP JUMPDEST PUSH0 PUSH1 0x60 DUP3 ADD SWAP1 POP PUSH2 0x746 PUSH0 DUP4 ADD DUP7 PUSH2 0x664 JUMP JUMPDEST PUSH2 0x753 PUSH1 0x20 DUP4 ADD DUP6 PUSH2 0x664 JUMP JUMPDEST PUSH2 0x760 PUSH1 0x40 DUP4 ADD DUP5 PUSH2 0x454 JUMP JUMPDEST SWAP5 SWAP4 POP POP POP POP JUMP JUMPDEST PUSH0 DUP2 ISZERO ISZERO SWAP1 POP SWAP2 SWAP1 POP JUMP JUMPDEST PUSH2 0x77C DUP2 PUSH2 0x768 JUMP JUMPDEST DUP2 EQ PUSH2 0x786 JUMPI PUSH0 DUP1 REVERT JUMPDEST POP JUMP JUMPDEST PUSH0 DUP2 MLOAD SWAP1 POP PUSH2 0x797 DUP2 PUSH2 0x773 JUMP JUMPDEST SWAP3 SWAP2 POP POP JUMP JUMPDEST PUSH0 PUSH1 0x20 DUP3 DUP5 SUB SLT ISZERO PUSH2 0x7B2 JUMPI PUSH2 0x7B1 PUSH2 0x3C2 JUMP JUMPDEST JUMPDEST PUSH0 PUSH2 0x7BF DUP5 DUP3 DUP6 ADD PUSH2 0x789 JUMP JUMPDEST SWAP2 POP POP SWAP3 SWAP2 POP POP JUMP JUMPDEST PUSH0 PUSH1 0x40 DUP3 ADD SWAP1 POP PUSH2 0x7DB PUSH0 DUP4 ADD DUP6 PUSH2 0x664 JUMP JUMPDEST PUSH2 0x7E8 PUSH1 0x20 DUP4 ADD DUP5 PUSH2 0x454 JUMP JUMPDEST SWAP4 SWAP3 POP POP POP JUMP INVALID LOG2 PUSH5 0x6970667358 0x22 SLT KECCAK256 STATICCALL MULMOD DUP8 0xED 0x2E 0xC3 PUSH11 0x45F230D555E0862C8D043 0xB0 0xCA PUSH3 0x5B04B PUSH18 0xDE237B1EB4DC8D64736F6C634300081A0033 "
				},
				"gasEstimates": {
					"creation": {
						"codeDepositCost": "417000",
						"executionCost": "infinite",
						"totalCost": "infinite"
					},
					"external": {
						"exchangeRPTToUPT(address,uint256)": "infinite",
						"exchangeRates(address)": "2780",
						"setExchangeRate(address,uint256)": "22844",
						"universalPoints()": "infinite"
					}
				},
				"methodIdentifiers": {
					"exchangeRPTToUPT(address,uint256)": "b3b98f14",
					"exchangeRates(address)": "85c15d9a",
					"setExchangeRate(address,uint256)": "bd5c5420",
					"universalPoints()": "fbe4e720"
				}
			},
			"storageLayout": {
				"storage": [
					{
						"astId": 940,
						"contract": "contracts/test_demo/PointsExchange.sol:PointsExchange",
						"label": "universalPoints",
						"offset": 0,
						"slot": "0",
						"type": "t_contract(UniversalPoints)1138"
					},
					{
						"astId": 944,
						"contract": "contracts/test_demo/PointsExchange.sol:PointsExchange",
						"label": "exchangeRates",
						"offset": 0,
						"slot": "1",
						"type": "t_mapping(t_address,t_uint256)"
					}
				],
				"types": {
					"t_address": {
						"encoding": "inplace",
						"label": "address",
						"numberOfBytes": "20"
					},
					"t_contract(UniversalPoints)1138": {
						"encoding": "inplace",
						"label": "contract UniversalPoints",
						"numberOfBytes": "20"
					},
					"t_mapping(t_address,t_uint256)": {
						"encoding": "mapping",
						"key": "t_address",
						"label": "mapping(address => uint256)",
						"numberOfBytes": "32",
						"value": "t_uint256"
					},
					"t_uint256": {
						"encoding": "inplace",
						"label": "uint256",
						"numberOfBytes": "32"
					}
				}
			},
			"userdoc": {
				"kind": "user",
				"methods": {},
				"version": 1
			}
		}
	}
}