{
	"contracts/test_demo/TestArrayDemo.sol": {
		"TestArrayDemo": {
			"abi": [
				{
					"inputs": [],
					"name": "getArray",
					"outputs": [
						{
							"internalType": "uint256[3]",
							"name": "",
							"type": "uint256[3]"
						}
					],
					"stateMutability": "view",
					"type": "function"
				},
				{
					"inputs": [
						{
							"internalType": "uint256",
							"name": "index",
							"type": "uint256"
						}
					],
					"name": "getElement",
					"outputs": [
						{
							"internalType": "uint256",
							"name": "",
							"type": "uint256"
						}
					],
					"stateMutability": "view",
					"type": "function"
				},
				{
					"inputs": [],
					"name": "getSumElements",
					"outputs": [
						{
							"internalType": "uint256",
							"name": "",
							"type": "uint256"
						}
					],
					"stateMutability": "view",
					"type": "function"
				},
				{
					"inputs": [],
					"name": "initArray",
					"outputs": [],
					"stateMutability": "nonpayable",
					"type": "function"
				},
				{
					"inputs": [
						{
							"internalType": "uint256[]",
							"name": "arr",
							"type": "uint256[]"
						}
					],
					"name": "sumElements",
					"outputs": [
						{
							"internalType": "uint256",
							"name": "",
							"type": "uint256"
						}
					],
					"stateMutability": "pure",
					"type": "function"
				},
				{
					"inputs": [
						{
							"internalType": "uint256",
							"name": "",
							"type": "uint256"
						}
					],
					"name": "uintArray",
					"outputs": [
						{
							"internalType": "uint256",
							"name": "",
							"type": "uint256"
						}
					],
					"stateMutability": "view",
					"type": "function"
				}
			],
			"devdoc": {
				"kind": "dev",
				"methods": {},
				"version": 1
			},
			"evm": {
				"assembly": "    /* \"contracts/test_demo/TestArrayDemo.sol\":60:1157  contract TestArrayDemo {... */\n  mstore(0x40, 0x80)\n  callvalue\n  dup1\n  iszero\n  tag_1\n  jumpi\n  0x00\n  dup1\n  revert\ntag_1:\n  pop\n  dataSize(sub_0)\n  dup1\n  dataOffset(sub_0)\n  0x00\n  codecopy\n  0x00\n  return\nstop\n\nsub_0: assembly {\n        /* \"contracts/test_demo/TestArrayDemo.sol\":60:1157  contract TestArrayDemo {... */\n      mstore(0x40, 0x80)\n      callvalue\n      dup1\n      iszero\n      tag_1\n      jumpi\n      0x00\n      dup1\n      revert\n    tag_1:\n      pop\n      jumpi(tag_2, lt(calldatasize, 0x04))\n      shr(0xe0, calldataload(0x00))\n      dup1\n      0x3a7d22bc\n      eq\n      tag_3\n      jumpi\n      dup1\n      0x3c0db5d4\n      eq\n      tag_4\n      jumpi\n      dup1\n      0x82a8181b\n      eq\n      tag_5\n      jumpi\n      dup1\n      0x9ae918c7\n      eq\n      tag_6\n      jumpi\n      dup1\n      0xd504ea1d\n      eq\n      tag_7\n      jumpi\n      dup1\n      0xf2ab9384\n      eq\n      tag_8\n      jumpi\n    tag_2:\n      0x00\n      dup1\n      revert\n        /* \"contracts/test_demo/TestArrayDemo.sol\":311:412  function getElement(uint index) public view returns (uint) {... */\n    tag_3:\n      tag_9\n      0x04\n      dup1\n      calldatasize\n      sub\n      dup2\n      add\n      swap1\n      tag_10\n      swap2\n      swap1\n      tag_11\n      jump\t// in\n    tag_10:\n      tag_12\n      jump\t// in\n    tag_9:\n      mload(0x40)\n      tag_13\n      swap2\n      swap1\n      tag_14\n      jump\t// in\n    tag_13:\n      mload(0x40)\n      dup1\n      swap2\n      sub\n      swap1\n      return\n        /* \"contracts/test_demo/TestArrayDemo.sol\":878:1154  function getSumElements() public view returns (uint) {... */\n    tag_4:\n      tag_15\n      tag_16\n      jump\t// in\n    tag_15:\n      mload(0x40)\n      tag_17\n      swap2\n      swap1\n      tag_14\n      jump\t// in\n    tag_17:\n      mload(0x40)\n      dup1\n      swap2\n      sub\n      swap1\n      return\n        /* \"contracts/test_demo/TestArrayDemo.sol\":121:267  function initArray() public {... */\n    tag_5:\n      tag_18\n      tag_19\n      jump\t// in\n    tag_18:\n      stop\n        /* \"contracts/test_demo/TestArrayDemo.sol\":90:114  uint[3] public uintArray */\n    tag_6:\n      tag_20\n      0x04\n      dup1\n      calldatasize\n      sub\n      dup2\n      add\n      swap1\n      tag_21\n      swap2\n      swap1\n      tag_11\n      jump\t// in\n    tag_21:\n      tag_22\n      jump\t// in\n    tag_20:\n      mload(0x40)\n      tag_23\n      swap2\n      swap1\n      tag_14\n      jump\t// in\n    tag_23:\n      mload(0x40)\n      dup1\n      swap2\n      sub\n      swap1\n      return\n        /* \"contracts/test_demo/TestArrayDemo.sol\":447:539  function getArray() public view returns (uint[3] memory) {... */\n    tag_7:\n      tag_24\n      tag_25\n      jump\t// in\n    tag_24:\n      mload(0x40)\n      tag_26\n      swap2\n      swap1\n      tag_27\n      jump\t// in\n    tag_26:\n      mload(0x40)\n      dup1\n      swap2\n      sub\n      swap1\n      return\n        /* \"contracts/test_demo/TestArrayDemo.sol\":617:828  function sumElements(uint[] calldata arr) external pure returns (uint) {... */\n    tag_8:\n      tag_28\n      0x04\n      dup1\n      calldatasize\n      sub\n      dup2\n      add\n      swap1\n      tag_29\n      swap2\n      swap1\n      tag_30\n      jump\t// in\n    tag_29:\n      tag_31\n      jump\t// in\n    tag_28:\n      mload(0x40)\n      tag_32\n      swap2\n      swap1\n      tag_14\n      jump\t// in\n    tag_32:\n      mload(0x40)\n      dup1\n      swap2\n      sub\n      swap1\n      return\n        /* \"contracts/test_demo/TestArrayDemo.sol\":311:412  function getElement(uint index) public view returns (uint) {... */\n    tag_12:\n        /* \"contracts/test_demo/TestArrayDemo.sol\":364:368  uint */\n      0x00\n        /* \"contracts/test_demo/TestArrayDemo.sol\":388:397  uintArray */\n      dup1\n        /* \"contracts/test_demo/TestArrayDemo.sol\":398:403  index */\n      dup3\n        /* \"contracts/test_demo/TestArrayDemo.sol\":388:404  uintArray[index] */\n      0x03\n      dup2\n      lt\n      tag_34\n      jumpi\n      tag_35\n      tag_36\n      jump\t// in\n    tag_35:\n    tag_34:\n      add\n      sload\n        /* \"contracts/test_demo/TestArrayDemo.sol\":381:404  return uintArray[index] */\n      swap1\n      pop\n        /* \"contracts/test_demo/TestArrayDemo.sol\":311:412  function getElement(uint index) public view returns (uint) {... */\n      swap2\n      swap1\n      pop\n      jump\t// out\n        /* \"contracts/test_demo/TestArrayDemo.sol\":878:1154  function getSumElements() public view returns (uint) {... */\n    tag_16:\n        /* \"contracts/test_demo/TestArrayDemo.sol\":925:929  uint */\n      0x00\n        /* \"contracts/test_demo/TestArrayDemo.sol\":942:964  uint[] memory elements */\n      dup1\n        /* \"contracts/test_demo/TestArrayDemo.sol\":978:994  uintArray.length */\n      0x03\n        /* \"contracts/test_demo/TestArrayDemo.sol\":967:995  new uint[](uintArray.length) */\n      0xffffffffffffffff\n      dup2\n      gt\n      iszero\n      tag_39\n      jumpi\n      tag_40\n      tag_41\n      jump\t// in\n    tag_40:\n    tag_39:\n      mload(0x40)\n      swap1\n      dup1\n      dup3\n      mstore\n      dup1\n      0x20\n      mul\n      0x20\n      add\n      dup3\n      add\n      0x40\n      mstore\n      dup1\n      iszero\n      tag_42\n      jumpi\n      dup2\n      0x20\n      add\n      0x20\n      dup3\n      mul\n      dup1\n      calldatasize\n      dup4\n      calldatacopy\n      dup1\n      dup3\n      add\n      swap2\n      pop\n      pop\n      swap1\n      pop\n    tag_42:\n      pop\n        /* \"contracts/test_demo/TestArrayDemo.sol\":942:995  uint[] memory elements = new uint[](uintArray.length) */\n      swap1\n      pop\n        /* \"contracts/test_demo/TestArrayDemo.sol\":1011:1017  uint i */\n      0x00\n        /* \"contracts/test_demo/TestArrayDemo.sol\":1006:1103  for (uint i = 0; i < uintArray.length; i++) {... */\n    tag_43:\n        /* \"contracts/test_demo/TestArrayDemo.sol\":1027:1043  uintArray.length */\n      0x03\n        /* \"contracts/test_demo/TestArrayDemo.sol\":1023:1024  i */\n      dup2\n        /* \"contracts/test_demo/TestArrayDemo.sol\":1023:1043  i < uintArray.length */\n      lt\n        /* \"contracts/test_demo/TestArrayDemo.sol\":1006:1103  for (uint i = 0; i < uintArray.length; i++) {... */\n      iszero\n      tag_44\n      jumpi\n        /* \"contracts/test_demo/TestArrayDemo.sol\":1079:1088  uintArray */\n      0x00\n        /* \"contracts/test_demo/TestArrayDemo.sol\":1089:1090  i */\n      dup2\n        /* \"contracts/test_demo/TestArrayDemo.sol\":1079:1091  uintArray[i] */\n      0x03\n      dup2\n      lt\n      tag_46\n      jumpi\n      tag_47\n      tag_36\n      jump\t// in\n    tag_47:\n    tag_46:\n      add\n      sload\n        /* \"contracts/test_demo/TestArrayDemo.sol\":1065:1073  elements */\n      dup3\n        /* \"contracts/test_demo/TestArrayDemo.sol\":1074:1075  i */\n      dup3\n        /* \"contracts/test_demo/TestArrayDemo.sol\":1065:1076  elements[i] */\n      dup2\n      mload\n      dup2\n      lt\n      tag_49\n      jumpi\n      tag_50\n      tag_36\n      jump\t// in\n    tag_50:\n    tag_49:\n      0x20\n      mul\n      0x20\n      add\n      add\n        /* \"contracts/test_demo/TestArrayDemo.sol\":1065:1091  elements[i] = uintArray[i] */\n      dup2\n      dup2\n      mstore\n      pop\n      pop\n        /* \"contracts/test_demo/TestArrayDemo.sol\":1045:1048  i++ */\n      dup1\n      dup1\n      0x01\n      add\n      swap2\n      pop\n      pop\n        /* \"contracts/test_demo/TestArrayDemo.sol\":1006:1103  for (uint i = 0; i < uintArray.length; i++) {... */\n      jump(tag_43)\n    tag_44:\n      pop\n        /* \"contracts/test_demo/TestArrayDemo.sol\":1120:1124  this */\n      address\n        /* \"contracts/test_demo/TestArrayDemo.sol\":1120:1136  this.sumElements */\n      0xffffffffffffffffffffffffffffffffffffffff\n      and\n      0xf2ab9384\n        /* \"contracts/test_demo/TestArrayDemo.sol\":1137:1145  elements */\n      dup3\n        /* \"contracts/test_demo/TestArrayDemo.sol\":1120:1146  this.sumElements(elements) */\n      mload(0x40)\n      dup3\n      0xffffffff\n      and\n      0xe0\n      shl\n      dup2\n      mstore\n      0x04\n      add\n      tag_51\n      swap2\n      swap1\n      tag_52\n      jump\t// in\n    tag_51:\n      0x20\n      mload(0x40)\n      dup1\n      dup4\n      sub\n      dup2\n      dup7\n      gas\n      staticcall\n      iszero\n      dup1\n      iszero\n      tag_54\n      jumpi\n      returndatasize\n      0x00\n      dup1\n      returndatacopy\n      revert(0x00, returndatasize)\n    tag_54:\n      pop\n      pop\n      pop\n      pop\n      mload(0x40)\n      returndatasize\n      not(0x1f)\n      0x1f\n      dup3\n      add\n      and\n      dup3\n      add\n      dup1\n      0x40\n      mstore\n      pop\n      dup2\n      add\n      swap1\n      tag_55\n      swap2\n      swap1\n      tag_56\n      jump\t// in\n    tag_55:\n        /* \"contracts/test_demo/TestArrayDemo.sol\":1113:1146  return this.sumElements(elements) */\n      swap2\n      pop\n      pop\n        /* \"contracts/test_demo/TestArrayDemo.sol\":878:1154  function getSumElements() public view returns (uint) {... */\n      swap1\n      jump\t// out\n        /* \"contracts/test_demo/TestArrayDemo.sol\":121:267  function initArray() public {... */\n    tag_19:\n        /* \"contracts/test_demo/TestArrayDemo.sol\":165:171  uint i */\n      0x00\n        /* \"contracts/test_demo/TestArrayDemo.sol\":160:260  for (uint i = 0; i < uintArray.length; i++) ... */\n    tag_58:\n        /* \"contracts/test_demo/TestArrayDemo.sol\":181:197  uintArray.length */\n      0x03\n        /* \"contracts/test_demo/TestArrayDemo.sol\":177:178  i */\n      dup2\n        /* \"contracts/test_demo/TestArrayDemo.sol\":177:197  i < uintArray.length */\n      lt\n        /* \"contracts/test_demo/TestArrayDemo.sol\":160:260  for (uint i = 0; i < uintArray.length; i++) ... */\n      iszero\n      tag_59\n      jumpi\n        /* \"contracts/test_demo/TestArrayDemo.sol\":246:248  10 */\n      0x0a\n        /* \"contracts/test_demo/TestArrayDemo.sol\":244:245  i */\n      dup2\n        /* \"contracts/test_demo/TestArrayDemo.sol\":244:248  i*10 */\n      tag_61\n      swap2\n      swap1\n      tag_62\n      jump\t// in\n    tag_61:\n        /* \"contracts/test_demo/TestArrayDemo.sol\":229:238  uintArray */\n      0x00\n        /* \"contracts/test_demo/TestArrayDemo.sol\":239:240  i */\n      dup3\n        /* \"contracts/test_demo/TestArrayDemo.sol\":229:241  uintArray[i] */\n      0x03\n      dup2\n      lt\n      tag_63\n      jumpi\n      tag_64\n      tag_36\n      jump\t// in\n    tag_64:\n    tag_63:\n      add\n        /* \"contracts/test_demo/TestArrayDemo.sol\":229:248  uintArray[i] = i*10 */\n      dup2\n      swap1\n      sstore\n      pop\n        /* \"contracts/test_demo/TestArrayDemo.sol\":199:202  i++ */\n      dup1\n      dup1\n      0x01\n      add\n      swap2\n      pop\n      pop\n        /* \"contracts/test_demo/TestArrayDemo.sol\":160:260  for (uint i = 0; i < uintArray.length; i++) ... */\n      jump(tag_58)\n    tag_59:\n      pop\n        /* \"contracts/test_demo/TestArrayDemo.sol\":121:267  function initArray() public {... */\n      jump\t// out\n        /* \"contracts/test_demo/TestArrayDemo.sol\":90:114  uint[3] public uintArray */\n    tag_22:\n      0x00\n      dup2\n      0x03\n      dup2\n      lt\n      tag_66\n      jumpi\n      0x00\n      dup1\n      revert\n    tag_66:\n      add\n      0x00\n      swap2\n      pop\n      swap1\n      pop\n      sload\n      dup2\n      jump\t// out\n        /* \"contracts/test_demo/TestArrayDemo.sol\":447:539  function getArray() public view returns (uint[3] memory) {... */\n    tag_25:\n        /* \"contracts/test_demo/TestArrayDemo.sol\":488:502  uint[3] memory */\n      tag_68\n      tag_69\n      jump\t// in\n    tag_68:\n        /* \"contracts/test_demo/TestArrayDemo.sol\":522:531  uintArray */\n      0x00\n        /* \"contracts/test_demo/TestArrayDemo.sol\":515:531  return uintArray */\n      0x03\n      dup1\n      0x20\n      mul\n      mload(0x40)\n      swap1\n      dup2\n      add\n      0x40\n      mstore\n      dup1\n      swap3\n      swap2\n      swap1\n      dup3\n      0x03\n      dup1\n      iszero\n      tag_71\n      jumpi\n      0x20\n      mul\n      dup3\n      add\n      swap2\n    tag_72:\n      dup2\n      sload\n      dup2\n      mstore\n      0x20\n      add\n      swap1\n      0x01\n      add\n      swap1\n      dup1\n      dup4\n      gt\n      tag_72\n      jumpi\n    tag_71:\n      pop\n      pop\n      pop\n      pop\n      pop\n      swap1\n      pop\n        /* \"contracts/test_demo/TestArrayDemo.sol\":447:539  function getArray() public view returns (uint[3] memory) {... */\n      swap1\n      jump\t// out\n        /* \"contracts/test_demo/TestArrayDemo.sol\":617:828  function sumElements(uint[] calldata arr) external pure returns (uint) {... */\n    tag_31:\n        /* \"contracts/test_demo/TestArrayDemo.sol\":682:686  uint */\n      0x00\n        /* \"contracts/test_demo/TestArrayDemo.sol\":699:707  uint sum */\n      dup1\n        /* \"contracts/test_demo/TestArrayDemo.sol\":710:711  0 */\n      0x00\n        /* \"contracts/test_demo/TestArrayDemo.sol\":699:711  uint sum = 0 */\n      swap1\n      pop\n        /* \"contracts/test_demo/TestArrayDemo.sol\":727:733  uint i */\n      0x00\n        /* \"contracts/test_demo/TestArrayDemo.sol\":722:800  for (uint i = 0; i < arr.length; i++) {... */\n    tag_74:\n        /* \"contracts/test_demo/TestArrayDemo.sol\":743:746  arr */\n      dup5\n      dup5\n        /* \"contracts/test_demo/TestArrayDemo.sol\":743:753  arr.length */\n      swap1\n      pop\n        /* \"contracts/test_demo/TestArrayDemo.sol\":739:740  i */\n      dup2\n        /* \"contracts/test_demo/TestArrayDemo.sol\":739:753  i < arr.length */\n      lt\n        /* \"contracts/test_demo/TestArrayDemo.sol\":722:800  for (uint i = 0; i < arr.length; i++) {... */\n      iszero\n      tag_75\n      jumpi\n        /* \"contracts/test_demo/TestArrayDemo.sol\":782:785  arr */\n      dup5\n      dup5\n        /* \"contracts/test_demo/TestArrayDemo.sol\":786:787  i */\n      dup3\n        /* \"contracts/test_demo/TestArrayDemo.sol\":782:788  arr[i] */\n      dup2\n      dup2\n      lt\n      tag_77\n      jumpi\n      tag_78\n      tag_36\n      jump\t// in\n    tag_78:\n    tag_77:\n      swap1\n      pop\n      0x20\n      mul\n      add\n      calldataload\n        /* \"contracts/test_demo/TestArrayDemo.sol\":775:788  sum += arr[i] */\n      dup3\n      tag_79\n      swap2\n      swap1\n      tag_80\n      jump\t// in\n    tag_79:\n      swap2\n      pop\n        /* \"contracts/test_demo/TestArrayDemo.sol\":755:758  i++ */\n      dup1\n      dup1\n      0x01\n      add\n      swap2\n      pop\n      pop\n        /* \"contracts/test_demo/TestArrayDemo.sol\":722:800  for (uint i = 0; i < arr.length; i++) {... */\n      jump(tag_74)\n    tag_75:\n      pop\n        /* \"contracts/test_demo/TestArrayDemo.sol\":817:820  sum */\n      dup1\n        /* \"contracts/test_demo/TestArrayDemo.sol\":810:820  return sum */\n      swap2\n      pop\n      pop\n        /* \"contracts/test_demo/TestArrayDemo.sol\":617:828  function sumElements(uint[] calldata arr) external pure returns (uint) {... */\n      swap3\n      swap2\n      pop\n      pop\n      jump\t// out\n    tag_69:\n      mload(0x40)\n      dup1\n      0x60\n      add\n      0x40\n      mstore\n      dup1\n      0x03\n      swap1\n      0x20\n      dup3\n      mul\n      dup1\n      calldatasize\n      dup4\n      calldatacopy\n      dup1\n      dup3\n      add\n      swap2\n      pop\n      pop\n      swap1\n      pop\n      pop\n      swap1\n      jump\t// out\n        /* \"#utility.yul\":88:205   */\n    tag_82:\n        /* \"#utility.yul\":197:198   */\n      0x00\n        /* \"#utility.yul\":194:195   */\n      dup1\n        /* \"#utility.yul\":187:199   */\n      revert\n        /* \"#utility.yul\":211:328   */\n    tag_83:\n        /* \"#utility.yul\":320:321   */\n      0x00\n        /* \"#utility.yul\":317:318   */\n      dup1\n        /* \"#utility.yul\":310:322   */\n      revert\n        /* \"#utility.yul\":334:411   */\n    tag_84:\n        /* \"#utility.yul\":371:378   */\n      0x00\n        /* \"#utility.yul\":400:405   */\n      dup2\n        /* \"#utility.yul\":389:405   */\n      swap1\n      pop\n        /* \"#utility.yul\":334:411   */\n      swap2\n      swap1\n      pop\n      jump\t// out\n        /* \"#utility.yul\":417:539   */\n    tag_85:\n        /* \"#utility.yul\":490:514   */\n      tag_112\n        /* \"#utility.yul\":508:513   */\n      dup2\n        /* \"#utility.yul\":490:514   */\n      tag_84\n      jump\t// in\n    tag_112:\n        /* \"#utility.yul\":483:488   */\n      dup2\n        /* \"#utility.yul\":480:515   */\n      eq\n        /* \"#utility.yul\":470:533   */\n      tag_113\n      jumpi\n        /* \"#utility.yul\":529:530   */\n      0x00\n        /* \"#utility.yul\":526:527   */\n      dup1\n        /* \"#utility.yul\":519:531   */\n      revert\n        /* \"#utility.yul\":470:533   */\n    tag_113:\n        /* \"#utility.yul\":417:539   */\n      pop\n      jump\t// out\n        /* \"#utility.yul\":545:684   */\n    tag_86:\n        /* \"#utility.yul\":591:596   */\n      0x00\n        /* \"#utility.yul\":629:635   */\n      dup2\n        /* \"#utility.yul\":616:636   */\n      calldataload\n        /* \"#utility.yul\":607:636   */\n      swap1\n      pop\n        /* \"#utility.yul\":645:678   */\n      tag_115\n        /* \"#utility.yul\":672:677   */\n      dup2\n        /* \"#utility.yul\":645:678   */\n      tag_85\n      jump\t// in\n    tag_115:\n        /* \"#utility.yul\":545:684   */\n      swap3\n      swap2\n      pop\n      pop\n      jump\t// out\n        /* \"#utility.yul\":690:1019   */\n    tag_11:\n        /* \"#utility.yul\":749:755   */\n      0x00\n        /* \"#utility.yul\":798:800   */\n      0x20\n        /* \"#utility.yul\":786:795   */\n      dup3\n        /* \"#utility.yul\":777:784   */\n      dup5\n        /* \"#utility.yul\":773:796   */\n      sub\n        /* \"#utility.yul\":769:801   */\n      slt\n        /* \"#utility.yul\":766:885   */\n      iszero\n      tag_117\n      jumpi\n        /* \"#utility.yul\":804:883   */\n      tag_118\n      tag_82\n      jump\t// in\n    tag_118:\n        /* \"#utility.yul\":766:885   */\n    tag_117:\n        /* \"#utility.yul\":924:925   */\n      0x00\n        /* \"#utility.yul\":949:1002   */\n      tag_119\n        /* \"#utility.yul\":994:1001   */\n      dup5\n        /* \"#utility.yul\":985:991   */\n      dup3\n        /* \"#utility.yul\":974:983   */\n      dup6\n        /* \"#utility.yul\":970:992   */\n      add\n        /* \"#utility.yul\":949:1002   */\n      tag_86\n      jump\t// in\n    tag_119:\n        /* \"#utility.yul\":939:1002   */\n      swap2\n      pop\n        /* \"#utility.yul\":895:1012   */\n      pop\n        /* \"#utility.yul\":690:1019   */\n      swap3\n      swap2\n      pop\n      pop\n      jump\t// out\n        /* \"#utility.yul\":1025:1143   */\n    tag_87:\n        /* \"#utility.yul\":1112:1136   */\n      tag_121\n        /* \"#utility.yul\":1130:1135   */\n      dup2\n        /* \"#utility.yul\":1112:1136   */\n      tag_84\n      jump\t// in\n    tag_121:\n        /* \"#utility.yul\":1107:1110   */\n      dup3\n        /* \"#utility.yul\":1100:1137   */\n      mstore\n        /* \"#utility.yul\":1025:1143   */\n      pop\n      pop\n      jump\t// out\n        /* \"#utility.yul\":1149:1371   */\n    tag_14:\n        /* \"#utility.yul\":1242:1246   */\n      0x00\n        /* \"#utility.yul\":1280:1282   */\n      0x20\n        /* \"#utility.yul\":1269:1278   */\n      dup3\n        /* \"#utility.yul\":1265:1283   */\n      add\n        /* \"#utility.yul\":1257:1283   */\n      swap1\n      pop\n        /* \"#utility.yul\":1293:1364   */\n      tag_123\n        /* \"#utility.yul\":1361:1362   */\n      0x00\n        /* \"#utility.yul\":1350:1359   */\n      dup4\n        /* \"#utility.yul\":1346:1363   */\n      add\n        /* \"#utility.yul\":1337:1343   */\n      dup5\n        /* \"#utility.yul\":1293:1364   */\n      tag_87\n      jump\t// in\n    tag_123:\n        /* \"#utility.yul\":1149:1371   */\n      swap3\n      swap2\n      pop\n      pop\n      jump\t// out\n        /* \"#utility.yul\":1377:1481   */\n    tag_88:\n        /* \"#utility.yul\":1442:1448   */\n      0x00\n        /* \"#utility.yul\":1470:1474   */\n      0x03\n        /* \"#utility.yul\":1460:1474   */\n      swap1\n      pop\n        /* \"#utility.yul\":1377:1481   */\n      swap2\n      swap1\n      pop\n      jump\t// out\n        /* \"#utility.yul\":1487:1630   */\n    tag_89:\n        /* \"#utility.yul\":1584:1595   */\n      0x00\n        /* \"#utility.yul\":1621:1624   */\n      dup2\n        /* \"#utility.yul\":1606:1624   */\n      swap1\n      pop\n        /* \"#utility.yul\":1487:1630   */\n      swap3\n      swap2\n      pop\n      pop\n      jump\t// out\n        /* \"#utility.yul\":1636:1734   */\n    tag_90:\n        /* \"#utility.yul\":1701:1705   */\n      0x00\n        /* \"#utility.yul\":1724:1727   */\n      dup2\n        /* \"#utility.yul\":1716:1727   */\n      swap1\n      pop\n        /* \"#utility.yul\":1636:1734   */\n      swap2\n      swap1\n      pop\n      jump\t// out\n        /* \"#utility.yul\":1740:1848   */\n    tag_91:\n        /* \"#utility.yul\":1817:1841   */\n      tag_128\n        /* \"#utility.yul\":1835:1840   */\n      dup2\n        /* \"#utility.yul\":1817:1841   */\n      tag_84\n      jump\t// in\n    tag_128:\n        /* \"#utility.yul\":1812:1815   */\n      dup3\n        /* \"#utility.yul\":1805:1842   */\n      mstore\n        /* \"#utility.yul\":1740:1848   */\n      pop\n      pop\n      jump\t// out\n        /* \"#utility.yul\":1854:2033   */\n    tag_92:\n        /* \"#utility.yul\":1923:1933   */\n      0x00\n        /* \"#utility.yul\":1944:1990   */\n      tag_130\n        /* \"#utility.yul\":1986:1989   */\n      dup4\n        /* \"#utility.yul\":1978:1984   */\n      dup4\n        /* \"#utility.yul\":1944:1990   */\n      tag_91\n      jump\t// in\n    tag_130:\n        /* \"#utility.yul\":2022:2026   */\n      0x20\n        /* \"#utility.yul\":2017:2020   */\n      dup4\n        /* \"#utility.yul\":2013:2027   */\n      add\n        /* \"#utility.yul\":1999:2027   */\n      swap1\n      pop\n        /* \"#utility.yul\":1854:2033   */\n      swap3\n      swap2\n      pop\n      pop\n      jump\t// out\n        /* \"#utility.yul\":2039:2150   */\n    tag_93:\n        /* \"#utility.yul\":2107:2111   */\n      0x00\n        /* \"#utility.yul\":2139:2143   */\n      0x20\n        /* \"#utility.yul\":2134:2137   */\n      dup3\n        /* \"#utility.yul\":2130:2144   */\n      add\n        /* \"#utility.yul\":2122:2144   */\n      swap1\n      pop\n        /* \"#utility.yul\":2039:2150   */\n      swap2\n      swap1\n      pop\n      jump\t// out\n        /* \"#utility.yul\":2188:2882   */\n    tag_94:\n        /* \"#utility.yul\":2324:2376   */\n      tag_133\n        /* \"#utility.yul\":2370:2375   */\n      dup2\n        /* \"#utility.yul\":2324:2376   */\n      tag_88\n      jump\t// in\n    tag_133:\n        /* \"#utility.yul\":2392:2476   */\n      tag_134\n        /* \"#utility.yul\":2469:2475   */\n      dup2\n        /* \"#utility.yul\":2464:2467   */\n      dup5\n        /* \"#utility.yul\":2392:2476   */\n      tag_89\n      jump\t// in\n    tag_134:\n        /* \"#utility.yul\":2385:2476   */\n      swap3\n      pop\n        /* \"#utility.yul\":2500:2554   */\n      tag_135\n        /* \"#utility.yul\":2548:2553   */\n      dup3\n        /* \"#utility.yul\":2500:2554   */\n      tag_90\n      jump\t// in\n    tag_135:\n        /* \"#utility.yul\":2577:2584   */\n      dup1\n        /* \"#utility.yul\":2608:2609   */\n      0x00\n        /* \"#utility.yul\":2593:2875   */\n    tag_136:\n        /* \"#utility.yul\":2618:2624   */\n      dup4\n        /* \"#utility.yul\":2615:2616   */\n      dup2\n        /* \"#utility.yul\":2612:2625   */\n      lt\n        /* \"#utility.yul\":2593:2875   */\n      iszero\n      tag_138\n      jumpi\n        /* \"#utility.yul\":2694:2700   */\n      dup2\n        /* \"#utility.yul\":2688:2701   */\n      mload\n        /* \"#utility.yul\":2721:2784   */\n      tag_139\n        /* \"#utility.yul\":2780:2783   */\n      dup8\n        /* \"#utility.yul\":2765:2778   */\n      dup3\n        /* \"#utility.yul\":2721:2784   */\n      tag_92\n      jump\t// in\n    tag_139:\n        /* \"#utility.yul\":2714:2784   */\n      swap7\n      pop\n        /* \"#utility.yul\":2807:2865   */\n      tag_140\n        /* \"#utility.yul\":2858:2864   */\n      dup4\n        /* \"#utility.yul\":2807:2865   */\n      tag_93\n      jump\t// in\n    tag_140:\n        /* \"#utility.yul\":2797:2865   */\n      swap3\n      pop\n        /* \"#utility.yul\":2653:2875   */\n      pop\n        /* \"#utility.yul\":2640:2641   */\n      0x01\n        /* \"#utility.yul\":2637:2638   */\n      dup2\n        /* \"#utility.yul\":2633:2642   */\n      add\n        /* \"#utility.yul\":2628:2642   */\n      swap1\n      pop\n        /* \"#utility.yul\":2593:2875   */\n      jump(tag_136)\n    tag_138:\n        /* \"#utility.yul\":2597:2611   */\n      pop\n        /* \"#utility.yul\":2300:2882   */\n      pop\n      pop\n      pop\n        /* \"#utility.yul\":2188:2882   */\n      pop\n      pop\n      jump\t// out\n        /* \"#utility.yul\":2888:3202   */\n    tag_27:\n        /* \"#utility.yul\":3027:3031   */\n      0x00\n        /* \"#utility.yul\":3065:3067   */\n      0x60\n        /* \"#utility.yul\":3054:3063   */\n      dup3\n        /* \"#utility.yul\":3050:3068   */\n      add\n        /* \"#utility.yul\":3042:3068   */\n      swap1\n      pop\n        /* \"#utility.yul\":3078:3195   */\n      tag_142\n        /* \"#utility.yul\":3192:3193   */\n      0x00\n        /* \"#utility.yul\":3181:3190   */\n      dup4\n        /* \"#utility.yul\":3177:3194   */\n      add\n        /* \"#utility.yul\":3168:3174   */\n      dup5\n        /* \"#utility.yul\":3078:3195   */\n      tag_94\n      jump\t// in\n    tag_142:\n        /* \"#utility.yul\":2888:3202   */\n      swap3\n      swap2\n      pop\n      pop\n      jump\t// out\n        /* \"#utility.yul\":3208:3325   */\n    tag_95:\n        /* \"#utility.yul\":3317:3318   */\n      0x00\n        /* \"#utility.yul\":3314:3315   */\n      dup1\n        /* \"#utility.yul\":3307:3319   */\n      revert\n        /* \"#utility.yul\":3331:3448   */\n    tag_96:\n        /* \"#utility.yul\":3440:3441   */\n      0x00\n        /* \"#utility.yul\":3437:3438   */\n      dup1\n        /* \"#utility.yul\":3430:3442   */\n      revert\n        /* \"#utility.yul\":3454:3571   */\n    tag_97:\n        /* \"#utility.yul\":3563:3564   */\n      0x00\n        /* \"#utility.yul\":3560:3561   */\n      dup1\n        /* \"#utility.yul\":3553:3565   */\n      revert\n        /* \"#utility.yul\":3594:4162   */\n    tag_98:\n        /* \"#utility.yul\":3667:3675   */\n      0x00\n        /* \"#utility.yul\":3677:3683   */\n      dup1\n        /* \"#utility.yul\":3727:3730   */\n      dup4\n        /* \"#utility.yul\":3720:3724   */\n      0x1f\n        /* \"#utility.yul\":3712:3718   */\n      dup5\n        /* \"#utility.yul\":3708:3725   */\n      add\n        /* \"#utility.yul\":3704:3731   */\n      slt\n        /* \"#utility.yul\":3694:3816   */\n      tag_147\n      jumpi\n        /* \"#utility.yul\":3735:3814   */\n      tag_148\n      tag_95\n      jump\t// in\n    tag_148:\n        /* \"#utility.yul\":3694:3816   */\n    tag_147:\n        /* \"#utility.yul\":3848:3854   */\n      dup3\n        /* \"#utility.yul\":3835:3855   */\n      calldataload\n        /* \"#utility.yul\":3825:3855   */\n      swap1\n      pop\n        /* \"#utility.yul\":3878:3896   */\n      0xffffffffffffffff\n        /* \"#utility.yul\":3870:3876   */\n      dup2\n        /* \"#utility.yul\":3867:3897   */\n      gt\n        /* \"#utility.yul\":3864:3981   */\n      iszero\n      tag_149\n      jumpi\n        /* \"#utility.yul\":3900:3979   */\n      tag_150\n      tag_96\n      jump\t// in\n    tag_150:\n        /* \"#utility.yul\":3864:3981   */\n    tag_149:\n        /* \"#utility.yul\":4014:4018   */\n      0x20\n        /* \"#utility.yul\":4006:4012   */\n      dup4\n        /* \"#utility.yul\":4002:4019   */\n      add\n        /* \"#utility.yul\":3990:4019   */\n      swap2\n      pop\n        /* \"#utility.yul\":4068:4071   */\n      dup4\n        /* \"#utility.yul\":4060:4064   */\n      0x20\n        /* \"#utility.yul\":4052:4058   */\n      dup3\n        /* \"#utility.yul\":4048:4065   */\n      mul\n        /* \"#utility.yul\":4038:4046   */\n      dup4\n        /* \"#utility.yul\":4034:4066   */\n      add\n        /* \"#utility.yul\":4031:4072   */\n      gt\n        /* \"#utility.yul\":4028:4156   */\n      iszero\n      tag_151\n      jumpi\n        /* \"#utility.yul\":4075:4154   */\n      tag_152\n      tag_97\n      jump\t// in\n    tag_152:\n        /* \"#utility.yul\":4028:4156   */\n    tag_151:\n        /* \"#utility.yul\":3594:4162   */\n      swap3\n      pop\n      swap3\n      swap1\n      pop\n      jump\t// out\n        /* \"#utility.yul\":4168:4727   */\n    tag_30:\n        /* \"#utility.yul\":4254:4260   */\n      0x00\n        /* \"#utility.yul\":4262:4268   */\n      dup1\n        /* \"#utility.yul\":4311:4313   */\n      0x20\n        /* \"#utility.yul\":4299:4308   */\n      dup4\n        /* \"#utility.yul\":4290:4297   */\n      dup6\n        /* \"#utility.yul\":4286:4309   */\n      sub\n        /* \"#utility.yul\":4282:4314   */\n      slt\n        /* \"#utility.yul\":4279:4398   */\n      iszero\n      tag_154\n      jumpi\n        /* \"#utility.yul\":4317:4396   */\n      tag_155\n      tag_82\n      jump\t// in\n    tag_155:\n        /* \"#utility.yul\":4279:4398   */\n    tag_154:\n        /* \"#utility.yul\":4465:4466   */\n      0x00\n        /* \"#utility.yul\":4454:4463   */\n      dup4\n        /* \"#utility.yul\":4450:4467   */\n      add\n        /* \"#utility.yul\":4437:4468   */\n      calldataload\n        /* \"#utility.yul\":4495:4513   */\n      0xffffffffffffffff\n        /* \"#utility.yul\":4487:4493   */\n      dup2\n        /* \"#utility.yul\":4484:4514   */\n      gt\n        /* \"#utility.yul\":4481:4598   */\n      iszero\n      tag_156\n      jumpi\n        /* \"#utility.yul\":4517:4596   */\n      tag_157\n      tag_83\n      jump\t// in\n    tag_157:\n        /* \"#utility.yul\":4481:4598   */\n    tag_156:\n        /* \"#utility.yul\":4630:4710   */\n      tag_158\n        /* \"#utility.yul\":4702:4709   */\n      dup6\n        /* \"#utility.yul\":4693:4699   */\n      dup3\n        /* \"#utility.yul\":4682:4691   */\n      dup7\n        /* \"#utility.yul\":4678:4700   */\n      add\n        /* \"#utility.yul\":4630:4710   */\n      tag_98\n      jump\t// in\n    tag_158:\n        /* \"#utility.yul\":4612:4710   */\n      swap3\n      pop\n      swap3\n      pop\n        /* \"#utility.yul\":4408:4720   */\n      pop\n        /* \"#utility.yul\":4168:4727   */\n      swap3\n      pop\n      swap3\n      swap1\n      pop\n      jump\t// out\n        /* \"#utility.yul\":4733:4913   */\n    tag_36:\n        /* \"#utility.yul\":4781:4858   */\n      0x4e487b7100000000000000000000000000000000000000000000000000000000\n        /* \"#utility.yul\":4778:4779   */\n      0x00\n        /* \"#utility.yul\":4771:4859   */\n      mstore\n        /* \"#utility.yul\":4878:4882   */\n      0x32\n        /* \"#utility.yul\":4875:4876   */\n      0x04\n        /* \"#utility.yul\":4868:4883   */\n      mstore\n        /* \"#utility.yul\":4902:4906   */\n      0x24\n        /* \"#utility.yul\":4899:4900   */\n      0x00\n        /* \"#utility.yul\":4892:4907   */\n      revert\n        /* \"#utility.yul\":4919:5099   */\n    tag_41:\n        /* \"#utility.yul\":4967:5044   */\n      0x4e487b7100000000000000000000000000000000000000000000000000000000\n        /* \"#utility.yul\":4964:4965   */\n      0x00\n        /* \"#utility.yul\":4957:5045   */\n      mstore\n        /* \"#utility.yul\":5064:5068   */\n      0x41\n        /* \"#utility.yul\":5061:5062   */\n      0x04\n        /* \"#utility.yul\":5054:5069   */\n      mstore\n        /* \"#utility.yul\":5088:5092   */\n      0x24\n        /* \"#utility.yul\":5085:5086   */\n      0x00\n        /* \"#utility.yul\":5078:5093   */\n      revert\n        /* \"#utility.yul\":5105:5219   */\n    tag_99:\n        /* \"#utility.yul\":5172:5178   */\n      0x00\n        /* \"#utility.yul\":5206:5211   */\n      dup2\n        /* \"#utility.yul\":5200:5212   */\n      mload\n        /* \"#utility.yul\":5190:5212   */\n      swap1\n      pop\n        /* \"#utility.yul\":5105:5219   */\n      swap2\n      swap1\n      pop\n      jump\t// out\n        /* \"#utility.yul\":5225:5409   */\n    tag_100:\n        /* \"#utility.yul\":5324:5335   */\n      0x00\n        /* \"#utility.yul\":5358:5364   */\n      dup3\n        /* \"#utility.yul\":5353:5356   */\n      dup3\n        /* \"#utility.yul\":5346:5365   */\n      mstore\n        /* \"#utility.yul\":5398:5402   */\n      0x20\n        /* \"#utility.yul\":5393:5396   */\n      dup3\n        /* \"#utility.yul\":5389:5403   */\n      add\n        /* \"#utility.yul\":5374:5403   */\n      swap1\n      pop\n        /* \"#utility.yul\":5225:5409   */\n      swap3\n      swap2\n      pop\n      pop\n      jump\t// out\n        /* \"#utility.yul\":5415:5547   */\n    tag_101:\n        /* \"#utility.yul\":5482:5486   */\n      0x00\n        /* \"#utility.yul\":5505:5508   */\n      dup2\n        /* \"#utility.yul\":5497:5508   */\n      swap1\n      pop\n        /* \"#utility.yul\":5535:5539   */\n      0x20\n        /* \"#utility.yul\":5530:5533   */\n      dup3\n        /* \"#utility.yul\":5526:5540   */\n      add\n        /* \"#utility.yul\":5518:5540   */\n      swap1\n      pop\n        /* \"#utility.yul\":5415:5547   */\n      swap2\n      swap1\n      pop\n      jump\t// out\n        /* \"#utility.yul\":5553:5666   */\n    tag_102:\n        /* \"#utility.yul\":5623:5627   */\n      0x00\n        /* \"#utility.yul\":5655:5659   */\n      0x20\n        /* \"#utility.yul\":5650:5653   */\n      dup3\n        /* \"#utility.yul\":5646:5660   */\n      add\n        /* \"#utility.yul\":5638:5660   */\n      swap1\n      pop\n        /* \"#utility.yul\":5553:5666   */\n      swap2\n      swap1\n      pop\n      jump\t// out\n        /* \"#utility.yul\":5702:6434   */\n    tag_103:\n        /* \"#utility.yul\":5821:5824   */\n      0x00\n        /* \"#utility.yul\":5850:5904   */\n      tag_166\n        /* \"#utility.yul\":5898:5903   */\n      dup3\n        /* \"#utility.yul\":5850:5904   */\n      tag_99\n      jump\t// in\n    tag_166:\n        /* \"#utility.yul\":5920:6006   */\n      tag_167\n        /* \"#utility.yul\":5999:6005   */\n      dup2\n        /* \"#utility.yul\":5994:5997   */\n      dup6\n        /* \"#utility.yul\":5920:6006   */\n      tag_100\n      jump\t// in\n    tag_167:\n        /* \"#utility.yul\":5913:6006   */\n      swap4\n      pop\n        /* \"#utility.yul\":6030:6086   */\n      tag_168\n        /* \"#utility.yul\":6080:6085   */\n      dup4\n        /* \"#utility.yul\":6030:6086   */\n      tag_101\n      jump\t// in\n    tag_168:\n        /* \"#utility.yul\":6109:6116   */\n      dup1\n        /* \"#utility.yul\":6140:6141   */\n      0x00\n        /* \"#utility.yul\":6125:6409   */\n    tag_169:\n        /* \"#utility.yul\":6150:6156   */\n      dup4\n        /* \"#utility.yul\":6147:6148   */\n      dup2\n        /* \"#utility.yul\":6144:6157   */\n      lt\n        /* \"#utility.yul\":6125:6409   */\n      iszero\n      tag_171\n      jumpi\n        /* \"#utility.yul\":6226:6232   */\n      dup2\n        /* \"#utility.yul\":6220:6233   */\n      mload\n        /* \"#utility.yul\":6253:6316   */\n      tag_172\n        /* \"#utility.yul\":6312:6315   */\n      dup9\n        /* \"#utility.yul\":6297:6310   */\n      dup3\n        /* \"#utility.yul\":6253:6316   */\n      tag_92\n      jump\t// in\n    tag_172:\n        /* \"#utility.yul\":6246:6316   */\n      swap8\n      pop\n        /* \"#utility.yul\":6339:6399   */\n      tag_173\n        /* \"#utility.yul\":6392:6398   */\n      dup4\n        /* \"#utility.yul\":6339:6399   */\n      tag_102\n      jump\t// in\n    tag_173:\n        /* \"#utility.yul\":6329:6399   */\n      swap3\n      pop\n        /* \"#utility.yul\":6185:6409   */\n      pop\n        /* \"#utility.yul\":6172:6173   */\n      0x01\n        /* \"#utility.yul\":6169:6170   */\n      dup2\n        /* \"#utility.yul\":6165:6174   */\n      add\n        /* \"#utility.yul\":6160:6174   */\n      swap1\n      pop\n        /* \"#utility.yul\":6125:6409   */\n      jump(tag_169)\n    tag_171:\n        /* \"#utility.yul\":6129:6143   */\n      pop\n        /* \"#utility.yul\":6425:6428   */\n      dup6\n        /* \"#utility.yul\":6418:6428   */\n      swap4\n      pop\n        /* \"#utility.yul\":5826:6434   */\n      pop\n      pop\n      pop\n        /* \"#utility.yul\":5702:6434   */\n      swap3\n      swap2\n      pop\n      pop\n      jump\t// out\n        /* \"#utility.yul\":6440:6813   */\n    tag_52:\n        /* \"#utility.yul\":6583:6587   */\n      0x00\n        /* \"#utility.yul\":6621:6623   */\n      0x20\n        /* \"#utility.yul\":6610:6619   */\n      dup3\n        /* \"#utility.yul\":6606:6624   */\n      add\n        /* \"#utility.yul\":6598:6624   */\n      swap1\n      pop\n        /* \"#utility.yul\":6670:6679   */\n      dup2\n        /* \"#utility.yul\":6664:6668   */\n      dup2\n        /* \"#utility.yul\":6660:6680   */\n      sub\n        /* \"#utility.yul\":6656:6657   */\n      0x00\n        /* \"#utility.yul\":6645:6654   */\n      dup4\n        /* \"#utility.yul\":6641:6658   */\n      add\n        /* \"#utility.yul\":6634:6681   */\n      mstore\n        /* \"#utility.yul\":6698:6806   */\n      tag_175\n        /* \"#utility.yul\":6801:6805   */\n      dup2\n        /* \"#utility.yul\":6792:6798   */\n      dup5\n        /* \"#utility.yul\":6698:6806   */\n      tag_103\n      jump\t// in\n    tag_175:\n        /* \"#utility.yul\":6690:6806   */\n      swap1\n      pop\n        /* \"#utility.yul\":6440:6813   */\n      swap3\n      swap2\n      pop\n      pop\n      jump\t// out\n        /* \"#utility.yul\":6819:6962   */\n    tag_104:\n        /* \"#utility.yul\":6876:6881   */\n      0x00\n        /* \"#utility.yul\":6907:6913   */\n      dup2\n        /* \"#utility.yul\":6901:6914   */\n      mload\n        /* \"#utility.yul\":6892:6914   */\n      swap1\n      pop\n        /* \"#utility.yul\":6923:6956   */\n      tag_177\n        /* \"#utility.yul\":6950:6955   */\n      dup2\n        /* \"#utility.yul\":6923:6956   */\n      tag_85\n      jump\t// in\n    tag_177:\n        /* \"#utility.yul\":6819:6962   */\n      swap3\n      swap2\n      pop\n      pop\n      jump\t// out\n        /* \"#utility.yul\":6968:7319   */\n    tag_56:\n        /* \"#utility.yul\":7038:7044   */\n      0x00\n        /* \"#utility.yul\":7087:7089   */\n      0x20\n        /* \"#utility.yul\":7075:7084   */\n      dup3\n        /* \"#utility.yul\":7066:7073   */\n      dup5\n        /* \"#utility.yul\":7062:7085   */\n      sub\n        /* \"#utility.yul\":7058:7090   */\n      slt\n        /* \"#utility.yul\":7055:7174   */\n      iszero\n      tag_179\n      jumpi\n        /* \"#utility.yul\":7093:7172   */\n      tag_180\n      tag_82\n      jump\t// in\n    tag_180:\n        /* \"#utility.yul\":7055:7174   */\n    tag_179:\n        /* \"#utility.yul\":7213:7214   */\n      0x00\n        /* \"#utility.yul\":7238:7302   */\n      tag_181\n        /* \"#utility.yul\":7294:7301   */\n      dup5\n        /* \"#utility.yul\":7285:7291   */\n      dup3\n        /* \"#utility.yul\":7274:7283   */\n      dup6\n        /* \"#utility.yul\":7270:7292   */\n      add\n        /* \"#utility.yul\":7238:7302   */\n      tag_104\n      jump\t// in\n    tag_181:\n        /* \"#utility.yul\":7228:7302   */\n      swap2\n      pop\n        /* \"#utility.yul\":7184:7312   */\n      pop\n        /* \"#utility.yul\":6968:7319   */\n      swap3\n      swap2\n      pop\n      pop\n      jump\t// out\n        /* \"#utility.yul\":7325:7505   */\n    tag_105:\n        /* \"#utility.yul\":7373:7450   */\n      0x4e487b7100000000000000000000000000000000000000000000000000000000\n        /* \"#utility.yul\":7370:7371   */\n      0x00\n        /* \"#utility.yul\":7363:7451   */\n      mstore\n        /* \"#utility.yul\":7470:7474   */\n      0x11\n        /* \"#utility.yul\":7467:7468   */\n      0x04\n        /* \"#utility.yul\":7460:7475   */\n      mstore\n        /* \"#utility.yul\":7494:7498   */\n      0x24\n        /* \"#utility.yul\":7491:7492   */\n      0x00\n        /* \"#utility.yul\":7484:7499   */\n      revert\n        /* \"#utility.yul\":7511:7921   */\n    tag_62:\n        /* \"#utility.yul\":7551:7558   */\n      0x00\n        /* \"#utility.yul\":7574:7594   */\n      tag_184\n        /* \"#utility.yul\":7592:7593   */\n      dup3\n        /* \"#utility.yul\":7574:7594   */\n      tag_84\n      jump\t// in\n    tag_184:\n        /* \"#utility.yul\":7569:7594   */\n      swap2\n      pop\n        /* \"#utility.yul\":7608:7628   */\n      tag_185\n        /* \"#utility.yul\":7626:7627   */\n      dup4\n        /* \"#utility.yul\":7608:7628   */\n      tag_84\n      jump\t// in\n    tag_185:\n        /* \"#utility.yul\":7603:7628   */\n      swap3\n      pop\n        /* \"#utility.yul\":7663:7664   */\n      dup3\n        /* \"#utility.yul\":7660:7661   */\n      dup3\n        /* \"#utility.yul\":7656:7665   */\n      mul\n        /* \"#utility.yul\":7685:7715   */\n      tag_186\n        /* \"#utility.yul\":7703:7714   */\n      dup2\n        /* \"#utility.yul\":7685:7715   */\n      tag_84\n      jump\t// in\n    tag_186:\n        /* \"#utility.yul\":7674:7715   */\n      swap2\n      pop\n        /* \"#utility.yul\":7864:7865   */\n      dup3\n        /* \"#utility.yul\":7855:7862   */\n      dup3\n        /* \"#utility.yul\":7851:7866   */\n      div\n        /* \"#utility.yul\":7848:7849   */\n      dup5\n        /* \"#utility.yul\":7845:7867   */\n      eq\n        /* \"#utility.yul\":7825:7826   */\n      dup4\n        /* \"#utility.yul\":7818:7827   */\n      iszero\n        /* \"#utility.yul\":7798:7881   */\n      or\n        /* \"#utility.yul\":7775:7914   */\n      tag_187\n      jumpi\n        /* \"#utility.yul\":7894:7912   */\n      tag_188\n      tag_105\n      jump\t// in\n    tag_188:\n        /* \"#utility.yul\":7775:7914   */\n    tag_187:\n        /* \"#utility.yul\":7559:7921   */\n      pop\n        /* \"#utility.yul\":7511:7921   */\n      swap3\n      swap2\n      pop\n      pop\n      jump\t// out\n        /* \"#utility.yul\":7927:8118   */\n    tag_80:\n        /* \"#utility.yul\":7967:7970   */\n      0x00\n        /* \"#utility.yul\":7986:8006   */\n      tag_190\n        /* \"#utility.yul\":8004:8005   */\n      dup3\n        /* \"#utility.yul\":7986:8006   */\n      tag_84\n      jump\t// in\n    tag_190:\n        /* \"#utility.yul\":7981:8006   */\n      swap2\n      pop\n        /* \"#utility.yul\":8020:8040   */\n      tag_191\n        /* \"#utility.yul\":8038:8039   */\n      dup4\n        /* \"#utility.yul\":8020:8040   */\n      tag_84\n      jump\t// in\n    tag_191:\n        /* \"#utility.yul\":8015:8040   */\n      swap3\n      pop\n        /* \"#utility.yul\":8063:8064   */\n      dup3\n        /* \"#utility.yul\":8060:8061   */\n      dup3\n        /* \"#utility.yul\":8056:8065   */\n      add\n        /* \"#utility.yul\":8049:8065   */\n      swap1\n      pop\n        /* \"#utility.yul\":8084:8087   */\n      dup1\n        /* \"#utility.yul\":8081:8082   */\n      dup3\n        /* \"#utility.yul\":8078:8088   */\n      gt\n        /* \"#utility.yul\":8075:8111   */\n      iszero\n      tag_192\n      jumpi\n        /* \"#utility.yul\":8091:8109   */\n      tag_193\n      tag_105\n      jump\t// in\n    tag_193:\n        /* \"#utility.yul\":8075:8111   */\n    tag_192:\n        /* \"#utility.yul\":7927:8118   */\n      swap3\n      swap2\n      pop\n      pop\n      jump\t// out\n\n    auxdata: 0xa26469706673582212205e39a100a751f386ae4088063d6795f87550ac9e5775964ce86d0a5e3745de3264736f6c634300081a0033\n}\n",
				"bytecode": {
					"linkReferences": {},
					"object": "6080604052348015600e575f80fd5b5061079e8061001c5f395ff3fe608060405234801561000f575f80fd5b5060043610610060575f3560e01c80633a7d22bc146100645780633c0db5d41461009457806382a8181b146100b25780639ae918c7146100bc578063d504ea1d146100ec578063f2ab93841461010a575b5f80fd5b61007e600480360381019061007991906103c0565b61013a565b60405161008b91906103fa565b60405180910390f35b61009c610157565b6040516100a991906103fa565b60405180910390f35b6100ba610270565b005b6100d660048036038101906100d191906103c0565b6102b0565b6040516100e391906103fa565b60405180910390f35b6100f46102c8565b60405161010191906104b8565b60405180910390f35b610124600480360381019061011f9190610532565b610312565b60405161013191906103fa565b60405180910390f35b5f80826003811061014e5761014d61057d565b5b01549050919050565b5f80600367ffffffffffffffff811115610174576101736105aa565b5b6040519080825280602002602001820160405280156101a25781602001602082028036833780820191505090505b5090505f5b60038110156101f1575f81600381106101c3576101c261057d565b5b01548282815181106101d8576101d761057d565b5b60200260200101818152505080806001019150506101a7565b503073ffffffffffffffffffffffffffffffffffffffff1663f2ab9384826040518263ffffffff1660e01b815260040161022b9190610668565b602060405180830381865afa158015610246573d5f803e3d5ffd5b505050506040513d601f19601f8201168201806040525081019061026a919061069c565b91505090565b5f5b60038110156102ad57600a8161028891906106f4565b5f826003811061029b5761029a61057d565b5b01819055508080600101915050610272565b50565b5f81600381106102be575f80fd5b015f915090505481565b6102d0610363565b5f600380602002604051908101604052809291908260038015610308576020028201915b8154815260200190600101908083116102f4575b5050505050905090565b5f805f90505f5b84849050811015610358578484828181106103375761033661057d565b5b90506020020135826103499190610735565b91508080600101915050610319565b508091505092915050565b6040518060600160405280600390602082028036833780820191505090505090565b5f80fd5b5f80fd5b5f819050919050565b61039f8161038d565b81146103a9575f80fd5b50565b5f813590506103ba81610396565b92915050565b5f602082840312156103d5576103d4610385565b5b5f6103e2848285016103ac565b91505092915050565b6103f48161038d565b82525050565b5f60208201905061040d5f8301846103eb565b92915050565b5f60039050919050565b5f81905092915050565b5f819050919050565b6104398161038d565b82525050565b5f61044a8383610430565b60208301905092915050565b5f602082019050919050565b61046b81610413565b610475818461041d565b925061048082610427565b805f5b838110156104b0578151610497878261043f565b96506104a283610456565b925050600181019050610483565b505050505050565b5f6060820190506104cb5f830184610462565b92915050565b5f80fd5b5f80fd5b5f80fd5b5f8083601f8401126104f2576104f16104d1565b5b8235905067ffffffffffffffff81111561050f5761050e6104d5565b5b60208301915083602082028301111561052b5761052a6104d9565b5b9250929050565b5f806020838503121561054857610547610385565b5b5f83013567ffffffffffffffff81111561056557610564610389565b5b610571858286016104dd565b92509250509250929050565b7f4e487b71000000000000000000000000000000000000000000000000000000005f52603260045260245ffd5b7f4e487b71000000000000000000000000000000000000000000000000000000005f52604160045260245ffd5b5f81519050919050565b5f82825260208201905092915050565b5f819050602082019050919050565b5f602082019050919050565b5f610616826105d7565b61062081856105e1565b935061062b836105f1565b805f5b8381101561065b578151610642888261043f565b975061064d83610600565b92505060018101905061062e565b5085935050505092915050565b5f6020820190508181035f830152610680818461060c565b905092915050565b5f8151905061069681610396565b92915050565b5f602082840312156106b1576106b0610385565b5b5f6106be84828501610688565b91505092915050565b7f4e487b71000000000000000000000000000000000000000000000000000000005f52601160045260245ffd5b5f6106fe8261038d565b91506107098361038d565b92508282026107178161038d565b9150828204841483151761072e5761072d6106c7565b5b5092915050565b5f61073f8261038d565b915061074a8361038d565b9250828201905080821115610762576107616106c7565b5b9291505056fea26469706673582212205e39a100a751f386ae4088063d6795f87550ac9e5775964ce86d0a5e3745de3264736f6c634300081a0033",
					"opcodes": "PUSH1 0x80 PUSH1 0x40 MSTORE CALLVALUE DUP1 ISZERO PUSH1 0xE JUMPI PUSH0 DUP1 REVERT JUMPDEST POP PUSH2 0x79E DUP1 PUSH2 0x1C PUSH0 CODECOPY PUSH0 RETURN INVALID PUSH1 0x80 PUSH1 0x40 MSTORE CALLVALUE DUP1 ISZERO PUSH2 0xF JUMPI PUSH0 DUP1 REVERT JUMPDEST POP PUSH1 0x4 CALLDATASIZE LT PUSH2 0x60 JUMPI PUSH0 CALLDATALOAD PUSH1 0xE0 SHR DUP1 PUSH4 0x3A7D22BC EQ PUSH2 0x64 JUMPI DUP1 PUSH4 0x3C0DB5D4 EQ PUSH2 0x94 JUMPI DUP1 PUSH4 0x82A8181B EQ PUSH2 0xB2 JUMPI DUP1 PUSH4 0x9AE918C7 EQ PUSH2 0xBC JUMPI DUP1 PUSH4 0xD504EA1D EQ PUSH2 0xEC JUMPI DUP1 PUSH4 0xF2AB9384 EQ PUSH2 0x10A JUMPI JUMPDEST PUSH0 DUP1 REVERT JUMPDEST PUSH2 0x7E PUSH1 0x4 DUP1 CALLDATASIZE SUB DUP2 ADD SWAP1 PUSH2 0x79 SWAP2 SWAP1 PUSH2 0x3C0 JUMP JUMPDEST PUSH2 0x13A JUMP JUMPDEST PUSH1 0x40 MLOAD PUSH2 0x8B SWAP2 SWAP1 PUSH2 0x3FA JUMP JUMPDEST PUSH1 0x40 MLOAD DUP1 SWAP2 SUB SWAP1 RETURN JUMPDEST PUSH2 0x9C PUSH2 0x157 JUMP JUMPDEST PUSH1 0x40 MLOAD PUSH2 0xA9 SWAP2 SWAP1 PUSH2 0x3FA JUMP JUMPDEST PUSH1 0x40 MLOAD DUP1 SWAP2 SUB SWAP1 RETURN JUMPDEST PUSH2 0xBA PUSH2 0x270 JUMP JUMPDEST STOP JUMPDEST PUSH2 0xD6 PUSH1 0x4 DUP1 CALLDATASIZE SUB DUP2 ADD SWAP1 PUSH2 0xD1 SWAP2 SWAP1 PUSH2 0x3C0 JUMP JUMPDEST PUSH2 0x2B0 JUMP JUMPDEST PUSH1 0x40 MLOAD PUSH2 0xE3 SWAP2 SWAP1 PUSH2 0x3FA JUMP JUMPDEST PUSH1 0x40 MLOAD DUP1 SWAP2 SUB SWAP1 RETURN JUMPDEST PUSH2 0xF4 PUSH2 0x2C8 JUMP JUMPDEST PUSH1 0x40 MLOAD PUSH2 0x101 SWAP2 SWAP1 PUSH2 0x4B8 JUMP JUMPDEST PUSH1 0x40 MLOAD DUP1 SWAP2 SUB SWAP1 RETURN JUMPDEST PUSH2 0x124 PUSH1 0x4 DUP1 CALLDATASIZE SUB DUP2 ADD SWAP1 PUSH2 0x11F SWAP2 SWAP1 PUSH2 0x532 JUMP JUMPDEST PUSH2 0x312 JUMP JUMPDEST PUSH1 0x40 MLOAD PUSH2 0x131 SWAP2 SWAP1 PUSH2 0x3FA JUMP JUMPDEST PUSH1 0x40 MLOAD DUP1 SWAP2 SUB SWAP1 RETURN JUMPDEST PUSH0 DUP1 DUP3 PUSH1 0x3 DUP2 LT PUSH2 0x14E JUMPI PUSH2 0x14D PUSH2 0x57D JUMP JUMPDEST JUMPDEST ADD SLOAD SWAP1 POP SWAP2 SWAP1 POP JUMP JUMPDEST PUSH0 DUP1 PUSH1 0x3 PUSH8 0xFFFFFFFFFFFFFFFF DUP2 GT ISZERO PUSH2 0x174 JUMPI PUSH2 0x173 PUSH2 0x5AA JUMP JUMPDEST JUMPDEST PUSH1 0x40 MLOAD SWAP1 DUP1 DUP3 MSTORE DUP1 PUSH1 0x20 MUL PUSH1 0x20 ADD DUP3 ADD PUSH1 0x40 MSTORE DUP1 ISZERO PUSH2 0x1A2 JUMPI DUP2 PUSH1 0x20 ADD PUSH1 0x20 DUP3 MUL DUP1 CALLDATASIZE DUP4 CALLDATACOPY DUP1 DUP3 ADD SWAP2 POP POP SWAP1 POP JUMPDEST POP SWAP1 POP PUSH0 JUMPDEST PUSH1 0x3 DUP2 LT ISZERO PUSH2 0x1F1 JUMPI PUSH0 DUP2 PUSH1 0x3 DUP2 LT PUSH2 0x1C3 JUMPI PUSH2 0x1C2 PUSH2 0x57D JUMP JUMPDEST JUMPDEST ADD SLOAD DUP3 DUP3 DUP2 MLOAD DUP2 LT PUSH2 0x1D8 JUMPI PUSH2 0x1D7 PUSH2 0x57D JUMP JUMPDEST JUMPDEST PUSH1 0x20 MUL PUSH1 0x20 ADD ADD DUP2 DUP2 MSTORE POP POP DUP1 DUP1 PUSH1 0x1 ADD SWAP2 POP POP PUSH2 0x1A7 JUMP JUMPDEST POP ADDRESS PUSH20 0xFFFFFFFFFFFFFFFFFFFFFFFFFFFFFFFFFFFFFFFF AND PUSH4 0xF2AB9384 DUP3 PUSH1 0x40 MLOAD DUP3 PUSH4 0xFFFFFFFF AND PUSH1 0xE0 SHL DUP2 MSTORE PUSH1 0x4 ADD PUSH2 0x22B SWAP2 SWAP1 PUSH2 0x668 JUMP JUMPDEST PUSH1 0x20 PUSH1 0x40 MLOAD DUP1 DUP4 SUB DUP2 DUP7 GAS STATICCALL ISZERO DUP1 ISZERO PUSH2 0x246 JUMPI RETURNDATASIZE PUSH0 DUP1 RETURNDATACOPY RETURNDATASIZE PUSH0 REVERT JUMPDEST POP POP POP POP PUSH1 0x40 MLOAD RETURNDATASIZE PUSH1 0x1F NOT PUSH1 0x1F DUP3 ADD AND DUP3 ADD DUP1 PUSH1 0x40 MSTORE POP DUP2 ADD SWAP1 PUSH2 0x26A SWAP2 SWAP1 PUSH2 0x69C JUMP JUMPDEST SWAP2 POP POP SWAP1 JUMP JUMPDEST PUSH0 JUMPDEST PUSH1 0x3 DUP2 LT ISZERO PUSH2 0x2AD JUMPI PUSH1 0xA DUP2 PUSH2 0x288 SWAP2 SWAP1 PUSH2 0x6F4 JUMP JUMPDEST PUSH0 DUP3 PUSH1 0x3 DUP2 LT PUSH2 0x29B JUMPI PUSH2 0x29A PUSH2 0x57D JUMP JUMPDEST JUMPDEST ADD DUP2 SWAP1 SSTORE POP DUP1 DUP1 PUSH1 0x1 ADD SWAP2 POP POP PUSH2 0x272 JUMP JUMPDEST POP JUMP JUMPDEST PUSH0 DUP2 PUSH1 0x3 DUP2 LT PUSH2 0x2BE JUMPI PUSH0 DUP1 REVERT JUMPDEST ADD PUSH0 SWAP2 POP SWAP1 POP SLOAD DUP2 JUMP JUMPDEST PUSH2 0x2D0 PUSH2 0x363 JUMP JUMPDEST PUSH0 PUSH1 0x3 DUP1 PUSH1 0x20 MUL PUSH1 0x40 MLOAD SWAP1 DUP2 ADD PUSH1 0x40 MSTORE DUP1 SWAP3 SWAP2 SWAP1 DUP3 PUSH1 0x3 DUP1 ISZERO PUSH2 0x308 JUMPI PUSH1 0x20 MUL DUP3 ADD SWAP2 JUMPDEST DUP2 SLOAD DUP2 MSTORE PUSH1 0x20 ADD SWAP1 PUSH1 0x1 ADD SWAP1 DUP1 DUP4 GT PUSH2 0x2F4 JUMPI JUMPDEST POP POP POP POP POP SWAP1 POP SWAP1 JUMP JUMPDEST PUSH0 DUP1 PUSH0 SWAP1 POP PUSH0 JUMPDEST DUP5 DUP5 SWAP1 POP DUP2 LT ISZERO PUSH2 0x358 JUMPI DUP5 DUP5 DUP3 DUP2 DUP2 LT PUSH2 0x337 JUMPI PUSH2 0x336 PUSH2 0x57D JUMP JUMPDEST JUMPDEST SWAP1 POP PUSH1 0x20 MUL ADD CALLDATALOAD DUP3 PUSH2 0x349 SWAP2 SWAP1 PUSH2 0x735 JUMP JUMPDEST SWAP2 POP DUP1 DUP1 PUSH1 0x1 ADD SWAP2 POP POP PUSH2 0x319 JUMP JUMPDEST POP DUP1 SWAP2 POP POP SWAP3 SWAP2 POP POP JUMP JUMPDEST PUSH1 0x40 MLOAD DUP1 PUSH1 0x60 ADD PUSH1 0x40 MSTORE DUP1 PUSH1 0x3 SWAP1 PUSH1 0x20 DUP3 MUL DUP1 CALLDATASIZE DUP4 CALLDATACOPY DUP1 DUP3 ADD SWAP2 POP POP SWAP1 POP POP SWAP1 JUMP JUMPDEST PUSH0 DUP1 REVERT JUMPDEST PUSH0 DUP1 REVERT JUMPDEST PUSH0 DUP2 SWAP1 POP SWAP2 SWAP1 POP JUMP JUMPDEST PUSH2 0x39F DUP2 PUSH2 0x38D JUMP JUMPDEST DUP2 EQ PUSH2 0x3A9 JUMPI PUSH0 DUP1 REVERT JUMPDEST POP JUMP JUMPDEST PUSH0 DUP2 CALLDATALOAD SWAP1 POP PUSH2 0x3BA DUP2 PUSH2 0x396 JUMP JUMPDEST SWAP3 SWAP2 POP POP JUMP JUMPDEST PUSH0 PUSH1 0x20 DUP3 DUP5 SUB SLT ISZERO PUSH2 0x3D5 JUMPI PUSH2 0x3D4 PUSH2 0x385 JUMP JUMPDEST JUMPDEST PUSH0 PUSH2 0x3E2 DUP5 DUP3 DUP6 ADD PUSH2 0x3AC JUMP JUMPDEST SWAP2 POP POP SWAP3 SWAP2 POP POP JUMP JUMPDEST PUSH2 0x3F4 DUP2 PUSH2 0x38D JUMP JUMPDEST DUP3 MSTORE POP POP JUMP JUMPDEST PUSH0 PUSH1 0x20 DUP3 ADD SWAP1 POP PUSH2 0x40D PUSH0 DUP4 ADD DUP5 PUSH2 0x3EB JUMP JUMPDEST SWAP3 SWAP2 POP POP JUMP JUMPDEST PUSH0 PUSH1 0x3 SWAP1 POP SWAP2 SWAP1 POP JUMP JUMPDEST PUSH0 DUP2 SWAP1 POP SWAP3 SWAP2 POP POP JUMP JUMPDEST PUSH0 DUP2 SWAP1 POP SWAP2 SWAP1 POP JUMP JUMPDEST PUSH2 0x439 DUP2 PUSH2 0x38D JUMP JUMPDEST DUP3 MSTORE POP POP JUMP JUMPDEST PUSH0 PUSH2 0x44A DUP4 DUP4 PUSH2 0x430 JUMP JUMPDEST PUSH1 0x20 DUP4 ADD SWAP1 POP SWAP3 SWAP2 POP POP JUMP JUMPDEST PUSH0 PUSH1 0x20 DUP3 ADD SWAP1 POP SWAP2 SWAP1 POP JUMP JUMPDEST PUSH2 0x46B DUP2 PUSH2 0x413 JUMP JUMPDEST PUSH2 0x475 DUP2 DUP5 PUSH2 0x41D JUMP JUMPDEST SWAP3 POP PUSH2 0x480 DUP3 PUSH2 0x427 JUMP JUMPDEST DUP1 PUSH0 JUMPDEST DUP4 DUP2 LT ISZERO PUSH2 0x4B0 JUMPI DUP2 MLOAD PUSH2 0x497 DUP8 DUP3 PUSH2 0x43F JUMP JUMPDEST SWAP7 POP PUSH2 0x4A2 DUP4 PUSH2 0x456 JUMP JUMPDEST SWAP3 POP POP PUSH1 0x1 DUP2 ADD SWAP1 POP PUSH2 0x483 JUMP JUMPDEST POP POP POP POP POP POP JUMP JUMPDEST PUSH0 PUSH1 0x60 DUP3 ADD SWAP1 POP PUSH2 0x4CB PUSH0 DUP4 ADD DUP5 PUSH2 0x462 JUMP JUMPDEST SWAP3 SWAP2 POP POP JUMP JUMPDEST PUSH0 DUP1 REVERT JUMPDEST PUSH0 DUP1 REVERT JUMPDEST PUSH0 DUP1 REVERT JUMPDEST PUSH0 DUP1 DUP4 PUSH1 0x1F DUP5 ADD SLT PUSH2 0x4F2 JUMPI PUSH2 0x4F1 PUSH2 0x4D1 JUMP JUMPDEST JUMPDEST DUP3 CALLDATALOAD SWAP1 POP PUSH8 0xFFFFFFFFFFFFFFFF DUP2 GT ISZERO PUSH2 0x50F JUMPI PUSH2 0x50E PUSH2 0x4D5 JUMP JUMPDEST JUMPDEST PUSH1 0x20 DUP4 ADD SWAP2 POP DUP4 PUSH1 0x20 DUP3 MUL DUP4 ADD GT ISZERO PUSH2 0x52B JUMPI PUSH2 0x52A PUSH2 0x4D9 JUMP JUMPDEST JUMPDEST SWAP3 POP SWAP3 SWAP1 POP JUMP JUMPDEST PUSH0 DUP1 PUSH1 0x20 DUP4 DUP6 SUB SLT ISZERO PUSH2 0x548 JUMPI PUSH2 0x547 PUSH2 0x385 JUMP JUMPDEST JUMPDEST PUSH0 DUP4 ADD CALLDATALOAD PUSH8 0xFFFFFFFFFFFFFFFF DUP2 GT ISZERO PUSH2 0x565 JUMPI PUSH2 0x564 PUSH2 0x389 JUMP JUMPDEST JUMPDEST PUSH2 0x571 DUP6 DUP3 DUP7 ADD PUSH2 0x4DD JUMP JUMPDEST SWAP3 POP SWAP3 POP POP SWAP3 POP SWAP3 SWAP1 POP JUMP JUMPDEST PUSH32 0x4E487B7100000000000000000000000000000000000000000000000000000000 PUSH0 MSTORE PUSH1 0x32 PUSH1 0x4 MSTORE PUSH1 0x24 PUSH0 REVERT JUMPDEST PUSH32 0x4E487B7100000000000000000000000000000000000000000000000000000000 PUSH0 MSTORE PUSH1 0x41 PUSH1 0x4 MSTORE PUSH1 0x24 PUSH0 REVERT JUMPDEST PUSH0 DUP2 MLOAD SWAP1 POP SWAP2 SWAP1 POP JUMP JUMPDEST PUSH0 DUP3 DUP3 MSTORE PUSH1 0x20 DUP3 ADD SWAP1 POP SWAP3 SWAP2 POP POP JUMP JUMPDEST PUSH0 DUP2 SWAP1 POP PUSH1 0x20 DUP3 ADD SWAP1 POP SWAP2 SWAP1 POP JUMP JUMPDEST PUSH0 PUSH1 0x20 DUP3 ADD SWAP1 POP SWAP2 SWAP1 POP JUMP JUMPDEST PUSH0 PUSH2 0x616 DUP3 PUSH2 0x5D7 JUMP JUMPDEST PUSH2 0x620 DUP2 DUP6 PUSH2 0x5E1 JUMP JUMPDEST SWAP4 POP PUSH2 0x62B DUP4 PUSH2 0x5F1 JUMP JUMPDEST DUP1 PUSH0 JUMPDEST DUP4 DUP2 LT ISZERO PUSH2 0x65B JUMPI DUP2 MLOAD PUSH2 0x642 DUP9 DUP3 PUSH2 0x43F JUMP JUMPDEST SWAP8 POP PUSH2 0x64D DUP4 PUSH2 0x600 JUMP JUMPDEST SWAP3 POP POP PUSH1 0x1 DUP2 ADD SWAP1 POP PUSH2 0x62E JUMP JUMPDEST POP DUP6 SWAP4 POP POP POP POP SWAP3 SWAP2 POP POP JUMP JUMPDEST PUSH0 PUSH1 0x20 DUP3 ADD SWAP1 POP DUP2 DUP2 SUB PUSH0 DUP4 ADD MSTORE PUSH2 0x680 DUP2 DUP5 PUSH2 0x60C JUMP JUMPDEST SWAP1 POP SWAP3 SWAP2 POP POP JUMP JUMPDEST PUSH0 DUP2 MLOAD SWAP1 POP PUSH2 0x696 DUP2 PUSH2 0x396 JUMP JUMPDEST SWAP3 SWAP2 POP POP JUMP JUMPDEST PUSH0 PUSH1 0x20 DUP3 DUP5 SUB SLT ISZERO PUSH2 0x6B1 JUMPI PUSH2 0x6B0 PUSH2 0x385 JUMP JUMPDEST JUMPDEST PUSH0 PUSH2 0x6BE DUP5 DUP3 DUP6 ADD PUSH2 0x688 JUMP JUMPDEST SWAP2 POP POP SWAP3 SWAP2 POP POP JUMP JUMPDEST PUSH32 0x4E487B7100000000000000000000000000000000000000000000000000000000 PUSH0 MSTORE PUSH1 0x11 PUSH1 0x4 MSTORE PUSH1 0x24 PUSH0 REVERT JUMPDEST PUSH0 PUSH2 0x6FE DUP3 PUSH2 0x38D JUMP JUMPDEST SWAP2 POP PUSH2 0x709 DUP4 PUSH2 0x38D JUMP JUMPDEST SWAP3 POP DUP3 DUP3 MUL PUSH2 0x717 DUP2 PUSH2 0x38D JUMP JUMPDEST SWAP2 POP DUP3 DUP3 DIV DUP5 EQ DUP4 ISZERO OR PUSH2 0x72E JUMPI PUSH2 0x72D PUSH2 0x6C7 JUMP JUMPDEST JUMPDEST POP SWAP3 SWAP2 POP POP JUMP JUMPDEST PUSH0 PUSH2 0x73F DUP3 PUSH2 0x38D JUMP JUMPDEST SWAP2 POP PUSH2 0x74A DUP4 PUSH2 0x38D JUMP JUMPDEST SWAP3 POP DUP3 DUP3 ADD SWAP1 POP DUP1 DUP3 GT ISZERO PUSH2 0x762 JUMPI PUSH2 0x761 PUSH2 0x6C7 JUMP JUMPDEST JUMPDEST SWAP3 SWAP2 POP POP JUMP INVALID LOG2 PUSH5 0x6970667358 0x22 SLT KECCAK256 MCOPY CODECOPY LOG1 STOP 0xA7 MLOAD RETURN DUP7 0xAE BLOCKHASH DUP9 MOD RETURNDATASIZE PUSH8 0x95F87550AC9E5775 SWAP7 0x4C 0xE8 PUSH14 0xA5E3745DE3264736F6C63430008 BYTE STOP CALLER "
				},
				"gasEstimates": {
					"creation": {
						"codeDepositCost": "390000",
						"executionCost": "422",
						"totalCost": "390422"
					},
					"external": {
						"getArray()": "infinite",
						"getElement(uint256)": "infinite",
						"getSumElements()": "infinite",
						"initArray()": "infinite",
						"sumElements(uint256[])": "infinite",
						"uintArray(uint256)": "infinite"
					}
				},
				"methodIdentifiers": {
					"getArray()": "d504ea1d",
					"getElement(uint256)": "3a7d22bc",
					"getSumElements()": "3c0db5d4",
					"initArray()": "82a8181b",
					"sumElements(uint256[])": "f2ab9384",
					"uintArray(uint256)": "9ae918c7"
				}
			},
			"storageLayout": {
				"storage": [
					{
						"astId": 5,
						"contract": "contracts/test_demo/TestArrayDemo.sol:TestArrayDemo",
						"label": "uintArray",
						"offset": 0,
						"slot": "0",
						"type": "t_array(t_uint256)3_storage"
					}
				],
				"types": {
					"t_array(t_uint256)3_storage": {
						"base": "t_uint256",
						"encoding": "inplace",
						"label": "uint256[3]",
						"numberOfBytes": "96"
					},
					"t_uint256": {
						"encoding": "inplace",
						"label": "uint256",
						"numberOfBytes": "32"
					}
				}
			},
			"userdoc": {
				"kind": "user",
				"methods": {},
				"version": 1
			}
		}
	}
}